{"contracts/LoanFactory.sol":{"LoanFactory":{"abi":[{"inputs":[],"stateMutability":"nonpayable","type":"constructor"},{"anonymous":false,"inputs":[{"indexed":true,"internalType":"uint256","name":"loanId","type":"uint256"},{"indexed":true,"internalType":"address","name":"borrower","type":"address"},{"indexed":false,"internalType":"uint256","name":"principal","type":"uint256"},{"indexed":false,"internalType":"uint256","name":"interestRateBps","type":"uint256"},{"indexed":false,"internalType":"uint256","name":"durationDays","type":"uint256"}],"name":"LoanCreated","type":"event"},{"inputs":[{"internalType":"uint256","name":"principal","type":"uint256"},{"internalType":"uint256","name":"interestRateBps","type":"uint256"},{"internalType":"uint256","name":"durationDays","type":"uint256"}],"name":"createLoan","outputs":[{"internalType":"uint256","name":"loanId","type":"uint256"}],"stateMutability":"nonpayable","type":"function"},{"inputs":[],"name":"creditScore","outputs":[{"internalType":"contract CreditScore","name":"","type":"address"}],"stateMutability":"view","type":"function"},{"inputs":[],"name":"getCreditScore","outputs":[{"internalType":"address","name":"","type":"address"}],"stateMutability":"view","type":"function"},{"inputs":[{"internalType":"uint256","name":"loanId","type":"uint256"}],"name":"getLoan","outputs":[{"internalType":"address","name":"","type":"address"}],"stateMutability":"view","type":"function"},{"inputs":[],"name":"listLoans","outputs":[{"internalType":"address[]","name":"","type":"address[]"}],"stateMutability":"view","type":"function"},{"inputs":[],"name":"loanCount","outputs":[{"internalType":"uint256","name":"","type":"uint256"}],"stateMutability":"view","type":"function"},{"inputs":[{"internalType":"uint256","name":"","type":"uint256"}],"name":"loans","outputs":[{"internalType":"contract Loan","name":"","type":"address"}],"stateMutability":"view","type":"function"},{"inputs":[{"internalType":"uint256","name":"loanId","type":"uint256"}],"name":"markLoanDefaulted","outputs":[],"stateMutability":"nonpayable","type":"function"}],"evm":{"bytecode":{"linkReferences":{},"object":"608060405234801561001057600080fd5b503060405161001e9061008a565b61002891906100d9565b604051809103906000f080158015610044573d6000803e3d6000fd5b50600160006101000a81548173ffffffffffffffffffffffffffffffffffffffff021916908373ffffffffffffffffffffffffffffffffffffffff1602179055506100f4565b610f48806200288183390190565b600073ffffffffffffffffffffffffffffffffffffffff82169050919050565b60006100c382610098565b9050919050565b6100d3816100b8565b82525050565b60006020820190506100ee60008301846100ca565b92915050565b61277d80620001046000396000f3fe60806040523480156200001157600080fd5b5060043610620000945760003560e01c8063904b513b1162000063578063904b513b1462000135578063ce63094d146200016b578063d92d7d77146200018d578063e1ec3c6814620001ad5762000094565b806339da31521462000099578063504006ca14620000bb5780635a2c450914620000f15780635da195381462000113575b600080fd5b620000a3620001e3565b604051620000b29190620008e6565b60405180910390f35b620000d96004803603810190620000d3919062000943565b62000209565b604051620000e891906200099a565b60405180910390f35b620000fb6200029d565b6040516200010a919062000a85565b60405180910390f35b6200011d620003ad565b6040516200012c91906200099a565b60405180910390f35b6200015360048036038101906200014d919062000aa9565b620003d7565b60405162000162919062000b16565b60405180910390f35b6200017562000711565b60405162000184919062000b16565b60405180910390f35b620001ab6004803603810190620001a5919062000943565b6200071d565b005b620001cb6004803603810190620001c5919062000943565b6200080d565b604051620001da919062000b58565b60405180910390f35b600160009054906101000a900473ffffffffffffffffffffffffffffffffffffffff1681565b60008080549050821062000254576040517f08c379a00000000000000000000000000000000000000000000000000000000081526004016200024b9062000bd6565b60405180910390fd5b600082815481106200026b576200026a62000bf8565b5b9060005260206000200160009054906101000a900473ffffffffffffffffffffffffffffffffffffffff169050919050565b60606000808054905067ffffffffffffffff811115620002c257620002c162000c27565b5b604051908082528060200260200182016040528015620002f15781602001602082028036833780820191505090505b50905060005b600080549050811015620003a557600081815481106200031c576200031b62000bf8565b5b9060005260206000200160009054906101000a900473ffffffffffffffffffffffffffffffffffffffff168282815181106200035d576200035c62000bf8565b5b602002602001019073ffffffffffffffffffffffffffffffffffffffff16908173ffffffffffffffffffffffffffffffffffffffff16815250508080600101915050620002f7565b508091505090565b6000600160009054906101000a900473ffffffffffffffffffffffffffffffffffffffff16905090565b60008084116200041e576040517f08c379a0000000000000000000000000000000000000000000000000000000008152600401620004159062000ca6565b60405180910390fd5b61271083111562000466576040517f08c379a00000000000000000000000000000000000000000000000000000000081526004016200045d9062000d18565b60405180910390fd5b600182101580156200047a575061016d8211155b620004bc576040517f08c379a0000000000000000000000000000000000000000000000000000000008152600401620004b39062000d8a565b60405180910390fd5b60003385858530600160009054906101000a900473ffffffffffffffffffffffffffffffffffffffff16604051620004f4906200084d565b620005059695949392919062000dac565b604051809103906000f08015801562000522573d6000803e3d6000fd5b50905060008054905091506000819080600181540180825580915050600190039060005260206000200160009091909190916101000a81548173ffffffffffffffffffffffffffffffffffffffff021916908373ffffffffffffffffffffffffffffffffffffffff160217905550600160009054906101000a900473ffffffffffffffffffffffffffffffffffffffff1673ffffffffffffffffffffffffffffffffffffffff166319ed29fa826040518263ffffffff1660e01b8152600401620005ed91906200099a565b600060405180830381600087803b1580156200060857600080fd5b505af11580156200061d573d6000803e3d6000fd5b50505050600160009054906101000a900473ffffffffffffffffffffffffffffffffffffffff1673ffffffffffffffffffffffffffffffffffffffff166364b1235533876040518363ffffffff1660e01b81526004016200068092919062000e19565b600060405180830381600087803b1580156200069b57600080fd5b505af1158015620006b0573d6000803e3d6000fd5b505050503373ffffffffffffffffffffffffffffffffffffffff16827fb2cca1719ad611d325136b9c9a4357f412d33694d93c60d4c1b6e922d524cf59878787604051620007019392919062000e46565b60405180910390a3509392505050565b60008080549050905090565b600080549050811062000767576040517f08c379a00000000000000000000000000000000000000000000000000000000081526004016200075e9062000bd6565b60405180910390fd5b600081815481106200077e576200077d62000bf8565b5b9060005260206000200160009054906101000a900473ffffffffffffffffffffffffffffffffffffffff1673ffffffffffffffffffffffffffffffffffffffff1663dd5412306040518163ffffffff1660e01b8152600401600060405180830381600087803b158015620007f157600080fd5b505af115801562000806573d6000803e3d6000fd5b5050505050565b600081815481106200081e57600080fd5b906000526020600020016000915054906101000a900473ffffffffffffffffffffffffffffffffffffffff1681565b6118c48062000e8483390190565b600073ffffffffffffffffffffffffffffffffffffffff82169050919050565b6000819050919050565b6000620008a6620008a06200089a846200085b565b6200087b565b6200085b565b9050919050565b6000620008ba8262000885565b9050919050565b6000620008ce82620008ad565b9050919050565b620008e081620008c1565b82525050565b6000602082019050620008fd6000830184620008d5565b92915050565b600080fd5b6000819050919050565b6200091d8162000908565b81146200092957600080fd5b50565b6000813590506200093d8162000912565b92915050565b6000602082840312156200095c576200095b62000903565b5b60006200096c848285016200092c565b91505092915050565b600062000982826200085b565b9050919050565b620009948162000975565b82525050565b6000602082019050620009b1600083018462000989565b92915050565b600081519050919050565b600082825260208201905092915050565b6000819050602082019050919050565b620009ee8162000975565b82525050565b600062000a028383620009e3565b60208301905092915050565b6000602082019050919050565b600062000a2882620009b7565b62000a348185620009c2565b935062000a4183620009d3565b8060005b8381101562000a7857815162000a5c8882620009f4565b975062000a698362000a0e565b92505060018101905062000a45565b5085935050505092915050565b6000602082019050818103600083015262000aa1818462000a1b565b905092915050565b60008060006060848603121562000ac55762000ac462000903565b5b600062000ad5868287016200092c565b935050602062000ae8868287016200092c565b925050604062000afb868287016200092c565b9150509250925092565b62000b108162000908565b82525050565b600060208201905062000b2d600083018462000b05565b92915050565b600062000b4082620008ad565b9050919050565b62000b528162000b33565b82525050565b600060208201905062000b6f600083018462000b47565b92915050565b600082825260208201905092915050565b7f496e76616c6964206c6f616e0000000000000000000000000000000000000000600082015250565b600062000bbe600c8362000b75565b915062000bcb8262000b86565b602082019050919050565b6000602082019050818103600083015262000bf18162000baf565b9050919050565b7f4e487b7100000000000000000000000000000000000000000000000000000000600052603260045260246000fd5b7f4e487b7100000000000000000000000000000000000000000000000000000000600052604160045260246000fd5b7f5a65726f207072696e636970616c000000000000000000000000000000000000600082015250565b600062000c8e600e8362000b75565b915062000c9b8262000c56565b602082019050919050565b6000602082019050818103600083015262000cc18162000c7f565b9050919050565b7f496e76616c696420726174650000000000000000000000000000000000000000600082015250565b600062000d00600c8362000b75565b915062000d0d8262000cc8565b602082019050919050565b6000602082019050818103600083015262000d338162000cf1565b9050919050565b7f496e76616c6964206475726174696f6e00000000000000000000000000000000600082015250565b600062000d7260108362000b75565b915062000d7f8262000d3a565b602082019050919050565b6000602082019050818103600083015262000da58162000d63565b9050919050565b600060c08201905062000dc3600083018962000989565b62000dd2602083018862000b05565b62000de1604083018762000b05565b62000df0606083018662000b05565b62000dff608083018562000989565b62000e0e60a083018462000989565b979650505050505050565b600060408201905062000e30600083018562000989565b62000e3f602083018462000b05565b9392505050565b600060608201905062000e5d600083018662000b05565b62000e6c602083018562000b05565b62000e7b604083018462000b05565b94935050505056fe60806040523480156200001157600080fd5b50604051620018c4380380620018c48339818101604052810190620000379190620001ed565b856000806101000a81548173ffffffffffffffffffffffffffffffffffffffff021916908373ffffffffffffffffffffffffffffffffffffffff16021790555084600281905550836003819055508260048190555081600760016101000a81548173ffffffffffffffffffffffffffffffffffffffff021916908373ffffffffffffffffffffffffffffffffffffffff16021790555080600860006101000a81548173ffffffffffffffffffffffffffffffffffffffff021916908373ffffffffffffffffffffffffffffffffffffffff1602179055506000600760006101000a81548160ff0219169083600481111562000137576200013662000289565b5b0217905550505050505050620002b8565b600080fd5b600073ffffffffffffffffffffffffffffffffffffffff82169050919050565b60006200017a826200014d565b9050919050565b6200018c816200016d565b81146200019857600080fd5b50565b600081519050620001ac8162000181565b92915050565b6000819050919050565b620001c781620001b2565b8114620001d357600080fd5b50565b600081519050620001e781620001bc565b92915050565b60008060008060008060c087890312156200020d576200020c62000148565b5b60006200021d89828a016200019b565b96505060206200023089828a01620001d6565b95505060406200024389828a01620001d6565b94505060606200025689828a01620001d6565b93505060806200026989828a016200019b565b92505060a06200027c89828a016200019b565b9150509295509295509295565b7f4e487b7100000000000000000000000000000000000000000000000000000000600052602160045260246000fd5b6115fc80620002c86000396000f3fe6080604052600436106100dd5760003560e01c8063b60d42881161007f578063c45a015511610059578063c45a01551461024e578063c84a208b14610279578063d746d0b2146102a4578063dd541230146102cf576100dd565b8063b60d4288146101ee578063ba5d3078146101f8578063bcead63e14610223576100dd565b8063402d8883116100bb578063402d8883146101635780637df1f1b91461016d5780639cd56d0314610198578063a9a748ff146101c3576100dd565b806319cc3aaa146100e2578063200d2ed21461010d57806339da315214610138575b600080fd5b3480156100ee57600080fd5b506100f76102e6565b6040516101049190610e43565b60405180910390f35b34801561011957600080fd5b506101226102ec565b60405161012f9190610ed5565b60405180910390f35b34801561014457600080fd5b5061014d6102ff565b60405161015a9190610f6f565b60405180910390f35b61016b610325565b005b34801561017957600080fd5b506101826107b6565b60405161018f9190610fab565b60405180910390f35b3480156101a457600080fd5b506101ad6107da565b6040516101ba9190610e43565b60405180910390f35b3480156101cf57600080fd5b506101d86107e0565b6040516101e59190610e43565b60405180910390f35b6101f66107e6565b005b34801561020457600080fd5b5061020d610a38565b60405161021a9190610e43565b60405180910390f35b34801561022f57600080fd5b50610238610a3e565b6040516102459190610fab565b60405180910390f35b34801561025a57600080fd5b50610263610a64565b6040516102709190610fab565b60405180910390f35b34801561028557600080fd5b5061028e610a8a565b60405161029b9190610e43565b60405180910390f35b3480156102b057600080fd5b506102b9610a90565b6040516102c69190610e43565b60405180910390f35b3480156102db57600080fd5b506102e4610ac6565b005b60065481565b600760009054906101000a900460ff1681565b600860009054906101000a900473ffffffffffffffffffffffffffffffffffffffff1681565b60008054906101000a900473ffffffffffffffffffffffffffffffffffffffff1673ffffffffffffffffffffffffffffffffffffffff163373ffffffffffffffffffffffffffffffffffffffff16146103b3576040517f08c379a00000000000000000000000000000000000000000000000000000000081526004016103aa90611023565b60405180910390fd5b600260048111156103c7576103c6610e5e565b5b600760009054906101000a900460ff1660048111156103e9576103e8610e5e565b5b14610429576040517f08c379a00000000000000000000000000000000000000000000000000000000081526004016104209061108f565b60405180910390fd5b600061271060035460025461043e91906110de565b610448919061114f565b905060008160025461045a9190611180565b90508034101561049f576040517f08c379a000000000000000000000000000000000000000000000000000000000815260040161049690611200565b60405180910390fd5b6003600760006101000a81548160ff021916908360048111156104c5576104c4610e5e565b5b021790555060006006544211159050600860009054906101000a900473ffffffffffffffffffffffffffffffffffffffff1673ffffffffffffffffffffffffffffffffffffffff1663c48f139260008054906101000a900473ffffffffffffffffffffffffffffffffffffffff16600254846040518463ffffffff1660e01b81526004016105559392919061123b565b600060405180830381600087803b15801561056f57600080fd5b505af1158015610583573d6000803e3d6000fd5b505050506000600160009054906101000a900473ffffffffffffffffffffffffffffffffffffffff1673ffffffffffffffffffffffffffffffffffffffff16836040516105cf906112a3565b60006040518083038185875af1925050503d806000811461060c576040519150601f19603f3d011682016040523d82523d6000602084013e610611565b606091505b5050905080610655576040517f08c379a000000000000000000000000000000000000000000000000000000000815260040161064c90611304565b60405180910390fd5b600083346106639190611324565b9050600081111561073d5760008060009054906101000a900473ffffffffffffffffffffffffffffffffffffffff1673ffffffffffffffffffffffffffffffffffffffff16826040516106b5906112a3565b60006040518083038185875af1925050503d80600081146106f2576040519150601f19603f3d011682016040523d82523d6000602084013e6106f7565b606091505b505090508061073b576040517f08c379a0000000000000000000000000000000000000000000000000000000008152600401610732906113a4565b60405180910390fd5b505b60008054906101000a900473ffffffffffffffffffffffffffffffffffffffff1673ffffffffffffffffffffffffffffffffffffffff167fc7ce0a35f17b490de2a317e7fecb2cae86b1abffb03800b2f492823521382698600254876040516107a79291906113c4565b60405180910390a25050505050565b60008054906101000a900473ffffffffffffffffffffffffffffffffffffffff1681565b60045481565b60055481565b600060048111156107fa576107f9610e5e565b5b600760009054906101000a900460ff16600481111561081c5761081b610e5e565b5b1461085c576040517f08c379a00000000000000000000000000000000000000000000000000000000081526004016108539061108f565b60405180910390fd5b6002543410156108a1576040517f08c379a000000000000000000000000000000000000000000000000000000000815260040161089890611439565b60405180910390fd5b60008054906101000a900473ffffffffffffffffffffffffffffffffffffffff1673ffffffffffffffffffffffffffffffffffffffff163373ffffffffffffffffffffffffffffffffffffffff160361092f576040517f08c379a0000000000000000000000000000000000000000000000000000000008152600401610926906114a5565b60405180910390fd5b33600160006101000a81548173ffffffffffffffffffffffffffffffffffffffff021916908373ffffffffffffffffffffffffffffffffffffffff160217905550426005819055506201518060045461098891906110de565b426109939190611180565b6006819055506002600760006101000a81548160ff021916908360048111156109bf576109be610e5e565b5b0217905550600160009054906101000a900473ffffffffffffffffffffffffffffffffffffffff1673ffffffffffffffffffffffffffffffffffffffff167f726d5f1a838fe31748f737fa3ae5539ccff95952adfc593a1299532b643ff7a8600254604051610a2e9190610e43565b60405180910390a2565b60025481565b600160009054906101000a900473ffffffffffffffffffffffffffffffffffffffff1681565b600760019054906101000a900473ffffffffffffffffffffffffffffffffffffffff1681565b60035481565b600080612710600354600254610aa691906110de565b610ab0919061114f565b905080600254610ac09190611180565b91505090565b600760019054906101000a900473ffffffffffffffffffffffffffffffffffffffff1673ffffffffffffffffffffffffffffffffffffffff163373ffffffffffffffffffffffffffffffffffffffff1614610b56576040517f08c379a0000000000000000000000000000000000000000000000000000000008152600401610b4d90611511565b60405180910390fd5b60026004811115610b6a57610b69610e5e565b5b600760009054906101000a900460ff166004811115610b8c57610b8b610e5e565b5b14610bcc576040517f08c379a0000000000000000000000000000000000000000000000000000000008152600401610bc39061108f565b60405180910390fd5b6006544211610c10576040517f08c379a0000000000000000000000000000000000000000000000000000000008152600401610c079061157d565b60405180910390fd5b6004600760006101000a81548160ff02191690836004811115610c3657610c35610e5e565b5b0217905550600860009054906101000a900473ffffffffffffffffffffffffffffffffffffffff1673ffffffffffffffffffffffffffffffffffffffff1663cd4544f260008054906101000a900473ffffffffffffffffffffffffffffffffffffffff166002546040518363ffffffff1660e01b8152600401610cba92919061159d565b600060405180830381600087803b158015610cd457600080fd5b505af1158015610ce8573d6000803e3d6000fd5b505050506000471115610dc5576000600160009054906101000a900473ffffffffffffffffffffffffffffffffffffffff1673ffffffffffffffffffffffffffffffffffffffff1647604051610d3d906112a3565b60006040518083038185875af1925050503d8060008114610d7a576040519150601f19603f3d011682016040523d82523d6000602084013e610d7f565b606091505b5050905080610dc3576040517f08c379a0000000000000000000000000000000000000000000000000000000008152600401610dba90611304565b60405180910390fd5b505b60008054906101000a900473ffffffffffffffffffffffffffffffffffffffff1673ffffffffffffffffffffffffffffffffffffffff167ff4e5cf42cbb1d0c6c91e16d925349feb6c5d970652f6ec77b1ff1262f7284cd560405160405180910390a2565b6000819050919050565b610e3d81610e2a565b82525050565b6000602082019050610e586000830184610e34565b92915050565b7f4e487b7100000000000000000000000000000000000000000000000000000000600052602160045260246000fd5b60058110610e9e57610e9d610e5e565b5b50565b6000819050610eaf82610e8d565b919050565b6000610ebf82610ea1565b9050919050565b610ecf81610eb4565b82525050565b6000602082019050610eea6000830184610ec6565b92915050565b600073ffffffffffffffffffffffffffffffffffffffff82169050919050565b6000819050919050565b6000610f35610f30610f2b84610ef0565b610f10565b610ef0565b9050919050565b6000610f4782610f1a565b9050919050565b6000610f5982610f3c565b9050919050565b610f6981610f4e565b82525050565b6000602082019050610f846000830184610f60565b92915050565b6000610f9582610ef0565b9050919050565b610fa581610f8a565b82525050565b6000602082019050610fc06000830184610f9c565b92915050565b600082825260208201905092915050565b7f4f6e6c7920626f72726f77657200000000000000000000000000000000000000600082015250565b600061100d600d83610fc6565b915061101882610fd7565b602082019050919050565b6000602082019050818103600083015261103c81611000565b9050919050565b7f496e76616c696420737461747573000000000000000000000000000000000000600082015250565b6000611079600e83610fc6565b915061108482611043565b602082019050919050565b600060208201905081810360008301526110a88161106c565b9050919050565b7f4e487b7100000000000000000000000000000000000000000000000000000000600052601160045260246000fd5b60006110e982610e2a565b91506110f483610e2a565b925082820261110281610e2a565b91508282048414831517611119576111186110af565b5b5092915050565b7f4e487b7100000000000000000000000000000000000000000000000000000000600052601260045260246000fd5b600061115a82610e2a565b915061116583610e2a565b92508261117557611174611120565b5b828204905092915050565b600061118b82610e2a565b915061119683610e2a565b92508282019050808211156111ae576111ad6110af565b5b92915050565b7f496e73756666696369656e742072657061796d656e7400000000000000000000600082015250565b60006111ea601683610fc6565b91506111f5826111b4565b602082019050919050565b60006020820190508181036000830152611219816111dd565b9050919050565b60008115159050919050565b61123581611220565b82525050565b60006060820190506112506000830186610f9c565b61125d6020830185610e34565b61126a604083018461122c565b949350505050565b600081905092915050565b50565b600061128d600083611272565b91506112988261127d565b600082019050919050565b60006112ae82611280565b9150819050919050565b7f5472616e73666572206661696c65640000000000000000000000000000000000600082015250565b60006112ee600f83610fc6565b91506112f9826112b8565b602082019050919050565b6000602082019050818103600083015261131d816112e1565b9050919050565b600061132f82610e2a565b915061133a83610e2a565b9250828203905081811115611352576113516110af565b5b92915050565b7f526566756e64206661696c656400000000000000000000000000000000000000600082015250565b600061138e600d83610fc6565b915061139982611358565b602082019050919050565b600060208201905081810360008301526113bd81611381565b9050919050565b60006040820190506113d96000830185610e34565b6113e66020830184610e34565b9392505050565b7f496e73756666696369656e742066756e64730000000000000000000000000000600082015250565b6000611423601283610fc6565b915061142e826113ed565b602082019050919050565b6000602082019050818103600083015261145281611416565b9050919050565b7f426f72726f7765722063616e6e6f742066756e64206f776e206c6f616e000000600082015250565b600061148f601d83610fc6565b915061149a82611459565b602082019050919050565b600060208201905081810360008301526114be81611482565b9050919050565b7f4f6e6c7920666163746f72790000000000000000000000000000000000000000600082015250565b60006114fb600c83610fc6565b9150611506826114c5565b602082019050919050565b6000602082019050818103600083015261152a816114ee565b9050919050565b7f4e6f7420796574206f7665726475650000000000000000000000000000000000600082015250565b6000611567600f83610fc6565b915061157282611531565b602082019050919050565b600060208201905081810360008301526115968161155a565b9050919050565b60006040820190506115b26000830185610f9c565b6115bf6020830184610e34565b939250505056fea264697066735822122053e4792fd45b5cc2ee3536acdd413f8dbd2e8634cc87c8c357932ad5b37e22b964736f6c63430008180033a26469706673582212201f37ff4be3dab9ba471e4684a8b34bb3a17990708051543a335d85b6db17bae164736f6c63430008180033608060405234801561001057600080fd5b50604051610f48380380610f48833981810160405281019061003291906100dc565b80600160006101000a81548173ffffffffffffffffffffffffffffffffffffffff021916908373ffffffffffffffffffffffffffffffffffffffff16021790555050610109565b600080fd5b600073ffffffffffffffffffffffffffffffffffffffff82169050919050565b60006100a98261007e565b9050919050565b6100b98161009e565b81146100c457600080fd5b50565b6000815190506100d6816100b0565b92915050565b6000602082840312156100f2576100f1610079565b5b6000610100848285016100c7565b91505092915050565b610e30806101186000396000f3fe608060405234801561001057600080fd5b50600436106100b45760003560e01c8063b37ed8cd11610071578063b37ed8cd14610192578063bf15e017146101b0578063c48f1392146101ce578063cd4544f2146101ea578063d47875d014610206578063db2db17714610236576100b4565b806319ed29fa146100b9578063469e9067146100d557806364b123551461010a5780637effe5681461012657806390b439481461014457806393e9b13e14610162575b600080fd5b6100d360048036038101906100ce91906109cb565b610254565b005b6100ef60048036038101906100ea91906109cb565b61033f565b60405161010196959493929190610a11565b60405180910390f35b610124600480360381019061011f9190610a9e565b61037b565b005b61012e610468565b60405161013b9190610ade565b60405180910390f35b61014c61046e565b6040516101599190610ade565b60405180910390f35b61017c600480360381019061017791906109cb565b610473565b6040516101899190610b14565b60405180910390f35b61019a610493565b6040516101a79190610b3e565b60405180910390f35b6101b86104b9565b6040516101c59190610ade565b60405180910390f35b6101e860048036038101906101e39190610b85565b6104be565b005b61020460048036038101906101ff9190610a9e565b61064d565b005b610220600480360381019061021b91906109cb565b6107b8565b60405161022d9190610ade565b60405180910390f35b61023e610854565b60405161024b9190610ade565b60405180910390f35b600160009054906101000a900473ffffffffffffffffffffffffffffffffffffffff1673ffffffffffffffffffffffffffffffffffffffff163373ffffffffffffffffffffffffffffffffffffffff16146102e4576040517f08c379a00000000000000000000000000000000000000000000000000000000081526004016102db90610c35565b60405180910390fd5b6001600260008373ffffffffffffffffffffffffffffffffffffffff1673ffffffffffffffffffffffffffffffffffffffff16815260200190815260200160002060006101000a81548160ff02191690831515021790555050565b60006020528060005260406000206000915090508060000154908060010154908060020154908060030154908060040154908060050154905086565b600160009054906101000a900473ffffffffffffffffffffffffffffffffffffffff1673ffffffffffffffffffffffffffffffffffffffff163373ffffffffffffffffffffffffffffffffffffffff161461040b576040517f08c379a000000000000000000000000000000000000000000000000000000000815260040161040290610c35565b60405180910390fd5b60016000808473ffffffffffffffffffffffffffffffffffffffff1673ffffffffffffffffffffffffffffffffffffffff168152602001908152602001600020600001600082825461045d9190610c84565b925050819055505050565b6101f481565b600281565b60026020528060005260406000206000915054906101000a900460ff1681565b600160009054906101000a900473ffffffffffffffffffffffffffffffffffffffff1681565b603281565b600160009054906101000a900473ffffffffffffffffffffffffffffffffffffffff1673ffffffffffffffffffffffffffffffffffffffff163373ffffffffffffffffffffffffffffffffffffffff1614806105635750600260003373ffffffffffffffffffffffffffffffffffffffff1673ffffffffffffffffffffffffffffffffffffffff16815260200190815260200160002060009054906101000a900460ff165b6105a2576040517f08c379a000000000000000000000000000000000000000000000000000000000815260040161059990610d04565b60405180910390fd5b60008060008573ffffffffffffffffffffffffffffffffffffffff1673ffffffffffffffffffffffffffffffffffffffff168152602001908152602001600020905060018160010160008282546105f99190610c84565b92505081905550811561062357600181600201600082825461061b9190610c84565b925050819055505b828160040160008282546106379190610c84565b9250508190555061064784610859565b50505050565b600160009054906101000a900473ffffffffffffffffffffffffffffffffffffffff1673ffffffffffffffffffffffffffffffffffffffff163373ffffffffffffffffffffffffffffffffffffffff1614806106f25750600260003373ffffffffffffffffffffffffffffffffffffffff1673ffffffffffffffffffffffffffffffffffffffff16815260200190815260200160002060009054906101000a900460ff165b610731576040517f08c379a000000000000000000000000000000000000000000000000000000000815260040161072890610d04565b60405180910390fd5b60008060008473ffffffffffffffffffffffffffffffffffffffff1673ffffffffffffffffffffffffffffffffffffffff168152602001908152602001600020905060018160030160008282546107889190610c84565b92505081905550818160040160008282546107a39190610c84565b925050819055506107b383610859565b505050565b6000806000808473ffffffffffffffffffffffffffffffffffffffff1673ffffffffffffffffffffffffffffffffffffffff1681526020019081526020016000206005015414610849576000808373ffffffffffffffffffffffffffffffffffffffff1673ffffffffffffffffffffffffffffffffffffffff1681526020019081526020016000206005015461084d565b6101f45b9050919050565b601481565b60008060008373ffffffffffffffffffffffffffffffffffffffff1673ffffffffffffffffffffffffffffffffffffffff16815260200190815260200160002090506000808260010154116108af5760646108d0565b8160010154606483600201546108c59190610d24565b6108cf9190610d95565b5b905060006101f49050601483600101546108ea9190610d24565b816108f59190610c84565b9050600a6002836109069190610d24565b6109109190610d95565b8161091b9190610c84565b9050600083600301541115610949576032836003015461093b9190610d24565b816109469190610dc6565b90505b6000811161095857600061095a565b805b836005018190555050505050565b600080fd5b600073ffffffffffffffffffffffffffffffffffffffff82169050919050565b60006109988261096d565b9050919050565b6109a88161098d565b81146109b357600080fd5b50565b6000813590506109c58161099f565b92915050565b6000602082840312156109e1576109e0610968565b5b60006109ef848285016109b6565b91505092915050565b6000819050919050565b610a0b816109f8565b82525050565b600060c082019050610a266000830189610a02565b610a336020830188610a02565b610a406040830187610a02565b610a4d6060830186610a02565b610a5a6080830185610a02565b610a6760a0830184610a02565b979650505050505050565b610a7b816109f8565b8114610a8657600080fd5b50565b600081359050610a9881610a72565b92915050565b60008060408385031215610ab557610ab4610968565b5b6000610ac3858286016109b6565b9250506020610ad485828601610a89565b9150509250929050565b6000602082019050610af36000830184610a02565b92915050565b60008115159050919050565b610b0e81610af9565b82525050565b6000602082019050610b296000830184610b05565b92915050565b610b388161098d565b82525050565b6000602082019050610b536000830184610b2f565b92915050565b610b6281610af9565b8114610b6d57600080fd5b50565b600081359050610b7f81610b59565b92915050565b600080600060608486031215610b9e57610b9d610968565b5b6000610bac868287016109b6565b9350506020610bbd86828701610a89565b9250506040610bce86828701610b70565b9150509250925092565b600082825260208201905092915050565b7f4f6e6c79204c6f616e466163746f727900000000000000000000000000000000600082015250565b6000610c1f601083610bd8565b9150610c2a82610be9565b602082019050919050565b60006020820190508181036000830152610c4e81610c12565b9050919050565b7f4e487b7100000000000000000000000000000000000000000000000000000000600052601160045260246000fd5b6000610c8f826109f8565b9150610c9a836109f8565b9250828201905080821115610cb257610cb1610c55565b5b92915050565b7f4f6e6c79204c6f616e466163746f7279206f72204c6f616e0000000000000000600082015250565b6000610cee601883610bd8565b9150610cf982610cb8565b602082019050919050565b60006020820190508181036000830152610d1d81610ce1565b9050919050565b6000610d2f826109f8565b9150610d3a836109f8565b9250828202610d48816109f8565b91508282048414831517610d5f57610d5e610c55565b5b5092915050565b7f4e487b7100000000000000000000000000000000000000000000000000000000600052601260045260246000fd5b6000610da0826109f8565b9150610dab836109f8565b925082610dbb57610dba610d66565b5b828204905092915050565b6000610dd1826109f8565b9150610ddc836109f8565b9250828203905081811115610df457610df3610c55565b5b9291505056fea2646970667358221220f599773bd90e76a5804957c5ab17c6df8d5eb98f6a37fc814863af7e6d1bb45064736f6c63430008180033","opcodes":"PUSH1 0x80 PUSH1 0x40 MSTORE CALLVALUE DUP1 ISZERO PUSH2 0x10 JUMPI PUSH1 0x0 DUP1 REVERT JUMPDEST POP ADDRESS PUSH1 0x40 MLOAD PUSH2 0x1E SWAP1 PUSH2 0x8A JUMP JUMPDEST PUSH2 0x28 SWAP2 SWAP1 PUSH2 0xD9 JUMP JUMPDEST PUSH1 0x40 MLOAD DUP1 SWAP2 SUB SWAP1 PUSH1 0x0 CREATE DUP1 ISZERO DUP1 ISZERO PUSH2 0x44 JUMPI RETURNDATASIZE PUSH1 0x0 DUP1 RETURNDATACOPY RETURNDATASIZE PUSH1 0x0 REVERT JUMPDEST POP PUSH1 0x1 PUSH1 0x0 PUSH2 0x100 EXP DUP2 SLOAD DUP2 PUSH20 0xFFFFFFFFFFFFFFFFFFFFFFFFFFFFFFFFFFFFFFFF MUL NOT AND SWAP1 DUP4 PUSH20 0xFFFFFFFFFFFFFFFFFFFFFFFFFFFFFFFFFFFFFFFF AND MUL OR SWAP1 SSTORE POP PUSH2 0xF4 JUMP JUMPDEST PUSH2 0xF48 DUP1 PUSH3 0x2881 DUP4 CODECOPY ADD SWAP1 JUMP JUMPDEST PUSH1 0x0 PUSH20 0xFFFFFFFFFFFFFFFFFFFFFFFFFFFFFFFFFFFFFFFF DUP3 AND SWAP1 POP SWAP2 SWAP1 POP JUMP JUMPDEST PUSH1 0x0 PUSH2 0xC3 DUP3 PUSH2 0x98 JUMP JUMPDEST SWAP1 POP SWAP2 SWAP1 POP JUMP JUMPDEST PUSH2 0xD3 DUP2 PUSH2 0xB8 JUMP JUMPDEST DUP3 MSTORE POP POP JUMP JUMPDEST PUSH1 0x0 PUSH1 0x20 DUP3 ADD SWAP1 POP PUSH2 0xEE PUSH1 0x0 DUP4 ADD DUP5 PUSH2 0xCA JUMP JUMPDEST SWAP3 SWAP2 POP POP JUMP JUMPDEST PUSH2 0x277D DUP1 PUSH3 0x104 PUSH1 0x0 CODECOPY PUSH1 0x0 RETURN INVALID PUSH1 0x80 PUSH1 0x40 MSTORE CALLVALUE DUP1 ISZERO PUSH3 0x11 JUMPI PUSH1 0x0 DUP1 REVERT JUMPDEST POP PUSH1 0x4 CALLDATASIZE LT PUSH3 0x94 JUMPI PUSH1 0x0 CALLDATALOAD PUSH1 0xE0 SHR DUP1 PUSH4 0x904B513B GT PUSH3 0x63 JUMPI DUP1 PUSH4 0x904B513B EQ PUSH3 0x135 JUMPI DUP1 PUSH4 0xCE63094D EQ PUSH3 0x16B JUMPI DUP1 PUSH4 0xD92D7D77 EQ PUSH3 0x18D JUMPI DUP1 PUSH4 0xE1EC3C68 EQ PUSH3 0x1AD JUMPI PUSH3 0x94 JUMP JUMPDEST DUP1 PUSH4 0x39DA3152 EQ PUSH3 0x99 JUMPI DUP1 PUSH4 0x504006CA EQ PUSH3 0xBB JUMPI DUP1 PUSH4 0x5A2C4509 EQ PUSH3 0xF1 JUMPI DUP1 PUSH4 0x5DA19538 EQ PUSH3 0x113 JUMPI JUMPDEST PUSH1 0x0 DUP1 REVERT JUMPDEST PUSH3 0xA3 PUSH3 0x1E3 JUMP JUMPDEST PUSH1 0x40 MLOAD PUSH3 0xB2 SWAP2 SWAP1 PUSH3 0x8E6 JUMP JUMPDEST PUSH1 0x40 MLOAD DUP1 SWAP2 SUB SWAP1 RETURN JUMPDEST PUSH3 0xD9 PUSH1 0x4 DUP1 CALLDATASIZE SUB DUP2 ADD SWAP1 PUSH3 0xD3 SWAP2 SWAP1 PUSH3 0x943 JUMP JUMPDEST PUSH3 0x209 JUMP JUMPDEST PUSH1 0x40 MLOAD PUSH3 0xE8 SWAP2 SWAP1 PUSH3 0x99A JUMP JUMPDEST PUSH1 0x40 MLOAD DUP1 SWAP2 SUB SWAP1 RETURN JUMPDEST PUSH3 0xFB PUSH3 0x29D JUMP JUMPDEST PUSH1 0x40 MLOAD PUSH3 0x10A SWAP2 SWAP1 PUSH3 0xA85 JUMP JUMPDEST PUSH1 0x40 MLOAD DUP1 SWAP2 SUB SWAP1 RETURN JUMPDEST PUSH3 0x11D PUSH3 0x3AD JUMP JUMPDEST PUSH1 0x40 MLOAD PUSH3 0x12C SWAP2 SWAP1 PUSH3 0x99A JUMP JUMPDEST PUSH1 0x40 MLOAD DUP1 SWAP2 SUB SWAP1 RETURN JUMPDEST PUSH3 0x153 PUSH1 0x4 DUP1 CALLDATASIZE SUB DUP2 ADD SWAP1 PUSH3 0x14D SWAP2 SWAP1 PUSH3 0xAA9 JUMP JUMPDEST PUSH3 0x3D7 JUMP JUMPDEST PUSH1 0x40 MLOAD PUSH3 0x162 SWAP2 SWAP1 PUSH3 0xB16 JUMP JUMPDEST PUSH1 0x40 MLOAD DUP1 SWAP2 SUB SWAP1 RETURN JUMPDEST PUSH3 0x175 PUSH3 0x711 JUMP JUMPDEST PUSH1 0x40 MLOAD PUSH3 0x184 SWAP2 SWAP1 PUSH3 0xB16 JUMP JUMPDEST PUSH1 0x40 MLOAD DUP1 SWAP2 SUB SWAP1 RETURN JUMPDEST PUSH3 0x1AB PUSH1 0x4 DUP1 CALLDATASIZE SUB DUP2 ADD SWAP1 PUSH3 0x1A5 SWAP2 SWAP1 PUSH3 0x943 JUMP JUMPDEST PUSH3 0x71D JUMP JUMPDEST STOP JUMPDEST PUSH3 0x1CB PUSH1 0x4 DUP1 CALLDATASIZE SUB DUP2 ADD SWAP1 PUSH3 0x1C5 SWAP2 SWAP1 PUSH3 0x943 JUMP JUMPDEST PUSH3 0x80D JUMP JUMPDEST PUSH1 0x40 MLOAD PUSH3 0x1DA SWAP2 SWAP1 PUSH3 0xB58 JUMP JUMPDEST PUSH1 0x40 MLOAD DUP1 SWAP2 SUB SWAP1 RETURN JUMPDEST PUSH1 0x1 PUSH1 0x0 SWAP1 SLOAD SWAP1 PUSH2 0x100 EXP SWAP1 DIV PUSH20 0xFFFFFFFFFFFFFFFFFFFFFFFFFFFFFFFFFFFFFFFF AND DUP2 JUMP JUMPDEST PUSH1 0x0 DUP1 DUP1 SLOAD SWAP1 POP DUP3 LT PUSH3 0x254 JUMPI PUSH1 0x40 MLOAD PUSH32 0x8C379A000000000000000000000000000000000000000000000000000000000 DUP2 MSTORE PUSH1 0x4 ADD PUSH3 0x24B SWAP1 PUSH3 0xBD6 JUMP JUMPDEST PUSH1 0x40 MLOAD DUP1 SWAP2 SUB SWAP1 REVERT JUMPDEST PUSH1 0x0 DUP3 DUP2 SLOAD DUP2 LT PUSH3 0x26B JUMPI PUSH3 0x26A PUSH3 0xBF8 JUMP JUMPDEST JUMPDEST SWAP1 PUSH1 0x0 MSTORE PUSH1 0x20 PUSH1 0x0 KECCAK256 ADD PUSH1 0x0 SWAP1 SLOAD SWAP1 PUSH2 0x100 EXP SWAP1 DIV PUSH20 0xFFFFFFFFFFFFFFFFFFFFFFFFFFFFFFFFFFFFFFFF AND SWAP1 POP SWAP2 SWAP1 POP JUMP JUMPDEST PUSH1 0x60 PUSH1 0x0 DUP1 DUP1 SLOAD SWAP1 POP PUSH8 0xFFFFFFFFFFFFFFFF DUP2 GT ISZERO PUSH3 0x2C2 JUMPI PUSH3 0x2C1 PUSH3 0xC27 JUMP JUMPDEST JUMPDEST PUSH1 0x40 MLOAD SWAP1 DUP1 DUP3 MSTORE DUP1 PUSH1 0x20 MUL PUSH1 0x20 ADD DUP3 ADD PUSH1 0x40 MSTORE DUP1 ISZERO PUSH3 0x2F1 JUMPI DUP2 PUSH1 0x20 ADD PUSH1 0x20 DUP3 MUL DUP1 CALLDATASIZE DUP4 CALLDATACOPY DUP1 DUP3 ADD SWAP2 POP POP SWAP1 POP JUMPDEST POP SWAP1 POP PUSH1 0x0 JUMPDEST PUSH1 0x0 DUP1 SLOAD SWAP1 POP DUP2 LT ISZERO PUSH3 0x3A5 JUMPI PUSH1 0x0 DUP2 DUP2 SLOAD DUP2 LT PUSH3 0x31C JUMPI PUSH3 0x31B PUSH3 0xBF8 JUMP JUMPDEST JUMPDEST SWAP1 PUSH1 0x0 MSTORE PUSH1 0x20 PUSH1 0x0 KECCAK256 ADD PUSH1 0x0 SWAP1 SLOAD SWAP1 PUSH2 0x100 EXP SWAP1 DIV PUSH20 0xFFFFFFFFFFFFFFFFFFFFFFFFFFFFFFFFFFFFFFFF AND DUP3 DUP3 DUP2 MLOAD DUP2 LT PUSH3 0x35D JUMPI PUSH3 0x35C PUSH3 0xBF8 JUMP JUMPDEST JUMPDEST PUSH1 0x20 MUL PUSH1 0x20 ADD ADD SWAP1 PUSH20 0xFFFFFFFFFFFFFFFFFFFFFFFFFFFFFFFFFFFFFFFF AND SWAP1 DUP2 PUSH20 0xFFFFFFFFFFFFFFFFFFFFFFFFFFFFFFFFFFFFFFFF AND DUP2 MSTORE POP POP DUP1 DUP1 PUSH1 0x1 ADD SWAP2 POP POP PUSH3 0x2F7 JUMP JUMPDEST POP DUP1 SWAP2 POP POP SWAP1 JUMP JUMPDEST PUSH1 0x0 PUSH1 0x1 PUSH1 0x0 SWAP1 SLOAD SWAP1 PUSH2 0x100 EXP SWAP1 DIV PUSH20 0xFFFFFFFFFFFFFFFFFFFFFFFFFFFFFFFFFFFFFFFF AND SWAP1 POP SWAP1 JUMP JUMPDEST PUSH1 0x0 DUP1 DUP5 GT PUSH3 0x41E JUMPI PUSH1 0x40 MLOAD PUSH32 0x8C379A000000000000000000000000000000000000000000000000000000000 DUP2 MSTORE PUSH1 0x4 ADD PUSH3 0x415 SWAP1 PUSH3 0xCA6 JUMP JUMPDEST PUSH1 0x40 MLOAD DUP1 SWAP2 SUB SWAP1 REVERT JUMPDEST PUSH2 0x2710 DUP4 GT ISZERO PUSH3 0x466 JUMPI PUSH1 0x40 MLOAD PUSH32 0x8C379A000000000000000000000000000000000000000000000000000000000 DUP2 MSTORE PUSH1 0x4 ADD PUSH3 0x45D SWAP1 PUSH3 0xD18 JUMP JUMPDEST PUSH1 0x40 MLOAD DUP1 SWAP2 SUB SWAP1 REVERT JUMPDEST PUSH1 0x1 DUP3 LT ISZERO DUP1 ISZERO PUSH3 0x47A JUMPI POP PUSH2 0x16D DUP3 GT ISZERO JUMPDEST PUSH3 0x4BC JUMPI PUSH1 0x40 MLOAD PUSH32 0x8C379A000000000000000000000000000000000000000000000000000000000 DUP2 MSTORE PUSH1 0x4 ADD PUSH3 0x4B3 SWAP1 PUSH3 0xD8A JUMP JUMPDEST PUSH1 0x40 MLOAD DUP1 SWAP2 SUB SWAP1 REVERT JUMPDEST PUSH1 0x0 CALLER DUP6 DUP6 DUP6 ADDRESS PUSH1 0x1 PUSH1 0x0 SWAP1 SLOAD SWAP1 PUSH2 0x100 EXP SWAP1 DIV PUSH20 0xFFFFFFFFFFFFFFFFFFFFFFFFFFFFFFFFFFFFFFFF AND PUSH1 0x40 MLOAD PUSH3 0x4F4 SWAP1 PUSH3 0x84D JUMP JUMPDEST PUSH3 0x505 SWAP7 SWAP6 SWAP5 SWAP4 SWAP3 SWAP2 SWAP1 PUSH3 0xDAC JUMP JUMPDEST PUSH1 0x40 MLOAD DUP1 SWAP2 SUB SWAP1 PUSH1 0x0 CREATE DUP1 ISZERO DUP1 ISZERO PUSH3 0x522 JUMPI RETURNDATASIZE PUSH1 0x0 DUP1 RETURNDATACOPY RETURNDATASIZE PUSH1 0x0 REVERT JUMPDEST POP SWAP1 POP PUSH1 0x0 DUP1 SLOAD SWAP1 POP SWAP2 POP PUSH1 0x0 DUP2 SWAP1 DUP1 PUSH1 0x1 DUP2 SLOAD ADD DUP1 DUP3 SSTORE DUP1 SWAP2 POP POP PUSH1 0x1 SWAP1 SUB SWAP1 PUSH1 0x0 MSTORE PUSH1 0x20 PUSH1 0x0 KECCAK256 ADD PUSH1 0x0 SWAP1 SWAP2 SWAP1 SWAP2 SWAP1 SWAP2 PUSH2 0x100 EXP DUP2 SLOAD DUP2 PUSH20 0xFFFFFFFFFFFFFFFFFFFFFFFFFFFFFFFFFFFFFFFF MUL NOT AND SWAP1 DUP4 PUSH20 0xFFFFFFFFFFFFFFFFFFFFFFFFFFFFFFFFFFFFFFFF AND MUL OR SWAP1 SSTORE POP PUSH1 0x1 PUSH1 0x0 SWAP1 SLOAD SWAP1 PUSH2 0x100 EXP SWAP1 DIV PUSH20 0xFFFFFFFFFFFFFFFFFFFFFFFFFFFFFFFFFFFFFFFF AND PUSH20 0xFFFFFFFFFFFFFFFFFFFFFFFFFFFFFFFFFFFFFFFF AND PUSH4 0x19ED29FA DUP3 PUSH1 0x40 MLOAD DUP3 PUSH4 0xFFFFFFFF AND PUSH1 0xE0 SHL DUP2 MSTORE PUSH1 0x4 ADD PUSH3 0x5ED SWAP2 SWAP1 PUSH3 0x99A JUMP JUMPDEST PUSH1 0x0 PUSH1 0x40 MLOAD DUP1 DUP4 SUB DUP2 PUSH1 0x0 DUP8 DUP1 EXTCODESIZE ISZERO DUP1 ISZERO PUSH3 0x608 JUMPI PUSH1 0x0 DUP1 REVERT JUMPDEST POP GAS CALL ISZERO DUP1 ISZERO PUSH3 0x61D JUMPI RETURNDATASIZE PUSH1 0x0 DUP1 RETURNDATACOPY RETURNDATASIZE PUSH1 0x0 REVERT JUMPDEST POP POP POP POP PUSH1 0x1 PUSH1 0x0 SWAP1 SLOAD SWAP1 PUSH2 0x100 EXP SWAP1 DIV PUSH20 0xFFFFFFFFFFFFFFFFFFFFFFFFFFFFFFFFFFFFFFFF AND PUSH20 0xFFFFFFFFFFFFFFFFFFFFFFFFFFFFFFFFFFFFFFFF AND PUSH4 0x64B12355 CALLER DUP8 PUSH1 0x40 MLOAD DUP4 PUSH4 0xFFFFFFFF AND PUSH1 0xE0 SHL DUP2 MSTORE PUSH1 0x4 ADD PUSH3 0x680 SWAP3 SWAP2 SWAP1 PUSH3 0xE19 JUMP JUMPDEST PUSH1 0x0 PUSH1 0x40 MLOAD DUP1 DUP4 SUB DUP2 PUSH1 0x0 DUP8 DUP1 EXTCODESIZE ISZERO DUP1 ISZERO PUSH3 0x69B JUMPI PUSH1 0x0 DUP1 REVERT JUMPDEST POP GAS CALL ISZERO DUP1 ISZERO PUSH3 0x6B0 JUMPI RETURNDATASIZE PUSH1 0x0 DUP1 RETURNDATACOPY RETURNDATASIZE PUSH1 0x0 REVERT JUMPDEST POP POP POP POP CALLER PUSH20 0xFFFFFFFFFFFFFFFFFFFFFFFFFFFFFFFFFFFFFFFF AND DUP3 PUSH32 0xB2CCA1719AD611D325136B9C9A4357F412D33694D93C60D4C1B6E922D524CF59 DUP8 DUP8 DUP8 PUSH1 0x40 MLOAD PUSH3 0x701 SWAP4 SWAP3 SWAP2 SWAP1 PUSH3 0xE46 JUMP JUMPDEST PUSH1 0x40 MLOAD DUP1 SWAP2 SUB SWAP1 LOG3 POP SWAP4 SWAP3 POP POP POP JUMP JUMPDEST PUSH1 0x0 DUP1 DUP1 SLOAD SWAP1 POP SWAP1 POP SWAP1 JUMP JUMPDEST PUSH1 0x0 DUP1 SLOAD SWAP1 POP DUP2 LT PUSH3 0x767 JUMPI PUSH1 0x40 MLOAD PUSH32 0x8C379A000000000000000000000000000000000000000000000000000000000 DUP2 MSTORE PUSH1 0x4 ADD PUSH3 0x75E SWAP1 PUSH3 0xBD6 JUMP JUMPDEST PUSH1 0x40 MLOAD DUP1 SWAP2 SUB SWAP1 REVERT JUMPDEST PUSH1 0x0 DUP2 DUP2 SLOAD DUP2 LT PUSH3 0x77E JUMPI PUSH3 0x77D PUSH3 0xBF8 JUMP JUMPDEST JUMPDEST SWAP1 PUSH1 0x0 MSTORE PUSH1 0x20 PUSH1 0x0 KECCAK256 ADD PUSH1 0x0 SWAP1 SLOAD SWAP1 PUSH2 0x100 EXP SWAP1 DIV PUSH20 0xFFFFFFFFFFFFFFFFFFFFFFFFFFFFFFFFFFFFFFFF AND PUSH20 0xFFFFFFFFFFFFFFFFFFFFFFFFFFFFFFFFFFFFFFFF AND PUSH4 0xDD541230 PUSH1 0x40 MLOAD DUP2 PUSH4 0xFFFFFFFF AND PUSH1 0xE0 SHL DUP2 MSTORE PUSH1 0x4 ADD PUSH1 0x0 PUSH1 0x40 MLOAD DUP1 DUP4 SUB DUP2 PUSH1 0x0 DUP8 DUP1 EXTCODESIZE ISZERO DUP1 ISZERO PUSH3 0x7F1 JUMPI PUSH1 0x0 DUP1 REVERT JUMPDEST POP GAS CALL ISZERO DUP1 ISZERO PUSH3 0x806 JUMPI RETURNDATASIZE PUSH1 0x0 DUP1 RETURNDATACOPY RETURNDATASIZE PUSH1 0x0 REVERT JUMPDEST POP POP POP POP POP JUMP JUMPDEST PUSH1 0x0 DUP2 DUP2 SLOAD DUP2 LT PUSH3 0x81E JUMPI PUSH1 0x0 DUP1 REVERT JUMPDEST SWAP1 PUSH1 0x0 MSTORE PUSH1 0x20 PUSH1 0x0 KECCAK256 ADD PUSH1 0x0 SWAP2 POP SLOAD SWAP1 PUSH2 0x100 EXP SWAP1 DIV PUSH20 0xFFFFFFFFFFFFFFFFFFFFFFFFFFFFFFFFFFFFFFFF AND DUP2 JUMP JUMPDEST PUSH2 0x18C4 DUP1 PUSH3 0xE84 DUP4 CODECOPY ADD SWAP1 JUMP JUMPDEST PUSH1 0x0 PUSH20 0xFFFFFFFFFFFFFFFFFFFFFFFFFFFFFFFFFFFFFFFF DUP3 AND SWAP1 POP SWAP2 SWAP1 POP JUMP JUMPDEST PUSH1 0x0 DUP2 SWAP1 POP SWAP2 SWAP1 POP JUMP JUMPDEST PUSH1 0x0 PUSH3 0x8A6 PUSH3 0x8A0 PUSH3 0x89A DUP5 PUSH3 0x85B JUMP JUMPDEST PUSH3 0x87B JUMP JUMPDEST PUSH3 0x85B JUMP JUMPDEST SWAP1 POP SWAP2 SWAP1 POP JUMP JUMPDEST PUSH1 0x0 PUSH3 0x8BA DUP3 PUSH3 0x885 JUMP JUMPDEST SWAP1 POP SWAP2 SWAP1 POP JUMP JUMPDEST PUSH1 0x0 PUSH3 0x8CE DUP3 PUSH3 0x8AD JUMP JUMPDEST SWAP1 POP SWAP2 SWAP1 POP JUMP JUMPDEST PUSH3 0x8E0 DUP2 PUSH3 0x8C1 JUMP JUMPDEST DUP3 MSTORE POP POP JUMP JUMPDEST PUSH1 0x0 PUSH1 0x20 DUP3 ADD SWAP1 POP PUSH3 0x8FD PUSH1 0x0 DUP4 ADD DUP5 PUSH3 0x8D5 JUMP JUMPDEST SWAP3 SWAP2 POP POP JUMP JUMPDEST PUSH1 0x0 DUP1 REVERT JUMPDEST PUSH1 0x0 DUP2 SWAP1 POP SWAP2 SWAP1 POP JUMP JUMPDEST PUSH3 0x91D DUP2 PUSH3 0x908 JUMP JUMPDEST DUP2 EQ PUSH3 0x929 JUMPI PUSH1 0x0 DUP1 REVERT JUMPDEST POP JUMP JUMPDEST PUSH1 0x0 DUP2 CALLDATALOAD SWAP1 POP PUSH3 0x93D DUP2 PUSH3 0x912 JUMP JUMPDEST SWAP3 SWAP2 POP POP JUMP JUMPDEST PUSH1 0x0 PUSH1 0x20 DUP3 DUP5 SUB SLT ISZERO PUSH3 0x95C JUMPI PUSH3 0x95B PUSH3 0x903 JUMP JUMPDEST JUMPDEST PUSH1 0x0 PUSH3 0x96C DUP5 DUP3 DUP6 ADD PUSH3 0x92C JUMP JUMPDEST SWAP2 POP POP SWAP3 SWAP2 POP POP JUMP JUMPDEST PUSH1 0x0 PUSH3 0x982 DUP3 PUSH3 0x85B JUMP JUMPDEST SWAP1 POP SWAP2 SWAP1 POP JUMP JUMPDEST PUSH3 0x994 DUP2 PUSH3 0x975 JUMP JUMPDEST DUP3 MSTORE POP POP JUMP JUMPDEST PUSH1 0x0 PUSH1 0x20 DUP3 ADD SWAP1 POP PUSH3 0x9B1 PUSH1 0x0 DUP4 ADD DUP5 PUSH3 0x989 JUMP JUMPDEST SWAP3 SWAP2 POP POP JUMP JUMPDEST PUSH1 0x0 DUP2 MLOAD SWAP1 POP SWAP2 SWAP1 POP JUMP JUMPDEST PUSH1 0x0 DUP3 DUP3 MSTORE PUSH1 0x20 DUP3 ADD SWAP1 POP SWAP3 SWAP2 POP POP JUMP JUMPDEST PUSH1 0x0 DUP2 SWAP1 POP PUSH1 0x20 DUP3 ADD SWAP1 POP SWAP2 SWAP1 POP JUMP JUMPDEST PUSH3 0x9EE DUP2 PUSH3 0x975 JUMP JUMPDEST DUP3 MSTORE POP POP JUMP JUMPDEST PUSH1 0x0 PUSH3 0xA02 DUP4 DUP4 PUSH3 0x9E3 JUMP JUMPDEST PUSH1 0x20 DUP4 ADD SWAP1 POP SWAP3 SWAP2 POP POP JUMP JUMPDEST PUSH1 0x0 PUSH1 0x20 DUP3 ADD SWAP1 POP SWAP2 SWAP1 POP JUMP JUMPDEST PUSH1 0x0 PUSH3 0xA28 DUP3 PUSH3 0x9B7 JUMP JUMPDEST PUSH3 0xA34 DUP2 DUP6 PUSH3 0x9C2 JUMP JUMPDEST SWAP4 POP PUSH3 0xA41 DUP4 PUSH3 0x9D3 JUMP JUMPDEST DUP1 PUSH1 0x0 JUMPDEST DUP4 DUP2 LT ISZERO PUSH3 0xA78 JUMPI DUP2 MLOAD PUSH3 0xA5C DUP9 DUP3 PUSH3 0x9F4 JUMP JUMPDEST SWAP8 POP PUSH3 0xA69 DUP4 PUSH3 0xA0E JUMP JUMPDEST SWAP3 POP POP PUSH1 0x1 DUP2 ADD SWAP1 POP PUSH3 0xA45 JUMP JUMPDEST POP DUP6 SWAP4 POP POP POP POP SWAP3 SWAP2 POP POP JUMP JUMPDEST PUSH1 0x0 PUSH1 0x20 DUP3 ADD SWAP1 POP DUP2 DUP2 SUB PUSH1 0x0 DUP4 ADD MSTORE PUSH3 0xAA1 DUP2 DUP5 PUSH3 0xA1B JUMP JUMPDEST SWAP1 POP SWAP3 SWAP2 POP POP JUMP JUMPDEST PUSH1 0x0 DUP1 PUSH1 0x0 PUSH1 0x60 DUP5 DUP7 SUB SLT ISZERO PUSH3 0xAC5 JUMPI PUSH3 0xAC4 PUSH3 0x903 JUMP JUMPDEST JUMPDEST PUSH1 0x0 PUSH3 0xAD5 DUP7 DUP3 DUP8 ADD PUSH3 0x92C JUMP JUMPDEST SWAP4 POP POP PUSH1 0x20 PUSH3 0xAE8 DUP7 DUP3 DUP8 ADD PUSH3 0x92C JUMP JUMPDEST SWAP3 POP POP PUSH1 0x40 PUSH3 0xAFB DUP7 DUP3 DUP8 ADD PUSH3 0x92C JUMP JUMPDEST SWAP2 POP POP SWAP3 POP SWAP3 POP SWAP3 JUMP JUMPDEST PUSH3 0xB10 DUP2 PUSH3 0x908 JUMP JUMPDEST DUP3 MSTORE POP POP JUMP JUMPDEST PUSH1 0x0 PUSH1 0x20 DUP3 ADD SWAP1 POP PUSH3 0xB2D PUSH1 0x0 DUP4 ADD DUP5 PUSH3 0xB05 JUMP JUMPDEST SWAP3 SWAP2 POP POP JUMP JUMPDEST PUSH1 0x0 PUSH3 0xB40 DUP3 PUSH3 0x8AD JUMP JUMPDEST SWAP1 POP SWAP2 SWAP1 POP JUMP JUMPDEST PUSH3 0xB52 DUP2 PUSH3 0xB33 JUMP JUMPDEST DUP3 MSTORE POP POP JUMP JUMPDEST PUSH1 0x0 PUSH1 0x20 DUP3 ADD SWAP1 POP PUSH3 0xB6F PUSH1 0x0 DUP4 ADD DUP5 PUSH3 0xB47 JUMP JUMPDEST SWAP3 SWAP2 POP POP JUMP JUMPDEST PUSH1 0x0 DUP3 DUP3 MSTORE PUSH1 0x20 DUP3 ADD SWAP1 POP SWAP3 SWAP2 POP POP JUMP JUMPDEST PUSH32 0x496E76616C6964206C6F616E0000000000000000000000000000000000000000 PUSH1 0x0 DUP3 ADD MSTORE POP JUMP JUMPDEST PUSH1 0x0 PUSH3 0xBBE PUSH1 0xC DUP4 PUSH3 0xB75 JUMP JUMPDEST SWAP2 POP PUSH3 0xBCB DUP3 PUSH3 0xB86 JUMP JUMPDEST PUSH1 0x20 DUP3 ADD SWAP1 POP SWAP2 SWAP1 POP JUMP JUMPDEST PUSH1 0x0 PUSH1 0x20 DUP3 ADD SWAP1 POP DUP2 DUP2 SUB PUSH1 0x0 DUP4 ADD MSTORE PUSH3 0xBF1 DUP2 PUSH3 0xBAF JUMP JUMPDEST SWAP1 POP SWAP2 SWAP1 POP JUMP JUMPDEST PUSH32 0x4E487B7100000000000000000000000000000000000000000000000000000000 PUSH1 0x0 MSTORE PUSH1 0x32 PUSH1 0x4 MSTORE PUSH1 0x24 PUSH1 0x0 REVERT JUMPDEST PUSH32 0x4E487B7100000000000000000000000000000000000000000000000000000000 PUSH1 0x0 MSTORE PUSH1 0x41 PUSH1 0x4 MSTORE PUSH1 0x24 PUSH1 0x0 REVERT JUMPDEST PUSH32 0x5A65726F207072696E636970616C000000000000000000000000000000000000 PUSH1 0x0 DUP3 ADD MSTORE POP JUMP JUMPDEST PUSH1 0x0 PUSH3 0xC8E PUSH1 0xE DUP4 PUSH3 0xB75 JUMP JUMPDEST SWAP2 POP PUSH3 0xC9B DUP3 PUSH3 0xC56 JUMP JUMPDEST PUSH1 0x20 DUP3 ADD SWAP1 POP SWAP2 SWAP1 POP JUMP JUMPDEST PUSH1 0x0 PUSH1 0x20 DUP3 ADD SWAP1 POP DUP2 DUP2 SUB PUSH1 0x0 DUP4 ADD MSTORE PUSH3 0xCC1 DUP2 PUSH3 0xC7F JUMP JUMPDEST SWAP1 POP SWAP2 SWAP1 POP JUMP JUMPDEST PUSH32 0x496E76616C696420726174650000000000000000000000000000000000000000 PUSH1 0x0 DUP3 ADD MSTORE POP JUMP JUMPDEST PUSH1 0x0 PUSH3 0xD00 PUSH1 0xC DUP4 PUSH3 0xB75 JUMP JUMPDEST SWAP2 POP PUSH3 0xD0D DUP3 PUSH3 0xCC8 JUMP JUMPDEST PUSH1 0x20 DUP3 ADD SWAP1 POP SWAP2 SWAP1 POP JUMP JUMPDEST PUSH1 0x0 PUSH1 0x20 DUP3 ADD SWAP1 POP DUP2 DUP2 SUB PUSH1 0x0 DUP4 ADD MSTORE PUSH3 0xD33 DUP2 PUSH3 0xCF1 JUMP JUMPDEST SWAP1 POP SWAP2 SWAP1 POP JUMP JUMPDEST PUSH32 0x496E76616C6964206475726174696F6E00000000000000000000000000000000 PUSH1 0x0 DUP3 ADD MSTORE POP JUMP JUMPDEST PUSH1 0x0 PUSH3 0xD72 PUSH1 0x10 DUP4 PUSH3 0xB75 JUMP JUMPDEST SWAP2 POP PUSH3 0xD7F DUP3 PUSH3 0xD3A JUMP JUMPDEST PUSH1 0x20 DUP3 ADD SWAP1 POP SWAP2 SWAP1 POP JUMP JUMPDEST PUSH1 0x0 PUSH1 0x20 DUP3 ADD SWAP1 POP DUP2 DUP2 SUB PUSH1 0x0 DUP4 ADD MSTORE PUSH3 0xDA5 DUP2 PUSH3 0xD63 JUMP JUMPDEST SWAP1 POP SWAP2 SWAP1 POP JUMP JUMPDEST PUSH1 0x0 PUSH1 0xC0 DUP3 ADD SWAP1 POP PUSH3 0xDC3 PUSH1 0x0 DUP4 ADD DUP10 PUSH3 0x989 JUMP JUMPDEST PUSH3 0xDD2 PUSH1 0x20 DUP4 ADD DUP9 PUSH3 0xB05 JUMP JUMPDEST PUSH3 0xDE1 PUSH1 0x40 DUP4 ADD DUP8 PUSH3 0xB05 JUMP JUMPDEST PUSH3 0xDF0 PUSH1 0x60 DUP4 ADD DUP7 PUSH3 0xB05 JUMP JUMPDEST PUSH3 0xDFF PUSH1 0x80 DUP4 ADD DUP6 PUSH3 0x989 JUMP JUMPDEST PUSH3 0xE0E PUSH1 0xA0 DUP4 ADD DUP5 PUSH3 0x989 JUMP JUMPDEST SWAP8 SWAP7 POP POP POP POP POP POP POP JUMP JUMPDEST PUSH1 0x0 PUSH1 0x40 DUP3 ADD SWAP1 POP PUSH3 0xE30 PUSH1 0x0 DUP4 ADD DUP6 PUSH3 0x989 JUMP JUMPDEST PUSH3 0xE3F PUSH1 0x20 DUP4 ADD DUP5 PUSH3 0xB05 JUMP JUMPDEST SWAP4 SWAP3 POP POP POP JUMP JUMPDEST PUSH1 0x0 PUSH1 0x60 DUP3 ADD SWAP1 POP PUSH3 0xE5D PUSH1 0x0 DUP4 ADD DUP7 PUSH3 0xB05 JUMP JUMPDEST PUSH3 0xE6C PUSH1 0x20 DUP4 ADD DUP6 PUSH3 0xB05 JUMP JUMPDEST PUSH3 0xE7B PUSH1 0x40 DUP4 ADD DUP5 PUSH3 0xB05 JUMP JUMPDEST SWAP5 SWAP4 POP POP POP POP JUMP INVALID PUSH1 0x80 PUSH1 0x40 MSTORE CALLVALUE DUP1 ISZERO PUSH3 0x11 JUMPI PUSH1 0x0 DUP1 REVERT JUMPDEST POP PUSH1 0x40 MLOAD PUSH3 0x18C4 CODESIZE SUB DUP1 PUSH3 0x18C4 DUP4 CODECOPY DUP2 DUP2 ADD PUSH1 0x40 MSTORE DUP2 ADD SWAP1 PUSH3 0x37 SWAP2 SWAP1 PUSH3 0x1ED JUMP JUMPDEST DUP6 PUSH1 0x0 DUP1 PUSH2 0x100 EXP DUP2 SLOAD DUP2 PUSH20 0xFFFFFFFFFFFFFFFFFFFFFFFFFFFFFFFFFFFFFFFF MUL NOT AND SWAP1 DUP4 PUSH20 0xFFFFFFFFFFFFFFFFFFFFFFFFFFFFFFFFFFFFFFFF AND MUL OR SWAP1 SSTORE POP DUP5 PUSH1 0x2 DUP2 SWAP1 SSTORE POP DUP4 PUSH1 0x3 DUP2 SWAP1 SSTORE POP DUP3 PUSH1 0x4 DUP2 SWAP1 SSTORE POP DUP2 PUSH1 0x7 PUSH1 0x1 PUSH2 0x100 EXP DUP2 SLOAD DUP2 PUSH20 0xFFFFFFFFFFFFFFFFFFFFFFFFFFFFFFFFFFFFFFFF MUL NOT AND SWAP1 DUP4 PUSH20 0xFFFFFFFFFFFFFFFFFFFFFFFFFFFFFFFFFFFFFFFF AND MUL OR SWAP1 SSTORE POP DUP1 PUSH1 0x8 PUSH1 0x0 PUSH2 0x100 EXP DUP2 SLOAD DUP2 PUSH20 0xFFFFFFFFFFFFFFFFFFFFFFFFFFFFFFFFFFFFFFFF MUL NOT AND SWAP1 DUP4 PUSH20 0xFFFFFFFFFFFFFFFFFFFFFFFFFFFFFFFFFFFFFFFF AND MUL OR SWAP1 SSTORE POP PUSH1 0x0 PUSH1 0x7 PUSH1 0x0 PUSH2 0x100 EXP DUP2 SLOAD DUP2 PUSH1 0xFF MUL NOT AND SWAP1 DUP4 PUSH1 0x4 DUP2 GT ISZERO PUSH3 0x137 JUMPI PUSH3 0x136 PUSH3 0x289 JUMP JUMPDEST JUMPDEST MUL OR SWAP1 SSTORE POP POP POP POP POP POP POP PUSH3 0x2B8 JUMP JUMPDEST PUSH1 0x0 DUP1 REVERT JUMPDEST PUSH1 0x0 PUSH20 0xFFFFFFFFFFFFFFFFFFFFFFFFFFFFFFFFFFFFFFFF DUP3 AND SWAP1 POP SWAP2 SWAP1 POP JUMP JUMPDEST PUSH1 0x0 PUSH3 0x17A DUP3 PUSH3 0x14D JUMP JUMPDEST SWAP1 POP SWAP2 SWAP1 POP JUMP JUMPDEST PUSH3 0x18C DUP2 PUSH3 0x16D JUMP JUMPDEST DUP2 EQ PUSH3 0x198 JUMPI PUSH1 0x0 DUP1 REVERT JUMPDEST POP JUMP JUMPDEST PUSH1 0x0 DUP2 MLOAD SWAP1 POP PUSH3 0x1AC DUP2 PUSH3 0x181 JUMP JUMPDEST SWAP3 SWAP2 POP POP JUMP JUMPDEST PUSH1 0x0 DUP2 SWAP1 POP SWAP2 SWAP1 POP JUMP JUMPDEST PUSH3 0x1C7 DUP2 PUSH3 0x1B2 JUMP JUMPDEST DUP2 EQ PUSH3 0x1D3 JUMPI PUSH1 0x0 DUP1 REVERT JUMPDEST POP JUMP JUMPDEST PUSH1 0x0 DUP2 MLOAD SWAP1 POP PUSH3 0x1E7 DUP2 PUSH3 0x1BC JUMP JUMPDEST SWAP3 SWAP2 POP POP JUMP JUMPDEST PUSH1 0x0 DUP1 PUSH1 0x0 DUP1 PUSH1 0x0 DUP1 PUSH1 0xC0 DUP8 DUP10 SUB SLT ISZERO PUSH3 0x20D JUMPI PUSH3 0x20C PUSH3 0x148 JUMP JUMPDEST JUMPDEST PUSH1 0x0 PUSH3 0x21D DUP10 DUP3 DUP11 ADD PUSH3 0x19B JUMP JUMPDEST SWAP7 POP POP PUSH1 0x20 PUSH3 0x230 DUP10 DUP3 DUP11 ADD PUSH3 0x1D6 JUMP JUMPDEST SWAP6 POP POP PUSH1 0x40 PUSH3 0x243 DUP10 DUP3 DUP11 ADD PUSH3 0x1D6 JUMP JUMPDEST SWAP5 POP POP PUSH1 0x60 PUSH3 0x256 DUP10 DUP3 DUP11 ADD PUSH3 0x1D6 JUMP JUMPDEST SWAP4 POP POP PUSH1 0x80 PUSH3 0x269 DUP10 DUP3 DUP11 ADD PUSH3 0x19B JUMP JUMPDEST SWAP3 POP POP PUSH1 0xA0 PUSH3 0x27C DUP10 DUP3 DUP11 ADD PUSH3 0x19B JUMP JUMPDEST SWAP2 POP POP SWAP3 SWAP6 POP SWAP3 SWAP6 POP SWAP3 SWAP6 JUMP JUMPDEST PUSH32 0x4E487B7100000000000000000000000000000000000000000000000000000000 PUSH1 0x0 MSTORE PUSH1 0x21 PUSH1 0x4 MSTORE PUSH1 0x24 PUSH1 0x0 REVERT JUMPDEST PUSH2 0x15FC DUP1 PUSH3 0x2C8 PUSH1 0x0 CODECOPY PUSH1 0x0 RETURN INVALID PUSH1 0x80 PUSH1 0x40 MSTORE PUSH1 0x4 CALLDATASIZE LT PUSH2 0xDD JUMPI PUSH1 0x0 CALLDATALOAD PUSH1 0xE0 SHR DUP1 PUSH4 0xB60D4288 GT PUSH2 0x7F JUMPI DUP1 PUSH4 0xC45A0155 GT PUSH2 0x59 JUMPI DUP1 PUSH4 0xC45A0155 EQ PUSH2 0x24E JUMPI DUP1 PUSH4 0xC84A208B EQ PUSH2 0x279 JUMPI DUP1 PUSH4 0xD746D0B2 EQ PUSH2 0x2A4 JUMPI DUP1 PUSH4 0xDD541230 EQ PUSH2 0x2CF JUMPI PUSH2 0xDD JUMP JUMPDEST DUP1 PUSH4 0xB60D4288 EQ PUSH2 0x1EE JUMPI DUP1 PUSH4 0xBA5D3078 EQ PUSH2 0x1F8 JUMPI DUP1 PUSH4 0xBCEAD63E EQ PUSH2 0x223 JUMPI PUSH2 0xDD JUMP JUMPDEST DUP1 PUSH4 0x402D8883 GT PUSH2 0xBB JUMPI DUP1 PUSH4 0x402D8883 EQ PUSH2 0x163 JUMPI DUP1 PUSH4 0x7DF1F1B9 EQ PUSH2 0x16D JUMPI DUP1 PUSH4 0x9CD56D03 EQ PUSH2 0x198 JUMPI DUP1 PUSH4 0xA9A748FF EQ PUSH2 0x1C3 JUMPI PUSH2 0xDD JUMP JUMPDEST DUP1 PUSH4 0x19CC3AAA EQ PUSH2 0xE2 JUMPI DUP1 PUSH4 0x200D2ED2 EQ PUSH2 0x10D JUMPI DUP1 PUSH4 0x39DA3152 EQ PUSH2 0x138 JUMPI JUMPDEST PUSH1 0x0 DUP1 REVERT JUMPDEST CALLVALUE DUP1 ISZERO PUSH2 0xEE JUMPI PUSH1 0x0 DUP1 REVERT JUMPDEST POP PUSH2 0xF7 PUSH2 0x2E6 JUMP JUMPDEST PUSH1 0x40 MLOAD PUSH2 0x104 SWAP2 SWAP1 PUSH2 0xE43 JUMP JUMPDEST PUSH1 0x40 MLOAD DUP1 SWAP2 SUB SWAP1 RETURN JUMPDEST CALLVALUE DUP1 ISZERO PUSH2 0x119 JUMPI PUSH1 0x0 DUP1 REVERT JUMPDEST POP PUSH2 0x122 PUSH2 0x2EC JUMP JUMPDEST PUSH1 0x40 MLOAD PUSH2 0x12F SWAP2 SWAP1 PUSH2 0xED5 JUMP JUMPDEST PUSH1 0x40 MLOAD DUP1 SWAP2 SUB SWAP1 RETURN JUMPDEST CALLVALUE DUP1 ISZERO PUSH2 0x144 JUMPI PUSH1 0x0 DUP1 REVERT JUMPDEST POP PUSH2 0x14D PUSH2 0x2FF JUMP JUMPDEST PUSH1 0x40 MLOAD PUSH2 0x15A SWAP2 SWAP1 PUSH2 0xF6F JUMP JUMPDEST PUSH1 0x40 MLOAD DUP1 SWAP2 SUB SWAP1 RETURN JUMPDEST PUSH2 0x16B PUSH2 0x325 JUMP JUMPDEST STOP JUMPDEST CALLVALUE DUP1 ISZERO PUSH2 0x179 JUMPI PUSH1 0x0 DUP1 REVERT JUMPDEST POP PUSH2 0x182 PUSH2 0x7B6 JUMP JUMPDEST PUSH1 0x40 MLOAD PUSH2 0x18F SWAP2 SWAP1 PUSH2 0xFAB JUMP JUMPDEST PUSH1 0x40 MLOAD DUP1 SWAP2 SUB SWAP1 RETURN JUMPDEST CALLVALUE DUP1 ISZERO PUSH2 0x1A4 JUMPI PUSH1 0x0 DUP1 REVERT JUMPDEST POP PUSH2 0x1AD PUSH2 0x7DA JUMP JUMPDEST PUSH1 0x40 MLOAD PUSH2 0x1BA SWAP2 SWAP1 PUSH2 0xE43 JUMP JUMPDEST PUSH1 0x40 MLOAD DUP1 SWAP2 SUB SWAP1 RETURN JUMPDEST CALLVALUE DUP1 ISZERO PUSH2 0x1CF JUMPI PUSH1 0x0 DUP1 REVERT JUMPDEST POP PUSH2 0x1D8 PUSH2 0x7E0 JUMP JUMPDEST PUSH1 0x40 MLOAD PUSH2 0x1E5 SWAP2 SWAP1 PUSH2 0xE43 JUMP JUMPDEST PUSH1 0x40 MLOAD DUP1 SWAP2 SUB SWAP1 RETURN JUMPDEST PUSH2 0x1F6 PUSH2 0x7E6 JUMP JUMPDEST STOP JUMPDEST CALLVALUE DUP1 ISZERO PUSH2 0x204 JUMPI PUSH1 0x0 DUP1 REVERT JUMPDEST POP PUSH2 0x20D PUSH2 0xA38 JUMP JUMPDEST PUSH1 0x40 MLOAD PUSH2 0x21A SWAP2 SWAP1 PUSH2 0xE43 JUMP JUMPDEST PUSH1 0x40 MLOAD DUP1 SWAP2 SUB SWAP1 RETURN JUMPDEST CALLVALUE DUP1 ISZERO PUSH2 0x22F JUMPI PUSH1 0x0 DUP1 REVERT JUMPDEST POP PUSH2 0x238 PUSH2 0xA3E JUMP JUMPDEST PUSH1 0x40 MLOAD PUSH2 0x245 SWAP2 SWAP1 PUSH2 0xFAB JUMP JUMPDEST PUSH1 0x40 MLOAD DUP1 SWAP2 SUB SWAP1 RETURN JUMPDEST CALLVALUE DUP1 ISZERO PUSH2 0x25A JUMPI PUSH1 0x0 DUP1 REVERT JUMPDEST POP PUSH2 0x263 PUSH2 0xA64 JUMP JUMPDEST PUSH1 0x40 MLOAD PUSH2 0x270 SWAP2 SWAP1 PUSH2 0xFAB JUMP JUMPDEST PUSH1 0x40 MLOAD DUP1 SWAP2 SUB SWAP1 RETURN JUMPDEST CALLVALUE DUP1 ISZERO PUSH2 0x285 JUMPI PUSH1 0x0 DUP1 REVERT JUMPDEST POP PUSH2 0x28E PUSH2 0xA8A JUMP JUMPDEST PUSH1 0x40 MLOAD PUSH2 0x29B SWAP2 SWAP1 PUSH2 0xE43 JUMP JUMPDEST PUSH1 0x40 MLOAD DUP1 SWAP2 SUB SWAP1 RETURN JUMPDEST CALLVALUE DUP1 ISZERO PUSH2 0x2B0 JUMPI PUSH1 0x0 DUP1 REVERT JUMPDEST POP PUSH2 0x2B9 PUSH2 0xA90 JUMP JUMPDEST PUSH1 0x40 MLOAD PUSH2 0x2C6 SWAP2 SWAP1 PUSH2 0xE43 JUMP JUMPDEST PUSH1 0x40 MLOAD DUP1 SWAP2 SUB SWAP1 RETURN JUMPDEST CALLVALUE DUP1 ISZERO PUSH2 0x2DB JUMPI PUSH1 0x0 DUP1 REVERT JUMPDEST POP PUSH2 0x2E4 PUSH2 0xAC6 JUMP JUMPDEST STOP JUMPDEST PUSH1 0x6 SLOAD DUP2 JUMP JUMPDEST PUSH1 0x7 PUSH1 0x0 SWAP1 SLOAD SWAP1 PUSH2 0x100 EXP SWAP1 DIV PUSH1 0xFF AND DUP2 JUMP JUMPDEST PUSH1 0x8 PUSH1 0x0 SWAP1 SLOAD SWAP1 PUSH2 0x100 EXP SWAP1 DIV PUSH20 0xFFFFFFFFFFFFFFFFFFFFFFFFFFFFFFFFFFFFFFFF AND DUP2 JUMP JUMPDEST PUSH1 0x0 DUP1 SLOAD SWAP1 PUSH2 0x100 EXP SWAP1 DIV PUSH20 0xFFFFFFFFFFFFFFFFFFFFFFFFFFFFFFFFFFFFFFFF AND PUSH20 0xFFFFFFFFFFFFFFFFFFFFFFFFFFFFFFFFFFFFFFFF AND CALLER PUSH20 0xFFFFFFFFFFFFFFFFFFFFFFFFFFFFFFFFFFFFFFFF AND EQ PUSH2 0x3B3 JUMPI PUSH1 0x40 MLOAD PUSH32 0x8C379A000000000000000000000000000000000000000000000000000000000 DUP2 MSTORE PUSH1 0x4 ADD PUSH2 0x3AA SWAP1 PUSH2 0x1023 JUMP JUMPDEST PUSH1 0x40 MLOAD DUP1 SWAP2 SUB SWAP1 REVERT JUMPDEST PUSH1 0x2 PUSH1 0x4 DUP2 GT ISZERO PUSH2 0x3C7 JUMPI PUSH2 0x3C6 PUSH2 0xE5E JUMP JUMPDEST JUMPDEST PUSH1 0x7 PUSH1 0x0 SWAP1 SLOAD SWAP1 PUSH2 0x100 EXP SWAP1 DIV PUSH1 0xFF AND PUSH1 0x4 DUP2 GT ISZERO PUSH2 0x3E9 JUMPI PUSH2 0x3E8 PUSH2 0xE5E JUMP JUMPDEST JUMPDEST EQ PUSH2 0x429 JUMPI PUSH1 0x40 MLOAD PUSH32 0x8C379A000000000000000000000000000000000000000000000000000000000 DUP2 MSTORE PUSH1 0x4 ADD PUSH2 0x420 SWAP1 PUSH2 0x108F JUMP JUMPDEST PUSH1 0x40 MLOAD DUP1 SWAP2 SUB SWAP1 REVERT JUMPDEST PUSH1 0x0 PUSH2 0x2710 PUSH1 0x3 SLOAD PUSH1 0x2 SLOAD PUSH2 0x43E SWAP2 SWAP1 PUSH2 0x10DE JUMP JUMPDEST PUSH2 0x448 SWAP2 SWAP1 PUSH2 0x114F JUMP JUMPDEST SWAP1 POP PUSH1 0x0 DUP2 PUSH1 0x2 SLOAD PUSH2 0x45A SWAP2 SWAP1 PUSH2 0x1180 JUMP JUMPDEST SWAP1 POP DUP1 CALLVALUE LT ISZERO PUSH2 0x49F JUMPI PUSH1 0x40 MLOAD PUSH32 0x8C379A000000000000000000000000000000000000000000000000000000000 DUP2 MSTORE PUSH1 0x4 ADD PUSH2 0x496 SWAP1 PUSH2 0x1200 JUMP JUMPDEST PUSH1 0x40 MLOAD DUP1 SWAP2 SUB SWAP1 REVERT JUMPDEST PUSH1 0x3 PUSH1 0x7 PUSH1 0x0 PUSH2 0x100 EXP DUP2 SLOAD DUP2 PUSH1 0xFF MUL NOT AND SWAP1 DUP4 PUSH1 0x4 DUP2 GT ISZERO PUSH2 0x4C5 JUMPI PUSH2 0x4C4 PUSH2 0xE5E JUMP JUMPDEST JUMPDEST MUL OR SWAP1 SSTORE POP PUSH1 0x0 PUSH1 0x6 SLOAD TIMESTAMP GT ISZERO SWAP1 POP PUSH1 0x8 PUSH1 0x0 SWAP1 SLOAD SWAP1 PUSH2 0x100 EXP SWAP1 DIV PUSH20 0xFFFFFFFFFFFFFFFFFFFFFFFFFFFFFFFFFFFFFFFF AND PUSH20 0xFFFFFFFFFFFFFFFFFFFFFFFFFFFFFFFFFFFFFFFF AND PUSH4 0xC48F1392 PUSH1 0x0 DUP1 SLOAD SWAP1 PUSH2 0x100 EXP SWAP1 DIV PUSH20 0xFFFFFFFFFFFFFFFFFFFFFFFFFFFFFFFFFFFFFFFF AND PUSH1 0x2 SLOAD DUP5 PUSH1 0x40 MLOAD DUP5 PUSH4 0xFFFFFFFF AND PUSH1 0xE0 SHL DUP2 MSTORE PUSH1 0x4 ADD PUSH2 0x555 SWAP4 SWAP3 SWAP2 SWAP1 PUSH2 0x123B JUMP JUMPDEST PUSH1 0x0 PUSH1 0x40 MLOAD DUP1 DUP4 SUB DUP2 PUSH1 0x0 DUP8 DUP1 EXTCODESIZE ISZERO DUP1 ISZERO PUSH2 0x56F JUMPI PUSH1 0x0 DUP1 REVERT JUMPDEST POP GAS CALL ISZERO DUP1 ISZERO PUSH2 0x583 JUMPI RETURNDATASIZE PUSH1 0x0 DUP1 RETURNDATACOPY RETURNDATASIZE PUSH1 0x0 REVERT JUMPDEST POP POP POP POP PUSH1 0x0 PUSH1 0x1 PUSH1 0x0 SWAP1 SLOAD SWAP1 PUSH2 0x100 EXP SWAP1 DIV PUSH20 0xFFFFFFFFFFFFFFFFFFFFFFFFFFFFFFFFFFFFFFFF AND PUSH20 0xFFFFFFFFFFFFFFFFFFFFFFFFFFFFFFFFFFFFFFFF AND DUP4 PUSH1 0x40 MLOAD PUSH2 0x5CF SWAP1 PUSH2 0x12A3 JUMP JUMPDEST PUSH1 0x0 PUSH1 0x40 MLOAD DUP1 DUP4 SUB DUP2 DUP6 DUP8 GAS CALL SWAP3 POP POP POP RETURNDATASIZE DUP1 PUSH1 0x0 DUP2 EQ PUSH2 0x60C JUMPI PUSH1 0x40 MLOAD SWAP2 POP PUSH1 0x1F NOT PUSH1 0x3F RETURNDATASIZE ADD AND DUP3 ADD PUSH1 0x40 MSTORE RETURNDATASIZE DUP3 MSTORE RETURNDATASIZE PUSH1 0x0 PUSH1 0x20 DUP5 ADD RETURNDATACOPY PUSH2 0x611 JUMP JUMPDEST PUSH1 0x60 SWAP2 POP JUMPDEST POP POP SWAP1 POP DUP1 PUSH2 0x655 JUMPI PUSH1 0x40 MLOAD PUSH32 0x8C379A000000000000000000000000000000000000000000000000000000000 DUP2 MSTORE PUSH1 0x4 ADD PUSH2 0x64C SWAP1 PUSH2 0x1304 JUMP JUMPDEST PUSH1 0x40 MLOAD DUP1 SWAP2 SUB SWAP1 REVERT JUMPDEST PUSH1 0x0 DUP4 CALLVALUE PUSH2 0x663 SWAP2 SWAP1 PUSH2 0x1324 JUMP JUMPDEST SWAP1 POP PUSH1 0x0 DUP2 GT ISZERO PUSH2 0x73D JUMPI PUSH1 0x0 DUP1 PUSH1 0x0 SWAP1 SLOAD SWAP1 PUSH2 0x100 EXP SWAP1 DIV PUSH20 0xFFFFFFFFFFFFFFFFFFFFFFFFFFFFFFFFFFFFFFFF AND PUSH20 0xFFFFFFFFFFFFFFFFFFFFFFFFFFFFFFFFFFFFFFFF AND DUP3 PUSH1 0x40 MLOAD PUSH2 0x6B5 SWAP1 PUSH2 0x12A3 JUMP JUMPDEST PUSH1 0x0 PUSH1 0x40 MLOAD DUP1 DUP4 SUB DUP2 DUP6 DUP8 GAS CALL SWAP3 POP POP POP RETURNDATASIZE DUP1 PUSH1 0x0 DUP2 EQ PUSH2 0x6F2 JUMPI PUSH1 0x40 MLOAD SWAP2 POP PUSH1 0x1F NOT PUSH1 0x3F RETURNDATASIZE ADD AND DUP3 ADD PUSH1 0x40 MSTORE RETURNDATASIZE DUP3 MSTORE RETURNDATASIZE PUSH1 0x0 PUSH1 0x20 DUP5 ADD RETURNDATACOPY PUSH2 0x6F7 JUMP JUMPDEST PUSH1 0x60 SWAP2 POP JUMPDEST POP POP SWAP1 POP DUP1 PUSH2 0x73B JUMPI PUSH1 0x40 MLOAD PUSH32 0x8C379A000000000000000000000000000000000000000000000000000000000 DUP2 MSTORE PUSH1 0x4 ADD PUSH2 0x732 SWAP1 PUSH2 0x13A4 JUMP JUMPDEST PUSH1 0x40 MLOAD DUP1 SWAP2 SUB SWAP1 REVERT JUMPDEST POP JUMPDEST PUSH1 0x0 DUP1 SLOAD SWAP1 PUSH2 0x100 EXP SWAP1 DIV PUSH20 0xFFFFFFFFFFFFFFFFFFFFFFFFFFFFFFFFFFFFFFFF AND PUSH20 0xFFFFFFFFFFFFFFFFFFFFFFFFFFFFFFFFFFFFFFFF AND PUSH32 0xC7CE0A35F17B490DE2A317E7FECB2CAE86B1ABFFB03800B2F492823521382698 PUSH1 0x2 SLOAD DUP8 PUSH1 0x40 MLOAD PUSH2 0x7A7 SWAP3 SWAP2 SWAP1 PUSH2 0x13C4 JUMP JUMPDEST PUSH1 0x40 MLOAD DUP1 SWAP2 SUB SWAP1 LOG2 POP POP POP POP POP JUMP JUMPDEST PUSH1 0x0 DUP1 SLOAD SWAP1 PUSH2 0x100 EXP SWAP1 DIV PUSH20 0xFFFFFFFFFFFFFFFFFFFFFFFFFFFFFFFFFFFFFFFF AND DUP2 JUMP JUMPDEST PUSH1 0x4 SLOAD DUP2 JUMP JUMPDEST PUSH1 0x5 SLOAD DUP2 JUMP JUMPDEST PUSH1 0x0 PUSH1 0x4 DUP2 GT ISZERO PUSH2 0x7FA JUMPI PUSH2 0x7F9 PUSH2 0xE5E JUMP JUMPDEST JUMPDEST PUSH1 0x7 PUSH1 0x0 SWAP1 SLOAD SWAP1 PUSH2 0x100 EXP SWAP1 DIV PUSH1 0xFF AND PUSH1 0x4 DUP2 GT ISZERO PUSH2 0x81C JUMPI PUSH2 0x81B PUSH2 0xE5E JUMP JUMPDEST JUMPDEST EQ PUSH2 0x85C JUMPI PUSH1 0x40 MLOAD PUSH32 0x8C379A000000000000000000000000000000000000000000000000000000000 DUP2 MSTORE PUSH1 0x4 ADD PUSH2 0x853 SWAP1 PUSH2 0x108F JUMP JUMPDEST PUSH1 0x40 MLOAD DUP1 SWAP2 SUB SWAP1 REVERT JUMPDEST PUSH1 0x2 SLOAD CALLVALUE LT ISZERO PUSH2 0x8A1 JUMPI PUSH1 0x40 MLOAD PUSH32 0x8C379A000000000000000000000000000000000000000000000000000000000 DUP2 MSTORE PUSH1 0x4 ADD PUSH2 0x898 SWAP1 PUSH2 0x1439 JUMP JUMPDEST PUSH1 0x40 MLOAD DUP1 SWAP2 SUB SWAP1 REVERT JUMPDEST PUSH1 0x0 DUP1 SLOAD SWAP1 PUSH2 0x100 EXP SWAP1 DIV PUSH20 0xFFFFFFFFFFFFFFFFFFFFFFFFFFFFFFFFFFFFFFFF AND PUSH20 0xFFFFFFFFFFFFFFFFFFFFFFFFFFFFFFFFFFFFFFFF AND CALLER PUSH20 0xFFFFFFFFFFFFFFFFFFFFFFFFFFFFFFFFFFFFFFFF AND SUB PUSH2 0x92F JUMPI PUSH1 0x40 MLOAD PUSH32 0x8C379A000000000000000000000000000000000000000000000000000000000 DUP2 MSTORE PUSH1 0x4 ADD PUSH2 0x926 SWAP1 PUSH2 0x14A5 JUMP JUMPDEST PUSH1 0x40 MLOAD DUP1 SWAP2 SUB SWAP1 REVERT JUMPDEST CALLER PUSH1 0x1 PUSH1 0x0 PUSH2 0x100 EXP DUP2 SLOAD DUP2 PUSH20 0xFFFFFFFFFFFFFFFFFFFFFFFFFFFFFFFFFFFFFFFF MUL NOT AND SWAP1 DUP4 PUSH20 0xFFFFFFFFFFFFFFFFFFFFFFFFFFFFFFFFFFFFFFFF AND MUL OR SWAP1 SSTORE POP TIMESTAMP PUSH1 0x5 DUP2 SWAP1 SSTORE POP PUSH3 0x15180 PUSH1 0x4 SLOAD PUSH2 0x988 SWAP2 SWAP1 PUSH2 0x10DE JUMP JUMPDEST TIMESTAMP PUSH2 0x993 SWAP2 SWAP1 PUSH2 0x1180 JUMP JUMPDEST PUSH1 0x6 DUP2 SWAP1 SSTORE POP PUSH1 0x2 PUSH1 0x7 PUSH1 0x0 PUSH2 0x100 EXP DUP2 SLOAD DUP2 PUSH1 0xFF MUL NOT AND SWAP1 DUP4 PUSH1 0x4 DUP2 GT ISZERO PUSH2 0x9BF JUMPI PUSH2 0x9BE PUSH2 0xE5E JUMP JUMPDEST JUMPDEST MUL OR SWAP1 SSTORE POP PUSH1 0x1 PUSH1 0x0 SWAP1 SLOAD SWAP1 PUSH2 0x100 EXP SWAP1 DIV PUSH20 0xFFFFFFFFFFFFFFFFFFFFFFFFFFFFFFFFFFFFFFFF AND PUSH20 0xFFFFFFFFFFFFFFFFFFFFFFFFFFFFFFFFFFFFFFFF AND PUSH32 0x726D5F1A838FE31748F737FA3AE5539CCFF95952ADFC593A1299532B643FF7A8 PUSH1 0x2 SLOAD PUSH1 0x40 MLOAD PUSH2 0xA2E SWAP2 SWAP1 PUSH2 0xE43 JUMP JUMPDEST PUSH1 0x40 MLOAD DUP1 SWAP2 SUB SWAP1 LOG2 JUMP JUMPDEST PUSH1 0x2 SLOAD DUP2 JUMP JUMPDEST PUSH1 0x1 PUSH1 0x0 SWAP1 SLOAD SWAP1 PUSH2 0x100 EXP SWAP1 DIV PUSH20 0xFFFFFFFFFFFFFFFFFFFFFFFFFFFFFFFFFFFFFFFF AND DUP2 JUMP JUMPDEST PUSH1 0x7 PUSH1 0x1 SWAP1 SLOAD SWAP1 PUSH2 0x100 EXP SWAP1 DIV PUSH20 0xFFFFFFFFFFFFFFFFFFFFFFFFFFFFFFFFFFFFFFFF AND DUP2 JUMP JUMPDEST PUSH1 0x3 SLOAD DUP2 JUMP JUMPDEST PUSH1 0x0 DUP1 PUSH2 0x2710 PUSH1 0x3 SLOAD PUSH1 0x2 SLOAD PUSH2 0xAA6 SWAP2 SWAP1 PUSH2 0x10DE JUMP JUMPDEST PUSH2 0xAB0 SWAP2 SWAP1 PUSH2 0x114F JUMP JUMPDEST SWAP1 POP DUP1 PUSH1 0x2 SLOAD PUSH2 0xAC0 SWAP2 SWAP1 PUSH2 0x1180 JUMP JUMPDEST SWAP2 POP POP SWAP1 JUMP JUMPDEST PUSH1 0x7 PUSH1 0x1 SWAP1 SLOAD SWAP1 PUSH2 0x100 EXP SWAP1 DIV PUSH20 0xFFFFFFFFFFFFFFFFFFFFFFFFFFFFFFFFFFFFFFFF AND PUSH20 0xFFFFFFFFFFFFFFFFFFFFFFFFFFFFFFFFFFFFFFFF AND CALLER PUSH20 0xFFFFFFFFFFFFFFFFFFFFFFFFFFFFFFFFFFFFFFFF AND EQ PUSH2 0xB56 JUMPI PUSH1 0x40 MLOAD PUSH32 0x8C379A000000000000000000000000000000000000000000000000000000000 DUP2 MSTORE PUSH1 0x4 ADD PUSH2 0xB4D SWAP1 PUSH2 0x1511 JUMP JUMPDEST PUSH1 0x40 MLOAD DUP1 SWAP2 SUB SWAP1 REVERT JUMPDEST PUSH1 0x2 PUSH1 0x4 DUP2 GT ISZERO PUSH2 0xB6A JUMPI PUSH2 0xB69 PUSH2 0xE5E JUMP JUMPDEST JUMPDEST PUSH1 0x7 PUSH1 0x0 SWAP1 SLOAD SWAP1 PUSH2 0x100 EXP SWAP1 DIV PUSH1 0xFF AND PUSH1 0x4 DUP2 GT ISZERO PUSH2 0xB8C JUMPI PUSH2 0xB8B PUSH2 0xE5E JUMP JUMPDEST JUMPDEST EQ PUSH2 0xBCC JUMPI PUSH1 0x40 MLOAD PUSH32 0x8C379A000000000000000000000000000000000000000000000000000000000 DUP2 MSTORE PUSH1 0x4 ADD PUSH2 0xBC3 SWAP1 PUSH2 0x108F JUMP JUMPDEST PUSH1 0x40 MLOAD DUP1 SWAP2 SUB SWAP1 REVERT JUMPDEST PUSH1 0x6 SLOAD TIMESTAMP GT PUSH2 0xC10 JUMPI PUSH1 0x40 MLOAD PUSH32 0x8C379A000000000000000000000000000000000000000000000000000000000 DUP2 MSTORE PUSH1 0x4 ADD PUSH2 0xC07 SWAP1 PUSH2 0x157D JUMP JUMPDEST PUSH1 0x40 MLOAD DUP1 SWAP2 SUB SWAP1 REVERT JUMPDEST PUSH1 0x4 PUSH1 0x7 PUSH1 0x0 PUSH2 0x100 EXP DUP2 SLOAD DUP2 PUSH1 0xFF MUL NOT AND SWAP1 DUP4 PUSH1 0x4 DUP2 GT ISZERO PUSH2 0xC36 JUMPI PUSH2 0xC35 PUSH2 0xE5E JUMP JUMPDEST JUMPDEST MUL OR SWAP1 SSTORE POP PUSH1 0x8 PUSH1 0x0 SWAP1 SLOAD SWAP1 PUSH2 0x100 EXP SWAP1 DIV PUSH20 0xFFFFFFFFFFFFFFFFFFFFFFFFFFFFFFFFFFFFFFFF AND PUSH20 0xFFFFFFFFFFFFFFFFFFFFFFFFFFFFFFFFFFFFFFFF AND PUSH4 0xCD4544F2 PUSH1 0x0 DUP1 SLOAD SWAP1 PUSH2 0x100 EXP SWAP1 DIV PUSH20 0xFFFFFFFFFFFFFFFFFFFFFFFFFFFFFFFFFFFFFFFF AND PUSH1 0x2 SLOAD PUSH1 0x40 MLOAD DUP4 PUSH4 0xFFFFFFFF AND PUSH1 0xE0 SHL DUP2 MSTORE PUSH1 0x4 ADD PUSH2 0xCBA SWAP3 SWAP2 SWAP1 PUSH2 0x159D JUMP JUMPDEST PUSH1 0x0 PUSH1 0x40 MLOAD DUP1 DUP4 SUB DUP2 PUSH1 0x0 DUP8 DUP1 EXTCODESIZE ISZERO DUP1 ISZERO PUSH2 0xCD4 JUMPI PUSH1 0x0 DUP1 REVERT JUMPDEST POP GAS CALL ISZERO DUP1 ISZERO PUSH2 0xCE8 JUMPI RETURNDATASIZE PUSH1 0x0 DUP1 RETURNDATACOPY RETURNDATASIZE PUSH1 0x0 REVERT JUMPDEST POP POP POP POP PUSH1 0x0 SELFBALANCE GT ISZERO PUSH2 0xDC5 JUMPI PUSH1 0x0 PUSH1 0x1 PUSH1 0x0 SWAP1 SLOAD SWAP1 PUSH2 0x100 EXP SWAP1 DIV PUSH20 0xFFFFFFFFFFFFFFFFFFFFFFFFFFFFFFFFFFFFFFFF AND PUSH20 0xFFFFFFFFFFFFFFFFFFFFFFFFFFFFFFFFFFFFFFFF AND SELFBALANCE PUSH1 0x40 MLOAD PUSH2 0xD3D SWAP1 PUSH2 0x12A3 JUMP JUMPDEST PUSH1 0x0 PUSH1 0x40 MLOAD DUP1 DUP4 SUB DUP2 DUP6 DUP8 GAS CALL SWAP3 POP POP POP RETURNDATASIZE DUP1 PUSH1 0x0 DUP2 EQ PUSH2 0xD7A JUMPI PUSH1 0x40 MLOAD SWAP2 POP PUSH1 0x1F NOT PUSH1 0x3F RETURNDATASIZE ADD AND DUP3 ADD PUSH1 0x40 MSTORE RETURNDATASIZE DUP3 MSTORE RETURNDATASIZE PUSH1 0x0 PUSH1 0x20 DUP5 ADD RETURNDATACOPY PUSH2 0xD7F JUMP JUMPDEST PUSH1 0x60 SWAP2 POP JUMPDEST POP POP SWAP1 POP DUP1 PUSH2 0xDC3 JUMPI PUSH1 0x40 MLOAD PUSH32 0x8C379A000000000000000000000000000000000000000000000000000000000 DUP2 MSTORE PUSH1 0x4 ADD PUSH2 0xDBA SWAP1 PUSH2 0x1304 JUMP JUMPDEST PUSH1 0x40 MLOAD DUP1 SWAP2 SUB SWAP1 REVERT JUMPDEST POP JUMPDEST PUSH1 0x0 DUP1 SLOAD SWAP1 PUSH2 0x100 EXP SWAP1 DIV PUSH20 0xFFFFFFFFFFFFFFFFFFFFFFFFFFFFFFFFFFFFFFFF AND PUSH20 0xFFFFFFFFFFFFFFFFFFFFFFFFFFFFFFFFFFFFFFFF AND PUSH32 0xF4E5CF42CBB1D0C6C91E16D925349FEB6C5D970652F6EC77B1FF1262F7284CD5 PUSH1 0x40 MLOAD PUSH1 0x40 MLOAD DUP1 SWAP2 SUB SWAP1 LOG2 JUMP JUMPDEST PUSH1 0x0 DUP2 SWAP1 POP SWAP2 SWAP1 POP JUMP JUMPDEST PUSH2 0xE3D DUP2 PUSH2 0xE2A JUMP JUMPDEST DUP3 MSTORE POP POP JUMP JUMPDEST PUSH1 0x0 PUSH1 0x20 DUP3 ADD SWAP1 POP PUSH2 0xE58 PUSH1 0x0 DUP4 ADD DUP5 PUSH2 0xE34 JUMP JUMPDEST SWAP3 SWAP2 POP POP JUMP JUMPDEST PUSH32 0x4E487B7100000000000000000000000000000000000000000000000000000000 PUSH1 0x0 MSTORE PUSH1 0x21 PUSH1 0x4 MSTORE PUSH1 0x24 PUSH1 0x0 REVERT JUMPDEST PUSH1 0x5 DUP2 LT PUSH2 0xE9E JUMPI PUSH2 0xE9D PUSH2 0xE5E JUMP JUMPDEST JUMPDEST POP JUMP JUMPDEST PUSH1 0x0 DUP2 SWAP1 POP PUSH2 0xEAF DUP3 PUSH2 0xE8D JUMP JUMPDEST SWAP2 SWAP1 POP JUMP JUMPDEST PUSH1 0x0 PUSH2 0xEBF DUP3 PUSH2 0xEA1 JUMP JUMPDEST SWAP1 POP SWAP2 SWAP1 POP JUMP JUMPDEST PUSH2 0xECF DUP2 PUSH2 0xEB4 JUMP JUMPDEST DUP3 MSTORE POP POP JUMP JUMPDEST PUSH1 0x0 PUSH1 0x20 DUP3 ADD SWAP1 POP PUSH2 0xEEA PUSH1 0x0 DUP4 ADD DUP5 PUSH2 0xEC6 JUMP JUMPDEST SWAP3 SWAP2 POP POP JUMP JUMPDEST PUSH1 0x0 PUSH20 0xFFFFFFFFFFFFFFFFFFFFFFFFFFFFFFFFFFFFFFFF DUP3 AND SWAP1 POP SWAP2 SWAP1 POP JUMP JUMPDEST PUSH1 0x0 DUP2 SWAP1 POP SWAP2 SWAP1 POP JUMP JUMPDEST PUSH1 0x0 PUSH2 0xF35 PUSH2 0xF30 PUSH2 0xF2B DUP5 PUSH2 0xEF0 JUMP JUMPDEST PUSH2 0xF10 JUMP JUMPDEST PUSH2 0xEF0 JUMP JUMPDEST SWAP1 POP SWAP2 SWAP1 POP JUMP JUMPDEST PUSH1 0x0 PUSH2 0xF47 DUP3 PUSH2 0xF1A JUMP JUMPDEST SWAP1 POP SWAP2 SWAP1 POP JUMP JUMPDEST PUSH1 0x0 PUSH2 0xF59 DUP3 PUSH2 0xF3C JUMP JUMPDEST SWAP1 POP SWAP2 SWAP1 POP JUMP JUMPDEST PUSH2 0xF69 DUP2 PUSH2 0xF4E JUMP JUMPDEST DUP3 MSTORE POP POP JUMP JUMPDEST PUSH1 0x0 PUSH1 0x20 DUP3 ADD SWAP1 POP PUSH2 0xF84 PUSH1 0x0 DUP4 ADD DUP5 PUSH2 0xF60 JUMP JUMPDEST SWAP3 SWAP2 POP POP JUMP JUMPDEST PUSH1 0x0 PUSH2 0xF95 DUP3 PUSH2 0xEF0 JUMP JUMPDEST SWAP1 POP SWAP2 SWAP1 POP JUMP JUMPDEST PUSH2 0xFA5 DUP2 PUSH2 0xF8A JUMP JUMPDEST DUP3 MSTORE POP POP JUMP JUMPDEST PUSH1 0x0 PUSH1 0x20 DUP3 ADD SWAP1 POP PUSH2 0xFC0 PUSH1 0x0 DUP4 ADD DUP5 PUSH2 0xF9C JUMP JUMPDEST SWAP3 SWAP2 POP POP JUMP JUMPDEST PUSH1 0x0 DUP3 DUP3 MSTORE PUSH1 0x20 DUP3 ADD SWAP1 POP SWAP3 SWAP2 POP POP JUMP JUMPDEST PUSH32 0x4F6E6C7920626F72726F77657200000000000000000000000000000000000000 PUSH1 0x0 DUP3 ADD MSTORE POP JUMP JUMPDEST PUSH1 0x0 PUSH2 0x100D PUSH1 0xD DUP4 PUSH2 0xFC6 JUMP JUMPDEST SWAP2 POP PUSH2 0x1018 DUP3 PUSH2 0xFD7 JUMP JUMPDEST PUSH1 0x20 DUP3 ADD SWAP1 POP SWAP2 SWAP1 POP JUMP JUMPDEST PUSH1 0x0 PUSH1 0x20 DUP3 ADD SWAP1 POP DUP2 DUP2 SUB PUSH1 0x0 DUP4 ADD MSTORE PUSH2 0x103C DUP2 PUSH2 0x1000 JUMP JUMPDEST SWAP1 POP SWAP2 SWAP1 POP JUMP JUMPDEST PUSH32 0x496E76616C696420737461747573000000000000000000000000000000000000 PUSH1 0x0 DUP3 ADD MSTORE POP JUMP JUMPDEST PUSH1 0x0 PUSH2 0x1079 PUSH1 0xE DUP4 PUSH2 0xFC6 JUMP JUMPDEST SWAP2 POP PUSH2 0x1084 DUP3 PUSH2 0x1043 JUMP JUMPDEST PUSH1 0x20 DUP3 ADD SWAP1 POP SWAP2 SWAP1 POP JUMP JUMPDEST PUSH1 0x0 PUSH1 0x20 DUP3 ADD SWAP1 POP DUP2 DUP2 SUB PUSH1 0x0 DUP4 ADD MSTORE PUSH2 0x10A8 DUP2 PUSH2 0x106C JUMP JUMPDEST SWAP1 POP SWAP2 SWAP1 POP JUMP JUMPDEST PUSH32 0x4E487B7100000000000000000000000000000000000000000000000000000000 PUSH1 0x0 MSTORE PUSH1 0x11 PUSH1 0x4 MSTORE PUSH1 0x24 PUSH1 0x0 REVERT JUMPDEST PUSH1 0x0 PUSH2 0x10E9 DUP3 PUSH2 0xE2A JUMP JUMPDEST SWAP2 POP PUSH2 0x10F4 DUP4 PUSH2 0xE2A JUMP JUMPDEST SWAP3 POP DUP3 DUP3 MUL PUSH2 0x1102 DUP2 PUSH2 0xE2A JUMP JUMPDEST SWAP2 POP DUP3 DUP3 DIV DUP5 EQ DUP4 ISZERO OR PUSH2 0x1119 JUMPI PUSH2 0x1118 PUSH2 0x10AF JUMP JUMPDEST JUMPDEST POP SWAP3 SWAP2 POP POP JUMP JUMPDEST PUSH32 0x4E487B7100000000000000000000000000000000000000000000000000000000 PUSH1 0x0 MSTORE PUSH1 0x12 PUSH1 0x4 MSTORE PUSH1 0x24 PUSH1 0x0 REVERT JUMPDEST PUSH1 0x0 PUSH2 0x115A DUP3 PUSH2 0xE2A JUMP JUMPDEST SWAP2 POP PUSH2 0x1165 DUP4 PUSH2 0xE2A JUMP JUMPDEST SWAP3 POP DUP3 PUSH2 0x1175 JUMPI PUSH2 0x1174 PUSH2 0x1120 JUMP JUMPDEST JUMPDEST DUP3 DUP3 DIV SWAP1 POP SWAP3 SWAP2 POP POP JUMP JUMPDEST PUSH1 0x0 PUSH2 0x118B DUP3 PUSH2 0xE2A JUMP JUMPDEST SWAP2 POP PUSH2 0x1196 DUP4 PUSH2 0xE2A JUMP JUMPDEST SWAP3 POP DUP3 DUP3 ADD SWAP1 POP DUP1 DUP3 GT ISZERO PUSH2 0x11AE JUMPI PUSH2 0x11AD PUSH2 0x10AF JUMP JUMPDEST JUMPDEST SWAP3 SWAP2 POP POP JUMP JUMPDEST PUSH32 0x496E73756666696369656E742072657061796D656E7400000000000000000000 PUSH1 0x0 DUP3 ADD MSTORE POP JUMP JUMPDEST PUSH1 0x0 PUSH2 0x11EA PUSH1 0x16 DUP4 PUSH2 0xFC6 JUMP JUMPDEST SWAP2 POP PUSH2 0x11F5 DUP3 PUSH2 0x11B4 JUMP JUMPDEST PUSH1 0x20 DUP3 ADD SWAP1 POP SWAP2 SWAP1 POP JUMP JUMPDEST PUSH1 0x0 PUSH1 0x20 DUP3 ADD SWAP1 POP DUP2 DUP2 SUB PUSH1 0x0 DUP4 ADD MSTORE PUSH2 0x1219 DUP2 PUSH2 0x11DD JUMP JUMPDEST SWAP1 POP SWAP2 SWAP1 POP JUMP JUMPDEST PUSH1 0x0 DUP2 ISZERO ISZERO SWAP1 POP SWAP2 SWAP1 POP JUMP JUMPDEST PUSH2 0x1235 DUP2 PUSH2 0x1220 JUMP JUMPDEST DUP3 MSTORE POP POP JUMP JUMPDEST PUSH1 0x0 PUSH1 0x60 DUP3 ADD SWAP1 POP PUSH2 0x1250 PUSH1 0x0 DUP4 ADD DUP7 PUSH2 0xF9C JUMP JUMPDEST PUSH2 0x125D PUSH1 0x20 DUP4 ADD DUP6 PUSH2 0xE34 JUMP JUMPDEST PUSH2 0x126A PUSH1 0x40 DUP4 ADD DUP5 PUSH2 0x122C JUMP JUMPDEST SWAP5 SWAP4 POP POP POP POP JUMP JUMPDEST PUSH1 0x0 DUP2 SWAP1 POP SWAP3 SWAP2 POP POP JUMP JUMPDEST POP JUMP JUMPDEST PUSH1 0x0 PUSH2 0x128D PUSH1 0x0 DUP4 PUSH2 0x1272 JUMP JUMPDEST SWAP2 POP PUSH2 0x1298 DUP3 PUSH2 0x127D JUMP JUMPDEST PUSH1 0x0 DUP3 ADD SWAP1 POP SWAP2 SWAP1 POP JUMP JUMPDEST PUSH1 0x0 PUSH2 0x12AE DUP3 PUSH2 0x1280 JUMP JUMPDEST SWAP2 POP DUP2 SWAP1 POP SWAP2 SWAP1 POP JUMP JUMPDEST PUSH32 0x5472616E73666572206661696C65640000000000000000000000000000000000 PUSH1 0x0 DUP3 ADD MSTORE POP JUMP JUMPDEST PUSH1 0x0 PUSH2 0x12EE PUSH1 0xF DUP4 PUSH2 0xFC6 JUMP JUMPDEST SWAP2 POP PUSH2 0x12F9 DUP3 PUSH2 0x12B8 JUMP JUMPDEST PUSH1 0x20 DUP3 ADD SWAP1 POP SWAP2 SWAP1 POP JUMP JUMPDEST PUSH1 0x0 PUSH1 0x20 DUP3 ADD SWAP1 POP DUP2 DUP2 SUB PUSH1 0x0 DUP4 ADD MSTORE PUSH2 0x131D DUP2 PUSH2 0x12E1 JUMP JUMPDEST SWAP1 POP SWAP2 SWAP1 POP JUMP JUMPDEST PUSH1 0x0 PUSH2 0x132F DUP3 PUSH2 0xE2A JUMP JUMPDEST SWAP2 POP PUSH2 0x133A DUP4 PUSH2 0xE2A JUMP JUMPDEST SWAP3 POP DUP3 DUP3 SUB SWAP1 POP DUP2 DUP2 GT ISZERO PUSH2 0x1352 JUMPI PUSH2 0x1351 PUSH2 0x10AF JUMP JUMPDEST JUMPDEST SWAP3 SWAP2 POP POP JUMP JUMPDEST PUSH32 0x526566756E64206661696C656400000000000000000000000000000000000000 PUSH1 0x0 DUP3 ADD MSTORE POP JUMP JUMPDEST PUSH1 0x0 PUSH2 0x138E PUSH1 0xD DUP4 PUSH2 0xFC6 JUMP JUMPDEST SWAP2 POP PUSH2 0x1399 DUP3 PUSH2 0x1358 JUMP JUMPDEST PUSH1 0x20 DUP3 ADD SWAP1 POP SWAP2 SWAP1 POP JUMP JUMPDEST PUSH1 0x0 PUSH1 0x20 DUP3 ADD SWAP1 POP DUP2 DUP2 SUB PUSH1 0x0 DUP4 ADD MSTORE PUSH2 0x13BD DUP2 PUSH2 0x1381 JUMP JUMPDEST SWAP1 POP SWAP2 SWAP1 POP JUMP JUMPDEST PUSH1 0x0 PUSH1 0x40 DUP3 ADD SWAP1 POP PUSH2 0x13D9 PUSH1 0x0 DUP4 ADD DUP6 PUSH2 0xE34 JUMP JUMPDEST PUSH2 0x13E6 PUSH1 0x20 DUP4 ADD DUP5 PUSH2 0xE34 JUMP JUMPDEST SWAP4 SWAP3 POP POP POP JUMP JUMPDEST PUSH32 0x496E73756666696369656E742066756E64730000000000000000000000000000 PUSH1 0x0 DUP3 ADD MSTORE POP JUMP JUMPDEST PUSH1 0x0 PUSH2 0x1423 PUSH1 0x12 DUP4 PUSH2 0xFC6 JUMP JUMPDEST SWAP2 POP PUSH2 0x142E DUP3 PUSH2 0x13ED JUMP JUMPDEST PUSH1 0x20 DUP3 ADD SWAP1 POP SWAP2 SWAP1 POP JUMP JUMPDEST PUSH1 0x0 PUSH1 0x20 DUP3 ADD SWAP1 POP DUP2 DUP2 SUB PUSH1 0x0 DUP4 ADD MSTORE PUSH2 0x1452 DUP2 PUSH2 0x1416 JUMP JUMPDEST SWAP1 POP SWAP2 SWAP1 POP JUMP JUMPDEST PUSH32 0x426F72726F7765722063616E6E6F742066756E64206F776E206C6F616E000000 PUSH1 0x0 DUP3 ADD MSTORE POP JUMP JUMPDEST PUSH1 0x0 PUSH2 0x148F PUSH1 0x1D DUP4 PUSH2 0xFC6 JUMP JUMPDEST SWAP2 POP PUSH2 0x149A DUP3 PUSH2 0x1459 JUMP JUMPDEST PUSH1 0x20 DUP3 ADD SWAP1 POP SWAP2 SWAP1 POP JUMP JUMPDEST PUSH1 0x0 PUSH1 0x20 DUP3 ADD SWAP1 POP DUP2 DUP2 SUB PUSH1 0x0 DUP4 ADD MSTORE PUSH2 0x14BE DUP2 PUSH2 0x1482 JUMP JUMPDEST SWAP1 POP SWAP2 SWAP1 POP JUMP JUMPDEST PUSH32 0x4F6E6C7920666163746F72790000000000000000000000000000000000000000 PUSH1 0x0 DUP3 ADD MSTORE POP JUMP JUMPDEST PUSH1 0x0 PUSH2 0x14FB PUSH1 0xC DUP4 PUSH2 0xFC6 JUMP JUMPDEST SWAP2 POP PUSH2 0x1506 DUP3 PUSH2 0x14C5 JUMP JUMPDEST PUSH1 0x20 DUP3 ADD SWAP1 POP SWAP2 SWAP1 POP JUMP JUMPDEST PUSH1 0x0 PUSH1 0x20 DUP3 ADD SWAP1 POP DUP2 DUP2 SUB PUSH1 0x0 DUP4 ADD MSTORE PUSH2 0x152A DUP2 PUSH2 0x14EE JUMP JUMPDEST SWAP1 POP SWAP2 SWAP1 POP JUMP JUMPDEST PUSH32 0x4E6F7420796574206F7665726475650000000000000000000000000000000000 PUSH1 0x0 DUP3 ADD MSTORE POP JUMP JUMPDEST PUSH1 0x0 PUSH2 0x1567 PUSH1 0xF DUP4 PUSH2 0xFC6 JUMP JUMPDEST SWAP2 POP PUSH2 0x1572 DUP3 PUSH2 0x1531 JUMP JUMPDEST PUSH1 0x20 DUP3 ADD SWAP1 POP SWAP2 SWAP1 POP JUMP JUMPDEST PUSH1 0x0 PUSH1 0x20 DUP3 ADD SWAP1 POP DUP2 DUP2 SUB PUSH1 0x0 DUP4 ADD MSTORE PUSH2 0x1596 DUP2 PUSH2 0x155A JUMP JUMPDEST SWAP1 POP SWAP2 SWAP1 POP JUMP JUMPDEST PUSH1 0x0 PUSH1 0x40 DUP3 ADD SWAP1 POP PUSH2 0x15B2 PUSH1 0x0 DUP4 ADD DUP6 PUSH2 0xF9C JUMP JUMPDEST PUSH2 0x15BF PUSH1 0x20 DUP4 ADD DUP5 PUSH2 0xE34 JUMP JUMPDEST SWAP4 SWAP3 POP POP POP JUMP INVALID LOG2 PUSH5 0x6970667358 0x22 SLT KECCAK256 MSTORE8 0xE4 PUSH26 0x2FD45B5CC2EE3536ACDD413F8DBD2E8634CC87C8C357932AD5B3 PUSH31 0x22B964736F6C63430008180033A26469706673582212201F37FF4BE3DAB9BA SELFBALANCE 0x1E CHAINID DUP5 0xA8 0xB3 0x4B 0xB3 LOG1 PUSH26 0x90708051543A335D85B6DB17BAE164736F6C6343000818003360 DUP1 PUSH1 0x40 MSTORE CALLVALUE DUP1 ISZERO PUSH2 0x10 JUMPI PUSH1 0x0 DUP1 REVERT JUMPDEST POP PUSH1 0x40 MLOAD PUSH2 0xF48 CODESIZE SUB DUP1 PUSH2 0xF48 DUP4 CODECOPY DUP2 DUP2 ADD PUSH1 0x40 MSTORE DUP2 ADD SWAP1 PUSH2 0x32 SWAP2 SWAP1 PUSH2 0xDC JUMP JUMPDEST DUP1 PUSH1 0x1 PUSH1 0x0 PUSH2 0x100 EXP DUP2 SLOAD DUP2 PUSH20 0xFFFFFFFFFFFFFFFFFFFFFFFFFFFFFFFFFFFFFFFF MUL NOT AND SWAP1 DUP4 PUSH20 0xFFFFFFFFFFFFFFFFFFFFFFFFFFFFFFFFFFFFFFFF AND MUL OR SWAP1 SSTORE POP POP PUSH2 0x109 JUMP JUMPDEST PUSH1 0x0 DUP1 REVERT JUMPDEST PUSH1 0x0 PUSH20 0xFFFFFFFFFFFFFFFFFFFFFFFFFFFFFFFFFFFFFFFF DUP3 AND SWAP1 POP SWAP2 SWAP1 POP JUMP JUMPDEST PUSH1 0x0 PUSH2 0xA9 DUP3 PUSH2 0x7E JUMP JUMPDEST SWAP1 POP SWAP2 SWAP1 POP JUMP JUMPDEST PUSH2 0xB9 DUP2 PUSH2 0x9E JUMP JUMPDEST DUP2 EQ PUSH2 0xC4 JUMPI PUSH1 0x0 DUP1 REVERT JUMPDEST POP JUMP JUMPDEST PUSH1 0x0 DUP2 MLOAD SWAP1 POP PUSH2 0xD6 DUP2 PUSH2 0xB0 JUMP JUMPDEST SWAP3 SWAP2 POP POP JUMP JUMPDEST PUSH1 0x0 PUSH1 0x20 DUP3 DUP5 SUB SLT ISZERO PUSH2 0xF2 JUMPI PUSH2 0xF1 PUSH2 0x79 JUMP JUMPDEST JUMPDEST PUSH1 0x0 PUSH2 0x100 DUP5 DUP3 DUP6 ADD PUSH2 0xC7 JUMP JUMPDEST SWAP2 POP POP SWAP3 SWAP2 POP POP JUMP JUMPDEST PUSH2 0xE30 DUP1 PUSH2 0x118 PUSH1 0x0 CODECOPY PUSH1 0x0 RETURN INVALID PUSH1 0x80 PUSH1 0x40 MSTORE CALLVALUE DUP1 ISZERO PUSH2 0x10 JUMPI PUSH1 0x0 DUP1 REVERT JUMPDEST POP PUSH1 0x4 CALLDATASIZE LT PUSH2 0xB4 JUMPI PUSH1 0x0 CALLDATALOAD PUSH1 0xE0 SHR DUP1 PUSH4 0xB37ED8CD GT PUSH2 0x71 JUMPI DUP1 PUSH4 0xB37ED8CD EQ PUSH2 0x192 JUMPI DUP1 PUSH4 0xBF15E017 EQ PUSH2 0x1B0 JUMPI DUP1 PUSH4 0xC48F1392 EQ PUSH2 0x1CE JUMPI DUP1 PUSH4 0xCD4544F2 EQ PUSH2 0x1EA JUMPI DUP1 PUSH4 0xD47875D0 EQ PUSH2 0x206 JUMPI DUP1 PUSH4 0xDB2DB177 EQ PUSH2 0x236 JUMPI PUSH2 0xB4 JUMP JUMPDEST DUP1 PUSH4 0x19ED29FA EQ PUSH2 0xB9 JUMPI DUP1 PUSH4 0x469E9067 EQ PUSH2 0xD5 JUMPI DUP1 PUSH4 0x64B12355 EQ PUSH2 0x10A JUMPI DUP1 PUSH4 0x7EFFE568 EQ PUSH2 0x126 JUMPI DUP1 PUSH4 0x90B43948 EQ PUSH2 0x144 JUMPI DUP1 PUSH4 0x93E9B13E EQ PUSH2 0x162 JUMPI JUMPDEST PUSH1 0x0 DUP1 REVERT JUMPDEST PUSH2 0xD3 PUSH1 0x4 DUP1 CALLDATASIZE SUB DUP2 ADD SWAP1 PUSH2 0xCE SWAP2 SWAP1 PUSH2 0x9CB JUMP JUMPDEST PUSH2 0x254 JUMP JUMPDEST STOP JUMPDEST PUSH2 0xEF PUSH1 0x4 DUP1 CALLDATASIZE SUB DUP2 ADD SWAP1 PUSH2 0xEA SWAP2 SWAP1 PUSH2 0x9CB JUMP JUMPDEST PUSH2 0x33F JUMP JUMPDEST PUSH1 0x40 MLOAD PUSH2 0x101 SWAP7 SWAP6 SWAP5 SWAP4 SWAP3 SWAP2 SWAP1 PUSH2 0xA11 JUMP JUMPDEST PUSH1 0x40 MLOAD DUP1 SWAP2 SUB SWAP1 RETURN JUMPDEST PUSH2 0x124 PUSH1 0x4 DUP1 CALLDATASIZE SUB DUP2 ADD SWAP1 PUSH2 0x11F SWAP2 SWAP1 PUSH2 0xA9E JUMP JUMPDEST PUSH2 0x37B JUMP JUMPDEST STOP JUMPDEST PUSH2 0x12E PUSH2 0x468 JUMP JUMPDEST PUSH1 0x40 MLOAD PUSH2 0x13B SWAP2 SWAP1 PUSH2 0xADE JUMP JUMPDEST PUSH1 0x40 MLOAD DUP1 SWAP2 SUB SWAP1 RETURN JUMPDEST PUSH2 0x14C PUSH2 0x46E JUMP JUMPDEST PUSH1 0x40 MLOAD PUSH2 0x159 SWAP2 SWAP1 PUSH2 0xADE JUMP JUMPDEST PUSH1 0x40 MLOAD DUP1 SWAP2 SUB SWAP1 RETURN JUMPDEST PUSH2 0x17C PUSH1 0x4 DUP1 CALLDATASIZE SUB DUP2 ADD SWAP1 PUSH2 0x177 SWAP2 SWAP1 PUSH2 0x9CB JUMP JUMPDEST PUSH2 0x473 JUMP JUMPDEST PUSH1 0x40 MLOAD PUSH2 0x189 SWAP2 SWAP1 PUSH2 0xB14 JUMP JUMPDEST PUSH1 0x40 MLOAD DUP1 SWAP2 SUB SWAP1 RETURN JUMPDEST PUSH2 0x19A PUSH2 0x493 JUMP JUMPDEST PUSH1 0x40 MLOAD PUSH2 0x1A7 SWAP2 SWAP1 PUSH2 0xB3E JUMP JUMPDEST PUSH1 0x40 MLOAD DUP1 SWAP2 SUB SWAP1 RETURN JUMPDEST PUSH2 0x1B8 PUSH2 0x4B9 JUMP JUMPDEST PUSH1 0x40 MLOAD PUSH2 0x1C5 SWAP2 SWAP1 PUSH2 0xADE JUMP JUMPDEST PUSH1 0x40 MLOAD DUP1 SWAP2 SUB SWAP1 RETURN JUMPDEST PUSH2 0x1E8 PUSH1 0x4 DUP1 CALLDATASIZE SUB DUP2 ADD SWAP1 PUSH2 0x1E3 SWAP2 SWAP1 PUSH2 0xB85 JUMP JUMPDEST PUSH2 0x4BE JUMP JUMPDEST STOP JUMPDEST PUSH2 0x204 PUSH1 0x4 DUP1 CALLDATASIZE SUB DUP2 ADD SWAP1 PUSH2 0x1FF SWAP2 SWAP1 PUSH2 0xA9E JUMP JUMPDEST PUSH2 0x64D JUMP JUMPDEST STOP JUMPDEST PUSH2 0x220 PUSH1 0x4 DUP1 CALLDATASIZE SUB DUP2 ADD SWAP1 PUSH2 0x21B SWAP2 SWAP1 PUSH2 0x9CB JUMP JUMPDEST PUSH2 0x7B8 JUMP JUMPDEST PUSH1 0x40 MLOAD PUSH2 0x22D SWAP2 SWAP1 PUSH2 0xADE JUMP JUMPDEST PUSH1 0x40 MLOAD DUP1 SWAP2 SUB SWAP1 RETURN JUMPDEST PUSH2 0x23E PUSH2 0x854 JUMP JUMPDEST PUSH1 0x40 MLOAD PUSH2 0x24B SWAP2 SWAP1 PUSH2 0xADE JUMP JUMPDEST PUSH1 0x40 MLOAD DUP1 SWAP2 SUB SWAP1 RETURN JUMPDEST PUSH1 0x1 PUSH1 0x0 SWAP1 SLOAD SWAP1 PUSH2 0x100 EXP SWAP1 DIV PUSH20 0xFFFFFFFFFFFFFFFFFFFFFFFFFFFFFFFFFFFFFFFF AND PUSH20 0xFFFFFFFFFFFFFFFFFFFFFFFFFFFFFFFFFFFFFFFF AND CALLER PUSH20 0xFFFFFFFFFFFFFFFFFFFFFFFFFFFFFFFFFFFFFFFF AND EQ PUSH2 0x2E4 JUMPI PUSH1 0x40 MLOAD PUSH32 0x8C379A000000000000000000000000000000000000000000000000000000000 DUP2 MSTORE PUSH1 0x4 ADD PUSH2 0x2DB SWAP1 PUSH2 0xC35 JUMP JUMPDEST PUSH1 0x40 MLOAD DUP1 SWAP2 SUB SWAP1 REVERT JUMPDEST PUSH1 0x1 PUSH1 0x2 PUSH1 0x0 DUP4 PUSH20 0xFFFFFFFFFFFFFFFFFFFFFFFFFFFFFFFFFFFFFFFF AND PUSH20 0xFFFFFFFFFFFFFFFFFFFFFFFFFFFFFFFFFFFFFFFF AND DUP2 MSTORE PUSH1 0x20 ADD SWAP1 DUP2 MSTORE PUSH1 0x20 ADD PUSH1 0x0 KECCAK256 PUSH1 0x0 PUSH2 0x100 EXP DUP2 SLOAD DUP2 PUSH1 0xFF MUL NOT AND SWAP1 DUP4 ISZERO ISZERO MUL OR SWAP1 SSTORE POP POP JUMP JUMPDEST PUSH1 0x0 PUSH1 0x20 MSTORE DUP1 PUSH1 0x0 MSTORE PUSH1 0x40 PUSH1 0x0 KECCAK256 PUSH1 0x0 SWAP2 POP SWAP1 POP DUP1 PUSH1 0x0 ADD SLOAD SWAP1 DUP1 PUSH1 0x1 ADD SLOAD SWAP1 DUP1 PUSH1 0x2 ADD SLOAD SWAP1 DUP1 PUSH1 0x3 ADD SLOAD SWAP1 DUP1 PUSH1 0x4 ADD SLOAD SWAP1 DUP1 PUSH1 0x5 ADD SLOAD SWAP1 POP DUP7 JUMP JUMPDEST PUSH1 0x1 PUSH1 0x0 SWAP1 SLOAD SWAP1 PUSH2 0x100 EXP SWAP1 DIV PUSH20 0xFFFFFFFFFFFFFFFFFFFFFFFFFFFFFFFFFFFFFFFF AND PUSH20 0xFFFFFFFFFFFFFFFFFFFFFFFFFFFFFFFFFFFFFFFF AND CALLER PUSH20 0xFFFFFFFFFFFFFFFFFFFFFFFFFFFFFFFFFFFFFFFF AND EQ PUSH2 0x40B JUMPI PUSH1 0x40 MLOAD PUSH32 0x8C379A000000000000000000000000000000000000000000000000000000000 DUP2 MSTORE PUSH1 0x4 ADD PUSH2 0x402 SWAP1 PUSH2 0xC35 JUMP JUMPDEST PUSH1 0x40 MLOAD DUP1 SWAP2 SUB SWAP1 REVERT JUMPDEST PUSH1 0x1 PUSH1 0x0 DUP1 DUP5 PUSH20 0xFFFFFFFFFFFFFFFFFFFFFFFFFFFFFFFFFFFFFFFF AND PUSH20 0xFFFFFFFFFFFFFFFFFFFFFFFFFFFFFFFFFFFFFFFF AND DUP2 MSTORE PUSH1 0x20 ADD SWAP1 DUP2 MSTORE PUSH1 0x20 ADD PUSH1 0x0 KECCAK256 PUSH1 0x0 ADD PUSH1 0x0 DUP3 DUP3 SLOAD PUSH2 0x45D SWAP2 SWAP1 PUSH2 0xC84 JUMP JUMPDEST SWAP3 POP POP DUP2 SWAP1 SSTORE POP POP POP JUMP JUMPDEST PUSH2 0x1F4 DUP2 JUMP JUMPDEST PUSH1 0x2 DUP2 JUMP JUMPDEST PUSH1 0x2 PUSH1 0x20 MSTORE DUP1 PUSH1 0x0 MSTORE PUSH1 0x40 PUSH1 0x0 KECCAK256 PUSH1 0x0 SWAP2 POP SLOAD SWAP1 PUSH2 0x100 EXP SWAP1 DIV PUSH1 0xFF AND DUP2 JUMP JUMPDEST PUSH1 0x1 PUSH1 0x0 SWAP1 SLOAD SWAP1 PUSH2 0x100 EXP SWAP1 DIV PUSH20 0xFFFFFFFFFFFFFFFFFFFFFFFFFFFFFFFFFFFFFFFF AND DUP2 JUMP JUMPDEST PUSH1 0x32 DUP2 JUMP JUMPDEST PUSH1 0x1 PUSH1 0x0 SWAP1 SLOAD SWAP1 PUSH2 0x100 EXP SWAP1 DIV PUSH20 0xFFFFFFFFFFFFFFFFFFFFFFFFFFFFFFFFFFFFFFFF AND PUSH20 0xFFFFFFFFFFFFFFFFFFFFFFFFFFFFFFFFFFFFFFFF AND CALLER PUSH20 0xFFFFFFFFFFFFFFFFFFFFFFFFFFFFFFFFFFFFFFFF AND EQ DUP1 PUSH2 0x563 JUMPI POP PUSH1 0x2 PUSH1 0x0 CALLER PUSH20 0xFFFFFFFFFFFFFFFFFFFFFFFFFFFFFFFFFFFFFFFF AND PUSH20 0xFFFFFFFFFFFFFFFFFFFFFFFFFFFFFFFFFFFFFFFF AND DUP2 MSTORE PUSH1 0x20 ADD SWAP1 DUP2 MSTORE PUSH1 0x20 ADD PUSH1 0x0 KECCAK256 PUSH1 0x0 SWAP1 SLOAD SWAP1 PUSH2 0x100 EXP SWAP1 DIV PUSH1 0xFF AND JUMPDEST PUSH2 0x5A2 JUMPI PUSH1 0x40 MLOAD PUSH32 0x8C379A000000000000000000000000000000000000000000000000000000000 DUP2 MSTORE PUSH1 0x4 ADD PUSH2 0x599 SWAP1 PUSH2 0xD04 JUMP JUMPDEST PUSH1 0x40 MLOAD DUP1 SWAP2 SUB SWAP1 REVERT JUMPDEST PUSH1 0x0 DUP1 PUSH1 0x0 DUP6 PUSH20 0xFFFFFFFFFFFFFFFFFFFFFFFFFFFFFFFFFFFFFFFF AND PUSH20 0xFFFFFFFFFFFFFFFFFFFFFFFFFFFFFFFFFFFFFFFF AND DUP2 MSTORE PUSH1 0x20 ADD SWAP1 DUP2 MSTORE PUSH1 0x20 ADD PUSH1 0x0 KECCAK256 SWAP1 POP PUSH1 0x1 DUP2 PUSH1 0x1 ADD PUSH1 0x0 DUP3 DUP3 SLOAD PUSH2 0x5F9 SWAP2 SWAP1 PUSH2 0xC84 JUMP JUMPDEST SWAP3 POP POP DUP2 SWAP1 SSTORE POP DUP2 ISZERO PUSH2 0x623 JUMPI PUSH1 0x1 DUP2 PUSH1 0x2 ADD PUSH1 0x0 DUP3 DUP3 SLOAD PUSH2 0x61B SWAP2 SWAP1 PUSH2 0xC84 JUMP JUMPDEST SWAP3 POP POP DUP2 SWAP1 SSTORE POP JUMPDEST DUP3 DUP2 PUSH1 0x4 ADD PUSH1 0x0 DUP3 DUP3 SLOAD PUSH2 0x637 SWAP2 SWAP1 PUSH2 0xC84 JUMP JUMPDEST SWAP3 POP POP DUP2 SWAP1 SSTORE POP PUSH2 0x647 DUP5 PUSH2 0x859 JUMP JUMPDEST POP POP POP POP JUMP JUMPDEST PUSH1 0x1 PUSH1 0x0 SWAP1 SLOAD SWAP1 PUSH2 0x100 EXP SWAP1 DIV PUSH20 0xFFFFFFFFFFFFFFFFFFFFFFFFFFFFFFFFFFFFFFFF AND PUSH20 0xFFFFFFFFFFFFFFFFFFFFFFFFFFFFFFFFFFFFFFFF AND CALLER PUSH20 0xFFFFFFFFFFFFFFFFFFFFFFFFFFFFFFFFFFFFFFFF AND EQ DUP1 PUSH2 0x6F2 JUMPI POP PUSH1 0x2 PUSH1 0x0 CALLER PUSH20 0xFFFFFFFFFFFFFFFFFFFFFFFFFFFFFFFFFFFFFFFF AND PUSH20 0xFFFFFFFFFFFFFFFFFFFFFFFFFFFFFFFFFFFFFFFF AND DUP2 MSTORE PUSH1 0x20 ADD SWAP1 DUP2 MSTORE PUSH1 0x20 ADD PUSH1 0x0 KECCAK256 PUSH1 0x0 SWAP1 SLOAD SWAP1 PUSH2 0x100 EXP SWAP1 DIV PUSH1 0xFF AND JUMPDEST PUSH2 0x731 JUMPI PUSH1 0x40 MLOAD PUSH32 0x8C379A000000000000000000000000000000000000000000000000000000000 DUP2 MSTORE PUSH1 0x4 ADD PUSH2 0x728 SWAP1 PUSH2 0xD04 JUMP JUMPDEST PUSH1 0x40 MLOAD DUP1 SWAP2 SUB SWAP1 REVERT JUMPDEST PUSH1 0x0 DUP1 PUSH1 0x0 DUP5 PUSH20 0xFFFFFFFFFFFFFFFFFFFFFFFFFFFFFFFFFFFFFFFF AND PUSH20 0xFFFFFFFFFFFFFFFFFFFFFFFFFFFFFFFFFFFFFFFF AND DUP2 MSTORE PUSH1 0x20 ADD SWAP1 DUP2 MSTORE PUSH1 0x20 ADD PUSH1 0x0 KECCAK256 SWAP1 POP PUSH1 0x1 DUP2 PUSH1 0x3 ADD PUSH1 0x0 DUP3 DUP3 SLOAD PUSH2 0x788 SWAP2 SWAP1 PUSH2 0xC84 JUMP JUMPDEST SWAP3 POP POP DUP2 SWAP1 SSTORE POP DUP2 DUP2 PUSH1 0x4 ADD PUSH1 0x0 DUP3 DUP3 SLOAD PUSH2 0x7A3 SWAP2 SWAP1 PUSH2 0xC84 JUMP JUMPDEST SWAP3 POP POP DUP2 SWAP1 SSTORE POP PUSH2 0x7B3 DUP4 PUSH2 0x859 JUMP JUMPDEST POP POP POP JUMP JUMPDEST PUSH1 0x0 DUP1 PUSH1 0x0 DUP1 DUP5 PUSH20 0xFFFFFFFFFFFFFFFFFFFFFFFFFFFFFFFFFFFFFFFF AND PUSH20 0xFFFFFFFFFFFFFFFFFFFFFFFFFFFFFFFFFFFFFFFF AND DUP2 MSTORE PUSH1 0x20 ADD SWAP1 DUP2 MSTORE PUSH1 0x20 ADD PUSH1 0x0 KECCAK256 PUSH1 0x5 ADD SLOAD EQ PUSH2 0x849 JUMPI PUSH1 0x0 DUP1 DUP4 PUSH20 0xFFFFFFFFFFFFFFFFFFFFFFFFFFFFFFFFFFFFFFFF AND PUSH20 0xFFFFFFFFFFFFFFFFFFFFFFFFFFFFFFFFFFFFFFFF AND DUP2 MSTORE PUSH1 0x20 ADD SWAP1 DUP2 MSTORE PUSH1 0x20 ADD PUSH1 0x0 KECCAK256 PUSH1 0x5 ADD SLOAD PUSH2 0x84D JUMP JUMPDEST PUSH2 0x1F4 JUMPDEST SWAP1 POP SWAP2 SWAP1 POP JUMP JUMPDEST PUSH1 0x14 DUP2 JUMP JUMPDEST PUSH1 0x0 DUP1 PUSH1 0x0 DUP4 PUSH20 0xFFFFFFFFFFFFFFFFFFFFFFFFFFFFFFFFFFFFFFFF AND PUSH20 0xFFFFFFFFFFFFFFFFFFFFFFFFFFFFFFFFFFFFFFFF AND DUP2 MSTORE PUSH1 0x20 ADD SWAP1 DUP2 MSTORE PUSH1 0x20 ADD PUSH1 0x0 KECCAK256 SWAP1 POP PUSH1 0x0 DUP1 DUP3 PUSH1 0x1 ADD SLOAD GT PUSH2 0x8AF JUMPI PUSH1 0x64 PUSH2 0x8D0 JUMP JUMPDEST DUP2 PUSH1 0x1 ADD SLOAD PUSH1 0x64 DUP4 PUSH1 0x2 ADD SLOAD PUSH2 0x8C5 SWAP2 SWAP1 PUSH2 0xD24 JUMP JUMPDEST PUSH2 0x8CF SWAP2 SWAP1 PUSH2 0xD95 JUMP JUMPDEST JUMPDEST SWAP1 POP PUSH1 0x0 PUSH2 0x1F4 SWAP1 POP PUSH1 0x14 DUP4 PUSH1 0x1 ADD SLOAD PUSH2 0x8EA SWAP2 SWAP1 PUSH2 0xD24 JUMP JUMPDEST DUP2 PUSH2 0x8F5 SWAP2 SWAP1 PUSH2 0xC84 JUMP JUMPDEST SWAP1 POP PUSH1 0xA PUSH1 0x2 DUP4 PUSH2 0x906 SWAP2 SWAP1 PUSH2 0xD24 JUMP JUMPDEST PUSH2 0x910 SWAP2 SWAP1 PUSH2 0xD95 JUMP JUMPDEST DUP2 PUSH2 0x91B SWAP2 SWAP1 PUSH2 0xC84 JUMP JUMPDEST SWAP1 POP PUSH1 0x0 DUP4 PUSH1 0x3 ADD SLOAD GT ISZERO PUSH2 0x949 JUMPI PUSH1 0x32 DUP4 PUSH1 0x3 ADD SLOAD PUSH2 0x93B SWAP2 SWAP1 PUSH2 0xD24 JUMP JUMPDEST DUP2 PUSH2 0x946 SWAP2 SWAP1 PUSH2 0xDC6 JUMP JUMPDEST SWAP1 POP JUMPDEST PUSH1 0x0 DUP2 GT PUSH2 0x958 JUMPI PUSH1 0x0 PUSH2 0x95A JUMP JUMPDEST DUP1 JUMPDEST DUP4 PUSH1 0x5 ADD DUP2 SWAP1 SSTORE POP POP POP POP POP JUMP JUMPDEST PUSH1 0x0 DUP1 REVERT JUMPDEST PUSH1 0x0 PUSH20 0xFFFFFFFFFFFFFFFFFFFFFFFFFFFFFFFFFFFFFFFF DUP3 AND SWAP1 POP SWAP2 SWAP1 POP JUMP JUMPDEST PUSH1 0x0 PUSH2 0x998 DUP3 PUSH2 0x96D JUMP JUMPDEST SWAP1 POP SWAP2 SWAP1 POP JUMP JUMPDEST PUSH2 0x9A8 DUP2 PUSH2 0x98D JUMP JUMPDEST DUP2 EQ PUSH2 0x9B3 JUMPI PUSH1 0x0 DUP1 REVERT JUMPDEST POP JUMP JUMPDEST PUSH1 0x0 DUP2 CALLDATALOAD SWAP1 POP PUSH2 0x9C5 DUP2 PUSH2 0x99F JUMP JUMPDEST SWAP3 SWAP2 POP POP JUMP JUMPDEST PUSH1 0x0 PUSH1 0x20 DUP3 DUP5 SUB SLT ISZERO PUSH2 0x9E1 JUMPI PUSH2 0x9E0 PUSH2 0x968 JUMP JUMPDEST JUMPDEST PUSH1 0x0 PUSH2 0x9EF DUP5 DUP3 DUP6 ADD PUSH2 0x9B6 JUMP JUMPDEST SWAP2 POP POP SWAP3 SWAP2 POP POP JUMP JUMPDEST PUSH1 0x0 DUP2 SWAP1 POP SWAP2 SWAP1 POP JUMP JUMPDEST PUSH2 0xA0B DUP2 PUSH2 0x9F8 JUMP JUMPDEST DUP3 MSTORE POP POP JUMP JUMPDEST PUSH1 0x0 PUSH1 0xC0 DUP3 ADD SWAP1 POP PUSH2 0xA26 PUSH1 0x0 DUP4 ADD DUP10 PUSH2 0xA02 JUMP JUMPDEST PUSH2 0xA33 PUSH1 0x20 DUP4 ADD DUP9 PUSH2 0xA02 JUMP JUMPDEST PUSH2 0xA40 PUSH1 0x40 DUP4 ADD DUP8 PUSH2 0xA02 JUMP JUMPDEST PUSH2 0xA4D PUSH1 0x60 DUP4 ADD DUP7 PUSH2 0xA02 JUMP JUMPDEST PUSH2 0xA5A PUSH1 0x80 DUP4 ADD DUP6 PUSH2 0xA02 JUMP JUMPDEST PUSH2 0xA67 PUSH1 0xA0 DUP4 ADD DUP5 PUSH2 0xA02 JUMP JUMPDEST SWAP8 SWAP7 POP POP POP POP POP POP POP JUMP JUMPDEST PUSH2 0xA7B DUP2 PUSH2 0x9F8 JUMP JUMPDEST DUP2 EQ PUSH2 0xA86 JUMPI PUSH1 0x0 DUP1 REVERT JUMPDEST POP JUMP JUMPDEST PUSH1 0x0 DUP2 CALLDATALOAD SWAP1 POP PUSH2 0xA98 DUP2 PUSH2 0xA72 JUMP JUMPDEST SWAP3 SWAP2 POP POP JUMP JUMPDEST PUSH1 0x0 DUP1 PUSH1 0x40 DUP4 DUP6 SUB SLT ISZERO PUSH2 0xAB5 JUMPI PUSH2 0xAB4 PUSH2 0x968 JUMP JUMPDEST JUMPDEST PUSH1 0x0 PUSH2 0xAC3 DUP6 DUP3 DUP7 ADD PUSH2 0x9B6 JUMP JUMPDEST SWAP3 POP POP PUSH1 0x20 PUSH2 0xAD4 DUP6 DUP3 DUP7 ADD PUSH2 0xA89 JUMP JUMPDEST SWAP2 POP POP SWAP3 POP SWAP3 SWAP1 POP JUMP JUMPDEST PUSH1 0x0 PUSH1 0x20 DUP3 ADD SWAP1 POP PUSH2 0xAF3 PUSH1 0x0 DUP4 ADD DUP5 PUSH2 0xA02 JUMP JUMPDEST SWAP3 SWAP2 POP POP JUMP JUMPDEST PUSH1 0x0 DUP2 ISZERO ISZERO SWAP1 POP SWAP2 SWAP1 POP JUMP JUMPDEST PUSH2 0xB0E DUP2 PUSH2 0xAF9 JUMP JUMPDEST DUP3 MSTORE POP POP JUMP JUMPDEST PUSH1 0x0 PUSH1 0x20 DUP3 ADD SWAP1 POP PUSH2 0xB29 PUSH1 0x0 DUP4 ADD DUP5 PUSH2 0xB05 JUMP JUMPDEST SWAP3 SWAP2 POP POP JUMP JUMPDEST PUSH2 0xB38 DUP2 PUSH2 0x98D JUMP JUMPDEST DUP3 MSTORE POP POP JUMP JUMPDEST PUSH1 0x0 PUSH1 0x20 DUP3 ADD SWAP1 POP PUSH2 0xB53 PUSH1 0x0 DUP4 ADD DUP5 PUSH2 0xB2F JUMP JUMPDEST SWAP3 SWAP2 POP POP JUMP JUMPDEST PUSH2 0xB62 DUP2 PUSH2 0xAF9 JUMP JUMPDEST DUP2 EQ PUSH2 0xB6D JUMPI PUSH1 0x0 DUP1 REVERT JUMPDEST POP JUMP JUMPDEST PUSH1 0x0 DUP2 CALLDATALOAD SWAP1 POP PUSH2 0xB7F DUP2 PUSH2 0xB59 JUMP JUMPDEST SWAP3 SWAP2 POP POP JUMP JUMPDEST PUSH1 0x0 DUP1 PUSH1 0x0 PUSH1 0x60 DUP5 DUP7 SUB SLT ISZERO PUSH2 0xB9E JUMPI PUSH2 0xB9D PUSH2 0x968 JUMP JUMPDEST JUMPDEST PUSH1 0x0 PUSH2 0xBAC DUP7 DUP3 DUP8 ADD PUSH2 0x9B6 JUMP JUMPDEST SWAP4 POP POP PUSH1 0x20 PUSH2 0xBBD DUP7 DUP3 DUP8 ADD PUSH2 0xA89 JUMP JUMPDEST SWAP3 POP POP PUSH1 0x40 PUSH2 0xBCE DUP7 DUP3 DUP8 ADD PUSH2 0xB70 JUMP JUMPDEST SWAP2 POP POP SWAP3 POP SWAP3 POP SWAP3 JUMP JUMPDEST PUSH1 0x0 DUP3 DUP3 MSTORE PUSH1 0x20 DUP3 ADD SWAP1 POP SWAP3 SWAP2 POP POP JUMP JUMPDEST PUSH32 0x4F6E6C79204C6F616E466163746F727900000000000000000000000000000000 PUSH1 0x0 DUP3 ADD MSTORE POP JUMP JUMPDEST PUSH1 0x0 PUSH2 0xC1F PUSH1 0x10 DUP4 PUSH2 0xBD8 JUMP JUMPDEST SWAP2 POP PUSH2 0xC2A DUP3 PUSH2 0xBE9 JUMP JUMPDEST PUSH1 0x20 DUP3 ADD SWAP1 POP SWAP2 SWAP1 POP JUMP JUMPDEST PUSH1 0x0 PUSH1 0x20 DUP3 ADD SWAP1 POP DUP2 DUP2 SUB PUSH1 0x0 DUP4 ADD MSTORE PUSH2 0xC4E DUP2 PUSH2 0xC12 JUMP JUMPDEST SWAP1 POP SWAP2 SWAP1 POP JUMP JUMPDEST PUSH32 0x4E487B7100000000000000000000000000000000000000000000000000000000 PUSH1 0x0 MSTORE PUSH1 0x11 PUSH1 0x4 MSTORE PUSH1 0x24 PUSH1 0x0 REVERT JUMPDEST PUSH1 0x0 PUSH2 0xC8F DUP3 PUSH2 0x9F8 JUMP JUMPDEST SWAP2 POP PUSH2 0xC9A DUP4 PUSH2 0x9F8 JUMP JUMPDEST SWAP3 POP DUP3 DUP3 ADD SWAP1 POP DUP1 DUP3 GT ISZERO PUSH2 0xCB2 JUMPI PUSH2 0xCB1 PUSH2 0xC55 JUMP JUMPDEST JUMPDEST SWAP3 SWAP2 POP POP JUMP JUMPDEST PUSH32 0x4F6E6C79204C6F616E466163746F7279206F72204C6F616E0000000000000000 PUSH1 0x0 DUP3 ADD MSTORE POP JUMP JUMPDEST PUSH1 0x0 PUSH2 0xCEE PUSH1 0x18 DUP4 PUSH2 0xBD8 JUMP JUMPDEST SWAP2 POP PUSH2 0xCF9 DUP3 PUSH2 0xCB8 JUMP JUMPDEST PUSH1 0x20 DUP3 ADD SWAP1 POP SWAP2 SWAP1 POP JUMP JUMPDEST PUSH1 0x0 PUSH1 0x20 DUP3 ADD SWAP1 POP DUP2 DUP2 SUB PUSH1 0x0 DUP4 ADD MSTORE PUSH2 0xD1D DUP2 PUSH2 0xCE1 JUMP JUMPDEST SWAP1 POP SWAP2 SWAP1 POP JUMP JUMPDEST PUSH1 0x0 PUSH2 0xD2F DUP3 PUSH2 0x9F8 JUMP JUMPDEST SWAP2 POP PUSH2 0xD3A DUP4 PUSH2 0x9F8 JUMP JUMPDEST SWAP3 POP DUP3 DUP3 MUL PUSH2 0xD48 DUP2 PUSH2 0x9F8 JUMP JUMPDEST SWAP2 POP DUP3 DUP3 DIV DUP5 EQ DUP4 ISZERO OR PUSH2 0xD5F JUMPI PUSH2 0xD5E PUSH2 0xC55 JUMP JUMPDEST JUMPDEST POP SWAP3 SWAP2 POP POP JUMP JUMPDEST PUSH32 0x4E487B7100000000000000000000000000000000000000000000000000000000 PUSH1 0x0 MSTORE PUSH1 0x12 PUSH1 0x4 MSTORE PUSH1 0x24 PUSH1 0x0 REVERT JUMPDEST PUSH1 0x0 PUSH2 0xDA0 DUP3 PUSH2 0x9F8 JUMP JUMPDEST SWAP2 POP PUSH2 0xDAB DUP4 PUSH2 0x9F8 JUMP JUMPDEST SWAP3 POP DUP3 PUSH2 0xDBB JUMPI PUSH2 0xDBA PUSH2 0xD66 JUMP JUMPDEST JUMPDEST DUP3 DUP3 DIV SWAP1 POP SWAP3 SWAP2 POP POP JUMP JUMPDEST PUSH1 0x0 PUSH2 0xDD1 DUP3 PUSH2 0x9F8 JUMP JUMPDEST SWAP2 POP PUSH2 0xDDC DUP4 PUSH2 0x9F8 JUMP JUMPDEST SWAP3 POP DUP3 DUP3 SUB SWAP1 POP DUP2 DUP2 GT ISZERO PUSH2 0xDF4 JUMPI PUSH2 0xDF3 PUSH2 0xC55 JUMP JUMPDEST JUMPDEST SWAP3 SWAP2 POP POP JUMP INVALID LOG2 PUSH5 0x6970667358 0x22 SLT KECCAK256 CREATE2 SWAP10 PUSH24 0x3BD90E76A5804957C5AB17C6DF8D5EB98F6A37FC814863AF PUSH31 0x6D1BB45064736F6C6343000818003300000000000000000000000000000000 "},"methodIdentifiers":{"createLoan(uint256,uint256,uint256)":"904b513b","creditScore()":"39da3152","getCreditScore()":"5da19538","getLoan(uint256)":"504006ca","listLoans()":"5a2c4509","loanCount()":"ce63094d","loans(uint256)":"e1ec3c68","markLoanDefaulted(uint256)":"d92d7d77"}}}}}