{"contracts/Loan.sol":{"Loan":{"abi":[{"inputs":[{"internalType":"address","name":"_borrower","type":"address"},{"internalType":"uint256","name":"_principal","type":"uint256"},{"internalType":"uint256","name":"_interestRateBps","type":"uint256"},{"internalType":"uint256","name":"_durationDays","type":"uint256"},{"internalType":"address","name":"_factory","type":"address"},{"internalType":"address","name":"_creditScore","type":"address"}],"stateMutability":"nonpayable","type":"constructor"},{"anonymous":false,"inputs":[{"indexed":true,"internalType":"address","name":"borrower","type":"address"}],"name":"LoanDefaulted","type":"event"},{"anonymous":false,"inputs":[{"indexed":true,"internalType":"address","name":"lender","type":"address"},{"indexed":false,"internalType":"uint256","name":"amount","type":"uint256"}],"name":"LoanFunded","type":"event"},{"anonymous":false,"inputs":[{"indexed":true,"internalType":"address","name":"borrower","type":"address"},{"indexed":false,"internalType":"uint256","name":"principal","type":"uint256"},{"indexed":false,"internalType":"uint256","name":"interest","type":"uint256"}],"name":"LoanRepaid","type":"event"},{"inputs":[],"name":"borrower","outputs":[{"internalType":"address","name":"","type":"address"}],"stateMutability":"view","type":"function"},{"inputs":[],"name":"creditScore","outputs":[{"internalType":"contract ICreditScore","name":"","type":"address"}],"stateMutability":"view","type":"function"},{"inputs":[],"name":"durationDays","outputs":[{"internalType":"uint256","name":"","type":"uint256"}],"stateMutability":"view","type":"function"},{"inputs":[],"name":"factory","outputs":[{"internalType":"address","name":"","type":"address"}],"stateMutability":"view","type":"function"},{"inputs":[],"name":"fund","outputs":[],"stateMutability":"payable","type":"function"},{"inputs":[],"name":"fundedAt","outputs":[{"internalType":"uint256","name":"","type":"uint256"}],"stateMutability":"view","type":"function"},{"inputs":[],"name":"getTotalRepayment","outputs":[{"internalType":"uint256","name":"","type":"uint256"}],"stateMutability":"view","type":"function"},{"inputs":[],"name":"interestRateBps","outputs":[{"internalType":"uint256","name":"","type":"uint256"}],"stateMutability":"view","type":"function"},{"inputs":[],"name":"lender","outputs":[{"internalType":"address","name":"","type":"address"}],"stateMutability":"view","type":"function"},{"inputs":[],"name":"markDefaulted","outputs":[],"stateMutability":"nonpayable","type":"function"},{"inputs":[],"name":"principal","outputs":[{"internalType":"uint256","name":"","type":"uint256"}],"stateMutability":"view","type":"function"},{"inputs":[],"name":"repay","outputs":[],"stateMutability":"payable","type":"function"},{"inputs":[],"name":"repaymentDeadline","outputs":[{"internalType":"uint256","name":"","type":"uint256"}],"stateMutability":"view","type":"function"},{"inputs":[],"name":"status","outputs":[{"internalType":"enum Loan.Status","name":"","type":"uint8"}],"stateMutability":"view","type":"function"}],"evm":{"bytecode":{"linkReferences":{},"object":"60806040523480156200001157600080fd5b50604051620018c4380380620018c48339818101604052810190620000379190620001ed565b856000806101000a81548173ffffffffffffffffffffffffffffffffffffffff021916908373ffffffffffffffffffffffffffffffffffffffff16021790555084600281905550836003819055508260048190555081600760016101000a81548173ffffffffffffffffffffffffffffffffffffffff021916908373ffffffffffffffffffffffffffffffffffffffff16021790555080600860006101000a81548173ffffffffffffffffffffffffffffffffffffffff021916908373ffffffffffffffffffffffffffffffffffffffff1602179055506000600760006101000a81548160ff0219169083600481111562000137576200013662000289565b5b0217905550505050505050620002b8565b600080fd5b600073ffffffffffffffffffffffffffffffffffffffff82169050919050565b60006200017a826200014d565b9050919050565b6200018c816200016d565b81146200019857600080fd5b50565b600081519050620001ac8162000181565b92915050565b6000819050919050565b620001c781620001b2565b8114620001d357600080fd5b50565b600081519050620001e781620001bc565b92915050565b60008060008060008060c087890312156200020d576200020c62000148565b5b60006200021d89828a016200019b565b96505060206200023089828a01620001d6565b95505060406200024389828a01620001d6565b94505060606200025689828a01620001d6565b93505060806200026989828a016200019b565b92505060a06200027c89828a016200019b565b9150509295509295509295565b7f4e487b7100000000000000000000000000000000000000000000000000000000600052602160045260246000fd5b6115fc80620002c86000396000f3fe6080604052600436106100dd5760003560e01c8063b60d42881161007f578063c45a015511610059578063c45a01551461024e578063c84a208b14610279578063d746d0b2146102a4578063dd541230146102cf576100dd565b8063b60d4288146101ee578063ba5d3078146101f8578063bcead63e14610223576100dd565b8063402d8883116100bb578063402d8883146101635780637df1f1b91461016d5780639cd56d0314610198578063a9a748ff146101c3576100dd565b806319cc3aaa146100e2578063200d2ed21461010d57806339da315214610138575b600080fd5b3480156100ee57600080fd5b506100f76102e6565b6040516101049190610e43565b60405180910390f35b34801561011957600080fd5b506101226102ec565b60405161012f9190610ed5565b60405180910390f35b34801561014457600080fd5b5061014d6102ff565b60405161015a9190610f6f565b60405180910390f35b61016b610325565b005b34801561017957600080fd5b506101826107b6565b60405161018f9190610fab565b60405180910390f35b3480156101a457600080fd5b506101ad6107da565b6040516101ba9190610e43565b60405180910390f35b3480156101cf57600080fd5b506101d86107e0565b6040516101e59190610e43565b60405180910390f35b6101f66107e6565b005b34801561020457600080fd5b5061020d610a38565b60405161021a9190610e43565b60405180910390f35b34801561022f57600080fd5b50610238610a3e565b6040516102459190610fab565b60405180910390f35b34801561025a57600080fd5b50610263610a64565b6040516102709190610fab565b60405180910390f35b34801561028557600080fd5b5061028e610a8a565b60405161029b9190610e43565b60405180910390f35b3480156102b057600080fd5b506102b9610a90565b6040516102c69190610e43565b60405180910390f35b3480156102db57600080fd5b506102e4610ac6565b005b60065481565b600760009054906101000a900460ff1681565b600860009054906101000a900473ffffffffffffffffffffffffffffffffffffffff1681565b60008054906101000a900473ffffffffffffffffffffffffffffffffffffffff1673ffffffffffffffffffffffffffffffffffffffff163373ffffffffffffffffffffffffffffffffffffffff16146103b3576040517f08c379a00000000000000000000000000000000000000000000000000000000081526004016103aa90611023565b60405180910390fd5b600260048111156103c7576103c6610e5e565b5b600760009054906101000a900460ff1660048111156103e9576103e8610e5e565b5b14610429576040517f08c379a00000000000000000000000000000000000000000000000000000000081526004016104209061108f565b60405180910390fd5b600061271060035460025461043e91906110de565b610448919061114f565b905060008160025461045a9190611180565b90508034101561049f576040517f08c379a000000000000000000000000000000000000000000000000000000000815260040161049690611200565b60405180910390fd5b6003600760006101000a81548160ff021916908360048111156104c5576104c4610e5e565b5b021790555060006006544211159050600860009054906101000a900473ffffffffffffffffffffffffffffffffffffffff1673ffffffffffffffffffffffffffffffffffffffff1663c48f139260008054906101000a900473ffffffffffffffffffffffffffffffffffffffff16600254846040518463ffffffff1660e01b81526004016105559392919061123b565b600060405180830381600087803b15801561056f57600080fd5b505af1158015610583573d6000803e3d6000fd5b505050506000600160009054906101000a900473ffffffffffffffffffffffffffffffffffffffff1673ffffffffffffffffffffffffffffffffffffffff16836040516105cf906112a3565b60006040518083038185875af1925050503d806000811461060c576040519150601f19603f3d011682016040523d82523d6000602084013e610611565b606091505b5050905080610655576040517f08c379a000000000000000000000000000000000000000000000000000000000815260040161064c90611304565b60405180910390fd5b600083346106639190611324565b9050600081111561073d5760008060009054906101000a900473ffffffffffffffffffffffffffffffffffffffff1673ffffffffffffffffffffffffffffffffffffffff16826040516106b5906112a3565b60006040518083038185875af1925050503d80600081146106f2576040519150601f19603f3d011682016040523d82523d6000602084013e6106f7565b606091505b505090508061073b576040517f08c379a0000000000000000000000000000000000000000000000000000000008152600401610732906113a4565b60405180910390fd5b505b60008054906101000a900473ffffffffffffffffffffffffffffffffffffffff1673ffffffffffffffffffffffffffffffffffffffff167fc7ce0a35f17b490de2a317e7fecb2cae86b1abffb03800b2f492823521382698600254876040516107a79291906113c4565b60405180910390a25050505050565b60008054906101000a900473ffffffffffffffffffffffffffffffffffffffff1681565b60045481565b60055481565b600060048111156107fa576107f9610e5e565b5b600760009054906101000a900460ff16600481111561081c5761081b610e5e565b5b1461085c576040517f08c379a00000000000000000000000000000000000000000000000000000000081526004016108539061108f565b60405180910390fd5b6002543410156108a1576040517f08c379a000000000000000000000000000000000000000000000000000000000815260040161089890611439565b60405180910390fd5b60008054906101000a900473ffffffffffffffffffffffffffffffffffffffff1673ffffffffffffffffffffffffffffffffffffffff163373ffffffffffffffffffffffffffffffffffffffff160361092f576040517f08c379a0000000000000000000000000000000000000000000000000000000008152600401610926906114a5565b60405180910390fd5b33600160006101000a81548173ffffffffffffffffffffffffffffffffffffffff021916908373ffffffffffffffffffffffffffffffffffffffff160217905550426005819055506201518060045461098891906110de565b426109939190611180565b6006819055506002600760006101000a81548160ff021916908360048111156109bf576109be610e5e565b5b0217905550600160009054906101000a900473ffffffffffffffffffffffffffffffffffffffff1673ffffffffffffffffffffffffffffffffffffffff167f726d5f1a838fe31748f737fa3ae5539ccff95952adfc593a1299532b643ff7a8600254604051610a2e9190610e43565b60405180910390a2565b60025481565b600160009054906101000a900473ffffffffffffffffffffffffffffffffffffffff1681565b600760019054906101000a900473ffffffffffffffffffffffffffffffffffffffff1681565b60035481565b600080612710600354600254610aa691906110de565b610ab0919061114f565b905080600254610ac09190611180565b91505090565b600760019054906101000a900473ffffffffffffffffffffffffffffffffffffffff1673ffffffffffffffffffffffffffffffffffffffff163373ffffffffffffffffffffffffffffffffffffffff1614610b56576040517f08c379a0000000000000000000000000000000000000000000000000000000008152600401610b4d90611511565b60405180910390fd5b60026004811115610b6a57610b69610e5e565b5b600760009054906101000a900460ff166004811115610b8c57610b8b610e5e565b5b14610bcc576040517f08c379a0000000000000000000000000000000000000000000000000000000008152600401610bc39061108f565b60405180910390fd5b6006544211610c10576040517f08c379a0000000000000000000000000000000000000000000000000000000008152600401610c079061157d565b60405180910390fd5b6004600760006101000a81548160ff02191690836004811115610c3657610c35610e5e565b5b0217905550600860009054906101000a900473ffffffffffffffffffffffffffffffffffffffff1673ffffffffffffffffffffffffffffffffffffffff1663cd4544f260008054906101000a900473ffffffffffffffffffffffffffffffffffffffff166002546040518363ffffffff1660e01b8152600401610cba92919061159d565b600060405180830381600087803b158015610cd457600080fd5b505af1158015610ce8573d6000803e3d6000fd5b505050506000471115610dc5576000600160009054906101000a900473ffffffffffffffffffffffffffffffffffffffff1673ffffffffffffffffffffffffffffffffffffffff1647604051610d3d906112a3565b60006040518083038185875af1925050503d8060008114610d7a576040519150601f19603f3d011682016040523d82523d6000602084013e610d7f565b606091505b5050905080610dc3576040517f08c379a0000000000000000000000000000000000000000000000000000000008152600401610dba90611304565b60405180910390fd5b505b60008054906101000a900473ffffffffffffffffffffffffffffffffffffffff1673ffffffffffffffffffffffffffffffffffffffff167ff4e5cf42cbb1d0c6c91e16d925349feb6c5d970652f6ec77b1ff1262f7284cd560405160405180910390a2565b6000819050919050565b610e3d81610e2a565b82525050565b6000602082019050610e586000830184610e34565b92915050565b7f4e487b7100000000000000000000000000000000000000000000000000000000600052602160045260246000fd5b60058110610e9e57610e9d610e5e565b5b50565b6000819050610eaf82610e8d565b919050565b6000610ebf82610ea1565b9050919050565b610ecf81610eb4565b82525050565b6000602082019050610eea6000830184610ec6565b92915050565b600073ffffffffffffffffffffffffffffffffffffffff82169050919050565b6000819050919050565b6000610f35610f30610f2b84610ef0565b610f10565b610ef0565b9050919050565b6000610f4782610f1a565b9050919050565b6000610f5982610f3c565b9050919050565b610f6981610f4e565b82525050565b6000602082019050610f846000830184610f60565b92915050565b6000610f9582610ef0565b9050919050565b610fa581610f8a565b82525050565b6000602082019050610fc06000830184610f9c565b92915050565b600082825260208201905092915050565b7f4f6e6c7920626f72726f77657200000000000000000000000000000000000000600082015250565b600061100d600d83610fc6565b915061101882610fd7565b602082019050919050565b6000602082019050818103600083015261103c81611000565b9050919050565b7f496e76616c696420737461747573000000000000000000000000000000000000600082015250565b6000611079600e83610fc6565b915061108482611043565b602082019050919050565b600060208201905081810360008301526110a88161106c565b9050919050565b7f4e487b7100000000000000000000000000000000000000000000000000000000600052601160045260246000fd5b60006110e982610e2a565b91506110f483610e2a565b925082820261110281610e2a565b91508282048414831517611119576111186110af565b5b5092915050565b7f4e487b7100000000000000000000000000000000000000000000000000000000600052601260045260246000fd5b600061115a82610e2a565b915061116583610e2a565b92508261117557611174611120565b5b828204905092915050565b600061118b82610e2a565b915061119683610e2a565b92508282019050808211156111ae576111ad6110af565b5b92915050565b7f496e73756666696369656e742072657061796d656e7400000000000000000000600082015250565b60006111ea601683610fc6565b91506111f5826111b4565b602082019050919050565b60006020820190508181036000830152611219816111dd565b9050919050565b60008115159050919050565b61123581611220565b82525050565b60006060820190506112506000830186610f9c565b61125d6020830185610e34565b61126a604083018461122c565b949350505050565b600081905092915050565b50565b600061128d600083611272565b91506112988261127d565b600082019050919050565b60006112ae82611280565b9150819050919050565b7f5472616e73666572206661696c65640000000000000000000000000000000000600082015250565b60006112ee600f83610fc6565b91506112f9826112b8565b602082019050919050565b6000602082019050818103600083015261131d816112e1565b9050919050565b600061132f82610e2a565b915061133a83610e2a565b9250828203905081811115611352576113516110af565b5b92915050565b7f526566756e64206661696c656400000000000000000000000000000000000000600082015250565b600061138e600d83610fc6565b915061139982611358565b602082019050919050565b600060208201905081810360008301526113bd81611381565b9050919050565b60006040820190506113d96000830185610e34565b6113e66020830184610e34565b9392505050565b7f496e73756666696369656e742066756e64730000000000000000000000000000600082015250565b6000611423601283610fc6565b915061142e826113ed565b602082019050919050565b6000602082019050818103600083015261145281611416565b9050919050565b7f426f72726f7765722063616e6e6f742066756e64206f776e206c6f616e000000600082015250565b600061148f601d83610fc6565b915061149a82611459565b602082019050919050565b600060208201905081810360008301526114be81611482565b9050919050565b7f4f6e6c7920666163746f72790000000000000000000000000000000000000000600082015250565b60006114fb600c83610fc6565b9150611506826114c5565b602082019050919050565b6000602082019050818103600083015261152a816114ee565b9050919050565b7f4e6f7420796574206f7665726475650000000000000000000000000000000000600082015250565b6000611567600f83610fc6565b915061157282611531565b602082019050919050565b600060208201905081810360008301526115968161155a565b9050919050565b60006040820190506115b26000830185610f9c565b6115bf6020830184610e34565b939250505056fea264697066735822122053e4792fd45b5cc2ee3536acdd413f8dbd2e8634cc87c8c357932ad5b37e22b964736f6c63430008180033","opcodes":"PUSH1 0x80 PUSH1 0x40 MSTORE CALLVALUE DUP1 ISZERO PUSH3 0x11 JUMPI PUSH1 0x0 DUP1 REVERT JUMPDEST POP PUSH1 0x40 MLOAD PUSH3 0x18C4 CODESIZE SUB DUP1 PUSH3 0x18C4 DUP4 CODECOPY DUP2 DUP2 ADD PUSH1 0x40 MSTORE DUP2 ADD SWAP1 PUSH3 0x37 SWAP2 SWAP1 PUSH3 0x1ED JUMP JUMPDEST DUP6 PUSH1 0x0 DUP1 PUSH2 0x100 EXP DUP2 SLOAD DUP2 PUSH20 0xFFFFFFFFFFFFFFFFFFFFFFFFFFFFFFFFFFFFFFFF MUL NOT AND SWAP1 DUP4 PUSH20 0xFFFFFFFFFFFFFFFFFFFFFFFFFFFFFFFFFFFFFFFF AND MUL OR SWAP1 SSTORE POP DUP5 PUSH1 0x2 DUP2 SWAP1 SSTORE POP DUP4 PUSH1 0x3 DUP2 SWAP1 SSTORE POP DUP3 PUSH1 0x4 DUP2 SWAP1 SSTORE POP DUP2 PUSH1 0x7 PUSH1 0x1 PUSH2 0x100 EXP DUP2 SLOAD DUP2 PUSH20 0xFFFFFFFFFFFFFFFFFFFFFFFFFFFFFFFFFFFFFFFF MUL NOT AND SWAP1 DUP4 PUSH20 0xFFFFFFFFFFFFFFFFFFFFFFFFFFFFFFFFFFFFFFFF AND MUL OR SWAP1 SSTORE POP DUP1 PUSH1 0x8 PUSH1 0x0 PUSH2 0x100 EXP DUP2 SLOAD DUP2 PUSH20 0xFFFFFFFFFFFFFFFFFFFFFFFFFFFFFFFFFFFFFFFF MUL NOT AND SWAP1 DUP4 PUSH20 0xFFFFFFFFFFFFFFFFFFFFFFFFFFFFFFFFFFFFFFFF AND MUL OR SWAP1 SSTORE POP PUSH1 0x0 PUSH1 0x7 PUSH1 0x0 PUSH2 0x100 EXP DUP2 SLOAD DUP2 PUSH1 0xFF MUL NOT AND SWAP1 DUP4 PUSH1 0x4 DUP2 GT ISZERO PUSH3 0x137 JUMPI PUSH3 0x136 PUSH3 0x289 JUMP JUMPDEST JUMPDEST MUL OR SWAP1 SSTORE POP POP POP POP POP POP POP PUSH3 0x2B8 JUMP JUMPDEST PUSH1 0x0 DUP1 REVERT JUMPDEST PUSH1 0x0 PUSH20 0xFFFFFFFFFFFFFFFFFFFFFFFFFFFFFFFFFFFFFFFF DUP3 AND SWAP1 POP SWAP2 SWAP1 POP JUMP JUMPDEST PUSH1 0x0 PUSH3 0x17A DUP3 PUSH3 0x14D JUMP JUMPDEST SWAP1 POP SWAP2 SWAP1 POP JUMP JUMPDEST PUSH3 0x18C DUP2 PUSH3 0x16D JUMP JUMPDEST DUP2 EQ PUSH3 0x198 JUMPI PUSH1 0x0 DUP1 REVERT JUMPDEST POP JUMP JUMPDEST PUSH1 0x0 DUP2 MLOAD SWAP1 POP PUSH3 0x1AC DUP2 PUSH3 0x181 JUMP JUMPDEST SWAP3 SWAP2 POP POP JUMP JUMPDEST PUSH1 0x0 DUP2 SWAP1 POP SWAP2 SWAP1 POP JUMP JUMPDEST PUSH3 0x1C7 DUP2 PUSH3 0x1B2 JUMP JUMPDEST DUP2 EQ PUSH3 0x1D3 JUMPI PUSH1 0x0 DUP1 REVERT JUMPDEST POP JUMP JUMPDEST PUSH1 0x0 DUP2 MLOAD SWAP1 POP PUSH3 0x1E7 DUP2 PUSH3 0x1BC JUMP JUMPDEST SWAP3 SWAP2 POP POP JUMP JUMPDEST PUSH1 0x0 DUP1 PUSH1 0x0 DUP1 PUSH1 0x0 DUP1 PUSH1 0xC0 DUP8 DUP10 SUB SLT ISZERO PUSH3 0x20D JUMPI PUSH3 0x20C PUSH3 0x148 JUMP JUMPDEST JUMPDEST PUSH1 0x0 PUSH3 0x21D DUP10 DUP3 DUP11 ADD PUSH3 0x19B JUMP JUMPDEST SWAP7 POP POP PUSH1 0x20 PUSH3 0x230 DUP10 DUP3 DUP11 ADD PUSH3 0x1D6 JUMP JUMPDEST SWAP6 POP POP PUSH1 0x40 PUSH3 0x243 DUP10 DUP3 DUP11 ADD PUSH3 0x1D6 JUMP JUMPDEST SWAP5 POP POP PUSH1 0x60 PUSH3 0x256 DUP10 DUP3 DUP11 ADD PUSH3 0x1D6 JUMP JUMPDEST SWAP4 POP POP PUSH1 0x80 PUSH3 0x269 DUP10 DUP3 DUP11 ADD PUSH3 0x19B JUMP JUMPDEST SWAP3 POP POP PUSH1 0xA0 PUSH3 0x27C DUP10 DUP3 DUP11 ADD PUSH3 0x19B JUMP JUMPDEST SWAP2 POP POP SWAP3 SWAP6 POP SWAP3 SWAP6 POP SWAP3 SWAP6 JUMP JUMPDEST PUSH32 0x4E487B7100000000000000000000000000000000000000000000000000000000 PUSH1 0x0 MSTORE PUSH1 0x21 PUSH1 0x4 MSTORE PUSH1 0x24 PUSH1 0x0 REVERT JUMPDEST PUSH2 0x15FC DUP1 PUSH3 0x2C8 PUSH1 0x0 CODECOPY PUSH1 0x0 RETURN INVALID PUSH1 0x80 PUSH1 0x40 MSTORE PUSH1 0x4 CALLDATASIZE LT PUSH2 0xDD JUMPI PUSH1 0x0 CALLDATALOAD PUSH1 0xE0 SHR DUP1 PUSH4 0xB60D4288 GT PUSH2 0x7F JUMPI DUP1 PUSH4 0xC45A0155 GT PUSH2 0x59 JUMPI DUP1 PUSH4 0xC45A0155 EQ PUSH2 0x24E JUMPI DUP1 PUSH4 0xC84A208B EQ PUSH2 0x279 JUMPI DUP1 PUSH4 0xD746D0B2 EQ PUSH2 0x2A4 JUMPI DUP1 PUSH4 0xDD541230 EQ PUSH2 0x2CF JUMPI PUSH2 0xDD JUMP JUMPDEST DUP1 PUSH4 0xB60D4288 EQ PUSH2 0x1EE JUMPI DUP1 PUSH4 0xBA5D3078 EQ PUSH2 0x1F8 JUMPI DUP1 PUSH4 0xBCEAD63E EQ PUSH2 0x223 JUMPI PUSH2 0xDD JUMP JUMPDEST DUP1 PUSH4 0x402D8883 GT PUSH2 0xBB JUMPI DUP1 PUSH4 0x402D8883 EQ PUSH2 0x163 JUMPI DUP1 PUSH4 0x7DF1F1B9 EQ PUSH2 0x16D JUMPI DUP1 PUSH4 0x9CD56D03 EQ PUSH2 0x198 JUMPI DUP1 PUSH4 0xA9A748FF EQ PUSH2 0x1C3 JUMPI PUSH2 0xDD JUMP JUMPDEST DUP1 PUSH4 0x19CC3AAA EQ PUSH2 0xE2 JUMPI DUP1 PUSH4 0x200D2ED2 EQ PUSH2 0x10D JUMPI DUP1 PUSH4 0x39DA3152 EQ PUSH2 0x138 JUMPI JUMPDEST PUSH1 0x0 DUP1 REVERT JUMPDEST CALLVALUE DUP1 ISZERO PUSH2 0xEE JUMPI PUSH1 0x0 DUP1 REVERT JUMPDEST POP PUSH2 0xF7 PUSH2 0x2E6 JUMP JUMPDEST PUSH1 0x40 MLOAD PUSH2 0x104 SWAP2 SWAP1 PUSH2 0xE43 JUMP JUMPDEST PUSH1 0x40 MLOAD DUP1 SWAP2 SUB SWAP1 RETURN JUMPDEST CALLVALUE DUP1 ISZERO PUSH2 0x119 JUMPI PUSH1 0x0 DUP1 REVERT JUMPDEST POP PUSH2 0x122 PUSH2 0x2EC JUMP JUMPDEST PUSH1 0x40 MLOAD PUSH2 0x12F SWAP2 SWAP1 PUSH2 0xED5 JUMP JUMPDEST PUSH1 0x40 MLOAD DUP1 SWAP2 SUB SWAP1 RETURN JUMPDEST CALLVALUE DUP1 ISZERO PUSH2 0x144 JUMPI PUSH1 0x0 DUP1 REVERT JUMPDEST POP PUSH2 0x14D PUSH2 0x2FF JUMP JUMPDEST PUSH1 0x40 MLOAD PUSH2 0x15A SWAP2 SWAP1 PUSH2 0xF6F JUMP JUMPDEST PUSH1 0x40 MLOAD DUP1 SWAP2 SUB SWAP1 RETURN JUMPDEST PUSH2 0x16B PUSH2 0x325 JUMP JUMPDEST STOP JUMPDEST CALLVALUE DUP1 ISZERO PUSH2 0x179 JUMPI PUSH1 0x0 DUP1 REVERT JUMPDEST POP PUSH2 0x182 PUSH2 0x7B6 JUMP JUMPDEST PUSH1 0x40 MLOAD PUSH2 0x18F SWAP2 SWAP1 PUSH2 0xFAB JUMP JUMPDEST PUSH1 0x40 MLOAD DUP1 SWAP2 SUB SWAP1 RETURN JUMPDEST CALLVALUE DUP1 ISZERO PUSH2 0x1A4 JUMPI PUSH1 0x0 DUP1 REVERT JUMPDEST POP PUSH2 0x1AD PUSH2 0x7DA JUMP JUMPDEST PUSH1 0x40 MLOAD PUSH2 0x1BA SWAP2 SWAP1 PUSH2 0xE43 JUMP JUMPDEST PUSH1 0x40 MLOAD DUP1 SWAP2 SUB SWAP1 RETURN JUMPDEST CALLVALUE DUP1 ISZERO PUSH2 0x1CF JUMPI PUSH1 0x0 DUP1 REVERT JUMPDEST POP PUSH2 0x1D8 PUSH2 0x7E0 JUMP JUMPDEST PUSH1 0x40 MLOAD PUSH2 0x1E5 SWAP2 SWAP1 PUSH2 0xE43 JUMP JUMPDEST PUSH1 0x40 MLOAD DUP1 SWAP2 SUB SWAP1 RETURN JUMPDEST PUSH2 0x1F6 PUSH2 0x7E6 JUMP JUMPDEST STOP JUMPDEST CALLVALUE DUP1 ISZERO PUSH2 0x204 JUMPI PUSH1 0x0 DUP1 REVERT JUMPDEST POP PUSH2 0x20D PUSH2 0xA38 JUMP JUMPDEST PUSH1 0x40 MLOAD PUSH2 0x21A SWAP2 SWAP1 PUSH2 0xE43 JUMP JUMPDEST PUSH1 0x40 MLOAD DUP1 SWAP2 SUB SWAP1 RETURN JUMPDEST CALLVALUE DUP1 ISZERO PUSH2 0x22F JUMPI PUSH1 0x0 DUP1 REVERT JUMPDEST POP PUSH2 0x238 PUSH2 0xA3E JUMP JUMPDEST PUSH1 0x40 MLOAD PUSH2 0x245 SWAP2 SWAP1 PUSH2 0xFAB JUMP JUMPDEST PUSH1 0x40 MLOAD DUP1 SWAP2 SUB SWAP1 RETURN JUMPDEST CALLVALUE DUP1 ISZERO PUSH2 0x25A JUMPI PUSH1 0x0 DUP1 REVERT JUMPDEST POP PUSH2 0x263 PUSH2 0xA64 JUMP JUMPDEST PUSH1 0x40 MLOAD PUSH2 0x270 SWAP2 SWAP1 PUSH2 0xFAB JUMP JUMPDEST PUSH1 0x40 MLOAD DUP1 SWAP2 SUB SWAP1 RETURN JUMPDEST CALLVALUE DUP1 ISZERO PUSH2 0x285 JUMPI PUSH1 0x0 DUP1 REVERT JUMPDEST POP PUSH2 0x28E PUSH2 0xA8A JUMP JUMPDEST PUSH1 0x40 MLOAD PUSH2 0x29B SWAP2 SWAP1 PUSH2 0xE43 JUMP JUMPDEST PUSH1 0x40 MLOAD DUP1 SWAP2 SUB SWAP1 RETURN JUMPDEST CALLVALUE DUP1 ISZERO PUSH2 0x2B0 JUMPI PUSH1 0x0 DUP1 REVERT JUMPDEST POP PUSH2 0x2B9 PUSH2 0xA90 JUMP JUMPDEST PUSH1 0x40 MLOAD PUSH2 0x2C6 SWAP2 SWAP1 PUSH2 0xE43 JUMP JUMPDEST PUSH1 0x40 MLOAD DUP1 SWAP2 SUB SWAP1 RETURN JUMPDEST CALLVALUE DUP1 ISZERO PUSH2 0x2DB JUMPI PUSH1 0x0 DUP1 REVERT JUMPDEST POP PUSH2 0x2E4 PUSH2 0xAC6 JUMP JUMPDEST STOP JUMPDEST PUSH1 0x6 SLOAD DUP2 JUMP JUMPDEST PUSH1 0x7 PUSH1 0x0 SWAP1 SLOAD SWAP1 PUSH2 0x100 EXP SWAP1 DIV PUSH1 0xFF AND DUP2 JUMP JUMPDEST PUSH1 0x8 PUSH1 0x0 SWAP1 SLOAD SWAP1 PUSH2 0x100 EXP SWAP1 DIV PUSH20 0xFFFFFFFFFFFFFFFFFFFFFFFFFFFFFFFFFFFFFFFF AND DUP2 JUMP JUMPDEST PUSH1 0x0 DUP1 SLOAD SWAP1 PUSH2 0x100 EXP SWAP1 DIV PUSH20 0xFFFFFFFFFFFFFFFFFFFFFFFFFFFFFFFFFFFFFFFF AND PUSH20 0xFFFFFFFFFFFFFFFFFFFFFFFFFFFFFFFFFFFFFFFF AND CALLER PUSH20 0xFFFFFFFFFFFFFFFFFFFFFFFFFFFFFFFFFFFFFFFF AND EQ PUSH2 0x3B3 JUMPI PUSH1 0x40 MLOAD PUSH32 0x8C379A000000000000000000000000000000000000000000000000000000000 DUP2 MSTORE PUSH1 0x4 ADD PUSH2 0x3AA SWAP1 PUSH2 0x1023 JUMP JUMPDEST PUSH1 0x40 MLOAD DUP1 SWAP2 SUB SWAP1 REVERT JUMPDEST PUSH1 0x2 PUSH1 0x4 DUP2 GT ISZERO PUSH2 0x3C7 JUMPI PUSH2 0x3C6 PUSH2 0xE5E JUMP JUMPDEST JUMPDEST PUSH1 0x7 PUSH1 0x0 SWAP1 SLOAD SWAP1 PUSH2 0x100 EXP SWAP1 DIV PUSH1 0xFF AND PUSH1 0x4 DUP2 GT ISZERO PUSH2 0x3E9 JUMPI PUSH2 0x3E8 PUSH2 0xE5E JUMP JUMPDEST JUMPDEST EQ PUSH2 0x429 JUMPI PUSH1 0x40 MLOAD PUSH32 0x8C379A000000000000000000000000000000000000000000000000000000000 DUP2 MSTORE PUSH1 0x4 ADD PUSH2 0x420 SWAP1 PUSH2 0x108F JUMP JUMPDEST PUSH1 0x40 MLOAD DUP1 SWAP2 SUB SWAP1 REVERT JUMPDEST PUSH1 0x0 PUSH2 0x2710 PUSH1 0x3 SLOAD PUSH1 0x2 SLOAD PUSH2 0x43E SWAP2 SWAP1 PUSH2 0x10DE JUMP JUMPDEST PUSH2 0x448 SWAP2 SWAP1 PUSH2 0x114F JUMP JUMPDEST SWAP1 POP PUSH1 0x0 DUP2 PUSH1 0x2 SLOAD PUSH2 0x45A SWAP2 SWAP1 PUSH2 0x1180 JUMP JUMPDEST SWAP1 POP DUP1 CALLVALUE LT ISZERO PUSH2 0x49F JUMPI PUSH1 0x40 MLOAD PUSH32 0x8C379A000000000000000000000000000000000000000000000000000000000 DUP2 MSTORE PUSH1 0x4 ADD PUSH2 0x496 SWAP1 PUSH2 0x1200 JUMP JUMPDEST PUSH1 0x40 MLOAD DUP1 SWAP2 SUB SWAP1 REVERT JUMPDEST PUSH1 0x3 PUSH1 0x7 PUSH1 0x0 PUSH2 0x100 EXP DUP2 SLOAD DUP2 PUSH1 0xFF MUL NOT AND SWAP1 DUP4 PUSH1 0x4 DUP2 GT ISZERO PUSH2 0x4C5 JUMPI PUSH2 0x4C4 PUSH2 0xE5E JUMP JUMPDEST JUMPDEST MUL OR SWAP1 SSTORE POP PUSH1 0x0 PUSH1 0x6 SLOAD TIMESTAMP GT ISZERO SWAP1 POP PUSH1 0x8 PUSH1 0x0 SWAP1 SLOAD SWAP1 PUSH2 0x100 EXP SWAP1 DIV PUSH20 0xFFFFFFFFFFFFFFFFFFFFFFFFFFFFFFFFFFFFFFFF AND PUSH20 0xFFFFFFFFFFFFFFFFFFFFFFFFFFFFFFFFFFFFFFFF AND PUSH4 0xC48F1392 PUSH1 0x0 DUP1 SLOAD SWAP1 PUSH2 0x100 EXP SWAP1 DIV PUSH20 0xFFFFFFFFFFFFFFFFFFFFFFFFFFFFFFFFFFFFFFFF AND PUSH1 0x2 SLOAD DUP5 PUSH1 0x40 MLOAD DUP5 PUSH4 0xFFFFFFFF AND PUSH1 0xE0 SHL DUP2 MSTORE PUSH1 0x4 ADD PUSH2 0x555 SWAP4 SWAP3 SWAP2 SWAP1 PUSH2 0x123B JUMP JUMPDEST PUSH1 0x0 PUSH1 0x40 MLOAD DUP1 DUP4 SUB DUP2 PUSH1 0x0 DUP8 DUP1 EXTCODESIZE ISZERO DUP1 ISZERO PUSH2 0x56F JUMPI PUSH1 0x0 DUP1 REVERT JUMPDEST POP GAS CALL ISZERO DUP1 ISZERO PUSH2 0x583 JUMPI RETURNDATASIZE PUSH1 0x0 DUP1 RETURNDATACOPY RETURNDATASIZE PUSH1 0x0 REVERT JUMPDEST POP POP POP POP PUSH1 0x0 PUSH1 0x1 PUSH1 0x0 SWAP1 SLOAD SWAP1 PUSH2 0x100 EXP SWAP1 DIV PUSH20 0xFFFFFFFFFFFFFFFFFFFFFFFFFFFFFFFFFFFFFFFF AND PUSH20 0xFFFFFFFFFFFFFFFFFFFFFFFFFFFFFFFFFFFFFFFF AND DUP4 PUSH1 0x40 MLOAD PUSH2 0x5CF SWAP1 PUSH2 0x12A3 JUMP JUMPDEST PUSH1 0x0 PUSH1 0x40 MLOAD DUP1 DUP4 SUB DUP2 DUP6 DUP8 GAS CALL SWAP3 POP POP POP RETURNDATASIZE DUP1 PUSH1 0x0 DUP2 EQ PUSH2 0x60C JUMPI PUSH1 0x40 MLOAD SWAP2 POP PUSH1 0x1F NOT PUSH1 0x3F RETURNDATASIZE ADD AND DUP3 ADD PUSH1 0x40 MSTORE RETURNDATASIZE DUP3 MSTORE RETURNDATASIZE PUSH1 0x0 PUSH1 0x20 DUP5 ADD RETURNDATACOPY PUSH2 0x611 JUMP JUMPDEST PUSH1 0x60 SWAP2 POP JUMPDEST POP POP SWAP1 POP DUP1 PUSH2 0x655 JUMPI PUSH1 0x40 MLOAD PUSH32 0x8C379A000000000000000000000000000000000000000000000000000000000 DUP2 MSTORE PUSH1 0x4 ADD PUSH2 0x64C SWAP1 PUSH2 0x1304 JUMP JUMPDEST PUSH1 0x40 MLOAD DUP1 SWAP2 SUB SWAP1 REVERT JUMPDEST PUSH1 0x0 DUP4 CALLVALUE PUSH2 0x663 SWAP2 SWAP1 PUSH2 0x1324 JUMP JUMPDEST SWAP1 POP PUSH1 0x0 DUP2 GT ISZERO PUSH2 0x73D JUMPI PUSH1 0x0 DUP1 PUSH1 0x0 SWAP1 SLOAD SWAP1 PUSH2 0x100 EXP SWAP1 DIV PUSH20 0xFFFFFFFFFFFFFFFFFFFFFFFFFFFFFFFFFFFFFFFF AND PUSH20 0xFFFFFFFFFFFFFFFFFFFFFFFFFFFFFFFFFFFFFFFF AND DUP3 PUSH1 0x40 MLOAD PUSH2 0x6B5 SWAP1 PUSH2 0x12A3 JUMP JUMPDEST PUSH1 0x0 PUSH1 0x40 MLOAD DUP1 DUP4 SUB DUP2 DUP6 DUP8 GAS CALL SWAP3 POP POP POP RETURNDATASIZE DUP1 PUSH1 0x0 DUP2 EQ PUSH2 0x6F2 JUMPI PUSH1 0x40 MLOAD SWAP2 POP PUSH1 0x1F NOT PUSH1 0x3F RETURNDATASIZE ADD AND DUP3 ADD PUSH1 0x40 MSTORE RETURNDATASIZE DUP3 MSTORE RETURNDATASIZE PUSH1 0x0 PUSH1 0x20 DUP5 ADD RETURNDATACOPY PUSH2 0x6F7 JUMP JUMPDEST PUSH1 0x60 SWAP2 POP JUMPDEST POP POP SWAP1 POP DUP1 PUSH2 0x73B JUMPI PUSH1 0x40 MLOAD PUSH32 0x8C379A000000000000000000000000000000000000000000000000000000000 DUP2 MSTORE PUSH1 0x4 ADD PUSH2 0x732 SWAP1 PUSH2 0x13A4 JUMP JUMPDEST PUSH1 0x40 MLOAD DUP1 SWAP2 SUB SWAP1 REVERT JUMPDEST POP JUMPDEST PUSH1 0x0 DUP1 SLOAD SWAP1 PUSH2 0x100 EXP SWAP1 DIV PUSH20 0xFFFFFFFFFFFFFFFFFFFFFFFFFFFFFFFFFFFFFFFF AND PUSH20 0xFFFFFFFFFFFFFFFFFFFFFFFFFFFFFFFFFFFFFFFF AND PUSH32 0xC7CE0A35F17B490DE2A317E7FECB2CAE86B1ABFFB03800B2F492823521382698 PUSH1 0x2 SLOAD DUP8 PUSH1 0x40 MLOAD PUSH2 0x7A7 SWAP3 SWAP2 SWAP1 PUSH2 0x13C4 JUMP JUMPDEST PUSH1 0x40 MLOAD DUP1 SWAP2 SUB SWAP1 LOG2 POP POP POP POP POP JUMP JUMPDEST PUSH1 0x0 DUP1 SLOAD SWAP1 PUSH2 0x100 EXP SWAP1 DIV PUSH20 0xFFFFFFFFFFFFFFFFFFFFFFFFFFFFFFFFFFFFFFFF AND DUP2 JUMP JUMPDEST PUSH1 0x4 SLOAD DUP2 JUMP JUMPDEST PUSH1 0x5 SLOAD DUP2 JUMP JUMPDEST PUSH1 0x0 PUSH1 0x4 DUP2 GT ISZERO PUSH2 0x7FA JUMPI PUSH2 0x7F9 PUSH2 0xE5E JUMP JUMPDEST JUMPDEST PUSH1 0x7 PUSH1 0x0 SWAP1 SLOAD SWAP1 PUSH2 0x100 EXP SWAP1 DIV PUSH1 0xFF AND PUSH1 0x4 DUP2 GT ISZERO PUSH2 0x81C JUMPI PUSH2 0x81B PUSH2 0xE5E JUMP JUMPDEST JUMPDEST EQ PUSH2 0x85C JUMPI PUSH1 0x40 MLOAD PUSH32 0x8C379A000000000000000000000000000000000000000000000000000000000 DUP2 MSTORE PUSH1 0x4 ADD PUSH2 0x853 SWAP1 PUSH2 0x108F JUMP JUMPDEST PUSH1 0x40 MLOAD DUP1 SWAP2 SUB SWAP1 REVERT JUMPDEST PUSH1 0x2 SLOAD CALLVALUE LT ISZERO PUSH2 0x8A1 JUMPI PUSH1 0x40 MLOAD PUSH32 0x8C379A000000000000000000000000000000000000000000000000000000000 DUP2 MSTORE PUSH1 0x4 ADD PUSH2 0x898 SWAP1 PUSH2 0x1439 JUMP JUMPDEST PUSH1 0x40 MLOAD DUP1 SWAP2 SUB SWAP1 REVERT JUMPDEST PUSH1 0x0 DUP1 SLOAD SWAP1 PUSH2 0x100 EXP SWAP1 DIV PUSH20 0xFFFFFFFFFFFFFFFFFFFFFFFFFFFFFFFFFFFFFFFF AND PUSH20 0xFFFFFFFFFFFFFFFFFFFFFFFFFFFFFFFFFFFFFFFF AND CALLER PUSH20 0xFFFFFFFFFFFFFFFFFFFFFFFFFFFFFFFFFFFFFFFF AND SUB PUSH2 0x92F JUMPI PUSH1 0x40 MLOAD PUSH32 0x8C379A000000000000000000000000000000000000000000000000000000000 DUP2 MSTORE PUSH1 0x4 ADD PUSH2 0x926 SWAP1 PUSH2 0x14A5 JUMP JUMPDEST PUSH1 0x40 MLOAD DUP1 SWAP2 SUB SWAP1 REVERT JUMPDEST CALLER PUSH1 0x1 PUSH1 0x0 PUSH2 0x100 EXP DUP2 SLOAD DUP2 PUSH20 0xFFFFFFFFFFFFFFFFFFFFFFFFFFFFFFFFFFFFFFFF MUL NOT AND SWAP1 DUP4 PUSH20 0xFFFFFFFFFFFFFFFFFFFFFFFFFFFFFFFFFFFFFFFF AND MUL OR SWAP1 SSTORE POP TIMESTAMP PUSH1 0x5 DUP2 SWAP1 SSTORE POP PUSH3 0x15180 PUSH1 0x4 SLOAD PUSH2 0x988 SWAP2 SWAP1 PUSH2 0x10DE JUMP JUMPDEST TIMESTAMP PUSH2 0x993 SWAP2 SWAP1 PUSH2 0x1180 JUMP JUMPDEST PUSH1 0x6 DUP2 SWAP1 SSTORE POP PUSH1 0x2 PUSH1 0x7 PUSH1 0x0 PUSH2 0x100 EXP DUP2 SLOAD DUP2 PUSH1 0xFF MUL NOT AND SWAP1 DUP4 PUSH1 0x4 DUP2 GT ISZERO PUSH2 0x9BF JUMPI PUSH2 0x9BE PUSH2 0xE5E JUMP JUMPDEST JUMPDEST MUL OR SWAP1 SSTORE POP PUSH1 0x1 PUSH1 0x0 SWAP1 SLOAD SWAP1 PUSH2 0x100 EXP SWAP1 DIV PUSH20 0xFFFFFFFFFFFFFFFFFFFFFFFFFFFFFFFFFFFFFFFF AND PUSH20 0xFFFFFFFFFFFFFFFFFFFFFFFFFFFFFFFFFFFFFFFF AND PUSH32 0x726D5F1A838FE31748F737FA3AE5539CCFF95952ADFC593A1299532B643FF7A8 PUSH1 0x2 SLOAD PUSH1 0x40 MLOAD PUSH2 0xA2E SWAP2 SWAP1 PUSH2 0xE43 JUMP JUMPDEST PUSH1 0x40 MLOAD DUP1 SWAP2 SUB SWAP1 LOG2 JUMP JUMPDEST PUSH1 0x2 SLOAD DUP2 JUMP JUMPDEST PUSH1 0x1 PUSH1 0x0 SWAP1 SLOAD SWAP1 PUSH2 0x100 EXP SWAP1 DIV PUSH20 0xFFFFFFFFFFFFFFFFFFFFFFFFFFFFFFFFFFFFFFFF AND DUP2 JUMP JUMPDEST PUSH1 0x7 PUSH1 0x1 SWAP1 SLOAD SWAP1 PUSH2 0x100 EXP SWAP1 DIV PUSH20 0xFFFFFFFFFFFFFFFFFFFFFFFFFFFFFFFFFFFFFFFF AND DUP2 JUMP JUMPDEST PUSH1 0x3 SLOAD DUP2 JUMP JUMPDEST PUSH1 0x0 DUP1 PUSH2 0x2710 PUSH1 0x3 SLOAD PUSH1 0x2 SLOAD PUSH2 0xAA6 SWAP2 SWAP1 PUSH2 0x10DE JUMP JUMPDEST PUSH2 0xAB0 SWAP2 SWAP1 PUSH2 0x114F JUMP JUMPDEST SWAP1 POP DUP1 PUSH1 0x2 SLOAD PUSH2 0xAC0 SWAP2 SWAP1 PUSH2 0x1180 JUMP JUMPDEST SWAP2 POP POP SWAP1 JUMP JUMPDEST PUSH1 0x7 PUSH1 0x1 SWAP1 SLOAD SWAP1 PUSH2 0x100 EXP SWAP1 DIV PUSH20 0xFFFFFFFFFFFFFFFFFFFFFFFFFFFFFFFFFFFFFFFF AND PUSH20 0xFFFFFFFFFFFFFFFFFFFFFFFFFFFFFFFFFFFFFFFF AND CALLER PUSH20 0xFFFFFFFFFFFFFFFFFFFFFFFFFFFFFFFFFFFFFFFF AND EQ PUSH2 0xB56 JUMPI PUSH1 0x40 MLOAD PUSH32 0x8C379A000000000000000000000000000000000000000000000000000000000 DUP2 MSTORE PUSH1 0x4 ADD PUSH2 0xB4D SWAP1 PUSH2 0x1511 JUMP JUMPDEST PUSH1 0x40 MLOAD DUP1 SWAP2 SUB SWAP1 REVERT JUMPDEST PUSH1 0x2 PUSH1 0x4 DUP2 GT ISZERO PUSH2 0xB6A JUMPI PUSH2 0xB69 PUSH2 0xE5E JUMP JUMPDEST JUMPDEST PUSH1 0x7 PUSH1 0x0 SWAP1 SLOAD SWAP1 PUSH2 0x100 EXP SWAP1 DIV PUSH1 0xFF AND PUSH1 0x4 DUP2 GT ISZERO PUSH2 0xB8C JUMPI PUSH2 0xB8B PUSH2 0xE5E JUMP JUMPDEST JUMPDEST EQ PUSH2 0xBCC JUMPI PUSH1 0x40 MLOAD PUSH32 0x8C379A000000000000000000000000000000000000000000000000000000000 DUP2 MSTORE PUSH1 0x4 ADD PUSH2 0xBC3 SWAP1 PUSH2 0x108F JUMP JUMPDEST PUSH1 0x40 MLOAD DUP1 SWAP2 SUB SWAP1 REVERT JUMPDEST PUSH1 0x6 SLOAD TIMESTAMP GT PUSH2 0xC10 JUMPI PUSH1 0x40 MLOAD PUSH32 0x8C379A000000000000000000000000000000000000000000000000000000000 DUP2 MSTORE PUSH1 0x4 ADD PUSH2 0xC07 SWAP1 PUSH2 0x157D JUMP JUMPDEST PUSH1 0x40 MLOAD DUP1 SWAP2 SUB SWAP1 REVERT JUMPDEST PUSH1 0x4 PUSH1 0x7 PUSH1 0x0 PUSH2 0x100 EXP DUP2 SLOAD DUP2 PUSH1 0xFF MUL NOT AND SWAP1 DUP4 PUSH1 0x4 DUP2 GT ISZERO PUSH2 0xC36 JUMPI PUSH2 0xC35 PUSH2 0xE5E JUMP JUMPDEST JUMPDEST MUL OR SWAP1 SSTORE POP PUSH1 0x8 PUSH1 0x0 SWAP1 SLOAD SWAP1 PUSH2 0x100 EXP SWAP1 DIV PUSH20 0xFFFFFFFFFFFFFFFFFFFFFFFFFFFFFFFFFFFFFFFF AND PUSH20 0xFFFFFFFFFFFFFFFFFFFFFFFFFFFFFFFFFFFFFFFF AND PUSH4 0xCD4544F2 PUSH1 0x0 DUP1 SLOAD SWAP1 PUSH2 0x100 EXP SWAP1 DIV PUSH20 0xFFFFFFFFFFFFFFFFFFFFFFFFFFFFFFFFFFFFFFFF AND PUSH1 0x2 SLOAD PUSH1 0x40 MLOAD DUP4 PUSH4 0xFFFFFFFF AND PUSH1 0xE0 SHL DUP2 MSTORE PUSH1 0x4 ADD PUSH2 0xCBA SWAP3 SWAP2 SWAP1 PUSH2 0x159D JUMP JUMPDEST PUSH1 0x0 PUSH1 0x40 MLOAD DUP1 DUP4 SUB DUP2 PUSH1 0x0 DUP8 DUP1 EXTCODESIZE ISZERO DUP1 ISZERO PUSH2 0xCD4 JUMPI PUSH1 0x0 DUP1 REVERT JUMPDEST POP GAS CALL ISZERO DUP1 ISZERO PUSH2 0xCE8 JUMPI RETURNDATASIZE PUSH1 0x0 DUP1 RETURNDATACOPY RETURNDATASIZE PUSH1 0x0 REVERT JUMPDEST POP POP POP POP PUSH1 0x0 SELFBALANCE GT ISZERO PUSH2 0xDC5 JUMPI PUSH1 0x0 PUSH1 0x1 PUSH1 0x0 SWAP1 SLOAD SWAP1 PUSH2 0x100 EXP SWAP1 DIV PUSH20 0xFFFFFFFFFFFFFFFFFFFFFFFFFFFFFFFFFFFFFFFF AND PUSH20 0xFFFFFFFFFFFFFFFFFFFFFFFFFFFFFFFFFFFFFFFF AND SELFBALANCE PUSH1 0x40 MLOAD PUSH2 0xD3D SWAP1 PUSH2 0x12A3 JUMP JUMPDEST PUSH1 0x0 PUSH1 0x40 MLOAD DUP1 DUP4 SUB DUP2 DUP6 DUP8 GAS CALL SWAP3 POP POP POP RETURNDATASIZE DUP1 PUSH1 0x0 DUP2 EQ PUSH2 0xD7A JUMPI PUSH1 0x40 MLOAD SWAP2 POP PUSH1 0x1F NOT PUSH1 0x3F RETURNDATASIZE ADD AND DUP3 ADD PUSH1 0x40 MSTORE RETURNDATASIZE DUP3 MSTORE RETURNDATASIZE PUSH1 0x0 PUSH1 0x20 DUP5 ADD RETURNDATACOPY PUSH2 0xD7F JUMP JUMPDEST PUSH1 0x60 SWAP2 POP JUMPDEST POP POP SWAP1 POP DUP1 PUSH2 0xDC3 JUMPI PUSH1 0x40 MLOAD PUSH32 0x8C379A000000000000000000000000000000000000000000000000000000000 DUP2 MSTORE PUSH1 0x4 ADD PUSH2 0xDBA SWAP1 PUSH2 0x1304 JUMP JUMPDEST PUSH1 0x40 MLOAD DUP1 SWAP2 SUB SWAP1 REVERT JUMPDEST POP JUMPDEST PUSH1 0x0 DUP1 SLOAD SWAP1 PUSH2 0x100 EXP SWAP1 DIV PUSH20 0xFFFFFFFFFFFFFFFFFFFFFFFFFFFFFFFFFFFFFFFF AND PUSH20 0xFFFFFFFFFFFFFFFFFFFFFFFFFFFFFFFFFFFFFFFF AND PUSH32 0xF4E5CF42CBB1D0C6C91E16D925349FEB6C5D970652F6EC77B1FF1262F7284CD5 PUSH1 0x40 MLOAD PUSH1 0x40 MLOAD DUP1 SWAP2 SUB SWAP1 LOG2 JUMP JUMPDEST PUSH1 0x0 DUP2 SWAP1 POP SWAP2 SWAP1 POP JUMP JUMPDEST PUSH2 0xE3D DUP2 PUSH2 0xE2A JUMP JUMPDEST DUP3 MSTORE POP POP JUMP JUMPDEST PUSH1 0x0 PUSH1 0x20 DUP3 ADD SWAP1 POP PUSH2 0xE58 PUSH1 0x0 DUP4 ADD DUP5 PUSH2 0xE34 JUMP JUMPDEST SWAP3 SWAP2 POP POP JUMP JUMPDEST PUSH32 0x4E487B7100000000000000000000000000000000000000000000000000000000 PUSH1 0x0 MSTORE PUSH1 0x21 PUSH1 0x4 MSTORE PUSH1 0x24 PUSH1 0x0 REVERT JUMPDEST PUSH1 0x5 DUP2 LT PUSH2 0xE9E JUMPI PUSH2 0xE9D PUSH2 0xE5E JUMP JUMPDEST JUMPDEST POP JUMP JUMPDEST PUSH1 0x0 DUP2 SWAP1 POP PUSH2 0xEAF DUP3 PUSH2 0xE8D JUMP JUMPDEST SWAP2 SWAP1 POP JUMP JUMPDEST PUSH1 0x0 PUSH2 0xEBF DUP3 PUSH2 0xEA1 JUMP JUMPDEST SWAP1 POP SWAP2 SWAP1 POP JUMP JUMPDEST PUSH2 0xECF DUP2 PUSH2 0xEB4 JUMP JUMPDEST DUP3 MSTORE POP POP JUMP JUMPDEST PUSH1 0x0 PUSH1 0x20 DUP3 ADD SWAP1 POP PUSH2 0xEEA PUSH1 0x0 DUP4 ADD DUP5 PUSH2 0xEC6 JUMP JUMPDEST SWAP3 SWAP2 POP POP JUMP JUMPDEST PUSH1 0x0 PUSH20 0xFFFFFFFFFFFFFFFFFFFFFFFFFFFFFFFFFFFFFFFF DUP3 AND SWAP1 POP SWAP2 SWAP1 POP JUMP JUMPDEST PUSH1 0x0 DUP2 SWAP1 POP SWAP2 SWAP1 POP JUMP JUMPDEST PUSH1 0x0 PUSH2 0xF35 PUSH2 0xF30 PUSH2 0xF2B DUP5 PUSH2 0xEF0 JUMP JUMPDEST PUSH2 0xF10 JUMP JUMPDEST PUSH2 0xEF0 JUMP JUMPDEST SWAP1 POP SWAP2 SWAP1 POP JUMP JUMPDEST PUSH1 0x0 PUSH2 0xF47 DUP3 PUSH2 0xF1A JUMP JUMPDEST SWAP1 POP SWAP2 SWAP1 POP JUMP JUMPDEST PUSH1 0x0 PUSH2 0xF59 DUP3 PUSH2 0xF3C JUMP JUMPDEST SWAP1 POP SWAP2 SWAP1 POP JUMP JUMPDEST PUSH2 0xF69 DUP2 PUSH2 0xF4E JUMP JUMPDEST DUP3 MSTORE POP POP JUMP JUMPDEST PUSH1 0x0 PUSH1 0x20 DUP3 ADD SWAP1 POP PUSH2 0xF84 PUSH1 0x0 DUP4 ADD DUP5 PUSH2 0xF60 JUMP JUMPDEST SWAP3 SWAP2 POP POP JUMP JUMPDEST PUSH1 0x0 PUSH2 0xF95 DUP3 PUSH2 0xEF0 JUMP JUMPDEST SWAP1 POP SWAP2 SWAP1 POP JUMP JUMPDEST PUSH2 0xFA5 DUP2 PUSH2 0xF8A JUMP JUMPDEST DUP3 MSTORE POP POP JUMP JUMPDEST PUSH1 0x0 PUSH1 0x20 DUP3 ADD SWAP1 POP PUSH2 0xFC0 PUSH1 0x0 DUP4 ADD DUP5 PUSH2 0xF9C JUMP JUMPDEST SWAP3 SWAP2 POP POP JUMP JUMPDEST PUSH1 0x0 DUP3 DUP3 MSTORE PUSH1 0x20 DUP3 ADD SWAP1 POP SWAP3 SWAP2 POP POP JUMP JUMPDEST PUSH32 0x4F6E6C7920626F72726F77657200000000000000000000000000000000000000 PUSH1 0x0 DUP3 ADD MSTORE POP JUMP JUMPDEST PUSH1 0x0 PUSH2 0x100D PUSH1 0xD DUP4 PUSH2 0xFC6 JUMP JUMPDEST SWAP2 POP PUSH2 0x1018 DUP3 PUSH2 0xFD7 JUMP JUMPDEST PUSH1 0x20 DUP3 ADD SWAP1 POP SWAP2 SWAP1 POP JUMP JUMPDEST PUSH1 0x0 PUSH1 0x20 DUP3 ADD SWAP1 POP DUP2 DUP2 SUB PUSH1 0x0 DUP4 ADD MSTORE PUSH2 0x103C DUP2 PUSH2 0x1000 JUMP JUMPDEST SWAP1 POP SWAP2 SWAP1 POP JUMP JUMPDEST PUSH32 0x496E76616C696420737461747573000000000000000000000000000000000000 PUSH1 0x0 DUP3 ADD MSTORE POP JUMP JUMPDEST PUSH1 0x0 PUSH2 0x1079 PUSH1 0xE DUP4 PUSH2 0xFC6 JUMP JUMPDEST SWAP2 POP PUSH2 0x1084 DUP3 PUSH2 0x1043 JUMP JUMPDEST PUSH1 0x20 DUP3 ADD SWAP1 POP SWAP2 SWAP1 POP JUMP JUMPDEST PUSH1 0x0 PUSH1 0x20 DUP3 ADD SWAP1 POP DUP2 DUP2 SUB PUSH1 0x0 DUP4 ADD MSTORE PUSH2 0x10A8 DUP2 PUSH2 0x106C JUMP JUMPDEST SWAP1 POP SWAP2 SWAP1 POP JUMP JUMPDEST PUSH32 0x4E487B7100000000000000000000000000000000000000000000000000000000 PUSH1 0x0 MSTORE PUSH1 0x11 PUSH1 0x4 MSTORE PUSH1 0x24 PUSH1 0x0 REVERT JUMPDEST PUSH1 0x0 PUSH2 0x10E9 DUP3 PUSH2 0xE2A JUMP JUMPDEST SWAP2 POP PUSH2 0x10F4 DUP4 PUSH2 0xE2A JUMP JUMPDEST SWAP3 POP DUP3 DUP3 MUL PUSH2 0x1102 DUP2 PUSH2 0xE2A JUMP JUMPDEST SWAP2 POP DUP3 DUP3 DIV DUP5 EQ DUP4 ISZERO OR PUSH2 0x1119 JUMPI PUSH2 0x1118 PUSH2 0x10AF JUMP JUMPDEST JUMPDEST POP SWAP3 SWAP2 POP POP JUMP JUMPDEST PUSH32 0x4E487B7100000000000000000000000000000000000000000000000000000000 PUSH1 0x0 MSTORE PUSH1 0x12 PUSH1 0x4 MSTORE PUSH1 0x24 PUSH1 0x0 REVERT JUMPDEST PUSH1 0x0 PUSH2 0x115A DUP3 PUSH2 0xE2A JUMP JUMPDEST SWAP2 POP PUSH2 0x1165 DUP4 PUSH2 0xE2A JUMP JUMPDEST SWAP3 POP DUP3 PUSH2 0x1175 JUMPI PUSH2 0x1174 PUSH2 0x1120 JUMP JUMPDEST JUMPDEST DUP3 DUP3 DIV SWAP1 POP SWAP3 SWAP2 POP POP JUMP JUMPDEST PUSH1 0x0 PUSH2 0x118B DUP3 PUSH2 0xE2A JUMP JUMPDEST SWAP2 POP PUSH2 0x1196 DUP4 PUSH2 0xE2A JUMP JUMPDEST SWAP3 POP DUP3 DUP3 ADD SWAP1 POP DUP1 DUP3 GT ISZERO PUSH2 0x11AE JUMPI PUSH2 0x11AD PUSH2 0x10AF JUMP JUMPDEST JUMPDEST SWAP3 SWAP2 POP POP JUMP JUMPDEST PUSH32 0x496E73756666696369656E742072657061796D656E7400000000000000000000 PUSH1 0x0 DUP3 ADD MSTORE POP JUMP JUMPDEST PUSH1 0x0 PUSH2 0x11EA PUSH1 0x16 DUP4 PUSH2 0xFC6 JUMP JUMPDEST SWAP2 POP PUSH2 0x11F5 DUP3 PUSH2 0x11B4 JUMP JUMPDEST PUSH1 0x20 DUP3 ADD SWAP1 POP SWAP2 SWAP1 POP JUMP JUMPDEST PUSH1 0x0 PUSH1 0x20 DUP3 ADD SWAP1 POP DUP2 DUP2 SUB PUSH1 0x0 DUP4 ADD MSTORE PUSH2 0x1219 DUP2 PUSH2 0x11DD JUMP JUMPDEST SWAP1 POP SWAP2 SWAP1 POP JUMP JUMPDEST PUSH1 0x0 DUP2 ISZERO ISZERO SWAP1 POP SWAP2 SWAP1 POP JUMP JUMPDEST PUSH2 0x1235 DUP2 PUSH2 0x1220 JUMP JUMPDEST DUP3 MSTORE POP POP JUMP JUMPDEST PUSH1 0x0 PUSH1 0x60 DUP3 ADD SWAP1 POP PUSH2 0x1250 PUSH1 0x0 DUP4 ADD DUP7 PUSH2 0xF9C JUMP JUMPDEST PUSH2 0x125D PUSH1 0x20 DUP4 ADD DUP6 PUSH2 0xE34 JUMP JUMPDEST PUSH2 0x126A PUSH1 0x40 DUP4 ADD DUP5 PUSH2 0x122C JUMP JUMPDEST SWAP5 SWAP4 POP POP POP POP JUMP JUMPDEST PUSH1 0x0 DUP2 SWAP1 POP SWAP3 SWAP2 POP POP JUMP JUMPDEST POP JUMP JUMPDEST PUSH1 0x0 PUSH2 0x128D PUSH1 0x0 DUP4 PUSH2 0x1272 JUMP JUMPDEST SWAP2 POP PUSH2 0x1298 DUP3 PUSH2 0x127D JUMP JUMPDEST PUSH1 0x0 DUP3 ADD SWAP1 POP SWAP2 SWAP1 POP JUMP JUMPDEST PUSH1 0x0 PUSH2 0x12AE DUP3 PUSH2 0x1280 JUMP JUMPDEST SWAP2 POP DUP2 SWAP1 POP SWAP2 SWAP1 POP JUMP JUMPDEST PUSH32 0x5472616E73666572206661696C65640000000000000000000000000000000000 PUSH1 0x0 DUP3 ADD MSTORE POP JUMP JUMPDEST PUSH1 0x0 PUSH2 0x12EE PUSH1 0xF DUP4 PUSH2 0xFC6 JUMP JUMPDEST SWAP2 POP PUSH2 0x12F9 DUP3 PUSH2 0x12B8 JUMP JUMPDEST PUSH1 0x20 DUP3 ADD SWAP1 POP SWAP2 SWAP1 POP JUMP JUMPDEST PUSH1 0x0 PUSH1 0x20 DUP3 ADD SWAP1 POP DUP2 DUP2 SUB PUSH1 0x0 DUP4 ADD MSTORE PUSH2 0x131D DUP2 PUSH2 0x12E1 JUMP JUMPDEST SWAP1 POP SWAP2 SWAP1 POP JUMP JUMPDEST PUSH1 0x0 PUSH2 0x132F DUP3 PUSH2 0xE2A JUMP JUMPDEST SWAP2 POP PUSH2 0x133A DUP4 PUSH2 0xE2A JUMP JUMPDEST SWAP3 POP DUP3 DUP3 SUB SWAP1 POP DUP2 DUP2 GT ISZERO PUSH2 0x1352 JUMPI PUSH2 0x1351 PUSH2 0x10AF JUMP JUMPDEST JUMPDEST SWAP3 SWAP2 POP POP JUMP JUMPDEST PUSH32 0x526566756E64206661696C656400000000000000000000000000000000000000 PUSH1 0x0 DUP3 ADD MSTORE POP JUMP JUMPDEST PUSH1 0x0 PUSH2 0x138E PUSH1 0xD DUP4 PUSH2 0xFC6 JUMP JUMPDEST SWAP2 POP PUSH2 0x1399 DUP3 PUSH2 0x1358 JUMP JUMPDEST PUSH1 0x20 DUP3 ADD SWAP1 POP SWAP2 SWAP1 POP JUMP JUMPDEST PUSH1 0x0 PUSH1 0x20 DUP3 ADD SWAP1 POP DUP2 DUP2 SUB PUSH1 0x0 DUP4 ADD MSTORE PUSH2 0x13BD DUP2 PUSH2 0x1381 JUMP JUMPDEST SWAP1 POP SWAP2 SWAP1 POP JUMP JUMPDEST PUSH1 0x0 PUSH1 0x40 DUP3 ADD SWAP1 POP PUSH2 0x13D9 PUSH1 0x0 DUP4 ADD DUP6 PUSH2 0xE34 JUMP JUMPDEST PUSH2 0x13E6 PUSH1 0x20 DUP4 ADD DUP5 PUSH2 0xE34 JUMP JUMPDEST SWAP4 SWAP3 POP POP POP JUMP JUMPDEST PUSH32 0x496E73756666696369656E742066756E64730000000000000000000000000000 PUSH1 0x0 DUP3 ADD MSTORE POP JUMP JUMPDEST PUSH1 0x0 PUSH2 0x1423 PUSH1 0x12 DUP4 PUSH2 0xFC6 JUMP JUMPDEST SWAP2 POP PUSH2 0x142E DUP3 PUSH2 0x13ED JUMP JUMPDEST PUSH1 0x20 DUP3 ADD SWAP1 POP SWAP2 SWAP1 POP JUMP JUMPDEST PUSH1 0x0 PUSH1 0x20 DUP3 ADD SWAP1 POP DUP2 DUP2 SUB PUSH1 0x0 DUP4 ADD MSTORE PUSH2 0x1452 DUP2 PUSH2 0x1416 JUMP JUMPDEST SWAP1 POP SWAP2 SWAP1 POP JUMP JUMPDEST PUSH32 0x426F72726F7765722063616E6E6F742066756E64206F776E206C6F616E000000 PUSH1 0x0 DUP3 ADD MSTORE POP JUMP JUMPDEST PUSH1 0x0 PUSH2 0x148F PUSH1 0x1D DUP4 PUSH2 0xFC6 JUMP JUMPDEST SWAP2 POP PUSH2 0x149A DUP3 PUSH2 0x1459 JUMP JUMPDEST PUSH1 0x20 DUP3 ADD SWAP1 POP SWAP2 SWAP1 POP JUMP JUMPDEST PUSH1 0x0 PUSH1 0x20 DUP3 ADD SWAP1 POP DUP2 DUP2 SUB PUSH1 0x0 DUP4 ADD MSTORE PUSH2 0x14BE DUP2 PUSH2 0x1482 JUMP JUMPDEST SWAP1 POP SWAP2 SWAP1 POP JUMP JUMPDEST PUSH32 0x4F6E6C7920666163746F72790000000000000000000000000000000000000000 PUSH1 0x0 DUP3 ADD MSTORE POP JUMP JUMPDEST PUSH1 0x0 PUSH2 0x14FB PUSH1 0xC DUP4 PUSH2 0xFC6 JUMP JUMPDEST SWAP2 POP PUSH2 0x1506 DUP3 PUSH2 0x14C5 JUMP JUMPDEST PUSH1 0x20 DUP3 ADD SWAP1 POP SWAP2 SWAP1 POP JUMP JUMPDEST PUSH1 0x0 PUSH1 0x20 DUP3 ADD SWAP1 POP DUP2 DUP2 SUB PUSH1 0x0 DUP4 ADD MSTORE PUSH2 0x152A DUP2 PUSH2 0x14EE JUMP JUMPDEST SWAP1 POP SWAP2 SWAP1 POP JUMP JUMPDEST PUSH32 0x4E6F7420796574206F7665726475650000000000000000000000000000000000 PUSH1 0x0 DUP3 ADD MSTORE POP JUMP JUMPDEST PUSH1 0x0 PUSH2 0x1567 PUSH1 0xF DUP4 PUSH2 0xFC6 JUMP JUMPDEST SWAP2 POP PUSH2 0x1572 DUP3 PUSH2 0x1531 JUMP JUMPDEST PUSH1 0x20 DUP3 ADD SWAP1 POP SWAP2 SWAP1 POP JUMP JUMPDEST PUSH1 0x0 PUSH1 0x20 DUP3 ADD SWAP1 POP DUP2 DUP2 SUB PUSH1 0x0 DUP4 ADD MSTORE PUSH2 0x1596 DUP2 PUSH2 0x155A JUMP JUMPDEST SWAP1 POP SWAP2 SWAP1 POP JUMP JUMPDEST PUSH1 0x0 PUSH1 0x40 DUP3 ADD SWAP1 POP PUSH2 0x15B2 PUSH1 0x0 DUP4 ADD DUP6 PUSH2 0xF9C JUMP JUMPDEST PUSH2 0x15BF PUSH1 0x20 DUP4 ADD DUP5 PUSH2 0xE34 JUMP JUMPDEST SWAP4 SWAP3 POP POP POP JUMP INVALID LOG2 PUSH5 0x6970667358 0x22 SLT KECCAK256 MSTORE8 0xE4 PUSH26 0x2FD45B5CC2EE3536ACDD413F8DBD2E8634CC87C8C357932AD5B3 PUSH31 0x22B964736F6C63430008180033000000000000000000000000000000000000 "},"methodIdentifiers":{"borrower()":"7df1f1b9","creditScore()":"39da3152","durationDays()":"9cd56d03","factory()":"c45a0155","fund()":"b60d4288","fundedAt()":"a9a748ff","getTotalRepayment()":"d746d0b2","interestRateBps()":"c84a208b","lender()":"bcead63e","markDefaulted()":"dd541230","principal()":"ba5d3078","repay()":"402d8883","repaymentDeadline()":"19cc3aaa","status()":"200d2ed2"}}}}}