{"contracts/CreditScoreContract.sol":{"CreditScoreContract":{"abi":[{"inputs":[],"stateMutability":"nonpayable","type":"constructor"},{"anonymous":false,"inputs":[{"indexed":true,"internalType":"address","name":"contractAddress","type":"address"},{"indexed":false,"internalType":"bool","name":"isAuthorized","type":"bool"}],"name":"ContractAuthorized","type":"event"},{"anonymous":false,"inputs":[{"indexed":true,"internalType":"address","name":"user","type":"address"},{"indexed":false,"internalType":"uint256","name":"newScore","type":"uint256"},{"indexed":false,"internalType":"bool","name":"success","type":"bool"}],"name":"ScoreUpdated","type":"event"},{"inputs":[],"name":"admin","outputs":[{"internalType":"address","name":"","type":"address"}],"stateMutability":"view","type":"function"},{"inputs":[{"internalType":"address","name":"_contract","type":"address"},{"internalType":"bool","name":"_status","type":"bool"}],"name":"authorizeContract","outputs":[],"stateMutability":"nonpayable","type":"function"},{"inputs":[{"internalType":"address","name":"","type":"address"}],"name":"authorizedContracts","outputs":[{"internalType":"bool","name":"","type":"bool"}],"stateMutability":"view","type":"function"},{"inputs":[{"internalType":"address","name":"user","type":"address"}],"name":"getScore","outputs":[{"internalType":"uint256","name":"","type":"uint256"}],"stateMutability":"view","type":"function"},{"inputs":[{"internalType":"address","name":"","type":"address"}],"name":"profiles","outputs":[{"internalType":"uint256","name":"score","type":"uint256"},{"internalType":"uint256","name":"totalLoans","type":"uint256"},{"internalType":"uint256","name":"repaid","type":"uint256"},{"internalType":"uint256","name":"defaults","type":"uint256"}],"stateMutability":"view","type":"function"},{"inputs":[{"internalType":"address","name":"user","type":"address"},{"internalType":"bool","name":"success","type":"bool"}],"name":"updateScore","outputs":[],"stateMutability":"nonpayable","type":"function"}],"evm":{"bytecode":{"linkReferences":{},"object":"608060405234801561001057600080fd5b5033600160006101000a81548173ffffffffffffffffffffffffffffffffffffffff021916908373ffffffffffffffffffffffffffffffffffffffff1602179055506109f6806100616000396000f3fe608060405234801561001057600080fd5b50600436106100625760003560e01c80635cbeb13f146100675780638388131114610083578063bbe156271461009f578063d47875d0146100d2578063d5b9221b14610102578063f851a44014610132575b600080fd5b610081600480360381019061007c9190610695565b610150565b005b61009d60048036038101906100989190610695565b610289565b005b6100b960048036038101906100b491906106d5565b6104e9565b6040516100c9949392919061071b565b60405180910390f35b6100ec60048036038101906100e791906106d5565b610519565b6040516100f99190610760565b60405180910390f35b61011c600480360381019061011791906106d5565b6105b4565b604051610129919061078a565b60405180910390f35b61013a6105d4565b60405161014791906107b4565b60405180910390f35b600160009054906101000a900473ffffffffffffffffffffffffffffffffffffffff1673ffffffffffffffffffffffffffffffffffffffff163373ffffffffffffffffffffffffffffffffffffffff16146101e0576040517f08c379a00000000000000000000000000000000000000000000000000000000081526004016101d79061082c565b60405180910390fd5b80600260008473ffffffffffffffffffffffffffffffffffffffff1673ffffffffffffffffffffffffffffffffffffffff16815260200190815260200160002060006101000a81548160ff0219169083151502179055508173ffffffffffffffffffffffffffffffffffffffff167f3213ab8ec2ed122402f038736b41878b69ae9f61f49a7edd0666bce891d29fc98260405161027d919061078a565b60405180910390a25050565b600260003373ffffffffffffffffffffffffffffffffffffffff1673ffffffffffffffffffffffffffffffffffffffff16815260200190815260200160002060009054906101000a900460ff168061032e5750600160009054906101000a900473ffffffffffffffffffffffffffffffffffffffff1673ffffffffffffffffffffffffffffffffffffffff163373ffffffffffffffffffffffffffffffffffffffff16145b61036d576040517f08c379a000000000000000000000000000000000000000000000000000000000815260040161036490610898565b60405180910390fd5b60008060008473ffffffffffffffffffffffffffffffffffffffff1673ffffffffffffffffffffffffffffffffffffffff168152602001908152602001600020905060008160010154036103c7576101f481600001819055505b8060010160008154809291906103dc906108e7565b9190505550811561043c578060020160008154809291906103fc906108e7565b9190505550600a816000016000828254610416919061092f565b925050819055506103e881600001541115610437576103e881600001819055505b610490565b806003016000815480929190610451906108e7565b91905055506032816000015411156104845760328160000160008282546104789190610963565b9250508190555061048f565b600081600001819055505b5b8273ffffffffffffffffffffffffffffffffffffffff167fa25205fec86edfce0ec6ad12d4a8ff97a10ab34a24eea79ebd9c5aa60c5546f78260000154846040516104dc929190610997565b60405180910390a2505050565b60006020528060005260406000206000915090508060000154908060010154908060020154908060030154905084565b6000806000808473ffffffffffffffffffffffffffffffffffffffff1673ffffffffffffffffffffffffffffffffffffffff168152602001908152602001600020604051806080016040529081600082015481526020016001820154815260200160028201548152602001600382015481525050905060008160200151036105a6576101f49150506105af565b80600001519150505b919050565b60026020528060005260406000206000915054906101000a900460ff1681565b600160009054906101000a900473ffffffffffffffffffffffffffffffffffffffff1681565b600080fd5b600073ffffffffffffffffffffffffffffffffffffffff82169050919050565b600061062a826105ff565b9050919050565b61063a8161061f565b811461064557600080fd5b50565b60008135905061065781610631565b92915050565b60008115159050919050565b6106728161065d565b811461067d57600080fd5b50565b60008135905061068f81610669565b92915050565b600080604083850312156106ac576106ab6105fa565b5b60006106ba85828601610648565b92505060206106cb85828601610680565b9150509250929050565b6000602082840312156106eb576106ea6105fa565b5b60006106f984828501610648565b91505092915050565b6000819050919050565b61071581610702565b82525050565b6000608082019050610730600083018761070c565b61073d602083018661070c565b61074a604083018561070c565b610757606083018461070c565b95945050505050565b6000602082019050610775600083018461070c565b92915050565b6107848161065d565b82525050565b600060208201905061079f600083018461077b565b92915050565b6107ae8161061f565b82525050565b60006020820190506107c960008301846107a5565b92915050565b600082825260208201905092915050565b7f4f6e6c792061646d696e00000000000000000000000000000000000000000000600082015250565b6000610816600a836107cf565b9150610821826107e0565b602082019050919050565b6000602082019050818103600083015261084581610809565b9050919050565b7f4e6f7420617574686f72697a6564000000000000000000000000000000000000600082015250565b6000610882600e836107cf565b915061088d8261084c565b602082019050919050565b600060208201905081810360008301526108b181610875565b9050919050565b7f4e487b7100000000000000000000000000000000000000000000000000000000600052601160045260246000fd5b60006108f282610702565b91507fffffffffffffffffffffffffffffffffffffffffffffffffffffffffffffffff8203610924576109236108b8565b5b600182019050919050565b600061093a82610702565b915061094583610702565b925082820190508082111561095d5761095c6108b8565b5b92915050565b600061096e82610702565b915061097983610702565b9250828203905081811115610991576109906108b8565b5b92915050565b60006040820190506109ac600083018561070c565b6109b9602083018461077b565b939250505056fea2646970667358221220b403d7bedbde042f47b75cfa98f862e31194224e85ee2f3dbfee87adaf8b3d8464736f6c63430008180033","opcodes":"PUSH1 0x80 PUSH1 0x40 MSTORE CALLVALUE DUP1 ISZERO PUSH2 0x10 JUMPI PUSH1 0x0 DUP1 REVERT JUMPDEST POP CALLER PUSH1 0x1 PUSH1 0x0 PUSH2 0x100 EXP DUP2 SLOAD DUP2 PUSH20 0xFFFFFFFFFFFFFFFFFFFFFFFFFFFFFFFFFFFFFFFF MUL NOT AND SWAP1 DUP4 PUSH20 0xFFFFFFFFFFFFFFFFFFFFFFFFFFFFFFFFFFFFFFFF AND MUL OR SWAP1 SSTORE POP PUSH2 0x9F6 DUP1 PUSH2 0x61 PUSH1 0x0 CODECOPY PUSH1 0x0 RETURN INVALID PUSH1 0x80 PUSH1 0x40 MSTORE CALLVALUE DUP1 ISZERO PUSH2 0x10 JUMPI PUSH1 0x0 DUP1 REVERT JUMPDEST POP PUSH1 0x4 CALLDATASIZE LT PUSH2 0x62 JUMPI PUSH1 0x0 CALLDATALOAD PUSH1 0xE0 SHR DUP1 PUSH4 0x5CBEB13F EQ PUSH2 0x67 JUMPI DUP1 PUSH4 0x83881311 EQ PUSH2 0x83 JUMPI DUP1 PUSH4 0xBBE15627 EQ PUSH2 0x9F JUMPI DUP1 PUSH4 0xD47875D0 EQ PUSH2 0xD2 JUMPI DUP1 PUSH4 0xD5B9221B EQ PUSH2 0x102 JUMPI DUP1 PUSH4 0xF851A440 EQ PUSH2 0x132 JUMPI JUMPDEST PUSH1 0x0 DUP1 REVERT JUMPDEST PUSH2 0x81 PUSH1 0x4 DUP1 CALLDATASIZE SUB DUP2 ADD SWAP1 PUSH2 0x7C SWAP2 SWAP1 PUSH2 0x695 JUMP JUMPDEST PUSH2 0x150 JUMP JUMPDEST STOP JUMPDEST PUSH2 0x9D PUSH1 0x4 DUP1 CALLDATASIZE SUB DUP2 ADD SWAP1 PUSH2 0x98 SWAP2 SWAP1 PUSH2 0x695 JUMP JUMPDEST PUSH2 0x289 JUMP JUMPDEST STOP JUMPDEST PUSH2 0xB9 PUSH1 0x4 DUP1 CALLDATASIZE SUB DUP2 ADD SWAP1 PUSH2 0xB4 SWAP2 SWAP1 PUSH2 0x6D5 JUMP JUMPDEST PUSH2 0x4E9 JUMP JUMPDEST PUSH1 0x40 MLOAD PUSH2 0xC9 SWAP5 SWAP4 SWAP3 SWAP2 SWAP1 PUSH2 0x71B JUMP JUMPDEST PUSH1 0x40 MLOAD DUP1 SWAP2 SUB SWAP1 RETURN JUMPDEST PUSH2 0xEC PUSH1 0x4 DUP1 CALLDATASIZE SUB DUP2 ADD SWAP1 PUSH2 0xE7 SWAP2 SWAP1 PUSH2 0x6D5 JUMP JUMPDEST PUSH2 0x519 JUMP JUMPDEST PUSH1 0x40 MLOAD PUSH2 0xF9 SWAP2 SWAP1 PUSH2 0x760 JUMP JUMPDEST PUSH1 0x40 MLOAD DUP1 SWAP2 SUB SWAP1 RETURN JUMPDEST PUSH2 0x11C PUSH1 0x4 DUP1 CALLDATASIZE SUB DUP2 ADD SWAP1 PUSH2 0x117 SWAP2 SWAP1 PUSH2 0x6D5 JUMP JUMPDEST PUSH2 0x5B4 JUMP JUMPDEST PUSH1 0x40 MLOAD PUSH2 0x129 SWAP2 SWAP1 PUSH2 0x78A JUMP JUMPDEST PUSH1 0x40 MLOAD DUP1 SWAP2 SUB SWAP1 RETURN JUMPDEST PUSH2 0x13A PUSH2 0x5D4 JUMP JUMPDEST PUSH1 0x40 MLOAD PUSH2 0x147 SWAP2 SWAP1 PUSH2 0x7B4 JUMP JUMPDEST PUSH1 0x40 MLOAD DUP1 SWAP2 SUB SWAP1 RETURN JUMPDEST PUSH1 0x1 PUSH1 0x0 SWAP1 SLOAD SWAP1 PUSH2 0x100 EXP SWAP1 DIV PUSH20 0xFFFFFFFFFFFFFFFFFFFFFFFFFFFFFFFFFFFFFFFF AND PUSH20 0xFFFFFFFFFFFFFFFFFFFFFFFFFFFFFFFFFFFFFFFF AND CALLER PUSH20 0xFFFFFFFFFFFFFFFFFFFFFFFFFFFFFFFFFFFFFFFF AND EQ PUSH2 0x1E0 JUMPI PUSH1 0x40 MLOAD PUSH32 0x8C379A000000000000000000000000000000000000000000000000000000000 DUP2 MSTORE PUSH1 0x4 ADD PUSH2 0x1D7 SWAP1 PUSH2 0x82C JUMP JUMPDEST PUSH1 0x40 MLOAD DUP1 SWAP2 SUB SWAP1 REVERT JUMPDEST DUP1 PUSH1 0x2 PUSH1 0x0 DUP5 PUSH20 0xFFFFFFFFFFFFFFFFFFFFFFFFFFFFFFFFFFFFFFFF AND PUSH20 0xFFFFFFFFFFFFFFFFFFFFFFFFFFFFFFFFFFFFFFFF AND DUP2 MSTORE PUSH1 0x20 ADD SWAP1 DUP2 MSTORE PUSH1 0x20 ADD PUSH1 0x0 KECCAK256 PUSH1 0x0 PUSH2 0x100 EXP DUP2 SLOAD DUP2 PUSH1 0xFF MUL NOT AND SWAP1 DUP4 ISZERO ISZERO MUL OR SWAP1 SSTORE POP DUP2 PUSH20 0xFFFFFFFFFFFFFFFFFFFFFFFFFFFFFFFFFFFFFFFF AND PUSH32 0x3213AB8EC2ED122402F038736B41878B69AE9F61F49A7EDD0666BCE891D29FC9 DUP3 PUSH1 0x40 MLOAD PUSH2 0x27D SWAP2 SWAP1 PUSH2 0x78A JUMP JUMPDEST PUSH1 0x40 MLOAD DUP1 SWAP2 SUB SWAP1 LOG2 POP POP JUMP JUMPDEST PUSH1 0x2 PUSH1 0x0 CALLER PUSH20 0xFFFFFFFFFFFFFFFFFFFFFFFFFFFFFFFFFFFFFFFF AND PUSH20 0xFFFFFFFFFFFFFFFFFFFFFFFFFFFFFFFFFFFFFFFF AND DUP2 MSTORE PUSH1 0x20 ADD SWAP1 DUP2 MSTORE PUSH1 0x20 ADD PUSH1 0x0 KECCAK256 PUSH1 0x0 SWAP1 SLOAD SWAP1 PUSH2 0x100 EXP SWAP1 DIV PUSH1 0xFF AND DUP1 PUSH2 0x32E JUMPI POP PUSH1 0x1 PUSH1 0x0 SWAP1 SLOAD SWAP1 PUSH2 0x100 EXP SWAP1 DIV PUSH20 0xFFFFFFFFFFFFFFFFFFFFFFFFFFFFFFFFFFFFFFFF AND PUSH20 0xFFFFFFFFFFFFFFFFFFFFFFFFFFFFFFFFFFFFFFFF AND CALLER PUSH20 0xFFFFFFFFFFFFFFFFFFFFFFFFFFFFFFFFFFFFFFFF AND EQ JUMPDEST PUSH2 0x36D JUMPI PUSH1 0x40 MLOAD PUSH32 0x8C379A000000000000000000000000000000000000000000000000000000000 DUP2 MSTORE PUSH1 0x4 ADD PUSH2 0x364 SWAP1 PUSH2 0x898 JUMP JUMPDEST PUSH1 0x40 MLOAD DUP1 SWAP2 SUB SWAP1 REVERT JUMPDEST PUSH1 0x0 DUP1 PUSH1 0x0 DUP5 PUSH20 0xFFFFFFFFFFFFFFFFFFFFFFFFFFFFFFFFFFFFFFFF AND PUSH20 0xFFFFFFFFFFFFFFFFFFFFFFFFFFFFFFFFFFFFFFFF AND DUP2 MSTORE PUSH1 0x20 ADD SWAP1 DUP2 MSTORE PUSH1 0x20 ADD PUSH1 0x0 KECCAK256 SWAP1 POP PUSH1 0x0 DUP2 PUSH1 0x1 ADD SLOAD SUB PUSH2 0x3C7 JUMPI PUSH2 0x1F4 DUP2 PUSH1 0x0 ADD DUP2 SWAP1 SSTORE POP JUMPDEST DUP1 PUSH1 0x1 ADD PUSH1 0x0 DUP2 SLOAD DUP1 SWAP3 SWAP2 SWAP1 PUSH2 0x3DC SWAP1 PUSH2 0x8E7 JUMP JUMPDEST SWAP2 SWAP1 POP SSTORE POP DUP2 ISZERO PUSH2 0x43C JUMPI DUP1 PUSH1 0x2 ADD PUSH1 0x0 DUP2 SLOAD DUP1 SWAP3 SWAP2 SWAP1 PUSH2 0x3FC SWAP1 PUSH2 0x8E7 JUMP JUMPDEST SWAP2 SWAP1 POP SSTORE POP PUSH1 0xA DUP2 PUSH1 0x0 ADD PUSH1 0x0 DUP3 DUP3 SLOAD PUSH2 0x416 SWAP2 SWAP1 PUSH2 0x92F JUMP JUMPDEST SWAP3 POP POP DUP2 SWAP1 SSTORE POP PUSH2 0x3E8 DUP2 PUSH1 0x0 ADD SLOAD GT ISZERO PUSH2 0x437 JUMPI PUSH2 0x3E8 DUP2 PUSH1 0x0 ADD DUP2 SWAP1 SSTORE POP JUMPDEST PUSH2 0x490 JUMP JUMPDEST DUP1 PUSH1 0x3 ADD PUSH1 0x0 DUP2 SLOAD DUP1 SWAP3 SWAP2 SWAP1 PUSH2 0x451 SWAP1 PUSH2 0x8E7 JUMP JUMPDEST SWAP2 SWAP1 POP SSTORE POP PUSH1 0x32 DUP2 PUSH1 0x0 ADD SLOAD GT ISZERO PUSH2 0x484 JUMPI PUSH1 0x32 DUP2 PUSH1 0x0 ADD PUSH1 0x0 DUP3 DUP3 SLOAD PUSH2 0x478 SWAP2 SWAP1 PUSH2 0x963 JUMP JUMPDEST SWAP3 POP POP DUP2 SWAP1 SSTORE POP PUSH2 0x48F JUMP JUMPDEST PUSH1 0x0 DUP2 PUSH1 0x0 ADD DUP2 SWAP1 SSTORE POP JUMPDEST JUMPDEST DUP3 PUSH20 0xFFFFFFFFFFFFFFFFFFFFFFFFFFFFFFFFFFFFFFFF AND PUSH32 0xA25205FEC86EDFCE0EC6AD12D4A8FF97A10AB34A24EEA79EBD9C5AA60C5546F7 DUP3 PUSH1 0x0 ADD SLOAD DUP5 PUSH1 0x40 MLOAD PUSH2 0x4DC SWAP3 SWAP2 SWAP1 PUSH2 0x997 JUMP JUMPDEST PUSH1 0x40 MLOAD DUP1 SWAP2 SUB SWAP1 LOG2 POP POP POP JUMP JUMPDEST PUSH1 0x0 PUSH1 0x20 MSTORE DUP1 PUSH1 0x0 MSTORE PUSH1 0x40 PUSH1 0x0 KECCAK256 PUSH1 0x0 SWAP2 POP SWAP1 POP DUP1 PUSH1 0x0 ADD SLOAD SWAP1 DUP1 PUSH1 0x1 ADD SLOAD SWAP1 DUP1 PUSH1 0x2 ADD SLOAD SWAP1 DUP1 PUSH1 0x3 ADD SLOAD SWAP1 POP DUP5 JUMP JUMPDEST PUSH1 0x0 DUP1 PUSH1 0x0 DUP1 DUP5 PUSH20 0xFFFFFFFFFFFFFFFFFFFFFFFFFFFFFFFFFFFFFFFF AND PUSH20 0xFFFFFFFFFFFFFFFFFFFFFFFFFFFFFFFFFFFFFFFF AND DUP2 MSTORE PUSH1 0x20 ADD SWAP1 DUP2 MSTORE PUSH1 0x20 ADD PUSH1 0x0 KECCAK256 PUSH1 0x40 MLOAD DUP1 PUSH1 0x80 ADD PUSH1 0x40 MSTORE SWAP1 DUP2 PUSH1 0x0 DUP3 ADD SLOAD DUP2 MSTORE PUSH1 0x20 ADD PUSH1 0x1 DUP3 ADD SLOAD DUP2 MSTORE PUSH1 0x20 ADD PUSH1 0x2 DUP3 ADD SLOAD DUP2 MSTORE PUSH1 0x20 ADD PUSH1 0x3 DUP3 ADD SLOAD DUP2 MSTORE POP POP SWAP1 POP PUSH1 0x0 DUP2 PUSH1 0x20 ADD MLOAD SUB PUSH2 0x5A6 JUMPI PUSH2 0x1F4 SWAP2 POP POP PUSH2 0x5AF JUMP JUMPDEST DUP1 PUSH1 0x0 ADD MLOAD SWAP2 POP POP JUMPDEST SWAP2 SWAP1 POP JUMP JUMPDEST PUSH1 0x2 PUSH1 0x20 MSTORE DUP1 PUSH1 0x0 MSTORE PUSH1 0x40 PUSH1 0x0 KECCAK256 PUSH1 0x0 SWAP2 POP SLOAD SWAP1 PUSH2 0x100 EXP SWAP1 DIV PUSH1 0xFF AND DUP2 JUMP JUMPDEST PUSH1 0x1 PUSH1 0x0 SWAP1 SLOAD SWAP1 PUSH2 0x100 EXP SWAP1 DIV PUSH20 0xFFFFFFFFFFFFFFFFFFFFFFFFFFFFFFFFFFFFFFFF AND DUP2 JUMP JUMPDEST PUSH1 0x0 DUP1 REVERT JUMPDEST PUSH1 0x0 PUSH20 0xFFFFFFFFFFFFFFFFFFFFFFFFFFFFFFFFFFFFFFFF DUP3 AND SWAP1 POP SWAP2 SWAP1 POP JUMP JUMPDEST PUSH1 0x0 PUSH2 0x62A DUP3 PUSH2 0x5FF JUMP JUMPDEST SWAP1 POP SWAP2 SWAP1 POP JUMP JUMPDEST PUSH2 0x63A DUP2 PUSH2 0x61F JUMP JUMPDEST DUP2 EQ PUSH2 0x645 JUMPI PUSH1 0x0 DUP1 REVERT JUMPDEST POP JUMP JUMPDEST PUSH1 0x0 DUP2 CALLDATALOAD SWAP1 POP PUSH2 0x657 DUP2 PUSH2 0x631 JUMP JUMPDEST SWAP3 SWAP2 POP POP JUMP JUMPDEST PUSH1 0x0 DUP2 ISZERO ISZERO SWAP1 POP SWAP2 SWAP1 POP JUMP JUMPDEST PUSH2 0x672 DUP2 PUSH2 0x65D JUMP JUMPDEST DUP2 EQ PUSH2 0x67D JUMPI PUSH1 0x0 DUP1 REVERT JUMPDEST POP JUMP JUMPDEST PUSH1 0x0 DUP2 CALLDATALOAD SWAP1 POP PUSH2 0x68F DUP2 PUSH2 0x669 JUMP JUMPDEST SWAP3 SWAP2 POP POP JUMP JUMPDEST PUSH1 0x0 DUP1 PUSH1 0x40 DUP4 DUP6 SUB SLT ISZERO PUSH2 0x6AC JUMPI PUSH2 0x6AB PUSH2 0x5FA JUMP JUMPDEST JUMPDEST PUSH1 0x0 PUSH2 0x6BA DUP6 DUP3 DUP7 ADD PUSH2 0x648 JUMP JUMPDEST SWAP3 POP POP PUSH1 0x20 PUSH2 0x6CB DUP6 DUP3 DUP7 ADD PUSH2 0x680 JUMP JUMPDEST SWAP2 POP POP SWAP3 POP SWAP3 SWAP1 POP JUMP JUMPDEST PUSH1 0x0 PUSH1 0x20 DUP3 DUP5 SUB SLT ISZERO PUSH2 0x6EB JUMPI PUSH2 0x6EA PUSH2 0x5FA JUMP JUMPDEST JUMPDEST PUSH1 0x0 PUSH2 0x6F9 DUP5 DUP3 DUP6 ADD PUSH2 0x648 JUMP JUMPDEST SWAP2 POP POP SWAP3 SWAP2 POP POP JUMP JUMPDEST PUSH1 0x0 DUP2 SWAP1 POP SWAP2 SWAP1 POP JUMP JUMPDEST PUSH2 0x715 DUP2 PUSH2 0x702 JUMP JUMPDEST DUP3 MSTORE POP POP JUMP JUMPDEST PUSH1 0x0 PUSH1 0x80 DUP3 ADD SWAP1 POP PUSH2 0x730 PUSH1 0x0 DUP4 ADD DUP8 PUSH2 0x70C JUMP JUMPDEST PUSH2 0x73D PUSH1 0x20 DUP4 ADD DUP7 PUSH2 0x70C JUMP JUMPDEST PUSH2 0x74A PUSH1 0x40 DUP4 ADD DUP6 PUSH2 0x70C JUMP JUMPDEST PUSH2 0x757 PUSH1 0x60 DUP4 ADD DUP5 PUSH2 0x70C JUMP JUMPDEST SWAP6 SWAP5 POP POP POP POP POP JUMP JUMPDEST PUSH1 0x0 PUSH1 0x20 DUP3 ADD SWAP1 POP PUSH2 0x775 PUSH1 0x0 DUP4 ADD DUP5 PUSH2 0x70C JUMP JUMPDEST SWAP3 SWAP2 POP POP JUMP JUMPDEST PUSH2 0x784 DUP2 PUSH2 0x65D JUMP JUMPDEST DUP3 MSTORE POP POP JUMP JUMPDEST PUSH1 0x0 PUSH1 0x20 DUP3 ADD SWAP1 POP PUSH2 0x79F PUSH1 0x0 DUP4 ADD DUP5 PUSH2 0x77B JUMP JUMPDEST SWAP3 SWAP2 POP POP JUMP JUMPDEST PUSH2 0x7AE DUP2 PUSH2 0x61F JUMP JUMPDEST DUP3 MSTORE POP POP JUMP JUMPDEST PUSH1 0x0 PUSH1 0x20 DUP3 ADD SWAP1 POP PUSH2 0x7C9 PUSH1 0x0 DUP4 ADD DUP5 PUSH2 0x7A5 JUMP JUMPDEST SWAP3 SWAP2 POP POP JUMP JUMPDEST PUSH1 0x0 DUP3 DUP3 MSTORE PUSH1 0x20 DUP3 ADD SWAP1 POP SWAP3 SWAP2 POP POP JUMP JUMPDEST PUSH32 0x4F6E6C792061646D696E00000000000000000000000000000000000000000000 PUSH1 0x0 DUP3 ADD MSTORE POP JUMP JUMPDEST PUSH1 0x0 PUSH2 0x816 PUSH1 0xA DUP4 PUSH2 0x7CF JUMP JUMPDEST SWAP2 POP PUSH2 0x821 DUP3 PUSH2 0x7E0 JUMP JUMPDEST PUSH1 0x20 DUP3 ADD SWAP1 POP SWAP2 SWAP1 POP JUMP JUMPDEST PUSH1 0x0 PUSH1 0x20 DUP3 ADD SWAP1 POP DUP2 DUP2 SUB PUSH1 0x0 DUP4 ADD MSTORE PUSH2 0x845 DUP2 PUSH2 0x809 JUMP JUMPDEST SWAP1 POP SWAP2 SWAP1 POP JUMP JUMPDEST PUSH32 0x4E6F7420617574686F72697A6564000000000000000000000000000000000000 PUSH1 0x0 DUP3 ADD MSTORE POP JUMP JUMPDEST PUSH1 0x0 PUSH2 0x882 PUSH1 0xE DUP4 PUSH2 0x7CF JUMP JUMPDEST SWAP2 POP PUSH2 0x88D DUP3 PUSH2 0x84C JUMP JUMPDEST PUSH1 0x20 DUP3 ADD SWAP1 POP SWAP2 SWAP1 POP JUMP JUMPDEST PUSH1 0x0 PUSH1 0x20 DUP3 ADD SWAP1 POP DUP2 DUP2 SUB PUSH1 0x0 DUP4 ADD MSTORE PUSH2 0x8B1 DUP2 PUSH2 0x875 JUMP JUMPDEST SWAP1 POP SWAP2 SWAP1 POP JUMP JUMPDEST PUSH32 0x4E487B7100000000000000000000000000000000000000000000000000000000 PUSH1 0x0 MSTORE PUSH1 0x11 PUSH1 0x4 MSTORE PUSH1 0x24 PUSH1 0x0 REVERT JUMPDEST PUSH1 0x0 PUSH2 0x8F2 DUP3 PUSH2 0x702 JUMP JUMPDEST SWAP2 POP PUSH32 0xFFFFFFFFFFFFFFFFFFFFFFFFFFFFFFFFFFFFFFFFFFFFFFFFFFFFFFFFFFFFFFFF DUP3 SUB PUSH2 0x924 JUMPI PUSH2 0x923 PUSH2 0x8B8 JUMP JUMPDEST JUMPDEST PUSH1 0x1 DUP3 ADD SWAP1 POP SWAP2 SWAP1 POP JUMP JUMPDEST PUSH1 0x0 PUSH2 0x93A DUP3 PUSH2 0x702 JUMP JUMPDEST SWAP2 POP PUSH2 0x945 DUP4 PUSH2 0x702 JUMP JUMPDEST SWAP3 POP DUP3 DUP3 ADD SWAP1 POP DUP1 DUP3 GT ISZERO PUSH2 0x95D JUMPI PUSH2 0x95C PUSH2 0x8B8 JUMP JUMPDEST JUMPDEST SWAP3 SWAP2 POP POP JUMP JUMPDEST PUSH1 0x0 PUSH2 0x96E DUP3 PUSH2 0x702 JUMP JUMPDEST SWAP2 POP PUSH2 0x979 DUP4 PUSH2 0x702 JUMP JUMPDEST SWAP3 POP DUP3 DUP3 SUB SWAP1 POP DUP2 DUP2 GT ISZERO PUSH2 0x991 JUMPI PUSH2 0x990 PUSH2 0x8B8 JUMP JUMPDEST JUMPDEST SWAP3 SWAP2 POP POP JUMP JUMPDEST PUSH1 0x0 PUSH1 0x40 DUP3 ADD SWAP1 POP PUSH2 0x9AC PUSH1 0x0 DUP4 ADD DUP6 PUSH2 0x70C JUMP JUMPDEST PUSH2 0x9B9 PUSH1 0x20 DUP4 ADD DUP5 PUSH2 0x77B JUMP JUMPDEST SWAP4 SWAP3 POP POP POP JUMP INVALID LOG2 PUSH5 0x6970667358 0x22 SLT KECCAK256 0xB4 SUB 0xD7 0xBE 0xDB 0xDE DIV 0x2F SELFBALANCE 0xB7 TLOAD STATICCALL SWAP9 0xF8 PUSH3 0xE31194 0x22 0x4E DUP6 0xEE 0x2F RETURNDATASIZE 0xBF 0xEE DUP8 0xAD 0xAF DUP12 RETURNDATASIZE DUP5 PUSH5 0x736F6C6343 STOP ADDMOD XOR STOP CALLER "},"methodIdentifiers":{"admin()":"f851a440","authorizeContract(address,bool)":"5cbeb13f","authorizedContracts(address)":"d5b9221b","getScore(address)":"d47875d0","profiles(address)":"bbe15627","updateScore(address,bool)":"83881311"}}}}}