{"contracts/CreditScore.sol":{"CreditScore":{"abi":[{"inputs":[{"internalType":"address","name":"_loanFactory","type":"address"}],"stateMutability":"nonpayable","type":"constructor"},{"inputs":[],"name":"BASE_SCORE","outputs":[{"internalType":"uint256","name":"","type":"uint256"}],"stateMutability":"view","type":"function"},{"inputs":[],"name":"COMPLETED_WEIGHT","outputs":[{"internalType":"uint256","name":"","type":"uint256"}],"stateMutability":"view","type":"function"},{"inputs":[],"name":"DEFAULT_PENALTY","outputs":[{"internalType":"uint256","name":"","type":"uint256"}],"stateMutability":"view","type":"function"},{"inputs":[],"name":"ON_TIME_MULTIPLIER","outputs":[{"internalType":"uint256","name":"","type":"uint256"}],"stateMutability":"view","type":"function"},{"inputs":[{"internalType":"address","name":"user","type":"address"}],"name":"getScore","outputs":[{"internalType":"uint256","name":"","type":"uint256"}],"stateMutability":"view","type":"function"},{"inputs":[],"name":"loanFactory","outputs":[{"internalType":"address","name":"","type":"address"}],"stateMutability":"view","type":"function"},{"inputs":[{"internalType":"address","name":"user","type":"address"},{"internalType":"uint256","name":"principal","type":"uint256"}],"name":"recordDefault","outputs":[],"stateMutability":"nonpayable","type":"function"},{"inputs":[{"internalType":"address","name":"user","type":"address"},{"internalType":"uint256","name":"principal","type":"uint256"}],"name":"recordLoanRequest","outputs":[],"stateMutability":"nonpayable","type":"function"},{"inputs":[{"internalType":"address","name":"user","type":"address"},{"internalType":"uint256","name":"principal","type":"uint256"},{"internalType":"bool","name":"onTime","type":"bool"}],"name":"recordRepayment","outputs":[],"stateMutability":"nonpayable","type":"function"},{"inputs":[{"internalType":"address","name":"","type":"address"}],"name":"records","outputs":[{"internalType":"uint256","name":"totalLoans","type":"uint256"},{"internalType":"uint256","name":"completedLoans","type":"uint256"},{"internalType":"uint256","name":"onTimeRepayments","type":"uint256"},{"internalType":"uint256","name":"defaults","type":"uint256"},{"internalType":"uint256","name":"totalBorrowed","type":"uint256"},{"internalType":"uint256","name":"score","type":"uint256"}],"stateMutability":"view","type":"function"}],"evm":{"bytecode":{"linkReferences":{},"object":"608060405234801561001057600080fd5b50604051610c9d380380610c9d833981810160405281019061003291906100dc565b80600160006101000a81548173ffffffffffffffffffffffffffffffffffffffff021916908373ffffffffffffffffffffffffffffffffffffffff16021790555050610109565b600080fd5b600073ffffffffffffffffffffffffffffffffffffffff82169050919050565b60006100a98261007e565b9050919050565b6100b98161009e565b81146100c457600080fd5b50565b6000815190506100d6816100b0565b92915050565b6000602082840312156100f2576100f1610079565b5b6000610100848285016100c7565b91505092915050565b610b85806101186000396000f3fe608060405234801561001057600080fd5b506004361061009e5760003560e01c8063bf15e01711610066578063bf15e0171461014e578063c48f13921461016c578063cd4544f214610188578063d47875d0146101a4578063db2db177146101d45761009e565b8063469e9067146100a357806364b12355146100d85780637effe568146100f457806390b4394814610112578063b37ed8cd14610130575b600080fd5b6100bd60048036038101906100b891906107b6565b6101f2565b6040516100cf969594939291906107fc565b60405180910390f35b6100f260048036038101906100ed9190610889565b61022e565b005b6100fc61031b565b60405161010991906108c9565b60405180910390f35b61011a610321565b60405161012791906108c9565b60405180910390f35b610138610326565b60405161014591906108f3565b60405180910390f35b61015661034c565b60405161016391906108c9565b60405180910390f35b61018660048036038101906101819190610946565b610351565b005b6101a2600480360381019061019d9190610889565b61048c565b005b6101be60048036038101906101b991906107b6565b6105a3565b6040516101cb91906108c9565b60405180910390f35b6101dc61063f565b6040516101e991906108c9565b60405180910390f35b60006020528060005260406000206000915090508060000154908060010154908060020154908060030154908060040154908060050154905086565b600160009054906101000a900473ffffffffffffffffffffffffffffffffffffffff1673ffffffffffffffffffffffffffffffffffffffff163373ffffffffffffffffffffffffffffffffffffffff16146102be576040517f08c379a00000000000000000000000000000000000000000000000000000000081526004016102b5906109f6565b60405180910390fd5b60016000808473ffffffffffffffffffffffffffffffffffffffff1673ffffffffffffffffffffffffffffffffffffffff16815260200190815260200160002060000160008282546103109190610a45565b925050819055505050565b6101f481565b600281565b600160009054906101000a900473ffffffffffffffffffffffffffffffffffffffff1681565b603281565b600160009054906101000a900473ffffffffffffffffffffffffffffffffffffffff1673ffffffffffffffffffffffffffffffffffffffff163373ffffffffffffffffffffffffffffffffffffffff16146103e1576040517f08c379a00000000000000000000000000000000000000000000000000000000081526004016103d8906109f6565b60405180910390fd5b60008060008573ffffffffffffffffffffffffffffffffffffffff1673ffffffffffffffffffffffffffffffffffffffff168152602001908152602001600020905060018160010160008282546104389190610a45565b92505081905550811561046257600181600201600082825461045a9190610a45565b925050819055505b828160040160008282546104769190610a45565b9250508190555061048684610644565b50505050565b600160009054906101000a900473ffffffffffffffffffffffffffffffffffffffff1673ffffffffffffffffffffffffffffffffffffffff163373ffffffffffffffffffffffffffffffffffffffff161461051c576040517f08c379a0000000000000000000000000000000000000000000000000000000008152600401610513906109f6565b60405180910390fd5b60008060008473ffffffffffffffffffffffffffffffffffffffff1673ffffffffffffffffffffffffffffffffffffffff168152602001908152602001600020905060018160030160008282546105739190610a45565b925050819055508181600401600082825461058e9190610a45565b9250508190555061059e83610644565b505050565b6000806000808473ffffffffffffffffffffffffffffffffffffffff1673ffffffffffffffffffffffffffffffffffffffff1681526020019081526020016000206005015414610634576000808373ffffffffffffffffffffffffffffffffffffffff1673ffffffffffffffffffffffffffffffffffffffff16815260200190815260200160002060050154610638565b6101f45b9050919050565b601481565b60008060008373ffffffffffffffffffffffffffffffffffffffff1673ffffffffffffffffffffffffffffffffffffffff168152602001908152602001600020905060008082600101541161069a5760646106bb565b8160010154606483600201546106b09190610a79565b6106ba9190610aea565b5b905060006101f49050601483600101546106d59190610a79565b816106e09190610a45565b9050600a6002836106f19190610a79565b6106fb9190610aea565b816107069190610a45565b905060008360030154111561073457603283600301546107269190610a79565b816107319190610b1b565b90505b60008111610743576000610745565b805b836005018190555050505050565b600080fd5b600073ffffffffffffffffffffffffffffffffffffffff82169050919050565b600061078382610758565b9050919050565b61079381610778565b811461079e57600080fd5b50565b6000813590506107b08161078a565b92915050565b6000602082840312156107cc576107cb610753565b5b60006107da848285016107a1565b91505092915050565b6000819050919050565b6107f6816107e3565b82525050565b600060c08201905061081160008301896107ed565b61081e60208301886107ed565b61082b60408301876107ed565b61083860608301866107ed565b61084560808301856107ed565b61085260a08301846107ed565b979650505050505050565b610866816107e3565b811461087157600080fd5b50565b6000813590506108838161085d565b92915050565b600080604083850312156108a05761089f610753565b5b60006108ae858286016107a1565b92505060206108bf85828601610874565b9150509250929050565b60006020820190506108de60008301846107ed565b92915050565b6108ed81610778565b82525050565b600060208201905061090860008301846108e4565b92915050565b60008115159050919050565b6109238161090e565b811461092e57600080fd5b50565b6000813590506109408161091a565b92915050565b60008060006060848603121561095f5761095e610753565b5b600061096d868287016107a1565b935050602061097e86828701610874565b925050604061098f86828701610931565b9150509250925092565b600082825260208201905092915050565b7f4f6e6c79204c6f616e466163746f727900000000000000000000000000000000600082015250565b60006109e0601083610999565b91506109eb826109aa565b602082019050919050565b60006020820190508181036000830152610a0f816109d3565b9050919050565b7f4e487b7100000000000000000000000000000000000000000000000000000000600052601160045260246000fd5b6000610a50826107e3565b9150610a5b836107e3565b9250828201905080821115610a7357610a72610a16565b5b92915050565b6000610a84826107e3565b9150610a8f836107e3565b9250828202610a9d816107e3565b91508282048414831517610ab457610ab3610a16565b5b5092915050565b7f4e487b7100000000000000000000000000000000000000000000000000000000600052601260045260246000fd5b6000610af5826107e3565b9150610b00836107e3565b925082610b1057610b0f610abb565b5b828204905092915050565b6000610b26826107e3565b9150610b31836107e3565b9250828203905081811115610b4957610b48610a16565b5b9291505056fea2646970667358221220d299cdf8df093c12d796f838193a8e9bd2aa8b68bd5196d9559a7a05c04ac77964736f6c63430008180033","opcodes":"PUSH1 0x80 PUSH1 0x40 MSTORE CALLVALUE DUP1 ISZERO PUSH2 0x10 JUMPI PUSH1 0x0 DUP1 REVERT JUMPDEST POP PUSH1 0x40 MLOAD PUSH2 0xC9D CODESIZE SUB DUP1 PUSH2 0xC9D DUP4 CODECOPY DUP2 DUP2 ADD PUSH1 0x40 MSTORE DUP2 ADD SWAP1 PUSH2 0x32 SWAP2 SWAP1 PUSH2 0xDC JUMP JUMPDEST DUP1 PUSH1 0x1 PUSH1 0x0 PUSH2 0x100 EXP DUP2 SLOAD DUP2 PUSH20 0xFFFFFFFFFFFFFFFFFFFFFFFFFFFFFFFFFFFFFFFF MUL NOT AND SWAP1 DUP4 PUSH20 0xFFFFFFFFFFFFFFFFFFFFFFFFFFFFFFFFFFFFFFFF AND MUL OR SWAP1 SSTORE POP POP PUSH2 0x109 JUMP JUMPDEST PUSH1 0x0 DUP1 REVERT JUMPDEST PUSH1 0x0 PUSH20 0xFFFFFFFFFFFFFFFFFFFFFFFFFFFFFFFFFFFFFFFF DUP3 AND SWAP1 POP SWAP2 SWAP1 POP JUMP JUMPDEST PUSH1 0x0 PUSH2 0xA9 DUP3 PUSH2 0x7E JUMP JUMPDEST SWAP1 POP SWAP2 SWAP1 POP JUMP JUMPDEST PUSH2 0xB9 DUP2 PUSH2 0x9E JUMP JUMPDEST DUP2 EQ PUSH2 0xC4 JUMPI PUSH1 0x0 DUP1 REVERT JUMPDEST POP JUMP JUMPDEST PUSH1 0x0 DUP2 MLOAD SWAP1 POP PUSH2 0xD6 DUP2 PUSH2 0xB0 JUMP JUMPDEST SWAP3 SWAP2 POP POP JUMP JUMPDEST PUSH1 0x0 PUSH1 0x20 DUP3 DUP5 SUB SLT ISZERO PUSH2 0xF2 JUMPI PUSH2 0xF1 PUSH2 0x79 JUMP JUMPDEST JUMPDEST PUSH1 0x0 PUSH2 0x100 DUP5 DUP3 DUP6 ADD PUSH2 0xC7 JUMP JUMPDEST SWAP2 POP POP SWAP3 SWAP2 POP POP JUMP JUMPDEST PUSH2 0xB85 DUP1 PUSH2 0x118 PUSH1 0x0 CODECOPY PUSH1 0x0 RETURN INVALID PUSH1 0x80 PUSH1 0x40 MSTORE CALLVALUE DUP1 ISZERO PUSH2 0x10 JUMPI PUSH1 0x0 DUP1 REVERT JUMPDEST POP PUSH1 0x4 CALLDATASIZE LT PUSH2 0x9E JUMPI PUSH1 0x0 CALLDATALOAD PUSH1 0xE0 SHR DUP1 PUSH4 0xBF15E017 GT PUSH2 0x66 JUMPI DUP1 PUSH4 0xBF15E017 EQ PUSH2 0x14E JUMPI DUP1 PUSH4 0xC48F1392 EQ PUSH2 0x16C JUMPI DUP1 PUSH4 0xCD4544F2 EQ PUSH2 0x188 JUMPI DUP1 PUSH4 0xD47875D0 EQ PUSH2 0x1A4 JUMPI DUP1 PUSH4 0xDB2DB177 EQ PUSH2 0x1D4 JUMPI PUSH2 0x9E JUMP JUMPDEST DUP1 PUSH4 0x469E9067 EQ PUSH2 0xA3 JUMPI DUP1 PUSH4 0x64B12355 EQ PUSH2 0xD8 JUMPI DUP1 PUSH4 0x7EFFE568 EQ PUSH2 0xF4 JUMPI DUP1 PUSH4 0x90B43948 EQ PUSH2 0x112 JUMPI DUP1 PUSH4 0xB37ED8CD EQ PUSH2 0x130 JUMPI JUMPDEST PUSH1 0x0 DUP1 REVERT JUMPDEST PUSH2 0xBD PUSH1 0x4 DUP1 CALLDATASIZE SUB DUP2 ADD SWAP1 PUSH2 0xB8 SWAP2 SWAP1 PUSH2 0x7B6 JUMP JUMPDEST PUSH2 0x1F2 JUMP JUMPDEST PUSH1 0x40 MLOAD PUSH2 0xCF SWAP7 SWAP6 SWAP5 SWAP4 SWAP3 SWAP2 SWAP1 PUSH2 0x7FC JUMP JUMPDEST PUSH1 0x40 MLOAD DUP1 SWAP2 SUB SWAP1 RETURN JUMPDEST PUSH2 0xF2 PUSH1 0x4 DUP1 CALLDATASIZE SUB DUP2 ADD SWAP1 PUSH2 0xED SWAP2 SWAP1 PUSH2 0x889 JUMP JUMPDEST PUSH2 0x22E JUMP JUMPDEST STOP JUMPDEST PUSH2 0xFC PUSH2 0x31B JUMP JUMPDEST PUSH1 0x40 MLOAD PUSH2 0x109 SWAP2 SWAP1 PUSH2 0x8C9 JUMP JUMPDEST PUSH1 0x40 MLOAD DUP1 SWAP2 SUB SWAP1 RETURN JUMPDEST PUSH2 0x11A PUSH2 0x321 JUMP JUMPDEST PUSH1 0x40 MLOAD PUSH2 0x127 SWAP2 SWAP1 PUSH2 0x8C9 JUMP JUMPDEST PUSH1 0x40 MLOAD DUP1 SWAP2 SUB SWAP1 RETURN JUMPDEST PUSH2 0x138 PUSH2 0x326 JUMP JUMPDEST PUSH1 0x40 MLOAD PUSH2 0x145 SWAP2 SWAP1 PUSH2 0x8F3 JUMP JUMPDEST PUSH1 0x40 MLOAD DUP1 SWAP2 SUB SWAP1 RETURN JUMPDEST PUSH2 0x156 PUSH2 0x34C JUMP JUMPDEST PUSH1 0x40 MLOAD PUSH2 0x163 SWAP2 SWAP1 PUSH2 0x8C9 JUMP JUMPDEST PUSH1 0x40 MLOAD DUP1 SWAP2 SUB SWAP1 RETURN JUMPDEST PUSH2 0x186 PUSH1 0x4 DUP1 CALLDATASIZE SUB DUP2 ADD SWAP1 PUSH2 0x181 SWAP2 SWAP1 PUSH2 0x946 JUMP JUMPDEST PUSH2 0x351 JUMP JUMPDEST STOP JUMPDEST PUSH2 0x1A2 PUSH1 0x4 DUP1 CALLDATASIZE SUB DUP2 ADD SWAP1 PUSH2 0x19D SWAP2 SWAP1 PUSH2 0x889 JUMP JUMPDEST PUSH2 0x48C JUMP JUMPDEST STOP JUMPDEST PUSH2 0x1BE PUSH1 0x4 DUP1 CALLDATASIZE SUB DUP2 ADD SWAP1 PUSH2 0x1B9 SWAP2 SWAP1 PUSH2 0x7B6 JUMP JUMPDEST PUSH2 0x5A3 JUMP JUMPDEST PUSH1 0x40 MLOAD PUSH2 0x1CB SWAP2 SWAP1 PUSH2 0x8C9 JUMP JUMPDEST PUSH1 0x40 MLOAD DUP1 SWAP2 SUB SWAP1 RETURN JUMPDEST PUSH2 0x1DC PUSH2 0x63F JUMP JUMPDEST PUSH1 0x40 MLOAD PUSH2 0x1E9 SWAP2 SWAP1 PUSH2 0x8C9 JUMP JUMPDEST PUSH1 0x40 MLOAD DUP1 SWAP2 SUB SWAP1 RETURN JUMPDEST PUSH1 0x0 PUSH1 0x20 MSTORE DUP1 PUSH1 0x0 MSTORE PUSH1 0x40 PUSH1 0x0 KECCAK256 PUSH1 0x0 SWAP2 POP SWAP1 POP DUP1 PUSH1 0x0 ADD SLOAD SWAP1 DUP1 PUSH1 0x1 ADD SLOAD SWAP1 DUP1 PUSH1 0x2 ADD SLOAD SWAP1 DUP1 PUSH1 0x3 ADD SLOAD SWAP1 DUP1 PUSH1 0x4 ADD SLOAD SWAP1 DUP1 PUSH1 0x5 ADD SLOAD SWAP1 POP DUP7 JUMP JUMPDEST PUSH1 0x1 PUSH1 0x0 SWAP1 SLOAD SWAP1 PUSH2 0x100 EXP SWAP1 DIV PUSH20 0xFFFFFFFFFFFFFFFFFFFFFFFFFFFFFFFFFFFFFFFF AND PUSH20 0xFFFFFFFFFFFFFFFFFFFFFFFFFFFFFFFFFFFFFFFF AND CALLER PUSH20 0xFFFFFFFFFFFFFFFFFFFFFFFFFFFFFFFFFFFFFFFF AND EQ PUSH2 0x2BE JUMPI PUSH1 0x40 MLOAD PUSH32 0x8C379A000000000000000000000000000000000000000000000000000000000 DUP2 MSTORE PUSH1 0x4 ADD PUSH2 0x2B5 SWAP1 PUSH2 0x9F6 JUMP JUMPDEST PUSH1 0x40 MLOAD DUP1 SWAP2 SUB SWAP1 REVERT JUMPDEST PUSH1 0x1 PUSH1 0x0 DUP1 DUP5 PUSH20 0xFFFFFFFFFFFFFFFFFFFFFFFFFFFFFFFFFFFFFFFF AND PUSH20 0xFFFFFFFFFFFFFFFFFFFFFFFFFFFFFFFFFFFFFFFF AND DUP2 MSTORE PUSH1 0x20 ADD SWAP1 DUP2 MSTORE PUSH1 0x20 ADD PUSH1 0x0 KECCAK256 PUSH1 0x0 ADD PUSH1 0x0 DUP3 DUP3 SLOAD PUSH2 0x310 SWAP2 SWAP1 PUSH2 0xA45 JUMP JUMPDEST SWAP3 POP POP DUP2 SWAP1 SSTORE POP POP POP JUMP JUMPDEST PUSH2 0x1F4 DUP2 JUMP JUMPDEST PUSH1 0x2 DUP2 JUMP JUMPDEST PUSH1 0x1 PUSH1 0x0 SWAP1 SLOAD SWAP1 PUSH2 0x100 EXP SWAP1 DIV PUSH20 0xFFFFFFFFFFFFFFFFFFFFFFFFFFFFFFFFFFFFFFFF AND DUP2 JUMP JUMPDEST PUSH1 0x32 DUP2 JUMP JUMPDEST PUSH1 0x1 PUSH1 0x0 SWAP1 SLOAD SWAP1 PUSH2 0x100 EXP SWAP1 DIV PUSH20 0xFFFFFFFFFFFFFFFFFFFFFFFFFFFFFFFFFFFFFFFF AND PUSH20 0xFFFFFFFFFFFFFFFFFFFFFFFFFFFFFFFFFFFFFFFF AND CALLER PUSH20 0xFFFFFFFFFFFFFFFFFFFFFFFFFFFFFFFFFFFFFFFF AND EQ PUSH2 0x3E1 JUMPI PUSH1 0x40 MLOAD PUSH32 0x8C379A000000000000000000000000000000000000000000000000000000000 DUP2 MSTORE PUSH1 0x4 ADD PUSH2 0x3D8 SWAP1 PUSH2 0x9F6 JUMP JUMPDEST PUSH1 0x40 MLOAD DUP1 SWAP2 SUB SWAP1 REVERT JUMPDEST PUSH1 0x0 DUP1 PUSH1 0x0 DUP6 PUSH20 0xFFFFFFFFFFFFFFFFFFFFFFFFFFFFFFFFFFFFFFFF AND PUSH20 0xFFFFFFFFFFFFFFFFFFFFFFFFFFFFFFFFFFFFFFFF AND DUP2 MSTORE PUSH1 0x20 ADD SWAP1 DUP2 MSTORE PUSH1 0x20 ADD PUSH1 0x0 KECCAK256 SWAP1 POP PUSH1 0x1 DUP2 PUSH1 0x1 ADD PUSH1 0x0 DUP3 DUP3 SLOAD PUSH2 0x438 SWAP2 SWAP1 PUSH2 0xA45 JUMP JUMPDEST SWAP3 POP POP DUP2 SWAP1 SSTORE POP DUP2 ISZERO PUSH2 0x462 JUMPI PUSH1 0x1 DUP2 PUSH1 0x2 ADD PUSH1 0x0 DUP3 DUP3 SLOAD PUSH2 0x45A SWAP2 SWAP1 PUSH2 0xA45 JUMP JUMPDEST SWAP3 POP POP DUP2 SWAP1 SSTORE POP JUMPDEST DUP3 DUP2 PUSH1 0x4 ADD PUSH1 0x0 DUP3 DUP3 SLOAD PUSH2 0x476 SWAP2 SWAP1 PUSH2 0xA45 JUMP JUMPDEST SWAP3 POP POP DUP2 SWAP1 SSTORE POP PUSH2 0x486 DUP5 PUSH2 0x644 JUMP JUMPDEST POP POP POP POP JUMP JUMPDEST PUSH1 0x1 PUSH1 0x0 SWAP1 SLOAD SWAP1 PUSH2 0x100 EXP SWAP1 DIV PUSH20 0xFFFFFFFFFFFFFFFFFFFFFFFFFFFFFFFFFFFFFFFF AND PUSH20 0xFFFFFFFFFFFFFFFFFFFFFFFFFFFFFFFFFFFFFFFF AND CALLER PUSH20 0xFFFFFFFFFFFFFFFFFFFFFFFFFFFFFFFFFFFFFFFF AND EQ PUSH2 0x51C JUMPI PUSH1 0x40 MLOAD PUSH32 0x8C379A000000000000000000000000000000000000000000000000000000000 DUP2 MSTORE PUSH1 0x4 ADD PUSH2 0x513 SWAP1 PUSH2 0x9F6 JUMP JUMPDEST PUSH1 0x40 MLOAD DUP1 SWAP2 SUB SWAP1 REVERT JUMPDEST PUSH1 0x0 DUP1 PUSH1 0x0 DUP5 PUSH20 0xFFFFFFFFFFFFFFFFFFFFFFFFFFFFFFFFFFFFFFFF AND PUSH20 0xFFFFFFFFFFFFFFFFFFFFFFFFFFFFFFFFFFFFFFFF AND DUP2 MSTORE PUSH1 0x20 ADD SWAP1 DUP2 MSTORE PUSH1 0x20 ADD PUSH1 0x0 KECCAK256 SWAP1 POP PUSH1 0x1 DUP2 PUSH1 0x3 ADD PUSH1 0x0 DUP3 DUP3 SLOAD PUSH2 0x573 SWAP2 SWAP1 PUSH2 0xA45 JUMP JUMPDEST SWAP3 POP POP DUP2 SWAP1 SSTORE POP DUP2 DUP2 PUSH1 0x4 ADD PUSH1 0x0 DUP3 DUP3 SLOAD PUSH2 0x58E SWAP2 SWAP1 PUSH2 0xA45 JUMP JUMPDEST SWAP3 POP POP DUP2 SWAP1 SSTORE POP PUSH2 0x59E DUP4 PUSH2 0x644 JUMP JUMPDEST POP POP POP JUMP JUMPDEST PUSH1 0x0 DUP1 PUSH1 0x0 DUP1 DUP5 PUSH20 0xFFFFFFFFFFFFFFFFFFFFFFFFFFFFFFFFFFFFFFFF AND PUSH20 0xFFFFFFFFFFFFFFFFFFFFFFFFFFFFFFFFFFFFFFFF AND DUP2 MSTORE PUSH1 0x20 ADD SWAP1 DUP2 MSTORE PUSH1 0x20 ADD PUSH1 0x0 KECCAK256 PUSH1 0x5 ADD SLOAD EQ PUSH2 0x634 JUMPI PUSH1 0x0 DUP1 DUP4 PUSH20 0xFFFFFFFFFFFFFFFFFFFFFFFFFFFFFFFFFFFFFFFF AND PUSH20 0xFFFFFFFFFFFFFFFFFFFFFFFFFFFFFFFFFFFFFFFF AND DUP2 MSTORE PUSH1 0x20 ADD SWAP1 DUP2 MSTORE PUSH1 0x20 ADD PUSH1 0x0 KECCAK256 PUSH1 0x5 ADD SLOAD PUSH2 0x638 JUMP JUMPDEST PUSH2 0x1F4 JUMPDEST SWAP1 POP SWAP2 SWAP1 POP JUMP JUMPDEST PUSH1 0x14 DUP2 JUMP JUMPDEST PUSH1 0x0 DUP1 PUSH1 0x0 DUP4 PUSH20 0xFFFFFFFFFFFFFFFFFFFFFFFFFFFFFFFFFFFFFFFF AND PUSH20 0xFFFFFFFFFFFFFFFFFFFFFFFFFFFFFFFFFFFFFFFF AND DUP2 MSTORE PUSH1 0x20 ADD SWAP1 DUP2 MSTORE PUSH1 0x20 ADD PUSH1 0x0 KECCAK256 SWAP1 POP PUSH1 0x0 DUP1 DUP3 PUSH1 0x1 ADD SLOAD GT PUSH2 0x69A JUMPI PUSH1 0x64 PUSH2 0x6BB JUMP JUMPDEST DUP2 PUSH1 0x1 ADD SLOAD PUSH1 0x64 DUP4 PUSH1 0x2 ADD SLOAD PUSH2 0x6B0 SWAP2 SWAP1 PUSH2 0xA79 JUMP JUMPDEST PUSH2 0x6BA SWAP2 SWAP1 PUSH2 0xAEA JUMP JUMPDEST JUMPDEST SWAP1 POP PUSH1 0x0 PUSH2 0x1F4 SWAP1 POP PUSH1 0x14 DUP4 PUSH1 0x1 ADD SLOAD PUSH2 0x6D5 SWAP2 SWAP1 PUSH2 0xA79 JUMP JUMPDEST DUP2 PUSH2 0x6E0 SWAP2 SWAP1 PUSH2 0xA45 JUMP JUMPDEST SWAP1 POP PUSH1 0xA PUSH1 0x2 DUP4 PUSH2 0x6F1 SWAP2 SWAP1 PUSH2 0xA79 JUMP JUMPDEST PUSH2 0x6FB SWAP2 SWAP1 PUSH2 0xAEA JUMP JUMPDEST DUP2 PUSH2 0x706 SWAP2 SWAP1 PUSH2 0xA45 JUMP JUMPDEST SWAP1 POP PUSH1 0x0 DUP4 PUSH1 0x3 ADD SLOAD GT ISZERO PUSH2 0x734 JUMPI PUSH1 0x32 DUP4 PUSH1 0x3 ADD SLOAD PUSH2 0x726 SWAP2 SWAP1 PUSH2 0xA79 JUMP JUMPDEST DUP2 PUSH2 0x731 SWAP2 SWAP1 PUSH2 0xB1B JUMP JUMPDEST SWAP1 POP JUMPDEST PUSH1 0x0 DUP2 GT PUSH2 0x743 JUMPI PUSH1 0x0 PUSH2 0x745 JUMP JUMPDEST DUP1 JUMPDEST DUP4 PUSH1 0x5 ADD DUP2 SWAP1 SSTORE POP POP POP POP POP JUMP JUMPDEST PUSH1 0x0 DUP1 REVERT JUMPDEST PUSH1 0x0 PUSH20 0xFFFFFFFFFFFFFFFFFFFFFFFFFFFFFFFFFFFFFFFF DUP3 AND SWAP1 POP SWAP2 SWAP1 POP JUMP JUMPDEST PUSH1 0x0 PUSH2 0x783 DUP3 PUSH2 0x758 JUMP JUMPDEST SWAP1 POP SWAP2 SWAP1 POP JUMP JUMPDEST PUSH2 0x793 DUP2 PUSH2 0x778 JUMP JUMPDEST DUP2 EQ PUSH2 0x79E JUMPI PUSH1 0x0 DUP1 REVERT JUMPDEST POP JUMP JUMPDEST PUSH1 0x0 DUP2 CALLDATALOAD SWAP1 POP PUSH2 0x7B0 DUP2 PUSH2 0x78A JUMP JUMPDEST SWAP3 SWAP2 POP POP JUMP JUMPDEST PUSH1 0x0 PUSH1 0x20 DUP3 DUP5 SUB SLT ISZERO PUSH2 0x7CC JUMPI PUSH2 0x7CB PUSH2 0x753 JUMP JUMPDEST JUMPDEST PUSH1 0x0 PUSH2 0x7DA DUP5 DUP3 DUP6 ADD PUSH2 0x7A1 JUMP JUMPDEST SWAP2 POP POP SWAP3 SWAP2 POP POP JUMP JUMPDEST PUSH1 0x0 DUP2 SWAP1 POP SWAP2 SWAP1 POP JUMP JUMPDEST PUSH2 0x7F6 DUP2 PUSH2 0x7E3 JUMP JUMPDEST DUP3 MSTORE POP POP JUMP JUMPDEST PUSH1 0x0 PUSH1 0xC0 DUP3 ADD SWAP1 POP PUSH2 0x811 PUSH1 0x0 DUP4 ADD DUP10 PUSH2 0x7ED JUMP JUMPDEST PUSH2 0x81E PUSH1 0x20 DUP4 ADD DUP9 PUSH2 0x7ED JUMP JUMPDEST PUSH2 0x82B PUSH1 0x40 DUP4 ADD DUP8 PUSH2 0x7ED JUMP JUMPDEST PUSH2 0x838 PUSH1 0x60 DUP4 ADD DUP7 PUSH2 0x7ED JUMP JUMPDEST PUSH2 0x845 PUSH1 0x80 DUP4 ADD DUP6 PUSH2 0x7ED JUMP JUMPDEST PUSH2 0x852 PUSH1 0xA0 DUP4 ADD DUP5 PUSH2 0x7ED JUMP JUMPDEST SWAP8 SWAP7 POP POP POP POP POP POP POP JUMP JUMPDEST PUSH2 0x866 DUP2 PUSH2 0x7E3 JUMP JUMPDEST DUP2 EQ PUSH2 0x871 JUMPI PUSH1 0x0 DUP1 REVERT JUMPDEST POP JUMP JUMPDEST PUSH1 0x0 DUP2 CALLDATALOAD SWAP1 POP PUSH2 0x883 DUP2 PUSH2 0x85D JUMP JUMPDEST SWAP3 SWAP2 POP POP JUMP JUMPDEST PUSH1 0x0 DUP1 PUSH1 0x40 DUP4 DUP6 SUB SLT ISZERO PUSH2 0x8A0 JUMPI PUSH2 0x89F PUSH2 0x753 JUMP JUMPDEST JUMPDEST PUSH1 0x0 PUSH2 0x8AE DUP6 DUP3 DUP7 ADD PUSH2 0x7A1 JUMP JUMPDEST SWAP3 POP POP PUSH1 0x20 PUSH2 0x8BF DUP6 DUP3 DUP7 ADD PUSH2 0x874 JUMP JUMPDEST SWAP2 POP POP SWAP3 POP SWAP3 SWAP1 POP JUMP JUMPDEST PUSH1 0x0 PUSH1 0x20 DUP3 ADD SWAP1 POP PUSH2 0x8DE PUSH1 0x0 DUP4 ADD DUP5 PUSH2 0x7ED JUMP JUMPDEST SWAP3 SWAP2 POP POP JUMP JUMPDEST PUSH2 0x8ED DUP2 PUSH2 0x778 JUMP JUMPDEST DUP3 MSTORE POP POP JUMP JUMPDEST PUSH1 0x0 PUSH1 0x20 DUP3 ADD SWAP1 POP PUSH2 0x908 PUSH1 0x0 DUP4 ADD DUP5 PUSH2 0x8E4 JUMP JUMPDEST SWAP3 SWAP2 POP POP JUMP JUMPDEST PUSH1 0x0 DUP2 ISZERO ISZERO SWAP1 POP SWAP2 SWAP1 POP JUMP JUMPDEST PUSH2 0x923 DUP2 PUSH2 0x90E JUMP JUMPDEST DUP2 EQ PUSH2 0x92E JUMPI PUSH1 0x0 DUP1 REVERT JUMPDEST POP JUMP JUMPDEST PUSH1 0x0 DUP2 CALLDATALOAD SWAP1 POP PUSH2 0x940 DUP2 PUSH2 0x91A JUMP JUMPDEST SWAP3 SWAP2 POP POP JUMP JUMPDEST PUSH1 0x0 DUP1 PUSH1 0x0 PUSH1 0x60 DUP5 DUP7 SUB SLT ISZERO PUSH2 0x95F JUMPI PUSH2 0x95E PUSH2 0x753 JUMP JUMPDEST JUMPDEST PUSH1 0x0 PUSH2 0x96D DUP7 DUP3 DUP8 ADD PUSH2 0x7A1 JUMP JUMPDEST SWAP4 POP POP PUSH1 0x20 PUSH2 0x97E DUP7 DUP3 DUP8 ADD PUSH2 0x874 JUMP JUMPDEST SWAP3 POP POP PUSH1 0x40 PUSH2 0x98F DUP7 DUP3 DUP8 ADD PUSH2 0x931 JUMP JUMPDEST SWAP2 POP POP SWAP3 POP SWAP3 POP SWAP3 JUMP JUMPDEST PUSH1 0x0 DUP3 DUP3 MSTORE PUSH1 0x20 DUP3 ADD SWAP1 POP SWAP3 SWAP2 POP POP JUMP JUMPDEST PUSH32 0x4F6E6C79204C6F616E466163746F727900000000000000000000000000000000 PUSH1 0x0 DUP3 ADD MSTORE POP JUMP JUMPDEST PUSH1 0x0 PUSH2 0x9E0 PUSH1 0x10 DUP4 PUSH2 0x999 JUMP JUMPDEST SWAP2 POP PUSH2 0x9EB DUP3 PUSH2 0x9AA JUMP JUMPDEST PUSH1 0x20 DUP3 ADD SWAP1 POP SWAP2 SWAP1 POP JUMP JUMPDEST PUSH1 0x0 PUSH1 0x20 DUP3 ADD SWAP1 POP DUP2 DUP2 SUB PUSH1 0x0 DUP4 ADD MSTORE PUSH2 0xA0F DUP2 PUSH2 0x9D3 JUMP JUMPDEST SWAP1 POP SWAP2 SWAP1 POP JUMP JUMPDEST PUSH32 0x4E487B7100000000000000000000000000000000000000000000000000000000 PUSH1 0x0 MSTORE PUSH1 0x11 PUSH1 0x4 MSTORE PUSH1 0x24 PUSH1 0x0 REVERT JUMPDEST PUSH1 0x0 PUSH2 0xA50 DUP3 PUSH2 0x7E3 JUMP JUMPDEST SWAP2 POP PUSH2 0xA5B DUP4 PUSH2 0x7E3 JUMP JUMPDEST SWAP3 POP DUP3 DUP3 ADD SWAP1 POP DUP1 DUP3 GT ISZERO PUSH2 0xA73 JUMPI PUSH2 0xA72 PUSH2 0xA16 JUMP JUMPDEST JUMPDEST SWAP3 SWAP2 POP POP JUMP JUMPDEST PUSH1 0x0 PUSH2 0xA84 DUP3 PUSH2 0x7E3 JUMP JUMPDEST SWAP2 POP PUSH2 0xA8F DUP4 PUSH2 0x7E3 JUMP JUMPDEST SWAP3 POP DUP3 DUP3 MUL PUSH2 0xA9D DUP2 PUSH2 0x7E3 JUMP JUMPDEST SWAP2 POP DUP3 DUP3 DIV DUP5 EQ DUP4 ISZERO OR PUSH2 0xAB4 JUMPI PUSH2 0xAB3 PUSH2 0xA16 JUMP JUMPDEST JUMPDEST POP SWAP3 SWAP2 POP POP JUMP JUMPDEST PUSH32 0x4E487B7100000000000000000000000000000000000000000000000000000000 PUSH1 0x0 MSTORE PUSH1 0x12 PUSH1 0x4 MSTORE PUSH1 0x24 PUSH1 0x0 REVERT JUMPDEST PUSH1 0x0 PUSH2 0xAF5 DUP3 PUSH2 0x7E3 JUMP JUMPDEST SWAP2 POP PUSH2 0xB00 DUP4 PUSH2 0x7E3 JUMP JUMPDEST SWAP3 POP DUP3 PUSH2 0xB10 JUMPI PUSH2 0xB0F PUSH2 0xABB JUMP JUMPDEST JUMPDEST DUP3 DUP3 DIV SWAP1 POP SWAP3 SWAP2 POP POP JUMP JUMPDEST PUSH1 0x0 PUSH2 0xB26 DUP3 PUSH2 0x7E3 JUMP JUMPDEST SWAP2 POP PUSH2 0xB31 DUP4 PUSH2 0x7E3 JUMP JUMPDEST SWAP3 POP DUP3 DUP3 SUB SWAP1 POP DUP2 DUP2 GT ISZERO PUSH2 0xB49 JUMPI PUSH2 0xB48 PUSH2 0xA16 JUMP JUMPDEST JUMPDEST SWAP3 SWAP2 POP POP JUMP INVALID LOG2 PUSH5 0x6970667358 0x22 SLT KECCAK256 0xD2 SWAP10 0xCD 0xF8 0xDF MULMOD EXTCODECOPY SLT 0xD7 SWAP7 0xF8 CODESIZE NOT GASPRICE DUP15 SWAP12 0xD2 0xAA DUP12 PUSH9 0xBD5196D9559A7A05C0 BLOBBASEFEE 0xC7 PUSH26 0x64736F6C63430008180033000000000000000000000000000000 "},"methodIdentifiers":{"BASE_SCORE()":"7effe568","COMPLETED_WEIGHT()":"db2db177","DEFAULT_PENALTY()":"bf15e017","ON_TIME_MULTIPLIER()":"90b43948","getScore(address)":"d47875d0","loanFactory()":"b37ed8cd","recordDefault(address,uint256)":"cd4544f2","recordLoanRequest(address,uint256)":"64b12355","recordRepayment(address,uint256,bool)":"c48f1392","records(address)":"469e9067"}}}}}