{"contracts/CreditScore.sol":{"CreditScore":{"abi":[{"inputs":[{"internalType":"address","name":"_loanFactory","type":"address"}],"stateMutability":"nonpayable","type":"constructor"},{"inputs":[],"name":"BASE_SCORE","outputs":[{"internalType":"uint256","name":"","type":"uint256"}],"stateMutability":"view","type":"function"},{"inputs":[],"name":"COMPLETED_WEIGHT","outputs":[{"internalType":"uint256","name":"","type":"uint256"}],"stateMutability":"view","type":"function"},{"inputs":[],"name":"DEFAULT_PENALTY","outputs":[{"internalType":"uint256","name":"","type":"uint256"}],"stateMutability":"view","type":"function"},{"inputs":[],"name":"ON_TIME_MULTIPLIER","outputs":[{"internalType":"uint256","name":"","type":"uint256"}],"stateMutability":"view","type":"function"},{"inputs":[{"internalType":"address","name":"loan","type":"address"}],"name":"addApprovedLoan","outputs":[],"stateMutability":"nonpayable","type":"function"},{"inputs":[{"internalType":"address","name":"","type":"address"}],"name":"approvedLoans","outputs":[{"internalType":"bool","name":"","type":"bool"}],"stateMutability":"view","type":"function"},{"inputs":[{"internalType":"address","name":"user","type":"address"}],"name":"calculateInterestRate","outputs":[{"internalType":"uint256","name":"interestRateBps","type":"uint256"}],"stateMutability":"view","type":"function"},{"inputs":[{"internalType":"address","name":"user","type":"address"}],"name":"getScore","outputs":[{"internalType":"uint256","name":"","type":"uint256"}],"stateMutability":"view","type":"function"},{"inputs":[],"name":"loanFactory","outputs":[{"internalType":"address","name":"","type":"address"}],"stateMutability":"view","type":"function"},{"inputs":[{"internalType":"address","name":"user","type":"address"},{"internalType":"uint256","name":"principal","type":"uint256"}],"name":"recordDefault","outputs":[],"stateMutability":"nonpayable","type":"function"},{"inputs":[{"internalType":"address","name":"user","type":"address"},{"internalType":"uint256","name":"principal","type":"uint256"}],"name":"recordLoanRequest","outputs":[],"stateMutability":"nonpayable","type":"function"},{"inputs":[{"internalType":"address","name":"user","type":"address"},{"internalType":"uint256","name":"principal","type":"uint256"},{"internalType":"bool","name":"onTime","type":"bool"}],"name":"recordRepayment","outputs":[],"stateMutability":"nonpayable","type":"function"},{"inputs":[{"internalType":"address","name":"","type":"address"}],"name":"records","outputs":[{"internalType":"uint256","name":"totalLoans","type":"uint256"},{"internalType":"uint256","name":"completedLoans","type":"uint256"},{"internalType":"uint256","name":"onTimeRepayments","type":"uint256"},{"internalType":"uint256","name":"defaults","type":"uint256"},{"internalType":"uint256","name":"totalBorrowed","type":"uint256"},{"internalType":"uint256","name":"score","type":"uint256"}],"stateMutability":"view","type":"function"}],"evm":{"bytecode":{"linkReferences":{},"object":"60806040523480156200001157600080fd5b50604051620010af380380620010af8339818101604052810190620000379190620000e9565b80600160006101000a81548173ffffffffffffffffffffffffffffffffffffffff021916908373ffffffffffffffffffffffffffffffffffffffff160217905550506200011b565b600080fd5b600073ffffffffffffffffffffffffffffffffffffffff82169050919050565b6000620000b18262000084565b9050919050565b620000c381620000a4565b8114620000cf57600080fd5b50565b600081519050620000e381620000b8565b92915050565b6000602082840312156200010257620001016200007f565b5b60006200011284828501620000d2565b91505092915050565b610f84806200012b6000396000f3fe608060405234801561001057600080fd5b50600436106100cf5760003560e01c8063b37ed8cd1161008c578063c48f139211610066578063c48f139214610219578063cd4544f214610235578063d47875d014610251578063db2db17714610281576100cf565b8063b37ed8cd146101ad578063bf15e017146101cb578063c0d18843146101e9576100cf565b806319ed29fa146100d4578063469e9067146100f057806364b12355146101255780637effe5681461014157806390b439481461015f57806393e9b13e1461017d575b600080fd5b6100ee60048036038101906100e99190610add565b61029f565b005b61010a60048036038101906101059190610add565b61038a565b60405161011c96959493929190610b23565b60405180910390f35b61013f600480360381019061013a9190610bb0565b6103c6565b005b6101496104b3565b6040516101569190610bf0565b60405180910390f35b6101676104b9565b6040516101749190610bf0565b60405180910390f35b61019760048036038101906101929190610add565b6104be565b6040516101a49190610c26565b60405180910390f35b6101b56104de565b6040516101c29190610c50565b60405180910390f35b6101d3610504565b6040516101e09190610bf0565b60405180910390f35b61020360048036038101906101fe9190610add565b610509565b6040516102109190610bf0565b60405180910390f35b610233600480360381019061022e9190610c97565b6105d0565b005b61024f600480360381019061024a9190610bb0565b61075f565b005b61026b60048036038101906102669190610add565b6108ca565b6040516102789190610bf0565b60405180910390f35b610289610966565b6040516102969190610bf0565b60405180910390f35b600160009054906101000a900473ffffffffffffffffffffffffffffffffffffffff1673ffffffffffffffffffffffffffffffffffffffff163373ffffffffffffffffffffffffffffffffffffffff161461032f576040517f08c379a000000000000000000000000000000000000000000000000000000000815260040161032690610d47565b60405180910390fd5b6001600260008373ffffffffffffffffffffffffffffffffffffffff1673ffffffffffffffffffffffffffffffffffffffff16815260200190815260200160002060006101000a81548160ff02191690831515021790555050565b60006020528060005260406000206000915090508060000154908060010154908060020154908060030154908060040154908060050154905086565b600160009054906101000a900473ffffffffffffffffffffffffffffffffffffffff1673ffffffffffffffffffffffffffffffffffffffff163373ffffffffffffffffffffffffffffffffffffffff1614610456576040517f08c379a000000000000000000000000000000000000000000000000000000000815260040161044d90610d47565b60405180910390fd5b60016000808473ffffffffffffffffffffffffffffffffffffffff1673ffffffffffffffffffffffffffffffffffffffff16815260200190815260200160002060000160008282546104a89190610d96565b925050819055505050565b6101f481565b600281565b60026020528060005260406000206000915054906101000a900460ff1681565b600160009054906101000a900473ffffffffffffffffffffffffffffffffffffffff1681565b603281565b6000803073ffffffffffffffffffffffffffffffffffffffff1663d47875d0846040518263ffffffff1660e01b81526004016105459190610c50565b602060405180830381865afa158015610562573d6000803e3d6000fd5b505050506040513d601f19601f820116820180604052508101906105869190610ddf565b9050610320811061059c576101909150506105cb565b61025881106105b0576103209150506105cb565b61019081106105c4576104b09150506105cb565b6107d09150505b919050565b600160009054906101000a900473ffffffffffffffffffffffffffffffffffffffff1673ffffffffffffffffffffffffffffffffffffffff163373ffffffffffffffffffffffffffffffffffffffff1614806106755750600260003373ffffffffffffffffffffffffffffffffffffffff1673ffffffffffffffffffffffffffffffffffffffff16815260200190815260200160002060009054906101000a900460ff165b6106b4576040517f08c379a00000000000000000000000000000000000000000000000000000000081526004016106ab90610e58565b60405180910390fd5b60008060008573ffffffffffffffffffffffffffffffffffffffff1673ffffffffffffffffffffffffffffffffffffffff1681526020019081526020016000209050600181600101600082825461070b9190610d96565b92505081905550811561073557600181600201600082825461072d9190610d96565b925050819055505b828160040160008282546107499190610d96565b925050819055506107598461096b565b50505050565b600160009054906101000a900473ffffffffffffffffffffffffffffffffffffffff1673ffffffffffffffffffffffffffffffffffffffff163373ffffffffffffffffffffffffffffffffffffffff1614806108045750600260003373ffffffffffffffffffffffffffffffffffffffff1673ffffffffffffffffffffffffffffffffffffffff16815260200190815260200160002060009054906101000a900460ff165b610843576040517f08c379a000000000000000000000000000000000000000000000000000000000815260040161083a90610e58565b60405180910390fd5b60008060008473ffffffffffffffffffffffffffffffffffffffff1673ffffffffffffffffffffffffffffffffffffffff1681526020019081526020016000209050600181600301600082825461089a9190610d96565b92505081905550818160040160008282546108b59190610d96565b925050819055506108c58361096b565b505050565b6000806000808473ffffffffffffffffffffffffffffffffffffffff1673ffffffffffffffffffffffffffffffffffffffff168152602001908152602001600020600501541461095b576000808373ffffffffffffffffffffffffffffffffffffffff1673ffffffffffffffffffffffffffffffffffffffff1681526020019081526020016000206005015461095f565b6101f45b9050919050565b601481565b60008060008373ffffffffffffffffffffffffffffffffffffffff1673ffffffffffffffffffffffffffffffffffffffff16815260200190815260200160002090506000808260010154116109c15760646109e2565b8160010154606483600201546109d79190610e78565b6109e19190610ee9565b5b905060006101f49050601483600101546109fc9190610e78565b81610a079190610d96565b9050600a600283610a189190610e78565b610a229190610ee9565b81610a2d9190610d96565b9050600083600301541115610a5b5760328360030154610a4d9190610e78565b81610a589190610f1a565b90505b60008111610a6a576000610a6c565b805b836005018190555050505050565b600080fd5b600073ffffffffffffffffffffffffffffffffffffffff82169050919050565b6000610aaa82610a7f565b9050919050565b610aba81610a9f565b8114610ac557600080fd5b50565b600081359050610ad781610ab1565b92915050565b600060208284031215610af357610af2610a7a565b5b6000610b0184828501610ac8565b91505092915050565b6000819050919050565b610b1d81610b0a565b82525050565b600060c082019050610b386000830189610b14565b610b456020830188610b14565b610b526040830187610b14565b610b5f6060830186610b14565b610b6c6080830185610b14565b610b7960a0830184610b14565b979650505050505050565b610b8d81610b0a565b8114610b9857600080fd5b50565b600081359050610baa81610b84565b92915050565b60008060408385031215610bc757610bc6610a7a565b5b6000610bd585828601610ac8565b9250506020610be685828601610b9b565b9150509250929050565b6000602082019050610c056000830184610b14565b92915050565b60008115159050919050565b610c2081610c0b565b82525050565b6000602082019050610c3b6000830184610c17565b92915050565b610c4a81610a9f565b82525050565b6000602082019050610c656000830184610c41565b92915050565b610c7481610c0b565b8114610c7f57600080fd5b50565b600081359050610c9181610c6b565b92915050565b600080600060608486031215610cb057610caf610a7a565b5b6000610cbe86828701610ac8565b9350506020610ccf86828701610b9b565b9250506040610ce086828701610c82565b9150509250925092565b600082825260208201905092915050565b7f4f6e6c79204c6f616e466163746f727900000000000000000000000000000000600082015250565b6000610d31601083610cea565b9150610d3c82610cfb565b602082019050919050565b60006020820190508181036000830152610d6081610d24565b9050919050565b7f4e487b7100000000000000000000000000000000000000000000000000000000600052601160045260246000fd5b6000610da182610b0a565b9150610dac83610b0a565b9250828201905080821115610dc457610dc3610d67565b5b92915050565b600081519050610dd981610b84565b92915050565b600060208284031215610df557610df4610a7a565b5b6000610e0384828501610dca565b91505092915050565b7f4f6e6c79204c6f616e466163746f7279206f72204c6f616e0000000000000000600082015250565b6000610e42601883610cea565b9150610e4d82610e0c565b602082019050919050565b60006020820190508181036000830152610e7181610e35565b9050919050565b6000610e8382610b0a565b9150610e8e83610b0a565b9250828202610e9c81610b0a565b91508282048414831517610eb357610eb2610d67565b5b5092915050565b7f4e487b7100000000000000000000000000000000000000000000000000000000600052601260045260246000fd5b6000610ef482610b0a565b9150610eff83610b0a565b925082610f0f57610f0e610eba565b5b828204905092915050565b6000610f2582610b0a565b9150610f3083610b0a565b9250828203905081811115610f4857610f47610d67565b5b9291505056fea26469706673582212202af75853b93b2e540191bc39669e33578107371111971632db5ae4af573221dc64736f6c63430008180033","opcodes":"PUSH1 0x80 PUSH1 0x40 MSTORE CALLVALUE DUP1 ISZERO PUSH3 0x11 JUMPI PUSH1 0x0 DUP1 REVERT JUMPDEST POP PUSH1 0x40 MLOAD PUSH3 0x10AF CODESIZE SUB DUP1 PUSH3 0x10AF DUP4 CODECOPY DUP2 DUP2 ADD PUSH1 0x40 MSTORE DUP2 ADD SWAP1 PUSH3 0x37 SWAP2 SWAP1 PUSH3 0xE9 JUMP JUMPDEST DUP1 PUSH1 0x1 PUSH1 0x0 PUSH2 0x100 EXP DUP2 SLOAD DUP2 PUSH20 0xFFFFFFFFFFFFFFFFFFFFFFFFFFFFFFFFFFFFFFFF MUL NOT AND SWAP1 DUP4 PUSH20 0xFFFFFFFFFFFFFFFFFFFFFFFFFFFFFFFFFFFFFFFF AND MUL OR SWAP1 SSTORE POP POP PUSH3 0x11B JUMP JUMPDEST PUSH1 0x0 DUP1 REVERT JUMPDEST PUSH1 0x0 PUSH20 0xFFFFFFFFFFFFFFFFFFFFFFFFFFFFFFFFFFFFFFFF DUP3 AND SWAP1 POP SWAP2 SWAP1 POP JUMP JUMPDEST PUSH1 0x0 PUSH3 0xB1 DUP3 PUSH3 0x84 JUMP JUMPDEST SWAP1 POP SWAP2 SWAP1 POP JUMP JUMPDEST PUSH3 0xC3 DUP2 PUSH3 0xA4 JUMP JUMPDEST DUP2 EQ PUSH3 0xCF JUMPI PUSH1 0x0 DUP1 REVERT JUMPDEST POP JUMP JUMPDEST PUSH1 0x0 DUP2 MLOAD SWAP1 POP PUSH3 0xE3 DUP2 PUSH3 0xB8 JUMP JUMPDEST SWAP3 SWAP2 POP POP JUMP JUMPDEST PUSH1 0x0 PUSH1 0x20 DUP3 DUP5 SUB SLT ISZERO PUSH3 0x102 JUMPI PUSH3 0x101 PUSH3 0x7F JUMP JUMPDEST JUMPDEST PUSH1 0x0 PUSH3 0x112 DUP5 DUP3 DUP6 ADD PUSH3 0xD2 JUMP JUMPDEST SWAP2 POP POP SWAP3 SWAP2 POP POP JUMP JUMPDEST PUSH2 0xF84 DUP1 PUSH3 0x12B PUSH1 0x0 CODECOPY PUSH1 0x0 RETURN INVALID PUSH1 0x80 PUSH1 0x40 MSTORE CALLVALUE DUP1 ISZERO PUSH2 0x10 JUMPI PUSH1 0x0 DUP1 REVERT JUMPDEST POP PUSH1 0x4 CALLDATASIZE LT PUSH2 0xCF JUMPI PUSH1 0x0 CALLDATALOAD PUSH1 0xE0 SHR DUP1 PUSH4 0xB37ED8CD GT PUSH2 0x8C JUMPI DUP1 PUSH4 0xC48F1392 GT PUSH2 0x66 JUMPI DUP1 PUSH4 0xC48F1392 EQ PUSH2 0x219 JUMPI DUP1 PUSH4 0xCD4544F2 EQ PUSH2 0x235 JUMPI DUP1 PUSH4 0xD47875D0 EQ PUSH2 0x251 JUMPI DUP1 PUSH4 0xDB2DB177 EQ PUSH2 0x281 JUMPI PUSH2 0xCF JUMP JUMPDEST DUP1 PUSH4 0xB37ED8CD EQ PUSH2 0x1AD JUMPI DUP1 PUSH4 0xBF15E017 EQ PUSH2 0x1CB JUMPI DUP1 PUSH4 0xC0D18843 EQ PUSH2 0x1E9 JUMPI PUSH2 0xCF JUMP JUMPDEST DUP1 PUSH4 0x19ED29FA EQ PUSH2 0xD4 JUMPI DUP1 PUSH4 0x469E9067 EQ PUSH2 0xF0 JUMPI DUP1 PUSH4 0x64B12355 EQ PUSH2 0x125 JUMPI DUP1 PUSH4 0x7EFFE568 EQ PUSH2 0x141 JUMPI DUP1 PUSH4 0x90B43948 EQ PUSH2 0x15F JUMPI DUP1 PUSH4 0x93E9B13E EQ PUSH2 0x17D JUMPI JUMPDEST PUSH1 0x0 DUP1 REVERT JUMPDEST PUSH2 0xEE PUSH1 0x4 DUP1 CALLDATASIZE SUB DUP2 ADD SWAP1 PUSH2 0xE9 SWAP2 SWAP1 PUSH2 0xADD JUMP JUMPDEST PUSH2 0x29F JUMP JUMPDEST STOP JUMPDEST PUSH2 0x10A PUSH1 0x4 DUP1 CALLDATASIZE SUB DUP2 ADD SWAP1 PUSH2 0x105 SWAP2 SWAP1 PUSH2 0xADD JUMP JUMPDEST PUSH2 0x38A JUMP JUMPDEST PUSH1 0x40 MLOAD PUSH2 0x11C SWAP7 SWAP6 SWAP5 SWAP4 SWAP3 SWAP2 SWAP1 PUSH2 0xB23 JUMP JUMPDEST PUSH1 0x40 MLOAD DUP1 SWAP2 SUB SWAP1 RETURN JUMPDEST PUSH2 0x13F PUSH1 0x4 DUP1 CALLDATASIZE SUB DUP2 ADD SWAP1 PUSH2 0x13A SWAP2 SWAP1 PUSH2 0xBB0 JUMP JUMPDEST PUSH2 0x3C6 JUMP JUMPDEST STOP JUMPDEST PUSH2 0x149 PUSH2 0x4B3 JUMP JUMPDEST PUSH1 0x40 MLOAD PUSH2 0x156 SWAP2 SWAP1 PUSH2 0xBF0 JUMP JUMPDEST PUSH1 0x40 MLOAD DUP1 SWAP2 SUB SWAP1 RETURN JUMPDEST PUSH2 0x167 PUSH2 0x4B9 JUMP JUMPDEST PUSH1 0x40 MLOAD PUSH2 0x174 SWAP2 SWAP1 PUSH2 0xBF0 JUMP JUMPDEST PUSH1 0x40 MLOAD DUP1 SWAP2 SUB SWAP1 RETURN JUMPDEST PUSH2 0x197 PUSH1 0x4 DUP1 CALLDATASIZE SUB DUP2 ADD SWAP1 PUSH2 0x192 SWAP2 SWAP1 PUSH2 0xADD JUMP JUMPDEST PUSH2 0x4BE JUMP JUMPDEST PUSH1 0x40 MLOAD PUSH2 0x1A4 SWAP2 SWAP1 PUSH2 0xC26 JUMP JUMPDEST PUSH1 0x40 MLOAD DUP1 SWAP2 SUB SWAP1 RETURN JUMPDEST PUSH2 0x1B5 PUSH2 0x4DE JUMP JUMPDEST PUSH1 0x40 MLOAD PUSH2 0x1C2 SWAP2 SWAP1 PUSH2 0xC50 JUMP JUMPDEST PUSH1 0x40 MLOAD DUP1 SWAP2 SUB SWAP1 RETURN JUMPDEST PUSH2 0x1D3 PUSH2 0x504 JUMP JUMPDEST PUSH1 0x40 MLOAD PUSH2 0x1E0 SWAP2 SWAP1 PUSH2 0xBF0 JUMP JUMPDEST PUSH1 0x40 MLOAD DUP1 SWAP2 SUB SWAP1 RETURN JUMPDEST PUSH2 0x203 PUSH1 0x4 DUP1 CALLDATASIZE SUB DUP2 ADD SWAP1 PUSH2 0x1FE SWAP2 SWAP1 PUSH2 0xADD JUMP JUMPDEST PUSH2 0x509 JUMP JUMPDEST PUSH1 0x40 MLOAD PUSH2 0x210 SWAP2 SWAP1 PUSH2 0xBF0 JUMP JUMPDEST PUSH1 0x40 MLOAD DUP1 SWAP2 SUB SWAP1 RETURN JUMPDEST PUSH2 0x233 PUSH1 0x4 DUP1 CALLDATASIZE SUB DUP2 ADD SWAP1 PUSH2 0x22E SWAP2 SWAP1 PUSH2 0xC97 JUMP JUMPDEST PUSH2 0x5D0 JUMP JUMPDEST STOP JUMPDEST PUSH2 0x24F PUSH1 0x4 DUP1 CALLDATASIZE SUB DUP2 ADD SWAP1 PUSH2 0x24A SWAP2 SWAP1 PUSH2 0xBB0 JUMP JUMPDEST PUSH2 0x75F JUMP JUMPDEST STOP JUMPDEST PUSH2 0x26B PUSH1 0x4 DUP1 CALLDATASIZE SUB DUP2 ADD SWAP1 PUSH2 0x266 SWAP2 SWAP1 PUSH2 0xADD JUMP JUMPDEST PUSH2 0x8CA JUMP JUMPDEST PUSH1 0x40 MLOAD PUSH2 0x278 SWAP2 SWAP1 PUSH2 0xBF0 JUMP JUMPDEST PUSH1 0x40 MLOAD DUP1 SWAP2 SUB SWAP1 RETURN JUMPDEST PUSH2 0x289 PUSH2 0x966 JUMP JUMPDEST PUSH1 0x40 MLOAD PUSH2 0x296 SWAP2 SWAP1 PUSH2 0xBF0 JUMP JUMPDEST PUSH1 0x40 MLOAD DUP1 SWAP2 SUB SWAP1 RETURN JUMPDEST PUSH1 0x1 PUSH1 0x0 SWAP1 SLOAD SWAP1 PUSH2 0x100 EXP SWAP1 DIV PUSH20 0xFFFFFFFFFFFFFFFFFFFFFFFFFFFFFFFFFFFFFFFF AND PUSH20 0xFFFFFFFFFFFFFFFFFFFFFFFFFFFFFFFFFFFFFFFF AND CALLER PUSH20 0xFFFFFFFFFFFFFFFFFFFFFFFFFFFFFFFFFFFFFFFF AND EQ PUSH2 0x32F JUMPI PUSH1 0x40 MLOAD PUSH32 0x8C379A000000000000000000000000000000000000000000000000000000000 DUP2 MSTORE PUSH1 0x4 ADD PUSH2 0x326 SWAP1 PUSH2 0xD47 JUMP JUMPDEST PUSH1 0x40 MLOAD DUP1 SWAP2 SUB SWAP1 REVERT JUMPDEST PUSH1 0x1 PUSH1 0x2 PUSH1 0x0 DUP4 PUSH20 0xFFFFFFFFFFFFFFFFFFFFFFFFFFFFFFFFFFFFFFFF AND PUSH20 0xFFFFFFFFFFFFFFFFFFFFFFFFFFFFFFFFFFFFFFFF AND DUP2 MSTORE PUSH1 0x20 ADD SWAP1 DUP2 MSTORE PUSH1 0x20 ADD PUSH1 0x0 KECCAK256 PUSH1 0x0 PUSH2 0x100 EXP DUP2 SLOAD DUP2 PUSH1 0xFF MUL NOT AND SWAP1 DUP4 ISZERO ISZERO MUL OR SWAP1 SSTORE POP POP JUMP JUMPDEST PUSH1 0x0 PUSH1 0x20 MSTORE DUP1 PUSH1 0x0 MSTORE PUSH1 0x40 PUSH1 0x0 KECCAK256 PUSH1 0x0 SWAP2 POP SWAP1 POP DUP1 PUSH1 0x0 ADD SLOAD SWAP1 DUP1 PUSH1 0x1 ADD SLOAD SWAP1 DUP1 PUSH1 0x2 ADD SLOAD SWAP1 DUP1 PUSH1 0x3 ADD SLOAD SWAP1 DUP1 PUSH1 0x4 ADD SLOAD SWAP1 DUP1 PUSH1 0x5 ADD SLOAD SWAP1 POP DUP7 JUMP JUMPDEST PUSH1 0x1 PUSH1 0x0 SWAP1 SLOAD SWAP1 PUSH2 0x100 EXP SWAP1 DIV PUSH20 0xFFFFFFFFFFFFFFFFFFFFFFFFFFFFFFFFFFFFFFFF AND PUSH20 0xFFFFFFFFFFFFFFFFFFFFFFFFFFFFFFFFFFFFFFFF AND CALLER PUSH20 0xFFFFFFFFFFFFFFFFFFFFFFFFFFFFFFFFFFFFFFFF AND EQ PUSH2 0x456 JUMPI PUSH1 0x40 MLOAD PUSH32 0x8C379A000000000000000000000000000000000000000000000000000000000 DUP2 MSTORE PUSH1 0x4 ADD PUSH2 0x44D SWAP1 PUSH2 0xD47 JUMP JUMPDEST PUSH1 0x40 MLOAD DUP1 SWAP2 SUB SWAP1 REVERT JUMPDEST PUSH1 0x1 PUSH1 0x0 DUP1 DUP5 PUSH20 0xFFFFFFFFFFFFFFFFFFFFFFFFFFFFFFFFFFFFFFFF AND PUSH20 0xFFFFFFFFFFFFFFFFFFFFFFFFFFFFFFFFFFFFFFFF AND DUP2 MSTORE PUSH1 0x20 ADD SWAP1 DUP2 MSTORE PUSH1 0x20 ADD PUSH1 0x0 KECCAK256 PUSH1 0x0 ADD PUSH1 0x0 DUP3 DUP3 SLOAD PUSH2 0x4A8 SWAP2 SWAP1 PUSH2 0xD96 JUMP JUMPDEST SWAP3 POP POP DUP2 SWAP1 SSTORE POP POP POP JUMP JUMPDEST PUSH2 0x1F4 DUP2 JUMP JUMPDEST PUSH1 0x2 DUP2 JUMP JUMPDEST PUSH1 0x2 PUSH1 0x20 MSTORE DUP1 PUSH1 0x0 MSTORE PUSH1 0x40 PUSH1 0x0 KECCAK256 PUSH1 0x0 SWAP2 POP SLOAD SWAP1 PUSH2 0x100 EXP SWAP1 DIV PUSH1 0xFF AND DUP2 JUMP JUMPDEST PUSH1 0x1 PUSH1 0x0 SWAP1 SLOAD SWAP1 PUSH2 0x100 EXP SWAP1 DIV PUSH20 0xFFFFFFFFFFFFFFFFFFFFFFFFFFFFFFFFFFFFFFFF AND DUP2 JUMP JUMPDEST PUSH1 0x32 DUP2 JUMP JUMPDEST PUSH1 0x0 DUP1 ADDRESS PUSH20 0xFFFFFFFFFFFFFFFFFFFFFFFFFFFFFFFFFFFFFFFF AND PUSH4 0xD47875D0 DUP5 PUSH1 0x40 MLOAD DUP3 PUSH4 0xFFFFFFFF AND PUSH1 0xE0 SHL DUP2 MSTORE PUSH1 0x4 ADD PUSH2 0x545 SWAP2 SWAP1 PUSH2 0xC50 JUMP JUMPDEST PUSH1 0x20 PUSH1 0x40 MLOAD DUP1 DUP4 SUB DUP2 DUP7 GAS STATICCALL ISZERO DUP1 ISZERO PUSH2 0x562 JUMPI RETURNDATASIZE PUSH1 0x0 DUP1 RETURNDATACOPY RETURNDATASIZE PUSH1 0x0 REVERT JUMPDEST POP POP POP POP PUSH1 0x40 MLOAD RETURNDATASIZE PUSH1 0x1F NOT PUSH1 0x1F DUP3 ADD AND DUP3 ADD DUP1 PUSH1 0x40 MSTORE POP DUP2 ADD SWAP1 PUSH2 0x586 SWAP2 SWAP1 PUSH2 0xDDF JUMP JUMPDEST SWAP1 POP PUSH2 0x320 DUP2 LT PUSH2 0x59C JUMPI PUSH2 0x190 SWAP2 POP POP PUSH2 0x5CB JUMP JUMPDEST PUSH2 0x258 DUP2 LT PUSH2 0x5B0 JUMPI PUSH2 0x320 SWAP2 POP POP PUSH2 0x5CB JUMP JUMPDEST PUSH2 0x190 DUP2 LT PUSH2 0x5C4 JUMPI PUSH2 0x4B0 SWAP2 POP POP PUSH2 0x5CB JUMP JUMPDEST PUSH2 0x7D0 SWAP2 POP POP JUMPDEST SWAP2 SWAP1 POP JUMP JUMPDEST PUSH1 0x1 PUSH1 0x0 SWAP1 SLOAD SWAP1 PUSH2 0x100 EXP SWAP1 DIV PUSH20 0xFFFFFFFFFFFFFFFFFFFFFFFFFFFFFFFFFFFFFFFF AND PUSH20 0xFFFFFFFFFFFFFFFFFFFFFFFFFFFFFFFFFFFFFFFF AND CALLER PUSH20 0xFFFFFFFFFFFFFFFFFFFFFFFFFFFFFFFFFFFFFFFF AND EQ DUP1 PUSH2 0x675 JUMPI POP PUSH1 0x2 PUSH1 0x0 CALLER PUSH20 0xFFFFFFFFFFFFFFFFFFFFFFFFFFFFFFFFFFFFFFFF AND PUSH20 0xFFFFFFFFFFFFFFFFFFFFFFFFFFFFFFFFFFFFFFFF AND DUP2 MSTORE PUSH1 0x20 ADD SWAP1 DUP2 MSTORE PUSH1 0x20 ADD PUSH1 0x0 KECCAK256 PUSH1 0x0 SWAP1 SLOAD SWAP1 PUSH2 0x100 EXP SWAP1 DIV PUSH1 0xFF AND JUMPDEST PUSH2 0x6B4 JUMPI PUSH1 0x40 MLOAD PUSH32 0x8C379A000000000000000000000000000000000000000000000000000000000 DUP2 MSTORE PUSH1 0x4 ADD PUSH2 0x6AB SWAP1 PUSH2 0xE58 JUMP JUMPDEST PUSH1 0x40 MLOAD DUP1 SWAP2 SUB SWAP1 REVERT JUMPDEST PUSH1 0x0 DUP1 PUSH1 0x0 DUP6 PUSH20 0xFFFFFFFFFFFFFFFFFFFFFFFFFFFFFFFFFFFFFFFF AND PUSH20 0xFFFFFFFFFFFFFFFFFFFFFFFFFFFFFFFFFFFFFFFF AND DUP2 MSTORE PUSH1 0x20 ADD SWAP1 DUP2 MSTORE PUSH1 0x20 ADD PUSH1 0x0 KECCAK256 SWAP1 POP PUSH1 0x1 DUP2 PUSH1 0x1 ADD PUSH1 0x0 DUP3 DUP3 SLOAD PUSH2 0x70B SWAP2 SWAP1 PUSH2 0xD96 JUMP JUMPDEST SWAP3 POP POP DUP2 SWAP1 SSTORE POP DUP2 ISZERO PUSH2 0x735 JUMPI PUSH1 0x1 DUP2 PUSH1 0x2 ADD PUSH1 0x0 DUP3 DUP3 SLOAD PUSH2 0x72D SWAP2 SWAP1 PUSH2 0xD96 JUMP JUMPDEST SWAP3 POP POP DUP2 SWAP1 SSTORE POP JUMPDEST DUP3 DUP2 PUSH1 0x4 ADD PUSH1 0x0 DUP3 DUP3 SLOAD PUSH2 0x749 SWAP2 SWAP1 PUSH2 0xD96 JUMP JUMPDEST SWAP3 POP POP DUP2 SWAP1 SSTORE POP PUSH2 0x759 DUP5 PUSH2 0x96B JUMP JUMPDEST POP POP POP POP JUMP JUMPDEST PUSH1 0x1 PUSH1 0x0 SWAP1 SLOAD SWAP1 PUSH2 0x100 EXP SWAP1 DIV PUSH20 0xFFFFFFFFFFFFFFFFFFFFFFFFFFFFFFFFFFFFFFFF AND PUSH20 0xFFFFFFFFFFFFFFFFFFFFFFFFFFFFFFFFFFFFFFFF AND CALLER PUSH20 0xFFFFFFFFFFFFFFFFFFFFFFFFFFFFFFFFFFFFFFFF AND EQ DUP1 PUSH2 0x804 JUMPI POP PUSH1 0x2 PUSH1 0x0 CALLER PUSH20 0xFFFFFFFFFFFFFFFFFFFFFFFFFFFFFFFFFFFFFFFF AND PUSH20 0xFFFFFFFFFFFFFFFFFFFFFFFFFFFFFFFFFFFFFFFF AND DUP2 MSTORE PUSH1 0x20 ADD SWAP1 DUP2 MSTORE PUSH1 0x20 ADD PUSH1 0x0 KECCAK256 PUSH1 0x0 SWAP1 SLOAD SWAP1 PUSH2 0x100 EXP SWAP1 DIV PUSH1 0xFF AND JUMPDEST PUSH2 0x843 JUMPI PUSH1 0x40 MLOAD PUSH32 0x8C379A000000000000000000000000000000000000000000000000000000000 DUP2 MSTORE PUSH1 0x4 ADD PUSH2 0x83A SWAP1 PUSH2 0xE58 JUMP JUMPDEST PUSH1 0x40 MLOAD DUP1 SWAP2 SUB SWAP1 REVERT JUMPDEST PUSH1 0x0 DUP1 PUSH1 0x0 DUP5 PUSH20 0xFFFFFFFFFFFFFFFFFFFFFFFFFFFFFFFFFFFFFFFF AND PUSH20 0xFFFFFFFFFFFFFFFFFFFFFFFFFFFFFFFFFFFFFFFF AND DUP2 MSTORE PUSH1 0x20 ADD SWAP1 DUP2 MSTORE PUSH1 0x20 ADD PUSH1 0x0 KECCAK256 SWAP1 POP PUSH1 0x1 DUP2 PUSH1 0x3 ADD PUSH1 0x0 DUP3 DUP3 SLOAD PUSH2 0x89A SWAP2 SWAP1 PUSH2 0xD96 JUMP JUMPDEST SWAP3 POP POP DUP2 SWAP1 SSTORE POP DUP2 DUP2 PUSH1 0x4 ADD PUSH1 0x0 DUP3 DUP3 SLOAD PUSH2 0x8B5 SWAP2 SWAP1 PUSH2 0xD96 JUMP JUMPDEST SWAP3 POP POP DUP2 SWAP1 SSTORE POP PUSH2 0x8C5 DUP4 PUSH2 0x96B JUMP JUMPDEST POP POP POP JUMP JUMPDEST PUSH1 0x0 DUP1 PUSH1 0x0 DUP1 DUP5 PUSH20 0xFFFFFFFFFFFFFFFFFFFFFFFFFFFFFFFFFFFFFFFF AND PUSH20 0xFFFFFFFFFFFFFFFFFFFFFFFFFFFFFFFFFFFFFFFF AND DUP2 MSTORE PUSH1 0x20 ADD SWAP1 DUP2 MSTORE PUSH1 0x20 ADD PUSH1 0x0 KECCAK256 PUSH1 0x5 ADD SLOAD EQ PUSH2 0x95B JUMPI PUSH1 0x0 DUP1 DUP4 PUSH20 0xFFFFFFFFFFFFFFFFFFFFFFFFFFFFFFFFFFFFFFFF AND PUSH20 0xFFFFFFFFFFFFFFFFFFFFFFFFFFFFFFFFFFFFFFFF AND DUP2 MSTORE PUSH1 0x20 ADD SWAP1 DUP2 MSTORE PUSH1 0x20 ADD PUSH1 0x0 KECCAK256 PUSH1 0x5 ADD SLOAD PUSH2 0x95F JUMP JUMPDEST PUSH2 0x1F4 JUMPDEST SWAP1 POP SWAP2 SWAP1 POP JUMP JUMPDEST PUSH1 0x14 DUP2 JUMP JUMPDEST PUSH1 0x0 DUP1 PUSH1 0x0 DUP4 PUSH20 0xFFFFFFFFFFFFFFFFFFFFFFFFFFFFFFFFFFFFFFFF AND PUSH20 0xFFFFFFFFFFFFFFFFFFFFFFFFFFFFFFFFFFFFFFFF AND DUP2 MSTORE PUSH1 0x20 ADD SWAP1 DUP2 MSTORE PUSH1 0x20 ADD PUSH1 0x0 KECCAK256 SWAP1 POP PUSH1 0x0 DUP1 DUP3 PUSH1 0x1 ADD SLOAD GT PUSH2 0x9C1 JUMPI PUSH1 0x64 PUSH2 0x9E2 JUMP JUMPDEST DUP2 PUSH1 0x1 ADD SLOAD PUSH1 0x64 DUP4 PUSH1 0x2 ADD SLOAD PUSH2 0x9D7 SWAP2 SWAP1 PUSH2 0xE78 JUMP JUMPDEST PUSH2 0x9E1 SWAP2 SWAP1 PUSH2 0xEE9 JUMP JUMPDEST JUMPDEST SWAP1 POP PUSH1 0x0 PUSH2 0x1F4 SWAP1 POP PUSH1 0x14 DUP4 PUSH1 0x1 ADD SLOAD PUSH2 0x9FC SWAP2 SWAP1 PUSH2 0xE78 JUMP JUMPDEST DUP2 PUSH2 0xA07 SWAP2 SWAP1 PUSH2 0xD96 JUMP JUMPDEST SWAP1 POP PUSH1 0xA PUSH1 0x2 DUP4 PUSH2 0xA18 SWAP2 SWAP1 PUSH2 0xE78 JUMP JUMPDEST PUSH2 0xA22 SWAP2 SWAP1 PUSH2 0xEE9 JUMP JUMPDEST DUP2 PUSH2 0xA2D SWAP2 SWAP1 PUSH2 0xD96 JUMP JUMPDEST SWAP1 POP PUSH1 0x0 DUP4 PUSH1 0x3 ADD SLOAD GT ISZERO PUSH2 0xA5B JUMPI PUSH1 0x32 DUP4 PUSH1 0x3 ADD SLOAD PUSH2 0xA4D SWAP2 SWAP1 PUSH2 0xE78 JUMP JUMPDEST DUP2 PUSH2 0xA58 SWAP2 SWAP1 PUSH2 0xF1A JUMP JUMPDEST SWAP1 POP JUMPDEST PUSH1 0x0 DUP2 GT PUSH2 0xA6A JUMPI PUSH1 0x0 PUSH2 0xA6C JUMP JUMPDEST DUP1 JUMPDEST DUP4 PUSH1 0x5 ADD DUP2 SWAP1 SSTORE POP POP POP POP POP JUMP JUMPDEST PUSH1 0x0 DUP1 REVERT JUMPDEST PUSH1 0x0 PUSH20 0xFFFFFFFFFFFFFFFFFFFFFFFFFFFFFFFFFFFFFFFF DUP3 AND SWAP1 POP SWAP2 SWAP1 POP JUMP JUMPDEST PUSH1 0x0 PUSH2 0xAAA DUP3 PUSH2 0xA7F JUMP JUMPDEST SWAP1 POP SWAP2 SWAP1 POP JUMP JUMPDEST PUSH2 0xABA DUP2 PUSH2 0xA9F JUMP JUMPDEST DUP2 EQ PUSH2 0xAC5 JUMPI PUSH1 0x0 DUP1 REVERT JUMPDEST POP JUMP JUMPDEST PUSH1 0x0 DUP2 CALLDATALOAD SWAP1 POP PUSH2 0xAD7 DUP2 PUSH2 0xAB1 JUMP JUMPDEST SWAP3 SWAP2 POP POP JUMP JUMPDEST PUSH1 0x0 PUSH1 0x20 DUP3 DUP5 SUB SLT ISZERO PUSH2 0xAF3 JUMPI PUSH2 0xAF2 PUSH2 0xA7A JUMP JUMPDEST JUMPDEST PUSH1 0x0 PUSH2 0xB01 DUP5 DUP3 DUP6 ADD PUSH2 0xAC8 JUMP JUMPDEST SWAP2 POP POP SWAP3 SWAP2 POP POP JUMP JUMPDEST PUSH1 0x0 DUP2 SWAP1 POP SWAP2 SWAP1 POP JUMP JUMPDEST PUSH2 0xB1D DUP2 PUSH2 0xB0A JUMP JUMPDEST DUP3 MSTORE POP POP JUMP JUMPDEST PUSH1 0x0 PUSH1 0xC0 DUP3 ADD SWAP1 POP PUSH2 0xB38 PUSH1 0x0 DUP4 ADD DUP10 PUSH2 0xB14 JUMP JUMPDEST PUSH2 0xB45 PUSH1 0x20 DUP4 ADD DUP9 PUSH2 0xB14 JUMP JUMPDEST PUSH2 0xB52 PUSH1 0x40 DUP4 ADD DUP8 PUSH2 0xB14 JUMP JUMPDEST PUSH2 0xB5F PUSH1 0x60 DUP4 ADD DUP7 PUSH2 0xB14 JUMP JUMPDEST PUSH2 0xB6C PUSH1 0x80 DUP4 ADD DUP6 PUSH2 0xB14 JUMP JUMPDEST PUSH2 0xB79 PUSH1 0xA0 DUP4 ADD DUP5 PUSH2 0xB14 JUMP JUMPDEST SWAP8 SWAP7 POP POP POP POP POP POP POP JUMP JUMPDEST PUSH2 0xB8D DUP2 PUSH2 0xB0A JUMP JUMPDEST DUP2 EQ PUSH2 0xB98 JUMPI PUSH1 0x0 DUP1 REVERT JUMPDEST POP JUMP JUMPDEST PUSH1 0x0 DUP2 CALLDATALOAD SWAP1 POP PUSH2 0xBAA DUP2 PUSH2 0xB84 JUMP JUMPDEST SWAP3 SWAP2 POP POP JUMP JUMPDEST PUSH1 0x0 DUP1 PUSH1 0x40 DUP4 DUP6 SUB SLT ISZERO PUSH2 0xBC7 JUMPI PUSH2 0xBC6 PUSH2 0xA7A JUMP JUMPDEST JUMPDEST PUSH1 0x0 PUSH2 0xBD5 DUP6 DUP3 DUP7 ADD PUSH2 0xAC8 JUMP JUMPDEST SWAP3 POP POP PUSH1 0x20 PUSH2 0xBE6 DUP6 DUP3 DUP7 ADD PUSH2 0xB9B JUMP JUMPDEST SWAP2 POP POP SWAP3 POP SWAP3 SWAP1 POP JUMP JUMPDEST PUSH1 0x0 PUSH1 0x20 DUP3 ADD SWAP1 POP PUSH2 0xC05 PUSH1 0x0 DUP4 ADD DUP5 PUSH2 0xB14 JUMP JUMPDEST SWAP3 SWAP2 POP POP JUMP JUMPDEST PUSH1 0x0 DUP2 ISZERO ISZERO SWAP1 POP SWAP2 SWAP1 POP JUMP JUMPDEST PUSH2 0xC20 DUP2 PUSH2 0xC0B JUMP JUMPDEST DUP3 MSTORE POP POP JUMP JUMPDEST PUSH1 0x0 PUSH1 0x20 DUP3 ADD SWAP1 POP PUSH2 0xC3B PUSH1 0x0 DUP4 ADD DUP5 PUSH2 0xC17 JUMP JUMPDEST SWAP3 SWAP2 POP POP JUMP JUMPDEST PUSH2 0xC4A DUP2 PUSH2 0xA9F JUMP JUMPDEST DUP3 MSTORE POP POP JUMP JUMPDEST PUSH1 0x0 PUSH1 0x20 DUP3 ADD SWAP1 POP PUSH2 0xC65 PUSH1 0x0 DUP4 ADD DUP5 PUSH2 0xC41 JUMP JUMPDEST SWAP3 SWAP2 POP POP JUMP JUMPDEST PUSH2 0xC74 DUP2 PUSH2 0xC0B JUMP JUMPDEST DUP2 EQ PUSH2 0xC7F JUMPI PUSH1 0x0 DUP1 REVERT JUMPDEST POP JUMP JUMPDEST PUSH1 0x0 DUP2 CALLDATALOAD SWAP1 POP PUSH2 0xC91 DUP2 PUSH2 0xC6B JUMP JUMPDEST SWAP3 SWAP2 POP POP JUMP JUMPDEST PUSH1 0x0 DUP1 PUSH1 0x0 PUSH1 0x60 DUP5 DUP7 SUB SLT ISZERO PUSH2 0xCB0 JUMPI PUSH2 0xCAF PUSH2 0xA7A JUMP JUMPDEST JUMPDEST PUSH1 0x0 PUSH2 0xCBE DUP7 DUP3 DUP8 ADD PUSH2 0xAC8 JUMP JUMPDEST SWAP4 POP POP PUSH1 0x20 PUSH2 0xCCF DUP7 DUP3 DUP8 ADD PUSH2 0xB9B JUMP JUMPDEST SWAP3 POP POP PUSH1 0x40 PUSH2 0xCE0 DUP7 DUP3 DUP8 ADD PUSH2 0xC82 JUMP JUMPDEST SWAP2 POP POP SWAP3 POP SWAP3 POP SWAP3 JUMP JUMPDEST PUSH1 0x0 DUP3 DUP3 MSTORE PUSH1 0x20 DUP3 ADD SWAP1 POP SWAP3 SWAP2 POP POP JUMP JUMPDEST PUSH32 0x4F6E6C79204C6F616E466163746F727900000000000000000000000000000000 PUSH1 0x0 DUP3 ADD MSTORE POP JUMP JUMPDEST PUSH1 0x0 PUSH2 0xD31 PUSH1 0x10 DUP4 PUSH2 0xCEA JUMP JUMPDEST SWAP2 POP PUSH2 0xD3C DUP3 PUSH2 0xCFB JUMP JUMPDEST PUSH1 0x20 DUP3 ADD SWAP1 POP SWAP2 SWAP1 POP JUMP JUMPDEST PUSH1 0x0 PUSH1 0x20 DUP3 ADD SWAP1 POP DUP2 DUP2 SUB PUSH1 0x0 DUP4 ADD MSTORE PUSH2 0xD60 DUP2 PUSH2 0xD24 JUMP JUMPDEST SWAP1 POP SWAP2 SWAP1 POP JUMP JUMPDEST PUSH32 0x4E487B7100000000000000000000000000000000000000000000000000000000 PUSH1 0x0 MSTORE PUSH1 0x11 PUSH1 0x4 MSTORE PUSH1 0x24 PUSH1 0x0 REVERT JUMPDEST PUSH1 0x0 PUSH2 0xDA1 DUP3 PUSH2 0xB0A JUMP JUMPDEST SWAP2 POP PUSH2 0xDAC DUP4 PUSH2 0xB0A JUMP JUMPDEST SWAP3 POP DUP3 DUP3 ADD SWAP1 POP DUP1 DUP3 GT ISZERO PUSH2 0xDC4 JUMPI PUSH2 0xDC3 PUSH2 0xD67 JUMP JUMPDEST JUMPDEST SWAP3 SWAP2 POP POP JUMP JUMPDEST PUSH1 0x0 DUP2 MLOAD SWAP1 POP PUSH2 0xDD9 DUP2 PUSH2 0xB84 JUMP JUMPDEST SWAP3 SWAP2 POP POP JUMP JUMPDEST PUSH1 0x0 PUSH1 0x20 DUP3 DUP5 SUB SLT ISZERO PUSH2 0xDF5 JUMPI PUSH2 0xDF4 PUSH2 0xA7A JUMP JUMPDEST JUMPDEST PUSH1 0x0 PUSH2 0xE03 DUP5 DUP3 DUP6 ADD PUSH2 0xDCA JUMP JUMPDEST SWAP2 POP POP SWAP3 SWAP2 POP POP JUMP JUMPDEST PUSH32 0x4F6E6C79204C6F616E466163746F7279206F72204C6F616E0000000000000000 PUSH1 0x0 DUP3 ADD MSTORE POP JUMP JUMPDEST PUSH1 0x0 PUSH2 0xE42 PUSH1 0x18 DUP4 PUSH2 0xCEA JUMP JUMPDEST SWAP2 POP PUSH2 0xE4D DUP3 PUSH2 0xE0C JUMP JUMPDEST PUSH1 0x20 DUP3 ADD SWAP1 POP SWAP2 SWAP1 POP JUMP JUMPDEST PUSH1 0x0 PUSH1 0x20 DUP3 ADD SWAP1 POP DUP2 DUP2 SUB PUSH1 0x0 DUP4 ADD MSTORE PUSH2 0xE71 DUP2 PUSH2 0xE35 JUMP JUMPDEST SWAP1 POP SWAP2 SWAP1 POP JUMP JUMPDEST PUSH1 0x0 PUSH2 0xE83 DUP3 PUSH2 0xB0A JUMP JUMPDEST SWAP2 POP PUSH2 0xE8E DUP4 PUSH2 0xB0A JUMP JUMPDEST SWAP3 POP DUP3 DUP3 MUL PUSH2 0xE9C DUP2 PUSH2 0xB0A JUMP JUMPDEST SWAP2 POP DUP3 DUP3 DIV DUP5 EQ DUP4 ISZERO OR PUSH2 0xEB3 JUMPI PUSH2 0xEB2 PUSH2 0xD67 JUMP JUMPDEST JUMPDEST POP SWAP3 SWAP2 POP POP JUMP JUMPDEST PUSH32 0x4E487B7100000000000000000000000000000000000000000000000000000000 PUSH1 0x0 MSTORE PUSH1 0x12 PUSH1 0x4 MSTORE PUSH1 0x24 PUSH1 0x0 REVERT JUMPDEST PUSH1 0x0 PUSH2 0xEF4 DUP3 PUSH2 0xB0A JUMP JUMPDEST SWAP2 POP PUSH2 0xEFF DUP4 PUSH2 0xB0A JUMP JUMPDEST SWAP3 POP DUP3 PUSH2 0xF0F JUMPI PUSH2 0xF0E PUSH2 0xEBA JUMP JUMPDEST JUMPDEST DUP3 DUP3 DIV SWAP1 POP SWAP3 SWAP2 POP POP JUMP JUMPDEST PUSH1 0x0 PUSH2 0xF25 DUP3 PUSH2 0xB0A JUMP JUMPDEST SWAP2 POP PUSH2 0xF30 DUP4 PUSH2 0xB0A JUMP JUMPDEST SWAP3 POP DUP3 DUP3 SUB SWAP1 POP DUP2 DUP2 GT ISZERO PUSH2 0xF48 JUMPI PUSH2 0xF47 PUSH2 0xD67 JUMP JUMPDEST JUMPDEST SWAP3 SWAP2 POP POP JUMP INVALID LOG2 PUSH5 0x6970667358 0x22 SLT KECCAK256 0x2A 0xF7 PC MSTORE8 0xB9 EXTCODESIZE 0x2E SLOAD ADD SWAP2 0xBC CODECOPY PUSH7 0x9E335781073711 GT SWAP8 AND ORIGIN 0xDB GAS 0xE4 0xAF JUMPI ORIGIN 0x21 0xDC PUSH5 0x736F6C6343 STOP ADDMOD XOR STOP CALLER "},"methodIdentifiers":{"BASE_SCORE()":"7effe568","COMPLETED_WEIGHT()":"db2db177","DEFAULT_PENALTY()":"bf15e017","ON_TIME_MULTIPLIER()":"90b43948","addApprovedLoan(address)":"19ed29fa","approvedLoans(address)":"93e9b13e","calculateInterestRate(address)":"c0d18843","getScore(address)":"d47875d0","loanFactory()":"b37ed8cd","recordDefault(address,uint256)":"cd4544f2","recordLoanRequest(address,uint256)":"64b12355","recordRepayment(address,uint256,bool)":"c48f1392","records(address)":"469e9067"}}}}}