{"contracts/Loan.sol":{"Loan":{"abi":[{"inputs":[{"internalType":"address","name":"_borrower","type":"address"},{"internalType":"uint256","name":"_principal","type":"uint256"},{"internalType":"uint256","name":"_interestRateBps","type":"uint256"},{"internalType":"uint256","name":"_durationDays","type":"uint256"},{"internalType":"address","name":"_factory","type":"address"},{"internalType":"address","name":"_creditScore","type":"address"}],"stateMutability":"nonpayable","type":"constructor"},{"anonymous":false,"inputs":[{"indexed":true,"internalType":"address","name":"borrower","type":"address"}],"name":"LoanDefaulted","type":"event"},{"anonymous":false,"inputs":[{"indexed":true,"internalType":"address","name":"lender","type":"address"},{"indexed":false,"internalType":"uint256","name":"amount","type":"uint256"}],"name":"LoanFunded","type":"event"},{"anonymous":false,"inputs":[{"indexed":true,"internalType":"address","name":"borrower","type":"address"},{"indexed":false,"internalType":"uint256","name":"principal","type":"uint256"},{"indexed":false,"internalType":"uint256","name":"interest","type":"uint256"}],"name":"LoanRepaid","type":"event"},{"inputs":[],"name":"GRACE_PERIOD","outputs":[{"internalType":"uint256","name":"","type":"uint256"}],"stateMutability":"view","type":"function"},{"inputs":[],"name":"borrower","outputs":[{"internalType":"address","name":"","type":"address"}],"stateMutability":"view","type":"function"},{"inputs":[],"name":"creditScore","outputs":[{"internalType":"contract ICreditScore","name":"","type":"address"}],"stateMutability":"view","type":"function"},{"inputs":[],"name":"durationDays","outputs":[{"internalType":"uint256","name":"","type":"uint256"}],"stateMutability":"view","type":"function"},{"inputs":[],"name":"factory","outputs":[{"internalType":"address","name":"","type":"address"}],"stateMutability":"view","type":"function"},{"inputs":[],"name":"fund","outputs":[],"stateMutability":"payable","type":"function"},{"inputs":[],"name":"fundedAt","outputs":[{"internalType":"uint256","name":"","type":"uint256"}],"stateMutability":"view","type":"function"},{"inputs":[],"name":"getTotalRepayment","outputs":[{"internalType":"uint256","name":"","type":"uint256"}],"stateMutability":"view","type":"function"},{"inputs":[],"name":"interestRateBps","outputs":[{"internalType":"uint256","name":"","type":"uint256"}],"stateMutability":"view","type":"function"},{"inputs":[],"name":"lender","outputs":[{"internalType":"address","name":"","type":"address"}],"stateMutability":"view","type":"function"},{"inputs":[],"name":"markDefaulted","outputs":[],"stateMutability":"nonpayable","type":"function"},{"inputs":[],"name":"principal","outputs":[{"internalType":"uint256","name":"","type":"uint256"}],"stateMutability":"view","type":"function"},{"inputs":[],"name":"repay","outputs":[],"stateMutability":"payable","type":"function"},{"inputs":[],"name":"repaymentDeadline","outputs":[{"internalType":"uint256","name":"","type":"uint256"}],"stateMutability":"view","type":"function"},{"inputs":[],"name":"status","outputs":[{"internalType":"enum Loan.Status","name":"","type":"uint8"}],"stateMutability":"view","type":"function"}],"evm":{"bytecode":{"linkReferences":{},"object":"60806040523480156200001157600080fd5b506040516200191e3803806200191e8339818101604052810190620000379190620001ed565b856000806101000a81548173ffffffffffffffffffffffffffffffffffffffff021916908373ffffffffffffffffffffffffffffffffffffffff16021790555084600281905550836003819055508260048190555081600760016101000a81548173ffffffffffffffffffffffffffffffffffffffff021916908373ffffffffffffffffffffffffffffffffffffffff16021790555080600860006101000a81548173ffffffffffffffffffffffffffffffffffffffff021916908373ffffffffffffffffffffffffffffffffffffffff1602179055506000600760006101000a81548160ff0219169083600481111562000137576200013662000289565b5b0217905550505050505050620002b8565b600080fd5b600073ffffffffffffffffffffffffffffffffffffffff82169050919050565b60006200017a826200014d565b9050919050565b6200018c816200016d565b81146200019857600080fd5b50565b600081519050620001ac8162000181565b92915050565b6000819050919050565b620001c781620001b2565b8114620001d357600080fd5b50565b600081519050620001e781620001bc565b92915050565b60008060008060008060c087890312156200020d576200020c62000148565b5b60006200021d89828a016200019b565b96505060206200023089828a01620001d6565b95505060406200024389828a01620001d6565b94505060606200025689828a01620001d6565b93505060806200026989828a016200019b565b92505060a06200027c89828a016200019b565b9150509295509295509295565b7f4e487b7100000000000000000000000000000000000000000000000000000000600052602160045260246000fd5b61165680620002c86000396000f3fe6080604052600436106100e85760003560e01c8063b60d42881161008a578063c45a015511610059578063c45a015514610284578063c84a208b146102af578063d746d0b2146102da578063dd54123014610305576100e8565b8063b60d4288146101f9578063ba5d307814610203578063bcead63e1461022e578063c1a287e214610259576100e8565b8063402d8883116100c6578063402d88831461016e5780637df1f1b9146101785780639cd56d03146101a3578063a9a748ff146101ce576100e8565b806319cc3aaa146100ed578063200d2ed21461011857806339da315214610143575b600080fd5b3480156100f957600080fd5b5061010261031c565b60405161010f9190610e9d565b60405180910390f35b34801561012457600080fd5b5061012d610322565b60405161013a9190610f2f565b60405180910390f35b34801561014f57600080fd5b50610158610335565b6040516101659190610fc9565b60405180910390f35b61017661035b565b005b34801561018457600080fd5b5061018d6107ec565b60405161019a9190611005565b60405180910390f35b3480156101af57600080fd5b506101b8610810565b6040516101c59190610e9d565b60405180910390f35b3480156101da57600080fd5b506101e3610816565b6040516101f09190610e9d565b60405180910390f35b61020161081c565b005b34801561020f57600080fd5b50610218610a6e565b6040516102259190610e9d565b60405180910390f35b34801561023a57600080fd5b50610243610a74565b6040516102509190611005565b60405180910390f35b34801561026557600080fd5b5061026e610a9a565b60405161027b9190610e9d565b60405180910390f35b34801561029057600080fd5b50610299610aa1565b6040516102a69190611005565b60405180910390f35b3480156102bb57600080fd5b506102c4610ac7565b6040516102d19190610e9d565b60405180910390f35b3480156102e657600080fd5b506102ef610acd565b6040516102fc9190610e9d565b60405180910390f35b34801561031157600080fd5b5061031a610b03565b005b60065481565b600760009054906101000a900460ff1681565b600860009054906101000a900473ffffffffffffffffffffffffffffffffffffffff1681565b60008054906101000a900473ffffffffffffffffffffffffffffffffffffffff1673ffffffffffffffffffffffffffffffffffffffff163373ffffffffffffffffffffffffffffffffffffffff16146103e9576040517f08c379a00000000000000000000000000000000000000000000000000000000081526004016103e09061107d565b60405180910390fd5b600260048111156103fd576103fc610eb8565b5b600760009054906101000a900460ff16600481111561041f5761041e610eb8565b5b1461045f576040517f08c379a0000000000000000000000000000000000000000000000000000000008152600401610456906110e9565b60405180910390fd5b60006127106003546002546104749190611138565b61047e91906111a9565b905060008160025461049091906111da565b9050803410156104d5576040517f08c379a00000000000000000000000000000000000000000000000000000000081526004016104cc9061125a565b60405180910390fd5b6003600760006101000a81548160ff021916908360048111156104fb576104fa610eb8565b5b021790555060006006544211159050600860009054906101000a900473ffffffffffffffffffffffffffffffffffffffff1673ffffffffffffffffffffffffffffffffffffffff1663c48f139260008054906101000a900473ffffffffffffffffffffffffffffffffffffffff16600254846040518463ffffffff1660e01b815260040161058b93929190611295565b600060405180830381600087803b1580156105a557600080fd5b505af11580156105b9573d6000803e3d6000fd5b505050506000600160009054906101000a900473ffffffffffffffffffffffffffffffffffffffff1673ffffffffffffffffffffffffffffffffffffffff1683604051610605906112fd565b60006040518083038185875af1925050503d8060008114610642576040519150601f19603f3d011682016040523d82523d6000602084013e610647565b606091505b505090508061068b576040517f08c379a00000000000000000000000000000000000000000000000000000000081526004016106829061135e565b60405180910390fd5b60008334610699919061137e565b905060008111156107735760008060009054906101000a900473ffffffffffffffffffffffffffffffffffffffff1673ffffffffffffffffffffffffffffffffffffffff16826040516106eb906112fd565b60006040518083038185875af1925050503d8060008114610728576040519150601f19603f3d011682016040523d82523d6000602084013e61072d565b606091505b5050905080610771576040517f08c379a0000000000000000000000000000000000000000000000000000000008152600401610768906113fe565b60405180910390fd5b505b60008054906101000a900473ffffffffffffffffffffffffffffffffffffffff1673ffffffffffffffffffffffffffffffffffffffff167fc7ce0a35f17b490de2a317e7fecb2cae86b1abffb03800b2f492823521382698600254876040516107dd92919061141e565b60405180910390a25050505050565b60008054906101000a900473ffffffffffffffffffffffffffffffffffffffff1681565b60045481565b60055481565b600060048111156108305761082f610eb8565b5b600760009054906101000a900460ff16600481111561085257610851610eb8565b5b14610892576040517f08c379a0000000000000000000000000000000000000000000000000000000008152600401610889906110e9565b60405180910390fd5b6002543410156108d7576040517f08c379a00000000000000000000000000000000000000000000000000000000081526004016108ce90611493565b60405180910390fd5b60008054906101000a900473ffffffffffffffffffffffffffffffffffffffff1673ffffffffffffffffffffffffffffffffffffffff163373ffffffffffffffffffffffffffffffffffffffff1603610965576040517f08c379a000000000000000000000000000000000000000000000000000000000815260040161095c906114ff565b60405180910390fd5b33600160006101000a81548173ffffffffffffffffffffffffffffffffffffffff021916908373ffffffffffffffffffffffffffffffffffffffff16021790555042600581905550620151806004546109be9190611138565b426109c991906111da565b6006819055506002600760006101000a81548160ff021916908360048111156109f5576109f4610eb8565b5b0217905550600160009054906101000a900473ffffffffffffffffffffffffffffffffffffffff1673ffffffffffffffffffffffffffffffffffffffff167f726d5f1a838fe31748f737fa3ae5539ccff95952adfc593a1299532b643ff7a8600254604051610a649190610e9d565b60405180910390a2565b60025481565b600160009054906101000a900473ffffffffffffffffffffffffffffffffffffffff1681565b6203f48081565b600760019054906101000a900473ffffffffffffffffffffffffffffffffffffffff1681565b60035481565b600080612710600354600254610ae39190611138565b610aed91906111a9565b905080600254610afd91906111da565b91505090565b60026004811115610b1757610b16610eb8565b5b600760009054906101000a900460ff166004811115610b3957610b38610eb8565b5b14610b79576040517f08c379a0000000000000000000000000000000000000000000000000000000008152600401610b70906110e9565b60405180910390fd5b600760019054906101000a900473ffffffffffffffffffffffffffffffffffffffff1673ffffffffffffffffffffffffffffffffffffffff163373ffffffffffffffffffffffffffffffffffffffff1614610c25576203f480600654610bdf91906111da565b4211610c20576040517f08c379a0000000000000000000000000000000000000000000000000000000008152600401610c179061156b565b60405180910390fd5b610c6a565b6006544211610c69576040517f08c379a0000000000000000000000000000000000000000000000000000000008152600401610c60906115d7565b60405180910390fd5b5b6004600760006101000a81548160ff02191690836004811115610c9057610c8f610eb8565b5b0217905550600860009054906101000a900473ffffffffffffffffffffffffffffffffffffffff1673ffffffffffffffffffffffffffffffffffffffff1663cd4544f260008054906101000a900473ffffffffffffffffffffffffffffffffffffffff166002546040518363ffffffff1660e01b8152600401610d149291906115f7565b600060405180830381600087803b158015610d2e57600080fd5b505af1158015610d42573d6000803e3d6000fd5b505050506000471115610e1f576000600160009054906101000a900473ffffffffffffffffffffffffffffffffffffffff1673ffffffffffffffffffffffffffffffffffffffff1647604051610d97906112fd565b60006040518083038185875af1925050503d8060008114610dd4576040519150601f19603f3d011682016040523d82523d6000602084013e610dd9565b606091505b5050905080610e1d576040517f08c379a0000000000000000000000000000000000000000000000000000000008152600401610e149061135e565b60405180910390fd5b505b60008054906101000a900473ffffffffffffffffffffffffffffffffffffffff1673ffffffffffffffffffffffffffffffffffffffff167ff4e5cf42cbb1d0c6c91e16d925349feb6c5d970652f6ec77b1ff1262f7284cd560405160405180910390a2565b6000819050919050565b610e9781610e84565b82525050565b6000602082019050610eb26000830184610e8e565b92915050565b7f4e487b7100000000000000000000000000000000000000000000000000000000600052602160045260246000fd5b60058110610ef857610ef7610eb8565b5b50565b6000819050610f0982610ee7565b919050565b6000610f1982610efb565b9050919050565b610f2981610f0e565b82525050565b6000602082019050610f446000830184610f20565b92915050565b600073ffffffffffffffffffffffffffffffffffffffff82169050919050565b6000819050919050565b6000610f8f610f8a610f8584610f4a565b610f6a565b610f4a565b9050919050565b6000610fa182610f74565b9050919050565b6000610fb382610f96565b9050919050565b610fc381610fa8565b82525050565b6000602082019050610fde6000830184610fba565b92915050565b6000610fef82610f4a565b9050919050565b610fff81610fe4565b82525050565b600060208201905061101a6000830184610ff6565b92915050565b600082825260208201905092915050565b7f4f6e6c7920626f72726f77657200000000000000000000000000000000000000600082015250565b6000611067600d83611020565b915061107282611031565b602082019050919050565b600060208201905081810360008301526110968161105a565b9050919050565b7f496e76616c696420737461747573000000000000000000000000000000000000600082015250565b60006110d3600e83611020565b91506110de8261109d565b602082019050919050565b60006020820190508181036000830152611102816110c6565b9050919050565b7f4e487b7100000000000000000000000000000000000000000000000000000000600052601160045260246000fd5b600061114382610e84565b915061114e83610e84565b925082820261115c81610e84565b9150828204841483151761117357611172611109565b5b5092915050565b7f4e487b7100000000000000000000000000000000000000000000000000000000600052601260045260246000fd5b60006111b482610e84565b91506111bf83610e84565b9250826111cf576111ce61117a565b5b828204905092915050565b60006111e582610e84565b91506111f083610e84565b925082820190508082111561120857611207611109565b5b92915050565b7f496e73756666696369656e742072657061796d656e7400000000000000000000600082015250565b6000611244601683611020565b915061124f8261120e565b602082019050919050565b6000602082019050818103600083015261127381611237565b9050919050565b60008115159050919050565b61128f8161127a565b82525050565b60006060820190506112aa6000830186610ff6565b6112b76020830185610e8e565b6112c46040830184611286565b949350505050565b600081905092915050565b50565b60006112e76000836112cc565b91506112f2826112d7565b600082019050919050565b6000611308826112da565b9150819050919050565b7f5472616e73666572206661696c65640000000000000000000000000000000000600082015250565b6000611348600f83611020565b915061135382611312565b602082019050919050565b600060208201905081810360008301526113778161133b565b9050919050565b600061138982610e84565b915061139483610e84565b92508282039050818111156113ac576113ab611109565b5b92915050565b7f526566756e64206661696c656400000000000000000000000000000000000000600082015250565b60006113e8600d83611020565b91506113f3826113b2565b602082019050919050565b60006020820190508181036000830152611417816113db565b9050919050565b60006040820190506114336000830185610e8e565b6114406020830184610e8e565b9392505050565b7f496e73756666696369656e742066756e64730000000000000000000000000000600082015250565b600061147d601283611020565b915061148882611447565b602082019050919050565b600060208201905081810360008301526114ac81611470565b9050919050565b7f426f72726f7765722063616e6e6f742066756e64206f776e206c6f616e000000600082015250565b60006114e9601d83611020565b91506114f4826114b3565b602082019050919050565b60006020820190508181036000830152611518816114dc565b9050919050565b7f477261636520706572696f642061637469766500000000000000000000000000600082015250565b6000611555601383611020565b91506115608261151f565b602082019050919050565b6000602082019050818103600083015261158481611548565b9050919050565b7f4e6f7420796574206f7665726475650000000000000000000000000000000000600082015250565b60006115c1600f83611020565b91506115cc8261158b565b602082019050919050565b600060208201905081810360008301526115f0816115b4565b9050919050565b600060408201905061160c6000830185610ff6565b6116196020830184610e8e565b939250505056fea2646970667358221220e5c9699a2c5b1cf48b24f2ec45d6bf2f52dee3d2ecde809f11034637e4e9b22964736f6c63430008180033","opcodes":"PUSH1 0x80 PUSH1 0x40 MSTORE CALLVALUE DUP1 ISZERO PUSH3 0x11 JUMPI PUSH1 0x0 DUP1 REVERT JUMPDEST POP PUSH1 0x40 MLOAD PUSH3 0x191E CODESIZE SUB DUP1 PUSH3 0x191E DUP4 CODECOPY DUP2 DUP2 ADD PUSH1 0x40 MSTORE DUP2 ADD SWAP1 PUSH3 0x37 SWAP2 SWAP1 PUSH3 0x1ED JUMP JUMPDEST DUP6 PUSH1 0x0 DUP1 PUSH2 0x100 EXP DUP2 SLOAD DUP2 PUSH20 0xFFFFFFFFFFFFFFFFFFFFFFFFFFFFFFFFFFFFFFFF MUL NOT AND SWAP1 DUP4 PUSH20 0xFFFFFFFFFFFFFFFFFFFFFFFFFFFFFFFFFFFFFFFF AND MUL OR SWAP1 SSTORE POP DUP5 PUSH1 0x2 DUP2 SWAP1 SSTORE POP DUP4 PUSH1 0x3 DUP2 SWAP1 SSTORE POP DUP3 PUSH1 0x4 DUP2 SWAP1 SSTORE POP DUP2 PUSH1 0x7 PUSH1 0x1 PUSH2 0x100 EXP DUP2 SLOAD DUP2 PUSH20 0xFFFFFFFFFFFFFFFFFFFFFFFFFFFFFFFFFFFFFFFF MUL NOT AND SWAP1 DUP4 PUSH20 0xFFFFFFFFFFFFFFFFFFFFFFFFFFFFFFFFFFFFFFFF AND MUL OR SWAP1 SSTORE POP DUP1 PUSH1 0x8 PUSH1 0x0 PUSH2 0x100 EXP DUP2 SLOAD DUP2 PUSH20 0xFFFFFFFFFFFFFFFFFFFFFFFFFFFFFFFFFFFFFFFF MUL NOT AND SWAP1 DUP4 PUSH20 0xFFFFFFFFFFFFFFFFFFFFFFFFFFFFFFFFFFFFFFFF AND MUL OR SWAP1 SSTORE POP PUSH1 0x0 PUSH1 0x7 PUSH1 0x0 PUSH2 0x100 EXP DUP2 SLOAD DUP2 PUSH1 0xFF MUL NOT AND SWAP1 DUP4 PUSH1 0x4 DUP2 GT ISZERO PUSH3 0x137 JUMPI PUSH3 0x136 PUSH3 0x289 JUMP JUMPDEST JUMPDEST MUL OR SWAP1 SSTORE POP POP POP POP POP POP POP PUSH3 0x2B8 JUMP JUMPDEST PUSH1 0x0 DUP1 REVERT JUMPDEST PUSH1 0x0 PUSH20 0xFFFFFFFFFFFFFFFFFFFFFFFFFFFFFFFFFFFFFFFF DUP3 AND SWAP1 POP SWAP2 SWAP1 POP JUMP JUMPDEST PUSH1 0x0 PUSH3 0x17A DUP3 PUSH3 0x14D JUMP JUMPDEST SWAP1 POP SWAP2 SWAP1 POP JUMP JUMPDEST PUSH3 0x18C DUP2 PUSH3 0x16D JUMP JUMPDEST DUP2 EQ PUSH3 0x198 JUMPI PUSH1 0x0 DUP1 REVERT JUMPDEST POP JUMP JUMPDEST PUSH1 0x0 DUP2 MLOAD SWAP1 POP PUSH3 0x1AC DUP2 PUSH3 0x181 JUMP JUMPDEST SWAP3 SWAP2 POP POP JUMP JUMPDEST PUSH1 0x0 DUP2 SWAP1 POP SWAP2 SWAP1 POP JUMP JUMPDEST PUSH3 0x1C7 DUP2 PUSH3 0x1B2 JUMP JUMPDEST DUP2 EQ PUSH3 0x1D3 JUMPI PUSH1 0x0 DUP1 REVERT JUMPDEST POP JUMP JUMPDEST PUSH1 0x0 DUP2 MLOAD SWAP1 POP PUSH3 0x1E7 DUP2 PUSH3 0x1BC JUMP JUMPDEST SWAP3 SWAP2 POP POP JUMP JUMPDEST PUSH1 0x0 DUP1 PUSH1 0x0 DUP1 PUSH1 0x0 DUP1 PUSH1 0xC0 DUP8 DUP10 SUB SLT ISZERO PUSH3 0x20D JUMPI PUSH3 0x20C PUSH3 0x148 JUMP JUMPDEST JUMPDEST PUSH1 0x0 PUSH3 0x21D DUP10 DUP3 DUP11 ADD PUSH3 0x19B JUMP JUMPDEST SWAP7 POP POP PUSH1 0x20 PUSH3 0x230 DUP10 DUP3 DUP11 ADD PUSH3 0x1D6 JUMP JUMPDEST SWAP6 POP POP PUSH1 0x40 PUSH3 0x243 DUP10 DUP3 DUP11 ADD PUSH3 0x1D6 JUMP JUMPDEST SWAP5 POP POP PUSH1 0x60 PUSH3 0x256 DUP10 DUP3 DUP11 ADD PUSH3 0x1D6 JUMP JUMPDEST SWAP4 POP POP PUSH1 0x80 PUSH3 0x269 DUP10 DUP3 DUP11 ADD PUSH3 0x19B JUMP JUMPDEST SWAP3 POP POP PUSH1 0xA0 PUSH3 0x27C DUP10 DUP3 DUP11 ADD PUSH3 0x19B JUMP JUMPDEST SWAP2 POP POP SWAP3 SWAP6 POP SWAP3 SWAP6 POP SWAP3 SWAP6 JUMP JUMPDEST PUSH32 0x4E487B7100000000000000000000000000000000000000000000000000000000 PUSH1 0x0 MSTORE PUSH1 0x21 PUSH1 0x4 MSTORE PUSH1 0x24 PUSH1 0x0 REVERT JUMPDEST PUSH2 0x1656 DUP1 PUSH3 0x2C8 PUSH1 0x0 CODECOPY PUSH1 0x0 RETURN INVALID PUSH1 0x80 PUSH1 0x40 MSTORE PUSH1 0x4 CALLDATASIZE LT PUSH2 0xE8 JUMPI PUSH1 0x0 CALLDATALOAD PUSH1 0xE0 SHR DUP1 PUSH4 0xB60D4288 GT PUSH2 0x8A JUMPI DUP1 PUSH4 0xC45A0155 GT PUSH2 0x59 JUMPI DUP1 PUSH4 0xC45A0155 EQ PUSH2 0x284 JUMPI DUP1 PUSH4 0xC84A208B EQ PUSH2 0x2AF JUMPI DUP1 PUSH4 0xD746D0B2 EQ PUSH2 0x2DA JUMPI DUP1 PUSH4 0xDD541230 EQ PUSH2 0x305 JUMPI PUSH2 0xE8 JUMP JUMPDEST DUP1 PUSH4 0xB60D4288 EQ PUSH2 0x1F9 JUMPI DUP1 PUSH4 0xBA5D3078 EQ PUSH2 0x203 JUMPI DUP1 PUSH4 0xBCEAD63E EQ PUSH2 0x22E JUMPI DUP1 PUSH4 0xC1A287E2 EQ PUSH2 0x259 JUMPI PUSH2 0xE8 JUMP JUMPDEST DUP1 PUSH4 0x402D8883 GT PUSH2 0xC6 JUMPI DUP1 PUSH4 0x402D8883 EQ PUSH2 0x16E JUMPI DUP1 PUSH4 0x7DF1F1B9 EQ PUSH2 0x178 JUMPI DUP1 PUSH4 0x9CD56D03 EQ PUSH2 0x1A3 JUMPI DUP1 PUSH4 0xA9A748FF EQ PUSH2 0x1CE JUMPI PUSH2 0xE8 JUMP JUMPDEST DUP1 PUSH4 0x19CC3AAA EQ PUSH2 0xED JUMPI DUP1 PUSH4 0x200D2ED2 EQ PUSH2 0x118 JUMPI DUP1 PUSH4 0x39DA3152 EQ PUSH2 0x143 JUMPI JUMPDEST PUSH1 0x0 DUP1 REVERT JUMPDEST CALLVALUE DUP1 ISZERO PUSH2 0xF9 JUMPI PUSH1 0x0 DUP1 REVERT JUMPDEST POP PUSH2 0x102 PUSH2 0x31C JUMP JUMPDEST PUSH1 0x40 MLOAD PUSH2 0x10F SWAP2 SWAP1 PUSH2 0xE9D JUMP JUMPDEST PUSH1 0x40 MLOAD DUP1 SWAP2 SUB SWAP1 RETURN JUMPDEST CALLVALUE DUP1 ISZERO PUSH2 0x124 JUMPI PUSH1 0x0 DUP1 REVERT JUMPDEST POP PUSH2 0x12D PUSH2 0x322 JUMP JUMPDEST PUSH1 0x40 MLOAD PUSH2 0x13A SWAP2 SWAP1 PUSH2 0xF2F JUMP JUMPDEST PUSH1 0x40 MLOAD DUP1 SWAP2 SUB SWAP1 RETURN JUMPDEST CALLVALUE DUP1 ISZERO PUSH2 0x14F JUMPI PUSH1 0x0 DUP1 REVERT JUMPDEST POP PUSH2 0x158 PUSH2 0x335 JUMP JUMPDEST PUSH1 0x40 MLOAD PUSH2 0x165 SWAP2 SWAP1 PUSH2 0xFC9 JUMP JUMPDEST PUSH1 0x40 MLOAD DUP1 SWAP2 SUB SWAP1 RETURN JUMPDEST PUSH2 0x176 PUSH2 0x35B JUMP JUMPDEST STOP JUMPDEST CALLVALUE DUP1 ISZERO PUSH2 0x184 JUMPI PUSH1 0x0 DUP1 REVERT JUMPDEST POP PUSH2 0x18D PUSH2 0x7EC JUMP JUMPDEST PUSH1 0x40 MLOAD PUSH2 0x19A SWAP2 SWAP1 PUSH2 0x1005 JUMP JUMPDEST PUSH1 0x40 MLOAD DUP1 SWAP2 SUB SWAP1 RETURN JUMPDEST CALLVALUE DUP1 ISZERO PUSH2 0x1AF JUMPI PUSH1 0x0 DUP1 REVERT JUMPDEST POP PUSH2 0x1B8 PUSH2 0x810 JUMP JUMPDEST PUSH1 0x40 MLOAD PUSH2 0x1C5 SWAP2 SWAP1 PUSH2 0xE9D JUMP JUMPDEST PUSH1 0x40 MLOAD DUP1 SWAP2 SUB SWAP1 RETURN JUMPDEST CALLVALUE DUP1 ISZERO PUSH2 0x1DA JUMPI PUSH1 0x0 DUP1 REVERT JUMPDEST POP PUSH2 0x1E3 PUSH2 0x816 JUMP JUMPDEST PUSH1 0x40 MLOAD PUSH2 0x1F0 SWAP2 SWAP1 PUSH2 0xE9D JUMP JUMPDEST PUSH1 0x40 MLOAD DUP1 SWAP2 SUB SWAP1 RETURN JUMPDEST PUSH2 0x201 PUSH2 0x81C JUMP JUMPDEST STOP JUMPDEST CALLVALUE DUP1 ISZERO PUSH2 0x20F JUMPI PUSH1 0x0 DUP1 REVERT JUMPDEST POP PUSH2 0x218 PUSH2 0xA6E JUMP JUMPDEST PUSH1 0x40 MLOAD PUSH2 0x225 SWAP2 SWAP1 PUSH2 0xE9D JUMP JUMPDEST PUSH1 0x40 MLOAD DUP1 SWAP2 SUB SWAP1 RETURN JUMPDEST CALLVALUE DUP1 ISZERO PUSH2 0x23A JUMPI PUSH1 0x0 DUP1 REVERT JUMPDEST POP PUSH2 0x243 PUSH2 0xA74 JUMP JUMPDEST PUSH1 0x40 MLOAD PUSH2 0x250 SWAP2 SWAP1 PUSH2 0x1005 JUMP JUMPDEST PUSH1 0x40 MLOAD DUP1 SWAP2 SUB SWAP1 RETURN JUMPDEST CALLVALUE DUP1 ISZERO PUSH2 0x265 JUMPI PUSH1 0x0 DUP1 REVERT JUMPDEST POP PUSH2 0x26E PUSH2 0xA9A JUMP JUMPDEST PUSH1 0x40 MLOAD PUSH2 0x27B SWAP2 SWAP1 PUSH2 0xE9D JUMP JUMPDEST PUSH1 0x40 MLOAD DUP1 SWAP2 SUB SWAP1 RETURN JUMPDEST CALLVALUE DUP1 ISZERO PUSH2 0x290 JUMPI PUSH1 0x0 DUP1 REVERT JUMPDEST POP PUSH2 0x299 PUSH2 0xAA1 JUMP JUMPDEST PUSH1 0x40 MLOAD PUSH2 0x2A6 SWAP2 SWAP1 PUSH2 0x1005 JUMP JUMPDEST PUSH1 0x40 MLOAD DUP1 SWAP2 SUB SWAP1 RETURN JUMPDEST CALLVALUE DUP1 ISZERO PUSH2 0x2BB JUMPI PUSH1 0x0 DUP1 REVERT JUMPDEST POP PUSH2 0x2C4 PUSH2 0xAC7 JUMP JUMPDEST PUSH1 0x40 MLOAD PUSH2 0x2D1 SWAP2 SWAP1 PUSH2 0xE9D JUMP JUMPDEST PUSH1 0x40 MLOAD DUP1 SWAP2 SUB SWAP1 RETURN JUMPDEST CALLVALUE DUP1 ISZERO PUSH2 0x2E6 JUMPI PUSH1 0x0 DUP1 REVERT JUMPDEST POP PUSH2 0x2EF PUSH2 0xACD JUMP JUMPDEST PUSH1 0x40 MLOAD PUSH2 0x2FC SWAP2 SWAP1 PUSH2 0xE9D JUMP JUMPDEST PUSH1 0x40 MLOAD DUP1 SWAP2 SUB SWAP1 RETURN JUMPDEST CALLVALUE DUP1 ISZERO PUSH2 0x311 JUMPI PUSH1 0x0 DUP1 REVERT JUMPDEST POP PUSH2 0x31A PUSH2 0xB03 JUMP JUMPDEST STOP JUMPDEST PUSH1 0x6 SLOAD DUP2 JUMP JUMPDEST PUSH1 0x7 PUSH1 0x0 SWAP1 SLOAD SWAP1 PUSH2 0x100 EXP SWAP1 DIV PUSH1 0xFF AND DUP2 JUMP JUMPDEST PUSH1 0x8 PUSH1 0x0 SWAP1 SLOAD SWAP1 PUSH2 0x100 EXP SWAP1 DIV PUSH20 0xFFFFFFFFFFFFFFFFFFFFFFFFFFFFFFFFFFFFFFFF AND DUP2 JUMP JUMPDEST PUSH1 0x0 DUP1 SLOAD SWAP1 PUSH2 0x100 EXP SWAP1 DIV PUSH20 0xFFFFFFFFFFFFFFFFFFFFFFFFFFFFFFFFFFFFFFFF AND PUSH20 0xFFFFFFFFFFFFFFFFFFFFFFFFFFFFFFFFFFFFFFFF AND CALLER PUSH20 0xFFFFFFFFFFFFFFFFFFFFFFFFFFFFFFFFFFFFFFFF AND EQ PUSH2 0x3E9 JUMPI PUSH1 0x40 MLOAD PUSH32 0x8C379A000000000000000000000000000000000000000000000000000000000 DUP2 MSTORE PUSH1 0x4 ADD PUSH2 0x3E0 SWAP1 PUSH2 0x107D JUMP JUMPDEST PUSH1 0x40 MLOAD DUP1 SWAP2 SUB SWAP1 REVERT JUMPDEST PUSH1 0x2 PUSH1 0x4 DUP2 GT ISZERO PUSH2 0x3FD JUMPI PUSH2 0x3FC PUSH2 0xEB8 JUMP JUMPDEST JUMPDEST PUSH1 0x7 PUSH1 0x0 SWAP1 SLOAD SWAP1 PUSH2 0x100 EXP SWAP1 DIV PUSH1 0xFF AND PUSH1 0x4 DUP2 GT ISZERO PUSH2 0x41F JUMPI PUSH2 0x41E PUSH2 0xEB8 JUMP JUMPDEST JUMPDEST EQ PUSH2 0x45F JUMPI PUSH1 0x40 MLOAD PUSH32 0x8C379A000000000000000000000000000000000000000000000000000000000 DUP2 MSTORE PUSH1 0x4 ADD PUSH2 0x456 SWAP1 PUSH2 0x10E9 JUMP JUMPDEST PUSH1 0x40 MLOAD DUP1 SWAP2 SUB SWAP1 REVERT JUMPDEST PUSH1 0x0 PUSH2 0x2710 PUSH1 0x3 SLOAD PUSH1 0x2 SLOAD PUSH2 0x474 SWAP2 SWAP1 PUSH2 0x1138 JUMP JUMPDEST PUSH2 0x47E SWAP2 SWAP1 PUSH2 0x11A9 JUMP JUMPDEST SWAP1 POP PUSH1 0x0 DUP2 PUSH1 0x2 SLOAD PUSH2 0x490 SWAP2 SWAP1 PUSH2 0x11DA JUMP JUMPDEST SWAP1 POP DUP1 CALLVALUE LT ISZERO PUSH2 0x4D5 JUMPI PUSH1 0x40 MLOAD PUSH32 0x8C379A000000000000000000000000000000000000000000000000000000000 DUP2 MSTORE PUSH1 0x4 ADD PUSH2 0x4CC SWAP1 PUSH2 0x125A JUMP JUMPDEST PUSH1 0x40 MLOAD DUP1 SWAP2 SUB SWAP1 REVERT JUMPDEST PUSH1 0x3 PUSH1 0x7 PUSH1 0x0 PUSH2 0x100 EXP DUP2 SLOAD DUP2 PUSH1 0xFF MUL NOT AND SWAP1 DUP4 PUSH1 0x4 DUP2 GT ISZERO PUSH2 0x4FB JUMPI PUSH2 0x4FA PUSH2 0xEB8 JUMP JUMPDEST JUMPDEST MUL OR SWAP1 SSTORE POP PUSH1 0x0 PUSH1 0x6 SLOAD TIMESTAMP GT ISZERO SWAP1 POP PUSH1 0x8 PUSH1 0x0 SWAP1 SLOAD SWAP1 PUSH2 0x100 EXP SWAP1 DIV PUSH20 0xFFFFFFFFFFFFFFFFFFFFFFFFFFFFFFFFFFFFFFFF AND PUSH20 0xFFFFFFFFFFFFFFFFFFFFFFFFFFFFFFFFFFFFFFFF AND PUSH4 0xC48F1392 PUSH1 0x0 DUP1 SLOAD SWAP1 PUSH2 0x100 EXP SWAP1 DIV PUSH20 0xFFFFFFFFFFFFFFFFFFFFFFFFFFFFFFFFFFFFFFFF AND PUSH1 0x2 SLOAD DUP5 PUSH1 0x40 MLOAD DUP5 PUSH4 0xFFFFFFFF AND PUSH1 0xE0 SHL DUP2 MSTORE PUSH1 0x4 ADD PUSH2 0x58B SWAP4 SWAP3 SWAP2 SWAP1 PUSH2 0x1295 JUMP JUMPDEST PUSH1 0x0 PUSH1 0x40 MLOAD DUP1 DUP4 SUB DUP2 PUSH1 0x0 DUP8 DUP1 EXTCODESIZE ISZERO DUP1 ISZERO PUSH2 0x5A5 JUMPI PUSH1 0x0 DUP1 REVERT JUMPDEST POP GAS CALL ISZERO DUP1 ISZERO PUSH2 0x5B9 JUMPI RETURNDATASIZE PUSH1 0x0 DUP1 RETURNDATACOPY RETURNDATASIZE PUSH1 0x0 REVERT JUMPDEST POP POP POP POP PUSH1 0x0 PUSH1 0x1 PUSH1 0x0 SWAP1 SLOAD SWAP1 PUSH2 0x100 EXP SWAP1 DIV PUSH20 0xFFFFFFFFFFFFFFFFFFFFFFFFFFFFFFFFFFFFFFFF AND PUSH20 0xFFFFFFFFFFFFFFFFFFFFFFFFFFFFFFFFFFFFFFFF AND DUP4 PUSH1 0x40 MLOAD PUSH2 0x605 SWAP1 PUSH2 0x12FD JUMP JUMPDEST PUSH1 0x0 PUSH1 0x40 MLOAD DUP1 DUP4 SUB DUP2 DUP6 DUP8 GAS CALL SWAP3 POP POP POP RETURNDATASIZE DUP1 PUSH1 0x0 DUP2 EQ PUSH2 0x642 JUMPI PUSH1 0x40 MLOAD SWAP2 POP PUSH1 0x1F NOT PUSH1 0x3F RETURNDATASIZE ADD AND DUP3 ADD PUSH1 0x40 MSTORE RETURNDATASIZE DUP3 MSTORE RETURNDATASIZE PUSH1 0x0 PUSH1 0x20 DUP5 ADD RETURNDATACOPY PUSH2 0x647 JUMP JUMPDEST PUSH1 0x60 SWAP2 POP JUMPDEST POP POP SWAP1 POP DUP1 PUSH2 0x68B JUMPI PUSH1 0x40 MLOAD PUSH32 0x8C379A000000000000000000000000000000000000000000000000000000000 DUP2 MSTORE PUSH1 0x4 ADD PUSH2 0x682 SWAP1 PUSH2 0x135E JUMP JUMPDEST PUSH1 0x40 MLOAD DUP1 SWAP2 SUB SWAP1 REVERT JUMPDEST PUSH1 0x0 DUP4 CALLVALUE PUSH2 0x699 SWAP2 SWAP1 PUSH2 0x137E JUMP JUMPDEST SWAP1 POP PUSH1 0x0 DUP2 GT ISZERO PUSH2 0x773 JUMPI PUSH1 0x0 DUP1 PUSH1 0x0 SWAP1 SLOAD SWAP1 PUSH2 0x100 EXP SWAP1 DIV PUSH20 0xFFFFFFFFFFFFFFFFFFFFFFFFFFFFFFFFFFFFFFFF AND PUSH20 0xFFFFFFFFFFFFFFFFFFFFFFFFFFFFFFFFFFFFFFFF AND DUP3 PUSH1 0x40 MLOAD PUSH2 0x6EB SWAP1 PUSH2 0x12FD JUMP JUMPDEST PUSH1 0x0 PUSH1 0x40 MLOAD DUP1 DUP4 SUB DUP2 DUP6 DUP8 GAS CALL SWAP3 POP POP POP RETURNDATASIZE DUP1 PUSH1 0x0 DUP2 EQ PUSH2 0x728 JUMPI PUSH1 0x40 MLOAD SWAP2 POP PUSH1 0x1F NOT PUSH1 0x3F RETURNDATASIZE ADD AND DUP3 ADD PUSH1 0x40 MSTORE RETURNDATASIZE DUP3 MSTORE RETURNDATASIZE PUSH1 0x0 PUSH1 0x20 DUP5 ADD RETURNDATACOPY PUSH2 0x72D JUMP JUMPDEST PUSH1 0x60 SWAP2 POP JUMPDEST POP POP SWAP1 POP DUP1 PUSH2 0x771 JUMPI PUSH1 0x40 MLOAD PUSH32 0x8C379A000000000000000000000000000000000000000000000000000000000 DUP2 MSTORE PUSH1 0x4 ADD PUSH2 0x768 SWAP1 PUSH2 0x13FE JUMP JUMPDEST PUSH1 0x40 MLOAD DUP1 SWAP2 SUB SWAP1 REVERT JUMPDEST POP JUMPDEST PUSH1 0x0 DUP1 SLOAD SWAP1 PUSH2 0x100 EXP SWAP1 DIV PUSH20 0xFFFFFFFFFFFFFFFFFFFFFFFFFFFFFFFFFFFFFFFF AND PUSH20 0xFFFFFFFFFFFFFFFFFFFFFFFFFFFFFFFFFFFFFFFF AND PUSH32 0xC7CE0A35F17B490DE2A317E7FECB2CAE86B1ABFFB03800B2F492823521382698 PUSH1 0x2 SLOAD DUP8 PUSH1 0x40 MLOAD PUSH2 0x7DD SWAP3 SWAP2 SWAP1 PUSH2 0x141E JUMP JUMPDEST PUSH1 0x40 MLOAD DUP1 SWAP2 SUB SWAP1 LOG2 POP POP POP POP POP JUMP JUMPDEST PUSH1 0x0 DUP1 SLOAD SWAP1 PUSH2 0x100 EXP SWAP1 DIV PUSH20 0xFFFFFFFFFFFFFFFFFFFFFFFFFFFFFFFFFFFFFFFF AND DUP2 JUMP JUMPDEST PUSH1 0x4 SLOAD DUP2 JUMP JUMPDEST PUSH1 0x5 SLOAD DUP2 JUMP JUMPDEST PUSH1 0x0 PUSH1 0x4 DUP2 GT ISZERO PUSH2 0x830 JUMPI PUSH2 0x82F PUSH2 0xEB8 JUMP JUMPDEST JUMPDEST PUSH1 0x7 PUSH1 0x0 SWAP1 SLOAD SWAP1 PUSH2 0x100 EXP SWAP1 DIV PUSH1 0xFF AND PUSH1 0x4 DUP2 GT ISZERO PUSH2 0x852 JUMPI PUSH2 0x851 PUSH2 0xEB8 JUMP JUMPDEST JUMPDEST EQ PUSH2 0x892 JUMPI PUSH1 0x40 MLOAD PUSH32 0x8C379A000000000000000000000000000000000000000000000000000000000 DUP2 MSTORE PUSH1 0x4 ADD PUSH2 0x889 SWAP1 PUSH2 0x10E9 JUMP JUMPDEST PUSH1 0x40 MLOAD DUP1 SWAP2 SUB SWAP1 REVERT JUMPDEST PUSH1 0x2 SLOAD CALLVALUE LT ISZERO PUSH2 0x8D7 JUMPI PUSH1 0x40 MLOAD PUSH32 0x8C379A000000000000000000000000000000000000000000000000000000000 DUP2 MSTORE PUSH1 0x4 ADD PUSH2 0x8CE SWAP1 PUSH2 0x1493 JUMP JUMPDEST PUSH1 0x40 MLOAD DUP1 SWAP2 SUB SWAP1 REVERT JUMPDEST PUSH1 0x0 DUP1 SLOAD SWAP1 PUSH2 0x100 EXP SWAP1 DIV PUSH20 0xFFFFFFFFFFFFFFFFFFFFFFFFFFFFFFFFFFFFFFFF AND PUSH20 0xFFFFFFFFFFFFFFFFFFFFFFFFFFFFFFFFFFFFFFFF AND CALLER PUSH20 0xFFFFFFFFFFFFFFFFFFFFFFFFFFFFFFFFFFFFFFFF AND SUB PUSH2 0x965 JUMPI PUSH1 0x40 MLOAD PUSH32 0x8C379A000000000000000000000000000000000000000000000000000000000 DUP2 MSTORE PUSH1 0x4 ADD PUSH2 0x95C SWAP1 PUSH2 0x14FF JUMP JUMPDEST PUSH1 0x40 MLOAD DUP1 SWAP2 SUB SWAP1 REVERT JUMPDEST CALLER PUSH1 0x1 PUSH1 0x0 PUSH2 0x100 EXP DUP2 SLOAD DUP2 PUSH20 0xFFFFFFFFFFFFFFFFFFFFFFFFFFFFFFFFFFFFFFFF MUL NOT AND SWAP1 DUP4 PUSH20 0xFFFFFFFFFFFFFFFFFFFFFFFFFFFFFFFFFFFFFFFF AND MUL OR SWAP1 SSTORE POP TIMESTAMP PUSH1 0x5 DUP2 SWAP1 SSTORE POP PUSH3 0x15180 PUSH1 0x4 SLOAD PUSH2 0x9BE SWAP2 SWAP1 PUSH2 0x1138 JUMP JUMPDEST TIMESTAMP PUSH2 0x9C9 SWAP2 SWAP1 PUSH2 0x11DA JUMP JUMPDEST PUSH1 0x6 DUP2 SWAP1 SSTORE POP PUSH1 0x2 PUSH1 0x7 PUSH1 0x0 PUSH2 0x100 EXP DUP2 SLOAD DUP2 PUSH1 0xFF MUL NOT AND SWAP1 DUP4 PUSH1 0x4 DUP2 GT ISZERO PUSH2 0x9F5 JUMPI PUSH2 0x9F4 PUSH2 0xEB8 JUMP JUMPDEST JUMPDEST MUL OR SWAP1 SSTORE POP PUSH1 0x1 PUSH1 0x0 SWAP1 SLOAD SWAP1 PUSH2 0x100 EXP SWAP1 DIV PUSH20 0xFFFFFFFFFFFFFFFFFFFFFFFFFFFFFFFFFFFFFFFF AND PUSH20 0xFFFFFFFFFFFFFFFFFFFFFFFFFFFFFFFFFFFFFFFF AND PUSH32 0x726D5F1A838FE31748F737FA3AE5539CCFF95952ADFC593A1299532B643FF7A8 PUSH1 0x2 SLOAD PUSH1 0x40 MLOAD PUSH2 0xA64 SWAP2 SWAP1 PUSH2 0xE9D JUMP JUMPDEST PUSH1 0x40 MLOAD DUP1 SWAP2 SUB SWAP1 LOG2 JUMP JUMPDEST PUSH1 0x2 SLOAD DUP2 JUMP JUMPDEST PUSH1 0x1 PUSH1 0x0 SWAP1 SLOAD SWAP1 PUSH2 0x100 EXP SWAP1 DIV PUSH20 0xFFFFFFFFFFFFFFFFFFFFFFFFFFFFFFFFFFFFFFFF AND DUP2 JUMP JUMPDEST PUSH3 0x3F480 DUP2 JUMP JUMPDEST PUSH1 0x7 PUSH1 0x1 SWAP1 SLOAD SWAP1 PUSH2 0x100 EXP SWAP1 DIV PUSH20 0xFFFFFFFFFFFFFFFFFFFFFFFFFFFFFFFFFFFFFFFF AND DUP2 JUMP JUMPDEST PUSH1 0x3 SLOAD DUP2 JUMP JUMPDEST PUSH1 0x0 DUP1 PUSH2 0x2710 PUSH1 0x3 SLOAD PUSH1 0x2 SLOAD PUSH2 0xAE3 SWAP2 SWAP1 PUSH2 0x1138 JUMP JUMPDEST PUSH2 0xAED SWAP2 SWAP1 PUSH2 0x11A9 JUMP JUMPDEST SWAP1 POP DUP1 PUSH1 0x2 SLOAD PUSH2 0xAFD SWAP2 SWAP1 PUSH2 0x11DA JUMP JUMPDEST SWAP2 POP POP SWAP1 JUMP JUMPDEST PUSH1 0x2 PUSH1 0x4 DUP2 GT ISZERO PUSH2 0xB17 JUMPI PUSH2 0xB16 PUSH2 0xEB8 JUMP JUMPDEST JUMPDEST PUSH1 0x7 PUSH1 0x0 SWAP1 SLOAD SWAP1 PUSH2 0x100 EXP SWAP1 DIV PUSH1 0xFF AND PUSH1 0x4 DUP2 GT ISZERO PUSH2 0xB39 JUMPI PUSH2 0xB38 PUSH2 0xEB8 JUMP JUMPDEST JUMPDEST EQ PUSH2 0xB79 JUMPI PUSH1 0x40 MLOAD PUSH32 0x8C379A000000000000000000000000000000000000000000000000000000000 DUP2 MSTORE PUSH1 0x4 ADD PUSH2 0xB70 SWAP1 PUSH2 0x10E9 JUMP JUMPDEST PUSH1 0x40 MLOAD DUP1 SWAP2 SUB SWAP1 REVERT JUMPDEST PUSH1 0x7 PUSH1 0x1 SWAP1 SLOAD SWAP1 PUSH2 0x100 EXP SWAP1 DIV PUSH20 0xFFFFFFFFFFFFFFFFFFFFFFFFFFFFFFFFFFFFFFFF AND PUSH20 0xFFFFFFFFFFFFFFFFFFFFFFFFFFFFFFFFFFFFFFFF AND CALLER PUSH20 0xFFFFFFFFFFFFFFFFFFFFFFFFFFFFFFFFFFFFFFFF AND EQ PUSH2 0xC25 JUMPI PUSH3 0x3F480 PUSH1 0x6 SLOAD PUSH2 0xBDF SWAP2 SWAP1 PUSH2 0x11DA JUMP JUMPDEST TIMESTAMP GT PUSH2 0xC20 JUMPI PUSH1 0x40 MLOAD PUSH32 0x8C379A000000000000000000000000000000000000000000000000000000000 DUP2 MSTORE PUSH1 0x4 ADD PUSH2 0xC17 SWAP1 PUSH2 0x156B JUMP JUMPDEST PUSH1 0x40 MLOAD DUP1 SWAP2 SUB SWAP1 REVERT JUMPDEST PUSH2 0xC6A JUMP JUMPDEST PUSH1 0x6 SLOAD TIMESTAMP GT PUSH2 0xC69 JUMPI PUSH1 0x40 MLOAD PUSH32 0x8C379A000000000000000000000000000000000000000000000000000000000 DUP2 MSTORE PUSH1 0x4 ADD PUSH2 0xC60 SWAP1 PUSH2 0x15D7 JUMP JUMPDEST PUSH1 0x40 MLOAD DUP1 SWAP2 SUB SWAP1 REVERT JUMPDEST JUMPDEST PUSH1 0x4 PUSH1 0x7 PUSH1 0x0 PUSH2 0x100 EXP DUP2 SLOAD DUP2 PUSH1 0xFF MUL NOT AND SWAP1 DUP4 PUSH1 0x4 DUP2 GT ISZERO PUSH2 0xC90 JUMPI PUSH2 0xC8F PUSH2 0xEB8 JUMP JUMPDEST JUMPDEST MUL OR SWAP1 SSTORE POP PUSH1 0x8 PUSH1 0x0 SWAP1 SLOAD SWAP1 PUSH2 0x100 EXP SWAP1 DIV PUSH20 0xFFFFFFFFFFFFFFFFFFFFFFFFFFFFFFFFFFFFFFFF AND PUSH20 0xFFFFFFFFFFFFFFFFFFFFFFFFFFFFFFFFFFFFFFFF AND PUSH4 0xCD4544F2 PUSH1 0x0 DUP1 SLOAD SWAP1 PUSH2 0x100 EXP SWAP1 DIV PUSH20 0xFFFFFFFFFFFFFFFFFFFFFFFFFFFFFFFFFFFFFFFF AND PUSH1 0x2 SLOAD PUSH1 0x40 MLOAD DUP4 PUSH4 0xFFFFFFFF AND PUSH1 0xE0 SHL DUP2 MSTORE PUSH1 0x4 ADD PUSH2 0xD14 SWAP3 SWAP2 SWAP1 PUSH2 0x15F7 JUMP JUMPDEST PUSH1 0x0 PUSH1 0x40 MLOAD DUP1 DUP4 SUB DUP2 PUSH1 0x0 DUP8 DUP1 EXTCODESIZE ISZERO DUP1 ISZERO PUSH2 0xD2E JUMPI PUSH1 0x0 DUP1 REVERT JUMPDEST POP GAS CALL ISZERO DUP1 ISZERO PUSH2 0xD42 JUMPI RETURNDATASIZE PUSH1 0x0 DUP1 RETURNDATACOPY RETURNDATASIZE PUSH1 0x0 REVERT JUMPDEST POP POP POP POP PUSH1 0x0 SELFBALANCE GT ISZERO PUSH2 0xE1F JUMPI PUSH1 0x0 PUSH1 0x1 PUSH1 0x0 SWAP1 SLOAD SWAP1 PUSH2 0x100 EXP SWAP1 DIV PUSH20 0xFFFFFFFFFFFFFFFFFFFFFFFFFFFFFFFFFFFFFFFF AND PUSH20 0xFFFFFFFFFFFFFFFFFFFFFFFFFFFFFFFFFFFFFFFF AND SELFBALANCE PUSH1 0x40 MLOAD PUSH2 0xD97 SWAP1 PUSH2 0x12FD JUMP JUMPDEST PUSH1 0x0 PUSH1 0x40 MLOAD DUP1 DUP4 SUB DUP2 DUP6 DUP8 GAS CALL SWAP3 POP POP POP RETURNDATASIZE DUP1 PUSH1 0x0 DUP2 EQ PUSH2 0xDD4 JUMPI PUSH1 0x40 MLOAD SWAP2 POP PUSH1 0x1F NOT PUSH1 0x3F RETURNDATASIZE ADD AND DUP3 ADD PUSH1 0x40 MSTORE RETURNDATASIZE DUP3 MSTORE RETURNDATASIZE PUSH1 0x0 PUSH1 0x20 DUP5 ADD RETURNDATACOPY PUSH2 0xDD9 JUMP JUMPDEST PUSH1 0x60 SWAP2 POP JUMPDEST POP POP SWAP1 POP DUP1 PUSH2 0xE1D JUMPI PUSH1 0x40 MLOAD PUSH32 0x8C379A000000000000000000000000000000000000000000000000000000000 DUP2 MSTORE PUSH1 0x4 ADD PUSH2 0xE14 SWAP1 PUSH2 0x135E JUMP JUMPDEST PUSH1 0x40 MLOAD DUP1 SWAP2 SUB SWAP1 REVERT JUMPDEST POP JUMPDEST PUSH1 0x0 DUP1 SLOAD SWAP1 PUSH2 0x100 EXP SWAP1 DIV PUSH20 0xFFFFFFFFFFFFFFFFFFFFFFFFFFFFFFFFFFFFFFFF AND PUSH20 0xFFFFFFFFFFFFFFFFFFFFFFFFFFFFFFFFFFFFFFFF AND PUSH32 0xF4E5CF42CBB1D0C6C91E16D925349FEB6C5D970652F6EC77B1FF1262F7284CD5 PUSH1 0x40 MLOAD PUSH1 0x40 MLOAD DUP1 SWAP2 SUB SWAP1 LOG2 JUMP JUMPDEST PUSH1 0x0 DUP2 SWAP1 POP SWAP2 SWAP1 POP JUMP JUMPDEST PUSH2 0xE97 DUP2 PUSH2 0xE84 JUMP JUMPDEST DUP3 MSTORE POP POP JUMP JUMPDEST PUSH1 0x0 PUSH1 0x20 DUP3 ADD SWAP1 POP PUSH2 0xEB2 PUSH1 0x0 DUP4 ADD DUP5 PUSH2 0xE8E JUMP JUMPDEST SWAP3 SWAP2 POP POP JUMP JUMPDEST PUSH32 0x4E487B7100000000000000000000000000000000000000000000000000000000 PUSH1 0x0 MSTORE PUSH1 0x21 PUSH1 0x4 MSTORE PUSH1 0x24 PUSH1 0x0 REVERT JUMPDEST PUSH1 0x5 DUP2 LT PUSH2 0xEF8 JUMPI PUSH2 0xEF7 PUSH2 0xEB8 JUMP JUMPDEST JUMPDEST POP JUMP JUMPDEST PUSH1 0x0 DUP2 SWAP1 POP PUSH2 0xF09 DUP3 PUSH2 0xEE7 JUMP JUMPDEST SWAP2 SWAP1 POP JUMP JUMPDEST PUSH1 0x0 PUSH2 0xF19 DUP3 PUSH2 0xEFB JUMP JUMPDEST SWAP1 POP SWAP2 SWAP1 POP JUMP JUMPDEST PUSH2 0xF29 DUP2 PUSH2 0xF0E JUMP JUMPDEST DUP3 MSTORE POP POP JUMP JUMPDEST PUSH1 0x0 PUSH1 0x20 DUP3 ADD SWAP1 POP PUSH2 0xF44 PUSH1 0x0 DUP4 ADD DUP5 PUSH2 0xF20 JUMP JUMPDEST SWAP3 SWAP2 POP POP JUMP JUMPDEST PUSH1 0x0 PUSH20 0xFFFFFFFFFFFFFFFFFFFFFFFFFFFFFFFFFFFFFFFF DUP3 AND SWAP1 POP SWAP2 SWAP1 POP JUMP JUMPDEST PUSH1 0x0 DUP2 SWAP1 POP SWAP2 SWAP1 POP JUMP JUMPDEST PUSH1 0x0 PUSH2 0xF8F PUSH2 0xF8A PUSH2 0xF85 DUP5 PUSH2 0xF4A JUMP JUMPDEST PUSH2 0xF6A JUMP JUMPDEST PUSH2 0xF4A JUMP JUMPDEST SWAP1 POP SWAP2 SWAP1 POP JUMP JUMPDEST PUSH1 0x0 PUSH2 0xFA1 DUP3 PUSH2 0xF74 JUMP JUMPDEST SWAP1 POP SWAP2 SWAP1 POP JUMP JUMPDEST PUSH1 0x0 PUSH2 0xFB3 DUP3 PUSH2 0xF96 JUMP JUMPDEST SWAP1 POP SWAP2 SWAP1 POP JUMP JUMPDEST PUSH2 0xFC3 DUP2 PUSH2 0xFA8 JUMP JUMPDEST DUP3 MSTORE POP POP JUMP JUMPDEST PUSH1 0x0 PUSH1 0x20 DUP3 ADD SWAP1 POP PUSH2 0xFDE PUSH1 0x0 DUP4 ADD DUP5 PUSH2 0xFBA JUMP JUMPDEST SWAP3 SWAP2 POP POP JUMP JUMPDEST PUSH1 0x0 PUSH2 0xFEF DUP3 PUSH2 0xF4A JUMP JUMPDEST SWAP1 POP SWAP2 SWAP1 POP JUMP JUMPDEST PUSH2 0xFFF DUP2 PUSH2 0xFE4 JUMP JUMPDEST DUP3 MSTORE POP POP JUMP JUMPDEST PUSH1 0x0 PUSH1 0x20 DUP3 ADD SWAP1 POP PUSH2 0x101A PUSH1 0x0 DUP4 ADD DUP5 PUSH2 0xFF6 JUMP JUMPDEST SWAP3 SWAP2 POP POP JUMP JUMPDEST PUSH1 0x0 DUP3 DUP3 MSTORE PUSH1 0x20 DUP3 ADD SWAP1 POP SWAP3 SWAP2 POP POP JUMP JUMPDEST PUSH32 0x4F6E6C7920626F72726F77657200000000000000000000000000000000000000 PUSH1 0x0 DUP3 ADD MSTORE POP JUMP JUMPDEST PUSH1 0x0 PUSH2 0x1067 PUSH1 0xD DUP4 PUSH2 0x1020 JUMP JUMPDEST SWAP2 POP PUSH2 0x1072 DUP3 PUSH2 0x1031 JUMP JUMPDEST PUSH1 0x20 DUP3 ADD SWAP1 POP SWAP2 SWAP1 POP JUMP JUMPDEST PUSH1 0x0 PUSH1 0x20 DUP3 ADD SWAP1 POP DUP2 DUP2 SUB PUSH1 0x0 DUP4 ADD MSTORE PUSH2 0x1096 DUP2 PUSH2 0x105A JUMP JUMPDEST SWAP1 POP SWAP2 SWAP1 POP JUMP JUMPDEST PUSH32 0x496E76616C696420737461747573000000000000000000000000000000000000 PUSH1 0x0 DUP3 ADD MSTORE POP JUMP JUMPDEST PUSH1 0x0 PUSH2 0x10D3 PUSH1 0xE DUP4 PUSH2 0x1020 JUMP JUMPDEST SWAP2 POP PUSH2 0x10DE DUP3 PUSH2 0x109D JUMP JUMPDEST PUSH1 0x20 DUP3 ADD SWAP1 POP SWAP2 SWAP1 POP JUMP JUMPDEST PUSH1 0x0 PUSH1 0x20 DUP3 ADD SWAP1 POP DUP2 DUP2 SUB PUSH1 0x0 DUP4 ADD MSTORE PUSH2 0x1102 DUP2 PUSH2 0x10C6 JUMP JUMPDEST SWAP1 POP SWAP2 SWAP1 POP JUMP JUMPDEST PUSH32 0x4E487B7100000000000000000000000000000000000000000000000000000000 PUSH1 0x0 MSTORE PUSH1 0x11 PUSH1 0x4 MSTORE PUSH1 0x24 PUSH1 0x0 REVERT JUMPDEST PUSH1 0x0 PUSH2 0x1143 DUP3 PUSH2 0xE84 JUMP JUMPDEST SWAP2 POP PUSH2 0x114E DUP4 PUSH2 0xE84 JUMP JUMPDEST SWAP3 POP DUP3 DUP3 MUL PUSH2 0x115C DUP2 PUSH2 0xE84 JUMP JUMPDEST SWAP2 POP DUP3 DUP3 DIV DUP5 EQ DUP4 ISZERO OR PUSH2 0x1173 JUMPI PUSH2 0x1172 PUSH2 0x1109 JUMP JUMPDEST JUMPDEST POP SWAP3 SWAP2 POP POP JUMP JUMPDEST PUSH32 0x4E487B7100000000000000000000000000000000000000000000000000000000 PUSH1 0x0 MSTORE PUSH1 0x12 PUSH1 0x4 MSTORE PUSH1 0x24 PUSH1 0x0 REVERT JUMPDEST PUSH1 0x0 PUSH2 0x11B4 DUP3 PUSH2 0xE84 JUMP JUMPDEST SWAP2 POP PUSH2 0x11BF DUP4 PUSH2 0xE84 JUMP JUMPDEST SWAP3 POP DUP3 PUSH2 0x11CF JUMPI PUSH2 0x11CE PUSH2 0x117A JUMP JUMPDEST JUMPDEST DUP3 DUP3 DIV SWAP1 POP SWAP3 SWAP2 POP POP JUMP JUMPDEST PUSH1 0x0 PUSH2 0x11E5 DUP3 PUSH2 0xE84 JUMP JUMPDEST SWAP2 POP PUSH2 0x11F0 DUP4 PUSH2 0xE84 JUMP JUMPDEST SWAP3 POP DUP3 DUP3 ADD SWAP1 POP DUP1 DUP3 GT ISZERO PUSH2 0x1208 JUMPI PUSH2 0x1207 PUSH2 0x1109 JUMP JUMPDEST JUMPDEST SWAP3 SWAP2 POP POP JUMP JUMPDEST PUSH32 0x496E73756666696369656E742072657061796D656E7400000000000000000000 PUSH1 0x0 DUP3 ADD MSTORE POP JUMP JUMPDEST PUSH1 0x0 PUSH2 0x1244 PUSH1 0x16 DUP4 PUSH2 0x1020 JUMP JUMPDEST SWAP2 POP PUSH2 0x124F DUP3 PUSH2 0x120E JUMP JUMPDEST PUSH1 0x20 DUP3 ADD SWAP1 POP SWAP2 SWAP1 POP JUMP JUMPDEST PUSH1 0x0 PUSH1 0x20 DUP3 ADD SWAP1 POP DUP2 DUP2 SUB PUSH1 0x0 DUP4 ADD MSTORE PUSH2 0x1273 DUP2 PUSH2 0x1237 JUMP JUMPDEST SWAP1 POP SWAP2 SWAP1 POP JUMP JUMPDEST PUSH1 0x0 DUP2 ISZERO ISZERO SWAP1 POP SWAP2 SWAP1 POP JUMP JUMPDEST PUSH2 0x128F DUP2 PUSH2 0x127A JUMP JUMPDEST DUP3 MSTORE POP POP JUMP JUMPDEST PUSH1 0x0 PUSH1 0x60 DUP3 ADD SWAP1 POP PUSH2 0x12AA PUSH1 0x0 DUP4 ADD DUP7 PUSH2 0xFF6 JUMP JUMPDEST PUSH2 0x12B7 PUSH1 0x20 DUP4 ADD DUP6 PUSH2 0xE8E JUMP JUMPDEST PUSH2 0x12C4 PUSH1 0x40 DUP4 ADD DUP5 PUSH2 0x1286 JUMP JUMPDEST SWAP5 SWAP4 POP POP POP POP JUMP JUMPDEST PUSH1 0x0 DUP2 SWAP1 POP SWAP3 SWAP2 POP POP JUMP JUMPDEST POP JUMP JUMPDEST PUSH1 0x0 PUSH2 0x12E7 PUSH1 0x0 DUP4 PUSH2 0x12CC JUMP JUMPDEST SWAP2 POP PUSH2 0x12F2 DUP3 PUSH2 0x12D7 JUMP JUMPDEST PUSH1 0x0 DUP3 ADD SWAP1 POP SWAP2 SWAP1 POP JUMP JUMPDEST PUSH1 0x0 PUSH2 0x1308 DUP3 PUSH2 0x12DA JUMP JUMPDEST SWAP2 POP DUP2 SWAP1 POP SWAP2 SWAP1 POP JUMP JUMPDEST PUSH32 0x5472616E73666572206661696C65640000000000000000000000000000000000 PUSH1 0x0 DUP3 ADD MSTORE POP JUMP JUMPDEST PUSH1 0x0 PUSH2 0x1348 PUSH1 0xF DUP4 PUSH2 0x1020 JUMP JUMPDEST SWAP2 POP PUSH2 0x1353 DUP3 PUSH2 0x1312 JUMP JUMPDEST PUSH1 0x20 DUP3 ADD SWAP1 POP SWAP2 SWAP1 POP JUMP JUMPDEST PUSH1 0x0 PUSH1 0x20 DUP3 ADD SWAP1 POP DUP2 DUP2 SUB PUSH1 0x0 DUP4 ADD MSTORE PUSH2 0x1377 DUP2 PUSH2 0x133B JUMP JUMPDEST SWAP1 POP SWAP2 SWAP1 POP JUMP JUMPDEST PUSH1 0x0 PUSH2 0x1389 DUP3 PUSH2 0xE84 JUMP JUMPDEST SWAP2 POP PUSH2 0x1394 DUP4 PUSH2 0xE84 JUMP JUMPDEST SWAP3 POP DUP3 DUP3 SUB SWAP1 POP DUP2 DUP2 GT ISZERO PUSH2 0x13AC JUMPI PUSH2 0x13AB PUSH2 0x1109 JUMP JUMPDEST JUMPDEST SWAP3 SWAP2 POP POP JUMP JUMPDEST PUSH32 0x526566756E64206661696C656400000000000000000000000000000000000000 PUSH1 0x0 DUP3 ADD MSTORE POP JUMP JUMPDEST PUSH1 0x0 PUSH2 0x13E8 PUSH1 0xD DUP4 PUSH2 0x1020 JUMP JUMPDEST SWAP2 POP PUSH2 0x13F3 DUP3 PUSH2 0x13B2 JUMP JUMPDEST PUSH1 0x20 DUP3 ADD SWAP1 POP SWAP2 SWAP1 POP JUMP JUMPDEST PUSH1 0x0 PUSH1 0x20 DUP3 ADD SWAP1 POP DUP2 DUP2 SUB PUSH1 0x0 DUP4 ADD MSTORE PUSH2 0x1417 DUP2 PUSH2 0x13DB JUMP JUMPDEST SWAP1 POP SWAP2 SWAP1 POP JUMP JUMPDEST PUSH1 0x0 PUSH1 0x40 DUP3 ADD SWAP1 POP PUSH2 0x1433 PUSH1 0x0 DUP4 ADD DUP6 PUSH2 0xE8E JUMP JUMPDEST PUSH2 0x1440 PUSH1 0x20 DUP4 ADD DUP5 PUSH2 0xE8E JUMP JUMPDEST SWAP4 SWAP3 POP POP POP JUMP JUMPDEST PUSH32 0x496E73756666696369656E742066756E64730000000000000000000000000000 PUSH1 0x0 DUP3 ADD MSTORE POP JUMP JUMPDEST PUSH1 0x0 PUSH2 0x147D PUSH1 0x12 DUP4 PUSH2 0x1020 JUMP JUMPDEST SWAP2 POP PUSH2 0x1488 DUP3 PUSH2 0x1447 JUMP JUMPDEST PUSH1 0x20 DUP3 ADD SWAP1 POP SWAP2 SWAP1 POP JUMP JUMPDEST PUSH1 0x0 PUSH1 0x20 DUP3 ADD SWAP1 POP DUP2 DUP2 SUB PUSH1 0x0 DUP4 ADD MSTORE PUSH2 0x14AC DUP2 PUSH2 0x1470 JUMP JUMPDEST SWAP1 POP SWAP2 SWAP1 POP JUMP JUMPDEST PUSH32 0x426F72726F7765722063616E6E6F742066756E64206F776E206C6F616E000000 PUSH1 0x0 DUP3 ADD MSTORE POP JUMP JUMPDEST PUSH1 0x0 PUSH2 0x14E9 PUSH1 0x1D DUP4 PUSH2 0x1020 JUMP JUMPDEST SWAP2 POP PUSH2 0x14F4 DUP3 PUSH2 0x14B3 JUMP JUMPDEST PUSH1 0x20 DUP3 ADD SWAP1 POP SWAP2 SWAP1 POP JUMP JUMPDEST PUSH1 0x0 PUSH1 0x20 DUP3 ADD SWAP1 POP DUP2 DUP2 SUB PUSH1 0x0 DUP4 ADD MSTORE PUSH2 0x1518 DUP2 PUSH2 0x14DC JUMP JUMPDEST SWAP1 POP SWAP2 SWAP1 POP JUMP JUMPDEST PUSH32 0x477261636520706572696F642061637469766500000000000000000000000000 PUSH1 0x0 DUP3 ADD MSTORE POP JUMP JUMPDEST PUSH1 0x0 PUSH2 0x1555 PUSH1 0x13 DUP4 PUSH2 0x1020 JUMP JUMPDEST SWAP2 POP PUSH2 0x1560 DUP3 PUSH2 0x151F JUMP JUMPDEST PUSH1 0x20 DUP3 ADD SWAP1 POP SWAP2 SWAP1 POP JUMP JUMPDEST PUSH1 0x0 PUSH1 0x20 DUP3 ADD SWAP1 POP DUP2 DUP2 SUB PUSH1 0x0 DUP4 ADD MSTORE PUSH2 0x1584 DUP2 PUSH2 0x1548 JUMP JUMPDEST SWAP1 POP SWAP2 SWAP1 POP JUMP JUMPDEST PUSH32 0x4E6F7420796574206F7665726475650000000000000000000000000000000000 PUSH1 0x0 DUP3 ADD MSTORE POP JUMP JUMPDEST PUSH1 0x0 PUSH2 0x15C1 PUSH1 0xF DUP4 PUSH2 0x1020 JUMP JUMPDEST SWAP2 POP PUSH2 0x15CC DUP3 PUSH2 0x158B JUMP JUMPDEST PUSH1 0x20 DUP3 ADD SWAP1 POP SWAP2 SWAP1 POP JUMP JUMPDEST PUSH1 0x0 PUSH1 0x20 DUP3 ADD SWAP1 POP DUP2 DUP2 SUB PUSH1 0x0 DUP4 ADD MSTORE PUSH2 0x15F0 DUP2 PUSH2 0x15B4 JUMP JUMPDEST SWAP1 POP SWAP2 SWAP1 POP JUMP JUMPDEST PUSH1 0x0 PUSH1 0x40 DUP3 ADD SWAP1 POP PUSH2 0x160C PUSH1 0x0 DUP4 ADD DUP6 PUSH2 0xFF6 JUMP JUMPDEST PUSH2 0x1619 PUSH1 0x20 DUP4 ADD DUP5 PUSH2 0xE8E JUMP JUMPDEST SWAP4 SWAP3 POP POP POP JUMP INVALID LOG2 PUSH5 0x6970667358 0x22 SLT KECCAK256 0xE5 0xC9 PUSH10 0x9A2C5B1CF48B24F2EC45 0xD6 0xBF 0x2F MSTORE 0xDE 0xE3 0xD2 0xEC 0xDE DUP1 SWAP16 GT SUB CHAINID CALLDATACOPY 0xE4 0xE9 0xB2 0x29 PUSH5 0x736F6C6343 STOP ADDMOD XOR STOP CALLER "},"methodIdentifiers":{"GRACE_PERIOD()":"c1a287e2","borrower()":"7df1f1b9","creditScore()":"39da3152","durationDays()":"9cd56d03","factory()":"c45a0155","fund()":"b60d4288","fundedAt()":"a9a748ff","getTotalRepayment()":"d746d0b2","interestRateBps()":"c84a208b","lender()":"bcead63e","markDefaulted()":"dd541230","principal()":"ba5d3078","repay()":"402d8883","repaymentDeadline()":"19cc3aaa","status()":"200d2ed2"}}}}}