{
  "_format": "hh-sol-artifact-1",
  "contractName": "LoanContract",
  "sourceName": "contracts/LoanContract.sol",
  "abi": [
    {
      "inputs": [
        {
          "internalType": "address",
          "name": "_borrower",
          "type": "address"
        },
        {
          "internalType": "uint256",
          "name": "_principal",
          "type": "uint256"
        },
        {
          "internalType": "uint256",
          "name": "_interestRate",
          "type": "uint256"
        },
        {
          "internalType": "uint256",
          "name": "_duration",
          "type": "uint256"
        },
        {
          "internalType": "address",
          "name": "_creditScoreContract",
          "type": "address"
        }
      ],
      "stateMutability": "nonpayable",
      "type": "constructor"
    },
    {
      "anonymous": false,
      "inputs": [],
      "name": "LoanDefaulted",
      "type": "event"
    },
    {
      "anonymous": false,
      "inputs": [
        {
          "indexed": true,
          "internalType": "address",
          "name": "lender",
          "type": "address"
        },
        {
          "indexed": false,
          "internalType": "uint256",
          "name": "amount",
          "type": "uint256"
        }
      ],
      "name": "LoanFunded",
      "type": "event"
    },
    {
      "anonymous": false,
      "inputs": [
        {
          "indexed": false,
          "internalType": "uint256",
          "name": "amount",
          "type": "uint256"
        }
      ],
      "name": "LoanRepaid",
      "type": "event"
    },
    {
      "inputs": [],
      "name": "borrower",
      "outputs": [
        {
          "internalType": "address",
          "name": "",
          "type": "address"
        }
      ],
      "stateMutability": "view",
      "type": "function"
    },
    {
      "inputs": [],
      "name": "calculateTotalRepayment",
      "outputs": [
        {
          "internalType": "uint256",
          "name": "",
          "type": "uint256"
        }
      ],
      "stateMutability": "view",
      "type": "function"
    },
    {
      "inputs": [],
      "name": "creditScoreContract",
      "outputs": [
        {
          "internalType": "contract CreditScoreContract",
          "name": "",
          "type": "address"
        }
      ],
      "stateMutability": "view",
      "type": "function"
    },
    {
      "inputs": [],
      "name": "deadline",
      "outputs": [
        {
          "internalType": "uint256",
          "name": "",
          "type": "uint256"
        }
      ],
      "stateMutability": "view",
      "type": "function"
    },
    {
      "inputs": [],
      "name": "duration",
      "outputs": [
        {
          "internalType": "uint256",
          "name": "",
          "type": "uint256"
        }
      ],
      "stateMutability": "view",
      "type": "function"
    },
    {
      "inputs": [],
      "name": "fundLoan",
      "outputs": [],
      "stateMutability": "payable",
      "type": "function"
    },
    {
      "inputs": [],
      "name": "interestRate",
      "outputs": [
        {
          "internalType": "uint256",
          "name": "",
          "type": "uint256"
        }
      ],
      "stateMutability": "view",
      "type": "function"
    },
    {
      "inputs": [],
      "name": "lender",
      "outputs": [
        {
          "internalType": "address",
          "name": "",
          "type": "address"
        }
      ],
      "stateMutability": "view",
      "type": "function"
    },
    {
      "inputs": [],
      "name": "markDefaulted",
      "outputs": [],
      "stateMutability": "nonpayable",
      "type": "function"
    },
    {
      "inputs": [],
      "name": "principal",
      "outputs": [
        {
          "internalType": "uint256",
          "name": "",
          "type": "uint256"
        }
      ],
      "stateMutability": "view",
      "type": "function"
    },
    {
      "inputs": [],
      "name": "repayLoan",
      "outputs": [],
      "stateMutability": "payable",
      "type": "function"
    },
    {
      "inputs": [],
      "name": "status",
      "outputs": [
        {
          "internalType": "enum LoanContract.LoanStatus",
          "name": "",
          "type": "uint8"
        }
      ],
      "stateMutability": "view",
      "type": "function"
    }
  ],
  "bytecode": "0x60806040523480156200001157600080fd5b50604051620011f0380380620011f08339818101604052810190620000379190620001ab565b84600060016101000a81548173ffffffffffffffffffffffffffffffffffffffff021916908373ffffffffffffffffffffffffffffffffffffffff16021790555083600281905550826003819055508160048190555080600660006101000a81548173ffffffffffffffffffffffffffffffffffffffff021916908373ffffffffffffffffffffffffffffffffffffffff16021790555060008060006101000a81548160ff02191690836003811115620000f657620000f562000233565b5b0217905550505050505062000262565b600080fd5b600073ffffffffffffffffffffffffffffffffffffffff82169050919050565b600062000138826200010b565b9050919050565b6200014a816200012b565b81146200015657600080fd5b50565b6000815190506200016a816200013f565b92915050565b6000819050919050565b620001858162000170565b81146200019157600080fd5b50565b600081519050620001a5816200017a565b92915050565b600080600080600060a08688031215620001ca57620001c962000106565b5b6000620001da8882890162000159565b9550506020620001ed8882890162000194565b9450506040620002008882890162000194565b9350506060620002138882890162000194565b9250506080620002268882890162000159565b9150509295509295909350565b7f4e487b7100000000000000000000000000000000000000000000000000000000600052602160045260246000fd5b610f7e80620002726000396000f3fe6080604052600436106100a75760003560e01c80637df1f1b9116100645780637df1f1b9146101ae5780638db57994146101d9578063ba5d3078146101e3578063bcead63e1461020e578063dd54123014610239578063f966ade714610250576100a7565b806303a42b6f146100ac5780630fb5a6b4146100d7578063200d2ed21461010257806329dcb0cf1461012d5780633082a676146101585780637c3a00fd14610183575b600080fd5b3480156100b857600080fd5b506100c161025a565b6040516100ce9190610a49565b60405180910390f35b3480156100e357600080fd5b506100ec610280565b6040516100f99190610a7d565b60405180910390f35b34801561010e57600080fd5b50610117610286565b6040516101249190610b0f565b60405180910390f35b34801561013957600080fd5b50610142610297565b60405161014f9190610a7d565b60405180910390f35b34801561016457600080fd5b5061016d61029d565b60405161017a9190610a7d565b60405180910390f35b34801561018f57600080fd5b506101986102cd565b6040516101a59190610a7d565b60405180910390f35b3480156101ba57600080fd5b506101c36102d3565b6040516101d09190610b4b565b60405180910390f35b6101e16102f9565b005b3480156101ef57600080fd5b506101f861050b565b6040516102059190610a7d565b60405180910390f35b34801561021a57600080fd5b50610223610511565b6040516102309190610b4b565b60405180910390f35b34801561024557600080fd5b5061024e610537565b005b6102586106f9565b005b600660009054906101000a900473ffffffffffffffffffffffffffffffffffffffff1681565b60045481565b60008054906101000a900460ff1681565b60055481565b600060646003546002546102b19190610b95565b6102bb9190610c06565b6002546102c89190610c37565b905090565b60035481565b600060019054906101000a900473ffffffffffffffffffffffffffffffffffffffff1681565b6000600381111561030d5761030c610a98565b5b60008054906101000a900460ff16600381111561032d5761032c610a98565b5b1461036d576040517f08c379a000000000000000000000000000000000000000000000000000000000815260040161036490610cc8565b60405180910390fd5b60025434146103b1576040517f08c379a00000000000000000000000000000000000000000000000000000000081526004016103a890610d34565b60405180910390fd5b33600160006101000a81548173ffffffffffffffffffffffffffffffffffffffff021916908373ffffffffffffffffffffffffffffffffffffffff16021790555060016000806101000a81548160ff0219169083600381111561041757610416610a98565b5b02179055506004544261042a9190610c37565b600581905550600060019054906101000a900473ffffffffffffffffffffffffffffffffffffffff1673ffffffffffffffffffffffffffffffffffffffff166108fc349081150290604051600060405180830381858888f19350505050158015610498573d6000803e3d6000fd5b50600160009054906101000a900473ffffffffffffffffffffffffffffffffffffffff1673ffffffffffffffffffffffffffffffffffffffff167f726d5f1a838fe31748f737fa3ae5539ccff95952adfc593a1299532b643ff7a8346040516105019190610a7d565b60405180910390a2565b60025481565b600160009054906101000a900473ffffffffffffffffffffffffffffffffffffffff1681565b6001600381111561054b5761054a610a98565b5b60008054906101000a900460ff16600381111561056b5761056a610a98565b5b146105ab576040517f08c379a00000000000000000000000000000000000000000000000000000000081526004016105a290610da0565b60405180910390fd5b60055442116105ef576040517f08c379a00000000000000000000000000000000000000000000000000000000081526004016105e690610e0c565b60405180910390fd5b60036000806101000a81548160ff0219169083600381111561061457610613610a98565b5b0217905550600660009054906101000a900473ffffffffffffffffffffffffffffffffffffffff1673ffffffffffffffffffffffffffffffffffffffff166383881311600060019054906101000a900473ffffffffffffffffffffffffffffffffffffffff1660006040518363ffffffff1660e01b8152600401610699929190610e47565b600060405180830381600087803b1580156106b357600080fd5b505af11580156106c7573d6000803e3d6000fd5b505050507f74808f66e345f41c571625ba19284173a379393c1422d815a03553c72d0d49a060405160405180910390a1565b6001600381111561070d5761070c610a98565b5b60008054906101000a900460ff16600381111561072d5761072c610a98565b5b1461076d576040517f08c379a000000000000000000000000000000000000000000000000000000000815260040161076490610da0565b60405180910390fd5b600060019054906101000a900473ffffffffffffffffffffffffffffffffffffffff1673ffffffffffffffffffffffffffffffffffffffff163373ffffffffffffffffffffffffffffffffffffffff16146107fd576040517f08c379a00000000000000000000000000000000000000000000000000000000081526004016107f490610ebc565b60405180910390fd5b600061080761029d565b905080341461084b576040517f08c379a000000000000000000000000000000000000000000000000000000000815260040161084290610f28565b60405180910390fd5b60026000806101000a81548160ff021916908360038111156108705761086f610a98565b5b0217905550600160009054906101000a900473ffffffffffffffffffffffffffffffffffffffff1673ffffffffffffffffffffffffffffffffffffffff166108fc349081150290604051600060405180830381858888f193505050501580156108dd573d6000803e3d6000fd5b50600660009054906101000a900473ffffffffffffffffffffffffffffffffffffffff1673ffffffffffffffffffffffffffffffffffffffff166383881311600060019054906101000a900473ffffffffffffffffffffffffffffffffffffffff1660016040518363ffffffff1660e01b815260040161095e929190610e47565b600060405180830381600087803b15801561097857600080fd5b505af115801561098c573d6000803e3d6000fd5b505050507f9a7851747cd7ffb3fe0a32caf3da48b31f27cebe131267051640f8b72fc47186346040516109bf9190610a7d565b60405180910390a150565b600073ffffffffffffffffffffffffffffffffffffffff82169050919050565b6000819050919050565b6000610a0f610a0a610a05846109ca565b6109ea565b6109ca565b9050919050565b6000610a21826109f4565b9050919050565b6000610a3382610a16565b9050919050565b610a4381610a28565b82525050565b6000602082019050610a5e6000830184610a3a565b92915050565b6000819050919050565b610a7781610a64565b82525050565b6000602082019050610a926000830184610a6e565b92915050565b7f4e487b7100000000000000000000000000000000000000000000000000000000600052602160045260246000fd5b60048110610ad857610ad7610a98565b5b50565b6000819050610ae982610ac7565b919050565b6000610af982610adb565b9050919050565b610b0981610aee565b82525050565b6000602082019050610b246000830184610b00565b92915050565b6000610b35826109ca565b9050919050565b610b4581610b2a565b82525050565b6000602082019050610b606000830184610b3c565b92915050565b7f4e487b7100000000000000000000000000000000000000000000000000000000600052601160045260246000fd5b6000610ba082610a64565b9150610bab83610a64565b9250828202610bb981610a64565b91508282048414831517610bd057610bcf610b66565b5b5092915050565b7f4e487b7100000000000000000000000000000000000000000000000000000000600052601260045260246000fd5b6000610c1182610a64565b9150610c1c83610a64565b925082610c2c57610c2b610bd7565b5b828204905092915050565b6000610c4282610a64565b9150610c4d83610a64565b9250828201905080821115610c6557610c64610b66565b5b92915050565b600082825260208201905092915050565b7f4c6f616e206e6f74207265717565737420706861736500000000000000000000600082015250565b6000610cb2601683610c6b565b9150610cbd82610c7c565b602082019050919050565b60006020820190508181036000830152610ce181610ca5565b9050919050565b7f496e636f72726563742066756e64696e6720616d6f756e740000000000000000600082015250565b6000610d1e601883610c6b565b9150610d2982610ce8565b602082019050919050565b60006020820190508181036000830152610d4d81610d11565b9050919050565b7f4c6f616e206e6f742066756e6465640000000000000000000000000000000000600082015250565b6000610d8a600f83610c6b565b9150610d9582610d54565b602082019050919050565b60006020820190508181036000830152610db981610d7d565b9050919050565b7f446561646c696e65206e6f742070617373656400000000000000000000000000600082015250565b6000610df6601383610c6b565b9150610e0182610dc0565b602082019050919050565b60006020820190508181036000830152610e2581610de9565b9050919050565b60008115159050919050565b610e4181610e2c565b82525050565b6000604082019050610e5c6000830185610b3c565b610e696020830184610e38565b9392505050565b7f4f6e6c7920626f72726f7765722063616e207265706179000000000000000000600082015250565b6000610ea6601783610c6b565b9150610eb182610e70565b602082019050919050565b60006020820190508181036000830152610ed581610e99565b9050919050565b7f496e636f72726563742072657061796d656e7420616d6f756e74000000000000600082015250565b6000610f12601a83610c6b565b9150610f1d82610edc565b602082019050919050565b60006020820190508181036000830152610f4181610f05565b905091905056fea26469706673582212209e61cb8bc9b74a7226c2ed44470cb9354bb70b246ac754d8482e80d2aa5b3e4e64736f6c63430008180033",
  "linkReferences": {},
  "deployedLinkReferences": {}
}