{
  "_format": "hh-sol-artifact-1",
  "contractName": "CreditScore",
  "sourceName": "contracts/CreditScore.sol",
  "abi": [
    {
      "inputs": [
        {
          "internalType": "address",
          "name": "_loanFactory",
          "type": "address"
        }
      ],
      "stateMutability": "nonpayable",
      "type": "constructor"
    },
    {
      "inputs": [],
      "name": "BASE_SCORE",
      "outputs": [
        {
          "internalType": "uint256",
          "name": "",
          "type": "uint256"
        }
      ],
      "stateMutability": "view",
      "type": "function"
    },
    {
      "inputs": [],
      "name": "COMPLETED_WEIGHT",
      "outputs": [
        {
          "internalType": "uint256",
          "name": "",
          "type": "uint256"
        }
      ],
      "stateMutability": "view",
      "type": "function"
    },
    {
      "inputs": [],
      "name": "DEFAULT_PENALTY",
      "outputs": [
        {
          "internalType": "uint256",
          "name": "",
          "type": "uint256"
        }
      ],
      "stateMutability": "view",
      "type": "function"
    },
    {
      "inputs": [],
      "name": "ON_TIME_MULTIPLIER",
      "outputs": [
        {
          "internalType": "uint256",
          "name": "",
          "type": "uint256"
        }
      ],
      "stateMutability": "view",
      "type": "function"
    },
    {
      "inputs": [
        {
          "internalType": "address",
          "name": "loan",
          "type": "address"
        }
      ],
      "name": "addApprovedLoan",
      "outputs": [],
      "stateMutability": "nonpayable",
      "type": "function"
    },
    {
      "inputs": [
        {
          "internalType": "address",
          "name": "",
          "type": "address"
        }
      ],
      "name": "approvedLoans",
      "outputs": [
        {
          "internalType": "bool",
          "name": "",
          "type": "bool"
        }
      ],
      "stateMutability": "view",
      "type": "function"
    },
    {
      "inputs": [
        {
          "internalType": "address",
          "name": "user",
          "type": "address"
        }
      ],
      "name": "getScore",
      "outputs": [
        {
          "internalType": "uint256",
          "name": "",
          "type": "uint256"
        }
      ],
      "stateMutability": "view",
      "type": "function"
    },
    {
      "inputs": [],
      "name": "loanFactory",
      "outputs": [
        {
          "internalType": "address",
          "name": "",
          "type": "address"
        }
      ],
      "stateMutability": "view",
      "type": "function"
    },
    {
      "inputs": [
        {
          "internalType": "address",
          "name": "user",
          "type": "address"
        },
        {
          "internalType": "uint256",
          "name": "principal",
          "type": "uint256"
        }
      ],
      "name": "recordDefault",
      "outputs": [],
      "stateMutability": "nonpayable",
      "type": "function"
    },
    {
      "inputs": [
        {
          "internalType": "address",
          "name": "user",
          "type": "address"
        },
        {
          "internalType": "uint256",
          "name": "principal",
          "type": "uint256"
        }
      ],
      "name": "recordLoanRequest",
      "outputs": [],
      "stateMutability": "nonpayable",
      "type": "function"
    },
    {
      "inputs": [
        {
          "internalType": "address",
          "name": "user",
          "type": "address"
        },
        {
          "internalType": "uint256",
          "name": "principal",
          "type": "uint256"
        },
        {
          "internalType": "bool",
          "name": "onTime",
          "type": "bool"
        }
      ],
      "name": "recordRepayment",
      "outputs": [],
      "stateMutability": "nonpayable",
      "type": "function"
    },
    {
      "inputs": [
        {
          "internalType": "address",
          "name": "",
          "type": "address"
        }
      ],
      "name": "records",
      "outputs": [
        {
          "internalType": "uint256",
          "name": "totalLoans",
          "type": "uint256"
        },
        {
          "internalType": "uint256",
          "name": "completedLoans",
          "type": "uint256"
        },
        {
          "internalType": "uint256",
          "name": "onTimeRepayments",
          "type": "uint256"
        },
        {
          "internalType": "uint256",
          "name": "defaults",
          "type": "uint256"
        },
        {
          "internalType": "uint256",
          "name": "totalBorrowed",
          "type": "uint256"
        },
        {
          "internalType": "uint256",
          "name": "score",
          "type": "uint256"
        }
      ],
      "stateMutability": "view",
      "type": "function"
    }
  ],
  "bytecode": "0x608060405234801561001057600080fd5b50604051610f48380380610f48833981810160405281019061003291906100dc565b80600160006101000a81548173ffffffffffffffffffffffffffffffffffffffff021916908373ffffffffffffffffffffffffffffffffffffffff16021790555050610109565b600080fd5b600073ffffffffffffffffffffffffffffffffffffffff82169050919050565b60006100a98261007e565b9050919050565b6100b98161009e565b81146100c457600080fd5b50565b6000815190506100d6816100b0565b92915050565b6000602082840312156100f2576100f1610079565b5b6000610100848285016100c7565b91505092915050565b610e30806101186000396000f3fe608060405234801561001057600080fd5b50600436106100b45760003560e01c8063b37ed8cd11610071578063b37ed8cd14610192578063bf15e017146101b0578063c48f1392146101ce578063cd4544f2146101ea578063d47875d014610206578063db2db17714610236576100b4565b806319ed29fa146100b9578063469e9067146100d557806364b123551461010a5780637effe5681461012657806390b439481461014457806393e9b13e14610162575b600080fd5b6100d360048036038101906100ce91906109cb565b610254565b005b6100ef60048036038101906100ea91906109cb565b61033f565b60405161010196959493929190610a11565b60405180910390f35b610124600480360381019061011f9190610a9e565b61037b565b005b61012e610468565b60405161013b9190610ade565b60405180910390f35b61014c61046e565b6040516101599190610ade565b60405180910390f35b61017c600480360381019061017791906109cb565b610473565b6040516101899190610b14565b60405180910390f35b61019a610493565b6040516101a79190610b3e565b60405180910390f35b6101b86104b9565b6040516101c59190610ade565b60405180910390f35b6101e860048036038101906101e39190610b85565b6104be565b005b61020460048036038101906101ff9190610a9e565b61064d565b005b610220600480360381019061021b91906109cb565b6107b8565b60405161022d9190610ade565b60405180910390f35b61023e610854565b60405161024b9190610ade565b60405180910390f35b600160009054906101000a900473ffffffffffffffffffffffffffffffffffffffff1673ffffffffffffffffffffffffffffffffffffffff163373ffffffffffffffffffffffffffffffffffffffff16146102e4576040517f08c379a00000000000000000000000000000000000000000000000000000000081526004016102db90610c35565b60405180910390fd5b6001600260008373ffffffffffffffffffffffffffffffffffffffff1673ffffffffffffffffffffffffffffffffffffffff16815260200190815260200160002060006101000a81548160ff02191690831515021790555050565b60006020528060005260406000206000915090508060000154908060010154908060020154908060030154908060040154908060050154905086565b600160009054906101000a900473ffffffffffffffffffffffffffffffffffffffff1673ffffffffffffffffffffffffffffffffffffffff163373ffffffffffffffffffffffffffffffffffffffff161461040b576040517f08c379a000000000000000000000000000000000000000000000000000000000815260040161040290610c35565b60405180910390fd5b60016000808473ffffffffffffffffffffffffffffffffffffffff1673ffffffffffffffffffffffffffffffffffffffff168152602001908152602001600020600001600082825461045d9190610c84565b925050819055505050565b6101f481565b600281565b60026020528060005260406000206000915054906101000a900460ff1681565b600160009054906101000a900473ffffffffffffffffffffffffffffffffffffffff1681565b603281565b600160009054906101000a900473ffffffffffffffffffffffffffffffffffffffff1673ffffffffffffffffffffffffffffffffffffffff163373ffffffffffffffffffffffffffffffffffffffff1614806105635750600260003373ffffffffffffffffffffffffffffffffffffffff1673ffffffffffffffffffffffffffffffffffffffff16815260200190815260200160002060009054906101000a900460ff165b6105a2576040517f08c379a000000000000000000000000000000000000000000000000000000000815260040161059990610d04565b60405180910390fd5b60008060008573ffffffffffffffffffffffffffffffffffffffff1673ffffffffffffffffffffffffffffffffffffffff168152602001908152602001600020905060018160010160008282546105f99190610c84565b92505081905550811561062357600181600201600082825461061b9190610c84565b925050819055505b828160040160008282546106379190610c84565b9250508190555061064784610859565b50505050565b600160009054906101000a900473ffffffffffffffffffffffffffffffffffffffff1673ffffffffffffffffffffffffffffffffffffffff163373ffffffffffffffffffffffffffffffffffffffff1614806106f25750600260003373ffffffffffffffffffffffffffffffffffffffff1673ffffffffffffffffffffffffffffffffffffffff16815260200190815260200160002060009054906101000a900460ff165b610731576040517f08c379a000000000000000000000000000000000000000000000000000000000815260040161072890610d04565b60405180910390fd5b60008060008473ffffffffffffffffffffffffffffffffffffffff1673ffffffffffffffffffffffffffffffffffffffff168152602001908152602001600020905060018160030160008282546107889190610c84565b92505081905550818160040160008282546107a39190610c84565b925050819055506107b383610859565b505050565b6000806000808473ffffffffffffffffffffffffffffffffffffffff1673ffffffffffffffffffffffffffffffffffffffff1681526020019081526020016000206005015414610849576000808373ffffffffffffffffffffffffffffffffffffffff1673ffffffffffffffffffffffffffffffffffffffff1681526020019081526020016000206005015461084d565b6101f45b9050919050565b601481565b60008060008373ffffffffffffffffffffffffffffffffffffffff1673ffffffffffffffffffffffffffffffffffffffff16815260200190815260200160002090506000808260010154116108af5760646108d0565b8160010154606483600201546108c59190610d24565b6108cf9190610d95565b5b905060006101f49050601483600101546108ea9190610d24565b816108f59190610c84565b9050600a6002836109069190610d24565b6109109190610d95565b8161091b9190610c84565b9050600083600301541115610949576032836003015461093b9190610d24565b816109469190610dc6565b90505b6000811161095857600061095a565b805b836005018190555050505050565b600080fd5b600073ffffffffffffffffffffffffffffffffffffffff82169050919050565b60006109988261096d565b9050919050565b6109a88161098d565b81146109b357600080fd5b50565b6000813590506109c58161099f565b92915050565b6000602082840312156109e1576109e0610968565b5b60006109ef848285016109b6565b91505092915050565b6000819050919050565b610a0b816109f8565b82525050565b600060c082019050610a266000830189610a02565b610a336020830188610a02565b610a406040830187610a02565b610a4d6060830186610a02565b610a5a6080830185610a02565b610a6760a0830184610a02565b979650505050505050565b610a7b816109f8565b8114610a8657600080fd5b50565b600081359050610a9881610a72565b92915050565b60008060408385031215610ab557610ab4610968565b5b6000610ac3858286016109b6565b9250506020610ad485828601610a89565b9150509250929050565b6000602082019050610af36000830184610a02565b92915050565b60008115159050919050565b610b0e81610af9565b82525050565b6000602082019050610b296000830184610b05565b92915050565b610b388161098d565b82525050565b6000602082019050610b536000830184610b2f565b92915050565b610b6281610af9565b8114610b6d57600080fd5b50565b600081359050610b7f81610b59565b92915050565b600080600060608486031215610b9e57610b9d610968565b5b6000610bac868287016109b6565b9350506020610bbd86828701610a89565b9250506040610bce86828701610b70565b9150509250925092565b600082825260208201905092915050565b7f4f6e6c79204c6f616e466163746f727900000000000000000000000000000000600082015250565b6000610c1f601083610bd8565b9150610c2a82610be9565b602082019050919050565b60006020820190508181036000830152610c4e81610c12565b9050919050565b7f4e487b7100000000000000000000000000000000000000000000000000000000600052601160045260246000fd5b6000610c8f826109f8565b9150610c9a836109f8565b9250828201905080821115610cb257610cb1610c55565b5b92915050565b7f4f6e6c79204c6f616e466163746f7279206f72204c6f616e0000000000000000600082015250565b6000610cee601883610bd8565b9150610cf982610cb8565b602082019050919050565b60006020820190508181036000830152610d1d81610ce1565b9050919050565b6000610d2f826109f8565b9150610d3a836109f8565b9250828202610d48816109f8565b91508282048414831517610d5f57610d5e610c55565b5b5092915050565b7f4e487b7100000000000000000000000000000000000000000000000000000000600052601260045260246000fd5b6000610da0826109f8565b9150610dab836109f8565b925082610dbb57610dba610d66565b5b828204905092915050565b6000610dd1826109f8565b9150610ddc836109f8565b9250828203905081811115610df457610df3610c55565b5b9291505056fea2646970667358221220f599773bd90e76a5804957c5ab17c6df8d5eb98f6a37fc814863af7e6d1bb45064736f6c63430008180033",
  "linkReferences": {},
  "deployedLinkReferences": {}
}