{
  "_format": "hh-sol-artifact-1",
  "contractName": "CreditScore",
  "sourceName": "contracts/CreditScore.sol",
  "abi": [
    {
      "inputs": [
        {
          "internalType": "address",
          "name": "_loanFactory",
          "type": "address"
        }
      ],
      "stateMutability": "nonpayable",
      "type": "constructor"
    },
    {
      "inputs": [],
      "name": "BASE_SCORE",
      "outputs": [
        {
          "internalType": "uint256",
          "name": "",
          "type": "uint256"
        }
      ],
      "stateMutability": "view",
      "type": "function"
    },
    {
      "inputs": [],
      "name": "COMPLETED_WEIGHT",
      "outputs": [
        {
          "internalType": "uint256",
          "name": "",
          "type": "uint256"
        }
      ],
      "stateMutability": "view",
      "type": "function"
    },
    {
      "inputs": [],
      "name": "DEFAULT_PENALTY",
      "outputs": [
        {
          "internalType": "uint256",
          "name": "",
          "type": "uint256"
        }
      ],
      "stateMutability": "view",
      "type": "function"
    },
    {
      "inputs": [],
      "name": "ON_TIME_MULTIPLIER",
      "outputs": [
        {
          "internalType": "uint256",
          "name": "",
          "type": "uint256"
        }
      ],
      "stateMutability": "view",
      "type": "function"
    },
    {
      "inputs": [
        {
          "internalType": "address",
          "name": "loan",
          "type": "address"
        }
      ],
      "name": "addApprovedLoan",
      "outputs": [],
      "stateMutability": "nonpayable",
      "type": "function"
    },
    {
      "inputs": [
        {
          "internalType": "address",
          "name": "",
          "type": "address"
        }
      ],
      "name": "approvedLoans",
      "outputs": [
        {
          "internalType": "bool",
          "name": "",
          "type": "bool"
        }
      ],
      "stateMutability": "view",
      "type": "function"
    },
    {
      "inputs": [
        {
          "internalType": "address",
          "name": "user",
          "type": "address"
        }
      ],
      "name": "calculateInterestRate",
      "outputs": [
        {
          "internalType": "uint256",
          "name": "interestRateBps",
          "type": "uint256"
        }
      ],
      "stateMutability": "view",
      "type": "function"
    },
    {
      "inputs": [
        {
          "internalType": "address",
          "name": "user",
          "type": "address"
        }
      ],
      "name": "getScore",
      "outputs": [
        {
          "internalType": "uint256",
          "name": "",
          "type": "uint256"
        }
      ],
      "stateMutability": "view",
      "type": "function"
    },
    {
      "inputs": [],
      "name": "loanFactory",
      "outputs": [
        {
          "internalType": "address",
          "name": "",
          "type": "address"
        }
      ],
      "stateMutability": "view",
      "type": "function"
    },
    {
      "inputs": [
        {
          "internalType": "address",
          "name": "user",
          "type": "address"
        },
        {
          "internalType": "uint256",
          "name": "principal",
          "type": "uint256"
        }
      ],
      "name": "recordDefault",
      "outputs": [],
      "stateMutability": "nonpayable",
      "type": "function"
    },
    {
      "inputs": [
        {
          "internalType": "address",
          "name": "user",
          "type": "address"
        },
        {
          "internalType": "uint256",
          "name": "principal",
          "type": "uint256"
        }
      ],
      "name": "recordLoanRequest",
      "outputs": [],
      "stateMutability": "nonpayable",
      "type": "function"
    },
    {
      "inputs": [
        {
          "internalType": "address",
          "name": "user",
          "type": "address"
        },
        {
          "internalType": "uint256",
          "name": "principal",
          "type": "uint256"
        },
        {
          "internalType": "bool",
          "name": "onTime",
          "type": "bool"
        }
      ],
      "name": "recordRepayment",
      "outputs": [],
      "stateMutability": "nonpayable",
      "type": "function"
    },
    {
      "inputs": [
        {
          "internalType": "address",
          "name": "",
          "type": "address"
        }
      ],
      "name": "records",
      "outputs": [
        {
          "internalType": "uint256",
          "name": "totalLoans",
          "type": "uint256"
        },
        {
          "internalType": "uint256",
          "name": "completedLoans",
          "type": "uint256"
        },
        {
          "internalType": "uint256",
          "name": "onTimeRepayments",
          "type": "uint256"
        },
        {
          "internalType": "uint256",
          "name": "defaults",
          "type": "uint256"
        },
        {
          "internalType": "uint256",
          "name": "totalBorrowed",
          "type": "uint256"
        },
        {
          "internalType": "uint256",
          "name": "score",
          "type": "uint256"
        }
      ],
      "stateMutability": "view",
      "type": "function"
    }
  ],
  "bytecode": "0x60806040523480156200001157600080fd5b50604051620010af380380620010af8339818101604052810190620000379190620000e9565b80600160006101000a81548173ffffffffffffffffffffffffffffffffffffffff021916908373ffffffffffffffffffffffffffffffffffffffff160217905550506200011b565b600080fd5b600073ffffffffffffffffffffffffffffffffffffffff82169050919050565b6000620000b18262000084565b9050919050565b620000c381620000a4565b8114620000cf57600080fd5b50565b600081519050620000e381620000b8565b92915050565b6000602082840312156200010257620001016200007f565b5b60006200011284828501620000d2565b91505092915050565b610f84806200012b6000396000f3fe608060405234801561001057600080fd5b50600436106100cf5760003560e01c8063b37ed8cd1161008c578063c48f139211610066578063c48f139214610219578063cd4544f214610235578063d47875d014610251578063db2db17714610281576100cf565b8063b37ed8cd146101ad578063bf15e017146101cb578063c0d18843146101e9576100cf565b806319ed29fa146100d4578063469e9067146100f057806364b12355146101255780637effe5681461014157806390b439481461015f57806393e9b13e1461017d575b600080fd5b6100ee60048036038101906100e99190610add565b61029f565b005b61010a60048036038101906101059190610add565b61038a565b60405161011c96959493929190610b23565b60405180910390f35b61013f600480360381019061013a9190610bb0565b6103c6565b005b6101496104b3565b6040516101569190610bf0565b60405180910390f35b6101676104b9565b6040516101749190610bf0565b60405180910390f35b61019760048036038101906101929190610add565b6104be565b6040516101a49190610c26565b60405180910390f35b6101b56104de565b6040516101c29190610c50565b60405180910390f35b6101d3610504565b6040516101e09190610bf0565b60405180910390f35b61020360048036038101906101fe9190610add565b610509565b6040516102109190610bf0565b60405180910390f35b610233600480360381019061022e9190610c97565b6105d0565b005b61024f600480360381019061024a9190610bb0565b61075f565b005b61026b60048036038101906102669190610add565b6108ca565b6040516102789190610bf0565b60405180910390f35b610289610966565b6040516102969190610bf0565b60405180910390f35b600160009054906101000a900473ffffffffffffffffffffffffffffffffffffffff1673ffffffffffffffffffffffffffffffffffffffff163373ffffffffffffffffffffffffffffffffffffffff161461032f576040517f08c379a000000000000000000000000000000000000000000000000000000000815260040161032690610d47565b60405180910390fd5b6001600260008373ffffffffffffffffffffffffffffffffffffffff1673ffffffffffffffffffffffffffffffffffffffff16815260200190815260200160002060006101000a81548160ff02191690831515021790555050565b60006020528060005260406000206000915090508060000154908060010154908060020154908060030154908060040154908060050154905086565b600160009054906101000a900473ffffffffffffffffffffffffffffffffffffffff1673ffffffffffffffffffffffffffffffffffffffff163373ffffffffffffffffffffffffffffffffffffffff1614610456576040517f08c379a000000000000000000000000000000000000000000000000000000000815260040161044d90610d47565b60405180910390fd5b60016000808473ffffffffffffffffffffffffffffffffffffffff1673ffffffffffffffffffffffffffffffffffffffff16815260200190815260200160002060000160008282546104a89190610d96565b925050819055505050565b6101f481565b600281565b60026020528060005260406000206000915054906101000a900460ff1681565b600160009054906101000a900473ffffffffffffffffffffffffffffffffffffffff1681565b603281565b6000803073ffffffffffffffffffffffffffffffffffffffff1663d47875d0846040518263ffffffff1660e01b81526004016105459190610c50565b602060405180830381865afa158015610562573d6000803e3d6000fd5b505050506040513d601f19601f820116820180604052508101906105869190610ddf565b9050610320811061059c576101909150506105cb565b61025881106105b0576103209150506105cb565b61019081106105c4576104b09150506105cb565b6107d09150505b919050565b600160009054906101000a900473ffffffffffffffffffffffffffffffffffffffff1673ffffffffffffffffffffffffffffffffffffffff163373ffffffffffffffffffffffffffffffffffffffff1614806106755750600260003373ffffffffffffffffffffffffffffffffffffffff1673ffffffffffffffffffffffffffffffffffffffff16815260200190815260200160002060009054906101000a900460ff165b6106b4576040517f08c379a00000000000000000000000000000000000000000000000000000000081526004016106ab90610e58565b60405180910390fd5b60008060008573ffffffffffffffffffffffffffffffffffffffff1673ffffffffffffffffffffffffffffffffffffffff1681526020019081526020016000209050600181600101600082825461070b9190610d96565b92505081905550811561073557600181600201600082825461072d9190610d96565b925050819055505b828160040160008282546107499190610d96565b925050819055506107598461096b565b50505050565b600160009054906101000a900473ffffffffffffffffffffffffffffffffffffffff1673ffffffffffffffffffffffffffffffffffffffff163373ffffffffffffffffffffffffffffffffffffffff1614806108045750600260003373ffffffffffffffffffffffffffffffffffffffff1673ffffffffffffffffffffffffffffffffffffffff16815260200190815260200160002060009054906101000a900460ff165b610843576040517f08c379a000000000000000000000000000000000000000000000000000000000815260040161083a90610e58565b60405180910390fd5b60008060008473ffffffffffffffffffffffffffffffffffffffff1673ffffffffffffffffffffffffffffffffffffffff1681526020019081526020016000209050600181600301600082825461089a9190610d96565b92505081905550818160040160008282546108b59190610d96565b925050819055506108c58361096b565b505050565b6000806000808473ffffffffffffffffffffffffffffffffffffffff1673ffffffffffffffffffffffffffffffffffffffff168152602001908152602001600020600501541461095b576000808373ffffffffffffffffffffffffffffffffffffffff1673ffffffffffffffffffffffffffffffffffffffff1681526020019081526020016000206005015461095f565b6101f45b9050919050565b601481565b60008060008373ffffffffffffffffffffffffffffffffffffffff1673ffffffffffffffffffffffffffffffffffffffff16815260200190815260200160002090506000808260010154116109c15760646109e2565b8160010154606483600201546109d79190610e78565b6109e19190610ee9565b5b905060006101f49050601483600101546109fc9190610e78565b81610a079190610d96565b9050600a600283610a189190610e78565b610a229190610ee9565b81610a2d9190610d96565b9050600083600301541115610a5b5760328360030154610a4d9190610e78565b81610a589190610f1a565b90505b60008111610a6a576000610a6c565b805b836005018190555050505050565b600080fd5b600073ffffffffffffffffffffffffffffffffffffffff82169050919050565b6000610aaa82610a7f565b9050919050565b610aba81610a9f565b8114610ac557600080fd5b50565b600081359050610ad781610ab1565b92915050565b600060208284031215610af357610af2610a7a565b5b6000610b0184828501610ac8565b91505092915050565b6000819050919050565b610b1d81610b0a565b82525050565b600060c082019050610b386000830189610b14565b610b456020830188610b14565b610b526040830187610b14565b610b5f6060830186610b14565b610b6c6080830185610b14565b610b7960a0830184610b14565b979650505050505050565b610b8d81610b0a565b8114610b9857600080fd5b50565b600081359050610baa81610b84565b92915050565b60008060408385031215610bc757610bc6610a7a565b5b6000610bd585828601610ac8565b9250506020610be685828601610b9b565b9150509250929050565b6000602082019050610c056000830184610b14565b92915050565b60008115159050919050565b610c2081610c0b565b82525050565b6000602082019050610c3b6000830184610c17565b92915050565b610c4a81610a9f565b82525050565b6000602082019050610c656000830184610c41565b92915050565b610c7481610c0b565b8114610c7f57600080fd5b50565b600081359050610c9181610c6b565b92915050565b600080600060608486031215610cb057610caf610a7a565b5b6000610cbe86828701610ac8565b9350506020610ccf86828701610b9b565b9250506040610ce086828701610c82565b9150509250925092565b600082825260208201905092915050565b7f4f6e6c79204c6f616e466163746f727900000000000000000000000000000000600082015250565b6000610d31601083610cea565b9150610d3c82610cfb565b602082019050919050565b60006020820190508181036000830152610d6081610d24565b9050919050565b7f4e487b7100000000000000000000000000000000000000000000000000000000600052601160045260246000fd5b6000610da182610b0a565b9150610dac83610b0a565b9250828201905080821115610dc457610dc3610d67565b5b92915050565b600081519050610dd981610b84565b92915050565b600060208284031215610df557610df4610a7a565b5b6000610e0384828501610dca565b91505092915050565b7f4f6e6c79204c6f616e466163746f7279206f72204c6f616e0000000000000000600082015250565b6000610e42601883610cea565b9150610e4d82610e0c565b602082019050919050565b60006020820190508181036000830152610e7181610e35565b9050919050565b6000610e8382610b0a565b9150610e8e83610b0a565b9250828202610e9c81610b0a565b91508282048414831517610eb357610eb2610d67565b5b5092915050565b7f4e487b7100000000000000000000000000000000000000000000000000000000600052601260045260246000fd5b6000610ef482610b0a565b9150610eff83610b0a565b925082610f0f57610f0e610eba565b5b828204905092915050565b6000610f2582610b0a565b9150610f3083610b0a565b9250828203905081811115610f4857610f47610d67565b5b9291505056fea26469706673582212202af75853b93b2e540191bc39669e33578107371111971632db5ae4af573221dc64736f6c63430008180033",
  "linkReferences": {},
  "deployedLinkReferences": {}
}