{
  "_format": "hh-sol-artifact-1",
  "contractName": "CreditScoreContract",
  "sourceName": "contracts/CreditScoreContract.sol",
  "abi": [
    {
      "inputs": [],
      "stateMutability": "nonpayable",
      "type": "constructor"
    },
    {
      "anonymous": false,
      "inputs": [
        {
          "indexed": true,
          "internalType": "address",
          "name": "contractAddress",
          "type": "address"
        },
        {
          "indexed": false,
          "internalType": "bool",
          "name": "isAuthorized",
          "type": "bool"
        }
      ],
      "name": "ContractAuthorized",
      "type": "event"
    },
    {
      "anonymous": false,
      "inputs": [
        {
          "indexed": true,
          "internalType": "address",
          "name": "user",
          "type": "address"
        },
        {
          "indexed": false,
          "internalType": "uint256",
          "name": "newScore",
          "type": "uint256"
        },
        {
          "indexed": false,
          "internalType": "bool",
          "name": "success",
          "type": "bool"
        }
      ],
      "name": "ScoreUpdated",
      "type": "event"
    },
    {
      "inputs": [],
      "name": "admin",
      "outputs": [
        {
          "internalType": "address",
          "name": "",
          "type": "address"
        }
      ],
      "stateMutability": "view",
      "type": "function"
    },
    {
      "inputs": [
        {
          "internalType": "address",
          "name": "_contract",
          "type": "address"
        },
        {
          "internalType": "bool",
          "name": "_status",
          "type": "bool"
        }
      ],
      "name": "authorizeContract",
      "outputs": [],
      "stateMutability": "nonpayable",
      "type": "function"
    },
    {
      "inputs": [
        {
          "internalType": "address",
          "name": "",
          "type": "address"
        }
      ],
      "name": "authorizedContracts",
      "outputs": [
        {
          "internalType": "bool",
          "name": "",
          "type": "bool"
        }
      ],
      "stateMutability": "view",
      "type": "function"
    },
    {
      "inputs": [
        {
          "internalType": "address",
          "name": "user",
          "type": "address"
        }
      ],
      "name": "getScore",
      "outputs": [
        {
          "internalType": "uint256",
          "name": "",
          "type": "uint256"
        }
      ],
      "stateMutability": "view",
      "type": "function"
    },
    {
      "inputs": [
        {
          "internalType": "address",
          "name": "",
          "type": "address"
        }
      ],
      "name": "profiles",
      "outputs": [
        {
          "internalType": "uint256",
          "name": "score",
          "type": "uint256"
        },
        {
          "internalType": "uint256",
          "name": "totalLoans",
          "type": "uint256"
        },
        {
          "internalType": "uint256",
          "name": "repaid",
          "type": "uint256"
        },
        {
          "internalType": "uint256",
          "name": "defaults",
          "type": "uint256"
        }
      ],
      "stateMutability": "view",
      "type": "function"
    },
    {
      "inputs": [
        {
          "internalType": "address",
          "name": "user",
          "type": "address"
        },
        {
          "internalType": "bool",
          "name": "success",
          "type": "bool"
        }
      ],
      "name": "updateScore",
      "outputs": [],
      "stateMutability": "nonpayable",
      "type": "function"
    }
  ],
  "bytecode": "0x608060405234801561001057600080fd5b5033600160006101000a81548173ffffffffffffffffffffffffffffffffffffffff021916908373ffffffffffffffffffffffffffffffffffffffff1602179055506109f6806100616000396000f3fe608060405234801561001057600080fd5b50600436106100625760003560e01c80635cbeb13f146100675780638388131114610083578063bbe156271461009f578063d47875d0146100d2578063d5b9221b14610102578063f851a44014610132575b600080fd5b610081600480360381019061007c9190610695565b610150565b005b61009d60048036038101906100989190610695565b610289565b005b6100b960048036038101906100b491906106d5565b6104e9565b6040516100c9949392919061071b565b60405180910390f35b6100ec60048036038101906100e791906106d5565b610519565b6040516100f99190610760565b60405180910390f35b61011c600480360381019061011791906106d5565b6105b4565b604051610129919061078a565b60405180910390f35b61013a6105d4565b60405161014791906107b4565b60405180910390f35b600160009054906101000a900473ffffffffffffffffffffffffffffffffffffffff1673ffffffffffffffffffffffffffffffffffffffff163373ffffffffffffffffffffffffffffffffffffffff16146101e0576040517f08c379a00000000000000000000000000000000000000000000000000000000081526004016101d79061082c565b60405180910390fd5b80600260008473ffffffffffffffffffffffffffffffffffffffff1673ffffffffffffffffffffffffffffffffffffffff16815260200190815260200160002060006101000a81548160ff0219169083151502179055508173ffffffffffffffffffffffffffffffffffffffff167f3213ab8ec2ed122402f038736b41878b69ae9f61f49a7edd0666bce891d29fc98260405161027d919061078a565b60405180910390a25050565b600260003373ffffffffffffffffffffffffffffffffffffffff1673ffffffffffffffffffffffffffffffffffffffff16815260200190815260200160002060009054906101000a900460ff168061032e5750600160009054906101000a900473ffffffffffffffffffffffffffffffffffffffff1673ffffffffffffffffffffffffffffffffffffffff163373ffffffffffffffffffffffffffffffffffffffff16145b61036d576040517f08c379a000000000000000000000000000000000000000000000000000000000815260040161036490610898565b60405180910390fd5b60008060008473ffffffffffffffffffffffffffffffffffffffff1673ffffffffffffffffffffffffffffffffffffffff168152602001908152602001600020905060008160010154036103c7576101f481600001819055505b8060010160008154809291906103dc906108e7565b9190505550811561043c578060020160008154809291906103fc906108e7565b9190505550600a816000016000828254610416919061092f565b925050819055506103e881600001541115610437576103e881600001819055505b610490565b806003016000815480929190610451906108e7565b91905055506032816000015411156104845760328160000160008282546104789190610963565b9250508190555061048f565b600081600001819055505b5b8273ffffffffffffffffffffffffffffffffffffffff167fa25205fec86edfce0ec6ad12d4a8ff97a10ab34a24eea79ebd9c5aa60c5546f78260000154846040516104dc929190610997565b60405180910390a2505050565b60006020528060005260406000206000915090508060000154908060010154908060020154908060030154905084565b6000806000808473ffffffffffffffffffffffffffffffffffffffff1673ffffffffffffffffffffffffffffffffffffffff168152602001908152602001600020604051806080016040529081600082015481526020016001820154815260200160028201548152602001600382015481525050905060008160200151036105a6576101f49150506105af565b80600001519150505b919050565b60026020528060005260406000206000915054906101000a900460ff1681565b600160009054906101000a900473ffffffffffffffffffffffffffffffffffffffff1681565b600080fd5b600073ffffffffffffffffffffffffffffffffffffffff82169050919050565b600061062a826105ff565b9050919050565b61063a8161061f565b811461064557600080fd5b50565b60008135905061065781610631565b92915050565b60008115159050919050565b6106728161065d565b811461067d57600080fd5b50565b60008135905061068f81610669565b92915050565b600080604083850312156106ac576106ab6105fa565b5b60006106ba85828601610648565b92505060206106cb85828601610680565b9150509250929050565b6000602082840312156106eb576106ea6105fa565b5b60006106f984828501610648565b91505092915050565b6000819050919050565b61071581610702565b82525050565b6000608082019050610730600083018761070c565b61073d602083018661070c565b61074a604083018561070c565b610757606083018461070c565b95945050505050565b6000602082019050610775600083018461070c565b92915050565b6107848161065d565b82525050565b600060208201905061079f600083018461077b565b92915050565b6107ae8161061f565b82525050565b60006020820190506107c960008301846107a5565b92915050565b600082825260208201905092915050565b7f4f6e6c792061646d696e00000000000000000000000000000000000000000000600082015250565b6000610816600a836107cf565b9150610821826107e0565b602082019050919050565b6000602082019050818103600083015261084581610809565b9050919050565b7f4e6f7420617574686f72697a6564000000000000000000000000000000000000600082015250565b6000610882600e836107cf565b915061088d8261084c565b602082019050919050565b600060208201905081810360008301526108b181610875565b9050919050565b7f4e487b7100000000000000000000000000000000000000000000000000000000600052601160045260246000fd5b60006108f282610702565b91507fffffffffffffffffffffffffffffffffffffffffffffffffffffffffffffffff8203610924576109236108b8565b5b600182019050919050565b600061093a82610702565b915061094583610702565b925082820190508082111561095d5761095c6108b8565b5b92915050565b600061096e82610702565b915061097983610702565b9250828203905081811115610991576109906108b8565b5b92915050565b60006040820190506109ac600083018561070c565b6109b9602083018461077b565b939250505056fea2646970667358221220b403d7bedbde042f47b75cfa98f862e31194224e85ee2f3dbfee87adaf8b3d8464736f6c63430008180033",
  "linkReferences": {},
  "deployedLinkReferences": {}
}