{
  "_format": "hh-sol-artifact-1",
  "contractName": "Loan",
  "sourceName": "contracts/Loan.sol",
  "abi": [
    {
      "inputs": [
        {
          "internalType": "address",
          "name": "_borrower",
          "type": "address"
        },
        {
          "internalType": "uint256",
          "name": "_principal",
          "type": "uint256"
        },
        {
          "internalType": "uint256",
          "name": "_interestRateBps",
          "type": "uint256"
        },
        {
          "internalType": "uint256",
          "name": "_durationDays",
          "type": "uint256"
        },
        {
          "internalType": "address",
          "name": "_factory",
          "type": "address"
        },
        {
          "internalType": "address",
          "name": "_creditScore",
          "type": "address"
        }
      ],
      "stateMutability": "nonpayable",
      "type": "constructor"
    },
    {
      "anonymous": false,
      "inputs": [
        {
          "indexed": true,
          "internalType": "address",
          "name": "borrower",
          "type": "address"
        }
      ],
      "name": "LoanDefaulted",
      "type": "event"
    },
    {
      "anonymous": false,
      "inputs": [
        {
          "indexed": true,
          "internalType": "address",
          "name": "lender",
          "type": "address"
        },
        {
          "indexed": false,
          "internalType": "uint256",
          "name": "amount",
          "type": "uint256"
        }
      ],
      "name": "LoanFunded",
      "type": "event"
    },
    {
      "anonymous": false,
      "inputs": [
        {
          "indexed": true,
          "internalType": "address",
          "name": "borrower",
          "type": "address"
        },
        {
          "indexed": false,
          "internalType": "uint256",
          "name": "principal",
          "type": "uint256"
        },
        {
          "indexed": false,
          "internalType": "uint256",
          "name": "interest",
          "type": "uint256"
        }
      ],
      "name": "LoanRepaid",
      "type": "event"
    },
    {
      "inputs": [],
      "name": "borrower",
      "outputs": [
        {
          "internalType": "address",
          "name": "",
          "type": "address"
        }
      ],
      "stateMutability": "view",
      "type": "function"
    },
    {
      "inputs": [],
      "name": "creditScore",
      "outputs": [
        {
          "internalType": "contract ICreditScore",
          "name": "",
          "type": "address"
        }
      ],
      "stateMutability": "view",
      "type": "function"
    },
    {
      "inputs": [],
      "name": "durationDays",
      "outputs": [
        {
          "internalType": "uint256",
          "name": "",
          "type": "uint256"
        }
      ],
      "stateMutability": "view",
      "type": "function"
    },
    {
      "inputs": [],
      "name": "factory",
      "outputs": [
        {
          "internalType": "address",
          "name": "",
          "type": "address"
        }
      ],
      "stateMutability": "view",
      "type": "function"
    },
    {
      "inputs": [],
      "name": "fund",
      "outputs": [],
      "stateMutability": "payable",
      "type": "function"
    },
    {
      "inputs": [],
      "name": "fundedAt",
      "outputs": [
        {
          "internalType": "uint256",
          "name": "",
          "type": "uint256"
        }
      ],
      "stateMutability": "view",
      "type": "function"
    },
    {
      "inputs": [],
      "name": "getTotalRepayment",
      "outputs": [
        {
          "internalType": "uint256",
          "name": "",
          "type": "uint256"
        }
      ],
      "stateMutability": "view",
      "type": "function"
    },
    {
      "inputs": [],
      "name": "interestRateBps",
      "outputs": [
        {
          "internalType": "uint256",
          "name": "",
          "type": "uint256"
        }
      ],
      "stateMutability": "view",
      "type": "function"
    },
    {
      "inputs": [],
      "name": "lender",
      "outputs": [
        {
          "internalType": "address",
          "name": "",
          "type": "address"
        }
      ],
      "stateMutability": "view",
      "type": "function"
    },
    {
      "inputs": [],
      "name": "markDefaulted",
      "outputs": [],
      "stateMutability": "nonpayable",
      "type": "function"
    },
    {
      "inputs": [],
      "name": "principal",
      "outputs": [
        {
          "internalType": "uint256",
          "name": "",
          "type": "uint256"
        }
      ],
      "stateMutability": "view",
      "type": "function"
    },
    {
      "inputs": [],
      "name": "repay",
      "outputs": [],
      "stateMutability": "payable",
      "type": "function"
    },
    {
      "inputs": [],
      "name": "repaymentDeadline",
      "outputs": [
        {
          "internalType": "uint256",
          "name": "",
          "type": "uint256"
        }
      ],
      "stateMutability": "view",
      "type": "function"
    },
    {
      "inputs": [],
      "name": "status",
      "outputs": [
        {
          "internalType": "enum Loan.Status",
          "name": "",
          "type": "uint8"
        }
      ],
      "stateMutability": "view",
      "type": "function"
    }
  ],
  "bytecode": "0x60806040523480156200001157600080fd5b50604051620018c4380380620018c48339818101604052810190620000379190620001ed565b856000806101000a81548173ffffffffffffffffffffffffffffffffffffffff021916908373ffffffffffffffffffffffffffffffffffffffff16021790555084600281905550836003819055508260048190555081600760016101000a81548173ffffffffffffffffffffffffffffffffffffffff021916908373ffffffffffffffffffffffffffffffffffffffff16021790555080600860006101000a81548173ffffffffffffffffffffffffffffffffffffffff021916908373ffffffffffffffffffffffffffffffffffffffff1602179055506000600760006101000a81548160ff0219169083600481111562000137576200013662000289565b5b0217905550505050505050620002b8565b600080fd5b600073ffffffffffffffffffffffffffffffffffffffff82169050919050565b60006200017a826200014d565b9050919050565b6200018c816200016d565b81146200019857600080fd5b50565b600081519050620001ac8162000181565b92915050565b6000819050919050565b620001c781620001b2565b8114620001d357600080fd5b50565b600081519050620001e781620001bc565b92915050565b60008060008060008060c087890312156200020d576200020c62000148565b5b60006200021d89828a016200019b565b96505060206200023089828a01620001d6565b95505060406200024389828a01620001d6565b94505060606200025689828a01620001d6565b93505060806200026989828a016200019b565b92505060a06200027c89828a016200019b565b9150509295509295509295565b7f4e487b7100000000000000000000000000000000000000000000000000000000600052602160045260246000fd5b6115fc80620002c86000396000f3fe6080604052600436106100dd5760003560e01c8063b60d42881161007f578063c45a015511610059578063c45a01551461024e578063c84a208b14610279578063d746d0b2146102a4578063dd541230146102cf576100dd565b8063b60d4288146101ee578063ba5d3078146101f8578063bcead63e14610223576100dd565b8063402d8883116100bb578063402d8883146101635780637df1f1b91461016d5780639cd56d0314610198578063a9a748ff146101c3576100dd565b806319cc3aaa146100e2578063200d2ed21461010d57806339da315214610138575b600080fd5b3480156100ee57600080fd5b506100f76102e6565b6040516101049190610e43565b60405180910390f35b34801561011957600080fd5b506101226102ec565b60405161012f9190610ed5565b60405180910390f35b34801561014457600080fd5b5061014d6102ff565b60405161015a9190610f6f565b60405180910390f35b61016b610325565b005b34801561017957600080fd5b506101826107b6565b60405161018f9190610fab565b60405180910390f35b3480156101a457600080fd5b506101ad6107da565b6040516101ba9190610e43565b60405180910390f35b3480156101cf57600080fd5b506101d86107e0565b6040516101e59190610e43565b60405180910390f35b6101f66107e6565b005b34801561020457600080fd5b5061020d610a38565b60405161021a9190610e43565b60405180910390f35b34801561022f57600080fd5b50610238610a3e565b6040516102459190610fab565b60405180910390f35b34801561025a57600080fd5b50610263610a64565b6040516102709190610fab565b60405180910390f35b34801561028557600080fd5b5061028e610a8a565b60405161029b9190610e43565b60405180910390f35b3480156102b057600080fd5b506102b9610a90565b6040516102c69190610e43565b60405180910390f35b3480156102db57600080fd5b506102e4610ac6565b005b60065481565b600760009054906101000a900460ff1681565b600860009054906101000a900473ffffffffffffffffffffffffffffffffffffffff1681565b60008054906101000a900473ffffffffffffffffffffffffffffffffffffffff1673ffffffffffffffffffffffffffffffffffffffff163373ffffffffffffffffffffffffffffffffffffffff16146103b3576040517f08c379a00000000000000000000000000000000000000000000000000000000081526004016103aa90611023565b60405180910390fd5b600260048111156103c7576103c6610e5e565b5b600760009054906101000a900460ff1660048111156103e9576103e8610e5e565b5b14610429576040517f08c379a00000000000000000000000000000000000000000000000000000000081526004016104209061108f565b60405180910390fd5b600061271060035460025461043e91906110de565b610448919061114f565b905060008160025461045a9190611180565b90508034101561049f576040517f08c379a000000000000000000000000000000000000000000000000000000000815260040161049690611200565b60405180910390fd5b6003600760006101000a81548160ff021916908360048111156104c5576104c4610e5e565b5b021790555060006006544211159050600860009054906101000a900473ffffffffffffffffffffffffffffffffffffffff1673ffffffffffffffffffffffffffffffffffffffff1663c48f139260008054906101000a900473ffffffffffffffffffffffffffffffffffffffff16600254846040518463ffffffff1660e01b81526004016105559392919061123b565b600060405180830381600087803b15801561056f57600080fd5b505af1158015610583573d6000803e3d6000fd5b505050506000600160009054906101000a900473ffffffffffffffffffffffffffffffffffffffff1673ffffffffffffffffffffffffffffffffffffffff16836040516105cf906112a3565b60006040518083038185875af1925050503d806000811461060c576040519150601f19603f3d011682016040523d82523d6000602084013e610611565b606091505b5050905080610655576040517f08c379a000000000000000000000000000000000000000000000000000000000815260040161064c90611304565b60405180910390fd5b600083346106639190611324565b9050600081111561073d5760008060009054906101000a900473ffffffffffffffffffffffffffffffffffffffff1673ffffffffffffffffffffffffffffffffffffffff16826040516106b5906112a3565b60006040518083038185875af1925050503d80600081146106f2576040519150601f19603f3d011682016040523d82523d6000602084013e6106f7565b606091505b505090508061073b576040517f08c379a0000000000000000000000000000000000000000000000000000000008152600401610732906113a4565b60405180910390fd5b505b60008054906101000a900473ffffffffffffffffffffffffffffffffffffffff1673ffffffffffffffffffffffffffffffffffffffff167fc7ce0a35f17b490de2a317e7fecb2cae86b1abffb03800b2f492823521382698600254876040516107a79291906113c4565b60405180910390a25050505050565b60008054906101000a900473ffffffffffffffffffffffffffffffffffffffff1681565b60045481565b60055481565b600060048111156107fa576107f9610e5e565b5b600760009054906101000a900460ff16600481111561081c5761081b610e5e565b5b1461085c576040517f08c379a00000000000000000000000000000000000000000000000000000000081526004016108539061108f565b60405180910390fd5b6002543410156108a1576040517f08c379a000000000000000000000000000000000000000000000000000000000815260040161089890611439565b60405180910390fd5b60008054906101000a900473ffffffffffffffffffffffffffffffffffffffff1673ffffffffffffffffffffffffffffffffffffffff163373ffffffffffffffffffffffffffffffffffffffff160361092f576040517f08c379a0000000000000000000000000000000000000000000000000000000008152600401610926906114a5565b60405180910390fd5b33600160006101000a81548173ffffffffffffffffffffffffffffffffffffffff021916908373ffffffffffffffffffffffffffffffffffffffff160217905550426005819055506201518060045461098891906110de565b426109939190611180565b6006819055506002600760006101000a81548160ff021916908360048111156109bf576109be610e5e565b5b0217905550600160009054906101000a900473ffffffffffffffffffffffffffffffffffffffff1673ffffffffffffffffffffffffffffffffffffffff167f726d5f1a838fe31748f737fa3ae5539ccff95952adfc593a1299532b643ff7a8600254604051610a2e9190610e43565b60405180910390a2565b60025481565b600160009054906101000a900473ffffffffffffffffffffffffffffffffffffffff1681565b600760019054906101000a900473ffffffffffffffffffffffffffffffffffffffff1681565b60035481565b600080612710600354600254610aa691906110de565b610ab0919061114f565b905080600254610ac09190611180565b91505090565b600760019054906101000a900473ffffffffffffffffffffffffffffffffffffffff1673ffffffffffffffffffffffffffffffffffffffff163373ffffffffffffffffffffffffffffffffffffffff1614610b56576040517f08c379a0000000000000000000000000000000000000000000000000000000008152600401610b4d90611511565b60405180910390fd5b60026004811115610b6a57610b69610e5e565b5b600760009054906101000a900460ff166004811115610b8c57610b8b610e5e565b5b14610bcc576040517f08c379a0000000000000000000000000000000000000000000000000000000008152600401610bc39061108f565b60405180910390fd5b6006544211610c10576040517f08c379a0000000000000000000000000000000000000000000000000000000008152600401610c079061157d565b60405180910390fd5b6004600760006101000a81548160ff02191690836004811115610c3657610c35610e5e565b5b0217905550600860009054906101000a900473ffffffffffffffffffffffffffffffffffffffff1673ffffffffffffffffffffffffffffffffffffffff1663cd4544f260008054906101000a900473ffffffffffffffffffffffffffffffffffffffff166002546040518363ffffffff1660e01b8152600401610cba92919061159d565b600060405180830381600087803b158015610cd457600080fd5b505af1158015610ce8573d6000803e3d6000fd5b505050506000471115610dc5576000600160009054906101000a900473ffffffffffffffffffffffffffffffffffffffff1673ffffffffffffffffffffffffffffffffffffffff1647604051610d3d906112a3565b60006040518083038185875af1925050503d8060008114610d7a576040519150601f19603f3d011682016040523d82523d6000602084013e610d7f565b606091505b5050905080610dc3576040517f08c379a0000000000000000000000000000000000000000000000000000000008152600401610dba90611304565b60405180910390fd5b505b60008054906101000a900473ffffffffffffffffffffffffffffffffffffffff1673ffffffffffffffffffffffffffffffffffffffff167ff4e5cf42cbb1d0c6c91e16d925349feb6c5d970652f6ec77b1ff1262f7284cd560405160405180910390a2565b6000819050919050565b610e3d81610e2a565b82525050565b6000602082019050610e586000830184610e34565b92915050565b7f4e487b7100000000000000000000000000000000000000000000000000000000600052602160045260246000fd5b60058110610e9e57610e9d610e5e565b5b50565b6000819050610eaf82610e8d565b919050565b6000610ebf82610ea1565b9050919050565b610ecf81610eb4565b82525050565b6000602082019050610eea6000830184610ec6565b92915050565b600073ffffffffffffffffffffffffffffffffffffffff82169050919050565b6000819050919050565b6000610f35610f30610f2b84610ef0565b610f10565b610ef0565b9050919050565b6000610f4782610f1a565b9050919050565b6000610f5982610f3c565b9050919050565b610f6981610f4e565b82525050565b6000602082019050610f846000830184610f60565b92915050565b6000610f9582610ef0565b9050919050565b610fa581610f8a565b82525050565b6000602082019050610fc06000830184610f9c565b92915050565b600082825260208201905092915050565b7f4f6e6c7920626f72726f77657200000000000000000000000000000000000000600082015250565b600061100d600d83610fc6565b915061101882610fd7565b602082019050919050565b6000602082019050818103600083015261103c81611000565b9050919050565b7f496e76616c696420737461747573000000000000000000000000000000000000600082015250565b6000611079600e83610fc6565b915061108482611043565b602082019050919050565b600060208201905081810360008301526110a88161106c565b9050919050565b7f4e487b7100000000000000000000000000000000000000000000000000000000600052601160045260246000fd5b60006110e982610e2a565b91506110f483610e2a565b925082820261110281610e2a565b91508282048414831517611119576111186110af565b5b5092915050565b7f4e487b7100000000000000000000000000000000000000000000000000000000600052601260045260246000fd5b600061115a82610e2a565b915061116583610e2a565b92508261117557611174611120565b5b828204905092915050565b600061118b82610e2a565b915061119683610e2a565b92508282019050808211156111ae576111ad6110af565b5b92915050565b7f496e73756666696369656e742072657061796d656e7400000000000000000000600082015250565b60006111ea601683610fc6565b91506111f5826111b4565b602082019050919050565b60006020820190508181036000830152611219816111dd565b9050919050565b60008115159050919050565b61123581611220565b82525050565b60006060820190506112506000830186610f9c565b61125d6020830185610e34565b61126a604083018461122c565b949350505050565b600081905092915050565b50565b600061128d600083611272565b91506112988261127d565b600082019050919050565b60006112ae82611280565b9150819050919050565b7f5472616e73666572206661696c65640000000000000000000000000000000000600082015250565b60006112ee600f83610fc6565b91506112f9826112b8565b602082019050919050565b6000602082019050818103600083015261131d816112e1565b9050919050565b600061132f82610e2a565b915061133a83610e2a565b9250828203905081811115611352576113516110af565b5b92915050565b7f526566756e64206661696c656400000000000000000000000000000000000000600082015250565b600061138e600d83610fc6565b915061139982611358565b602082019050919050565b600060208201905081810360008301526113bd81611381565b9050919050565b60006040820190506113d96000830185610e34565b6113e66020830184610e34565b9392505050565b7f496e73756666696369656e742066756e64730000000000000000000000000000600082015250565b6000611423601283610fc6565b915061142e826113ed565b602082019050919050565b6000602082019050818103600083015261145281611416565b9050919050565b7f426f72726f7765722063616e6e6f742066756e64206f776e206c6f616e000000600082015250565b600061148f601d83610fc6565b915061149a82611459565b602082019050919050565b600060208201905081810360008301526114be81611482565b9050919050565b7f4f6e6c7920666163746f72790000000000000000000000000000000000000000600082015250565b60006114fb600c83610fc6565b9150611506826114c5565b602082019050919050565b6000602082019050818103600083015261152a816114ee565b9050919050565b7f4e6f7420796574206f7665726475650000000000000000000000000000000000600082015250565b6000611567600f83610fc6565b915061157282611531565b602082019050919050565b600060208201905081810360008301526115968161155a565b9050919050565b60006040820190506115b26000830185610f9c565b6115bf6020830184610e34565b939250505056fea264697066735822122053e4792fd45b5cc2ee3536acdd413f8dbd2e8634cc87c8c357932ad5b37e22b964736f6c63430008180033",
  "linkReferences": {},
  "deployedLinkReferences": {}
}