{
  "_format": "hh-sol-artifact-1",
  "contractName": "Loan",
  "sourceName": "contracts/Loan.sol",
  "abi": [
    {
      "inputs": [
        {
          "internalType": "address",
          "name": "_borrower",
          "type": "address"
        },
        {
          "internalType": "uint256",
          "name": "_principal",
          "type": "uint256"
        },
        {
          "internalType": "uint256",
          "name": "_interestRateBps",
          "type": "uint256"
        },
        {
          "internalType": "uint256",
          "name": "_durationDays",
          "type": "uint256"
        },
        {
          "internalType": "address",
          "name": "_factory",
          "type": "address"
        },
        {
          "internalType": "address",
          "name": "_creditScore",
          "type": "address"
        }
      ],
      "stateMutability": "nonpayable",
      "type": "constructor"
    },
    {
      "anonymous": false,
      "inputs": [
        {
          "indexed": true,
          "internalType": "address",
          "name": "borrower",
          "type": "address"
        }
      ],
      "name": "LoanDefaulted",
      "type": "event"
    },
    {
      "anonymous": false,
      "inputs": [
        {
          "indexed": true,
          "internalType": "address",
          "name": "lender",
          "type": "address"
        },
        {
          "indexed": false,
          "internalType": "uint256",
          "name": "amount",
          "type": "uint256"
        }
      ],
      "name": "LoanFunded",
      "type": "event"
    },
    {
      "anonymous": false,
      "inputs": [
        {
          "indexed": true,
          "internalType": "address",
          "name": "lender",
          "type": "address"
        },
        {
          "indexed": false,
          "internalType": "uint256",
          "name": "amount",
          "type": "uint256"
        },
        {
          "indexed": false,
          "internalType": "uint256",
          "name": "remaining",
          "type": "uint256"
        }
      ],
      "name": "LoanPartiallyFunded",
      "type": "event"
    },
    {
      "anonymous": false,
      "inputs": [
        {
          "indexed": true,
          "internalType": "address",
          "name": "borrower",
          "type": "address"
        },
        {
          "indexed": false,
          "internalType": "uint256",
          "name": "principal",
          "type": "uint256"
        },
        {
          "indexed": false,
          "internalType": "uint256",
          "name": "interest",
          "type": "uint256"
        }
      ],
      "name": "LoanRepaid",
      "type": "event"
    },
    {
      "inputs": [],
      "name": "GRACE_PERIOD",
      "outputs": [
        {
          "internalType": "uint256",
          "name": "",
          "type": "uint256"
        }
      ],
      "stateMutability": "view",
      "type": "function"
    },
    {
      "inputs": [],
      "name": "borrower",
      "outputs": [
        {
          "internalType": "address",
          "name": "",
          "type": "address"
        }
      ],
      "stateMutability": "view",
      "type": "function"
    },
    {
      "inputs": [
        {
          "internalType": "address",
          "name": "",
          "type": "address"
        }
      ],
      "name": "contributions",
      "outputs": [
        {
          "internalType": "uint256",
          "name": "",
          "type": "uint256"
        }
      ],
      "stateMutability": "view",
      "type": "function"
    },
    {
      "inputs": [],
      "name": "creditScore",
      "outputs": [
        {
          "internalType": "contract ICreditScore",
          "name": "",
          "type": "address"
        }
      ],
      "stateMutability": "view",
      "type": "function"
    },
    {
      "inputs": [],
      "name": "durationDays",
      "outputs": [
        {
          "internalType": "uint256",
          "name": "",
          "type": "uint256"
        }
      ],
      "stateMutability": "view",
      "type": "function"
    },
    {
      "inputs": [],
      "name": "factory",
      "outputs": [
        {
          "internalType": "address",
          "name": "",
          "type": "address"
        }
      ],
      "stateMutability": "view",
      "type": "function"
    },
    {
      "inputs": [],
      "name": "fund",
      "outputs": [],
      "stateMutability": "payable",
      "type": "function"
    },
    {
      "inputs": [],
      "name": "fundedAt",
      "outputs": [
        {
          "internalType": "uint256",
          "name": "",
          "type": "uint256"
        }
      ],
      "stateMutability": "view",
      "type": "function"
    },
    {
      "inputs": [],
      "name": "getLendersCount",
      "outputs": [
        {
          "internalType": "uint256",
          "name": "",
          "type": "uint256"
        }
      ],
      "stateMutability": "view",
      "type": "function"
    },
    {
      "inputs": [],
      "name": "getTotalRepayment",
      "outputs": [
        {
          "internalType": "uint256",
          "name": "",
          "type": "uint256"
        }
      ],
      "stateMutability": "view",
      "type": "function"
    },
    {
      "inputs": [],
      "name": "interestRateBps",
      "outputs": [
        {
          "internalType": "uint256",
          "name": "",
          "type": "uint256"
        }
      ],
      "stateMutability": "view",
      "type": "function"
    },
    {
      "inputs": [
        {
          "internalType": "uint256",
          "name": "",
          "type": "uint256"
        }
      ],
      "name": "lenders",
      "outputs": [
        {
          "internalType": "address",
          "name": "",
          "type": "address"
        }
      ],
      "stateMutability": "view",
      "type": "function"
    },
    {
      "inputs": [],
      "name": "markDefaulted",
      "outputs": [],
      "stateMutability": "nonpayable",
      "type": "function"
    },
    {
      "inputs": [],
      "name": "principal",
      "outputs": [
        {
          "internalType": "uint256",
          "name": "",
          "type": "uint256"
        }
      ],
      "stateMutability": "view",
      "type": "function"
    },
    {
      "inputs": [],
      "name": "repay",
      "outputs": [],
      "stateMutability": "payable",
      "type": "function"
    },
    {
      "inputs": [],
      "name": "repaymentDeadline",
      "outputs": [
        {
          "internalType": "uint256",
          "name": "",
          "type": "uint256"
        }
      ],
      "stateMutability": "view",
      "type": "function"
    },
    {
      "inputs": [],
      "name": "status",
      "outputs": [
        {
          "internalType": "enum Loan.Status",
          "name": "",
          "type": "uint8"
        }
      ],
      "stateMutability": "view",
      "type": "function"
    },
    {
      "inputs": [],
      "name": "totalFunded",
      "outputs": [
        {
          "internalType": "uint256",
          "name": "",
          "type": "uint256"
        }
      ],
      "stateMutability": "view",
      "type": "function"
    }
  ],
  "bytecode": "0x60806040523480156200001157600080fd5b5060405162001e8438038062001e848339818101604052810190620000379190620001ed565b856000806101000a81548173ffffffffffffffffffffffffffffffffffffffff021916908373ffffffffffffffffffffffffffffffffffffffff16021790555084600181905550836002819055508260038190555081600960016101000a81548173ffffffffffffffffffffffffffffffffffffffff021916908373ffffffffffffffffffffffffffffffffffffffff16021790555080600a60006101000a81548173ffffffffffffffffffffffffffffffffffffffff021916908373ffffffffffffffffffffffffffffffffffffffff1602179055506000600960006101000a81548160ff0219169083600481111562000137576200013662000289565b5b0217905550505050505050620002b8565b600080fd5b600073ffffffffffffffffffffffffffffffffffffffff82169050919050565b60006200017a826200014d565b9050919050565b6200018c816200016d565b81146200019857600080fd5b50565b600081519050620001ac8162000181565b92915050565b6000819050919050565b620001c781620001b2565b8114620001d357600080fd5b50565b600081519050620001e781620001bc565b92915050565b60008060008060008060c087890312156200020d576200020c62000148565b5b60006200021d89828a016200019b565b96505060206200023089828a01620001d6565b95505060406200024389828a01620001d6565b94505060606200025689828a01620001d6565b93505060806200026989828a016200019b565b92505060a06200027c89828a016200019b565b9150509295509295509295565b7f4e487b7100000000000000000000000000000000000000000000000000000000600052602160045260246000fd5b611bbc80620002c86000396000f3fe6080604052600436106101095760003560e01c8063ad044f4911610095578063c1a287e211610064578063c1a287e21461031f578063c45a01551461034a578063c84a208b14610375578063d746d0b2146103a0578063dd541230146103cb57610109565b8063ad044f4914610294578063b60d4288146102bf578063ba5d3078146102c9578063c1709ba4146102f457610109565b806342e94c90116100dc57806342e94c90146101995780637df1f1b9146101d6578063929eea21146102015780639cd56d031461023e578063a9a748ff1461026957610109565b806319cc3aaa1461010e578063200d2ed21461013957806339da315214610164578063402d88831461018f575b600080fd5b34801561011a57600080fd5b506101236103e2565b604051610130919061131d565b60405180910390f35b34801561014557600080fd5b5061014e6103e8565b60405161015b91906113af565b60405180910390f35b34801561017057600080fd5b506101796103fb565b6040516101869190611449565b60405180910390f35b610197610421565b005b3480156101a557600080fd5b506101c060048036038101906101bb91906114a7565b610968565b6040516101cd919061131d565b60405180910390f35b3480156101e257600080fd5b506101eb610980565b6040516101f891906114e3565b60405180910390f35b34801561020d57600080fd5b506102286004803603810190610223919061152a565b6109a4565b60405161023591906114e3565b60405180910390f35b34801561024a57600080fd5b506102536109e3565b604051610260919061131d565b60405180910390f35b34801561027557600080fd5b5061027e6109e9565b60405161028b919061131d565b60405180910390f35b3480156102a057600080fd5b506102a96109ef565b6040516102b6919061131d565b60405180910390f35b6102c76109f5565b005b3480156102d557600080fd5b506102de610e5a565b6040516102eb919061131d565b60405180910390f35b34801561030057600080fd5b50610309610e60565b604051610316919061131d565b60405180910390f35b34801561032b57600080fd5b50610334610e6d565b604051610341919061131d565b60405180910390f35b34801561035657600080fd5b5061035f610e74565b60405161036c91906114e3565b60405180910390f35b34801561038157600080fd5b5061038a610e9a565b604051610397919061131d565b60405180910390f35b3480156103ac57600080fd5b506103b5610ea0565b6040516103c2919061131d565b60405180910390f35b3480156103d757600080fd5b506103e0610ed6565b005b60055481565b600960009054906101000a900460ff1681565b600a60009054906101000a900473ffffffffffffffffffffffffffffffffffffffff1681565b60008054906101000a900473ffffffffffffffffffffffffffffffffffffffff1673ffffffffffffffffffffffffffffffffffffffff163373ffffffffffffffffffffffffffffffffffffffff16146104af576040517f08c379a00000000000000000000000000000000000000000000000000000000081526004016104a6906115b4565b60405180910390fd5b600260048111156104c3576104c2611338565b5b600960009054906101000a900460ff1660048111156104e5576104e4611338565b5b14610525576040517f08c379a000000000000000000000000000000000000000000000000000000000815260040161051c90611620565b60405180910390fd5b600061271060025460015461053a919061166f565b61054491906116e0565b90506000816001546105569190611711565b90508034101561059b576040517f08c379a000000000000000000000000000000000000000000000000000000000815260040161059290611791565b60405180910390fd5b6003600960006101000a81548160ff021916908360048111156105c1576105c0611338565b5b021790555060006005544211159050600a60009054906101000a900473ffffffffffffffffffffffffffffffffffffffff1673ffffffffffffffffffffffffffffffffffffffff1663c48f139260008054906101000a900473ffffffffffffffffffffffffffffffffffffffff16600154846040518463ffffffff1660e01b8152600401610651939291906117cc565b600060405180830381600087803b15801561066b57600080fd5b505af115801561067f573d6000803e3d6000fd5b5050505060005b600780549050811015610807576000600782815481106106a9576106a8611803565b5b9060005260206000200160009054906101000a900473ffffffffffffffffffffffffffffffffffffffff1690506000600860008373ffffffffffffffffffffffffffffffffffffffff1673ffffffffffffffffffffffffffffffffffffffff16815260200190815260200160002054905060006127106002548361072d919061166f565b61073791906116e0565b9050600081836107479190611711565b905060008473ffffffffffffffffffffffffffffffffffffffff168260405161076f90611863565b60006040518083038185875af1925050503d80600081146107ac576040519150601f19603f3d011682016040523d82523d6000602084013e6107b1565b606091505b50509050806107f5576040517f08c379a00000000000000000000000000000000000000000000000000000000081526004016107ec906118c4565b60405180910390fd5b50505050508080600101915050610686565b506000823461081691906118e4565b905060008111156108f05760008060009054906101000a900473ffffffffffffffffffffffffffffffffffffffff1673ffffffffffffffffffffffffffffffffffffffff168260405161086890611863565b60006040518083038185875af1925050503d80600081146108a5576040519150601f19603f3d011682016040523d82523d6000602084013e6108aa565b606091505b50509050806108ee576040517f08c379a00000000000000000000000000000000000000000000000000000000081526004016108e590611964565b60405180910390fd5b505b60008054906101000a900473ffffffffffffffffffffffffffffffffffffffff1673ffffffffffffffffffffffffffffffffffffffff167fc7ce0a35f17b490de2a317e7fecb2cae86b1abffb03800b2f4928235213826986001548660405161095a929190611984565b60405180910390a250505050565b60086020528060005260406000206000915090505481565b60008054906101000a900473ffffffffffffffffffffffffffffffffffffffff1681565b600781815481106109b457600080fd5b906000526020600020016000915054906101000a900473ffffffffffffffffffffffffffffffffffffffff1681565b60035481565b60045481565b60065481565b60006004811115610a0957610a08611338565b5b600960009054906101000a900460ff166004811115610a2b57610a2a611338565b5b14610a6b576040517f08c379a0000000000000000000000000000000000000000000000000000000008152600401610a6290611620565b60405180910390fd5b60008054906101000a900473ffffffffffffffffffffffffffffffffffffffff1673ffffffffffffffffffffffffffffffffffffffff163373ffffffffffffffffffffffffffffffffffffffff1603610af9576040517f08c379a0000000000000000000000000000000000000000000000000000000008152600401610af0906119f9565b60405180910390fd5b60003411610b3c576040517f08c379a0000000000000000000000000000000000000000000000000000000008152600401610b3390611a65565b60405180910390fd5b6000600654600154610b4e91906118e4565b90506000813411610b5f5734610b61565b815b90506000600860003373ffffffffffffffffffffffffffffffffffffffff1673ffffffffffffffffffffffffffffffffffffffff1681526020019081526020016000205403610c0e576007339080600181540180825580915050600190039060005260206000200160009091909190916101000a81548173ffffffffffffffffffffffffffffffffffffffff021916908373ffffffffffffffffffffffffffffffffffffffff1602179055505b80600860003373ffffffffffffffffffffffffffffffffffffffff1673ffffffffffffffffffffffffffffffffffffffff1681526020019081526020016000206000828254610c5d9190611711565b925050819055508060066000828254610c769190611711565b9250508190555060015460065403610d2f576002600960006101000a81548160ff02191690836004811115610cae57610cad611338565b5b02179055504260048190555062015180600354610ccb919061166f565b42610cd69190611711565b6005819055503373ffffffffffffffffffffffffffffffffffffffff167f726d5f1a838fe31748f737fa3ae5539ccff95952adfc593a1299532b643ff7a882604051610d22919061131d565b60405180910390a2610d8f565b3373ffffffffffffffffffffffffffffffffffffffff167f76c20c612f84fec84b11ebe787ca5c8a5d9b7b1499bef933808600e894bb38a582600654600154610d7891906118e4565b604051610d86929190611984565b60405180910390a25b80341115610e565760008134610da591906118e4565b905060003373ffffffffffffffffffffffffffffffffffffffff1682604051610dcd90611863565b60006040518083038185875af1925050503d8060008114610e0a576040519150601f19603f3d011682016040523d82523d6000602084013e610e0f565b606091505b5050905080610e53576040517f08c379a0000000000000000000000000000000000000000000000000000000008152600401610e4a90611964565b60405180910390fd5b50505b5050565b60015481565b6000600780549050905090565b6203f48081565b600960019054906101000a900473ffffffffffffffffffffffffffffffffffffffff1681565b60025481565b600080612710600254600154610eb6919061166f565b610ec091906116e0565b905080600154610ed09190611711565b91505090565b60026004811115610eea57610ee9611338565b5b600960009054906101000a900460ff166004811115610f0c57610f0b611338565b5b14610f4c576040517f08c379a0000000000000000000000000000000000000000000000000000000008152600401610f4390611620565b60405180910390fd5b600960019054906101000a900473ffffffffffffffffffffffffffffffffffffffff1673ffffffffffffffffffffffffffffffffffffffff163373ffffffffffffffffffffffffffffffffffffffff1614610ff8576203f480600554610fb29190611711565b4211610ff3576040517f08c379a0000000000000000000000000000000000000000000000000000000008152600401610fea90611ad1565b60405180910390fd5b61103d565b600554421161103c576040517f08c379a000000000000000000000000000000000000000000000000000000000815260040161103390611b3d565b60405180910390fd5b5b6004600960006101000a81548160ff0219169083600481111561106357611062611338565b5b0217905550600a60009054906101000a900473ffffffffffffffffffffffffffffffffffffffff1673ffffffffffffffffffffffffffffffffffffffff1663cd4544f260008054906101000a900473ffffffffffffffffffffffffffffffffffffffff166001546040518363ffffffff1660e01b81526004016110e7929190611b5d565b600060405180830381600087803b15801561110157600080fd5b505af1158015611115573d6000803e3d6000fd5b505050506000479050600081111561129e5760005b60078054905081101561129c5760006007828154811061114d5761114c611803565b5b9060005260206000200160009054906101000a900473ffffffffffffffffffffffffffffffffffffffff169050600060015484600860008573ffffffffffffffffffffffffffffffffffffffff1673ffffffffffffffffffffffffffffffffffffffff168152602001908152602001600020546111ca919061166f565b6111d491906116e0565b9050600081111561128d5760008273ffffffffffffffffffffffffffffffffffffffff168260405161120590611863565b60006040518083038185875af1925050503d8060008114611242576040519150601f19603f3d011682016040523d82523d6000602084013e611247565b606091505b505090508061128b576040517f08c379a0000000000000000000000000000000000000000000000000000000008152600401611282906118c4565b60405180910390fd5b505b5050808060010191505061112a565b505b60008054906101000a900473ffffffffffffffffffffffffffffffffffffffff1673ffffffffffffffffffffffffffffffffffffffff167ff4e5cf42cbb1d0c6c91e16d925349feb6c5d970652f6ec77b1ff1262f7284cd560405160405180910390a250565b6000819050919050565b61131781611304565b82525050565b6000602082019050611332600083018461130e565b92915050565b7f4e487b7100000000000000000000000000000000000000000000000000000000600052602160045260246000fd5b6005811061137857611377611338565b5b50565b600081905061138982611367565b919050565b60006113998261137b565b9050919050565b6113a98161138e565b82525050565b60006020820190506113c460008301846113a0565b92915050565b600073ffffffffffffffffffffffffffffffffffffffff82169050919050565b6000819050919050565b600061140f61140a611405846113ca565b6113ea565b6113ca565b9050919050565b6000611421826113f4565b9050919050565b600061143382611416565b9050919050565b61144381611428565b82525050565b600060208201905061145e600083018461143a565b92915050565b600080fd5b6000611474826113ca565b9050919050565b61148481611469565b811461148f57600080fd5b50565b6000813590506114a18161147b565b92915050565b6000602082840312156114bd576114bc611464565b5b60006114cb84828501611492565b91505092915050565b6114dd81611469565b82525050565b60006020820190506114f860008301846114d4565b92915050565b61150781611304565b811461151257600080fd5b50565b600081359050611524816114fe565b92915050565b6000602082840312156115405761153f611464565b5b600061154e84828501611515565b91505092915050565b600082825260208201905092915050565b7f4f6e6c7920626f72726f77657200000000000000000000000000000000000000600082015250565b600061159e600d83611557565b91506115a982611568565b602082019050919050565b600060208201905081810360008301526115cd81611591565b9050919050565b7f496e76616c696420737461747573000000000000000000000000000000000000600082015250565b600061160a600e83611557565b9150611615826115d4565b602082019050919050565b60006020820190508181036000830152611639816115fd565b9050919050565b7f4e487b7100000000000000000000000000000000000000000000000000000000600052601160045260246000fd5b600061167a82611304565b915061168583611304565b925082820261169381611304565b915082820484148315176116aa576116a9611640565b5b5092915050565b7f4e487b7100000000000000000000000000000000000000000000000000000000600052601260045260246000fd5b60006116eb82611304565b91506116f683611304565b925082611706576117056116b1565b5b828204905092915050565b600061171c82611304565b915061172783611304565b925082820190508082111561173f5761173e611640565b5b92915050565b7f496e73756666696369656e742072657061796d656e7400000000000000000000600082015250565b600061177b601683611557565b915061178682611745565b602082019050919050565b600060208201905081810360008301526117aa8161176e565b9050919050565b60008115159050919050565b6117c6816117b1565b82525050565b60006060820190506117e160008301866114d4565b6117ee602083018561130e565b6117fb60408301846117bd565b949350505050565b7f4e487b7100000000000000000000000000000000000000000000000000000000600052603260045260246000fd5b600081905092915050565b50565b600061184d600083611832565b91506118588261183d565b600082019050919050565b600061186e82611840565b9150819050919050565b7f5472616e73666572206661696c656420746f206c656e64657200000000000000600082015250565b60006118ae601983611557565b91506118b982611878565b602082019050919050565b600060208201905081810360008301526118dd816118a1565b9050919050565b60006118ef82611304565b91506118fa83611304565b925082820390508181111561191257611911611640565b5b92915050565b7f526566756e64206661696c656400000000000000000000000000000000000000600082015250565b600061194e600d83611557565b915061195982611918565b602082019050919050565b6000602082019050818103600083015261197d81611941565b9050919050565b6000604082019050611999600083018561130e565b6119a6602083018461130e565b9392505050565b7f426f72726f7765722063616e6e6f742066756e64206f776e206c6f616e000000600082015250565b60006119e3601d83611557565b91506119ee826119ad565b602082019050919050565b60006020820190508181036000830152611a12816119d6565b9050919050565b7f4e6f2076616c75652073656e7400000000000000000000000000000000000000600082015250565b6000611a4f600d83611557565b9150611a5a82611a19565b602082019050919050565b60006020820190508181036000830152611a7e81611a42565b9050919050565b7f477261636520706572696f642061637469766500000000000000000000000000600082015250565b6000611abb601383611557565b9150611ac682611a85565b602082019050919050565b60006020820190508181036000830152611aea81611aae565b9050919050565b7f4e6f7420796574206f7665726475650000000000000000000000000000000000600082015250565b6000611b27600f83611557565b9150611b3282611af1565b602082019050919050565b60006020820190508181036000830152611b5681611b1a565b9050919050565b6000604082019050611b7260008301856114d4565b611b7f602083018461130e565b939250505056fea264697066735822122040f04c7854fcfbb5f462357e1d11c19f9a37b0d5065ce43ba9b154bc1177046f64736f6c63430008180033",
  "linkReferences": {},
  "deployedLinkReferences": {}
}