{
  "_format": "hh-sol-artifact-1",
  "contractName": "LoanFactory",
  "sourceName": "contracts/LoanFactory.sol",
  "abi": [
    {
      "inputs": [],
      "stateMutability": "nonpayable",
      "type": "constructor"
    },
    {
      "anonymous": false,
      "inputs": [
        {
          "indexed": true,
          "internalType": "uint256",
          "name": "loanId",
          "type": "uint256"
        },
        {
          "indexed": true,
          "internalType": "address",
          "name": "borrower",
          "type": "address"
        },
        {
          "indexed": false,
          "internalType": "uint256",
          "name": "principal",
          "type": "uint256"
        },
        {
          "indexed": false,
          "internalType": "uint256",
          "name": "interestRateBps",
          "type": "uint256"
        },
        {
          "indexed": false,
          "internalType": "uint256",
          "name": "durationDays",
          "type": "uint256"
        }
      ],
      "name": "LoanCreated",
      "type": "event"
    },
    {
      "inputs": [
        {
          "internalType": "uint256",
          "name": "principal",
          "type": "uint256"
        },
        {
          "internalType": "uint256",
          "name": "interestRateBps",
          "type": "uint256"
        },
        {
          "internalType": "uint256",
          "name": "durationDays",
          "type": "uint256"
        }
      ],
      "name": "createLoan",
      "outputs": [
        {
          "internalType": "uint256",
          "name": "loanId",
          "type": "uint256"
        }
      ],
      "stateMutability": "nonpayable",
      "type": "function"
    },
    {
      "inputs": [],
      "name": "creditScore",
      "outputs": [
        {
          "internalType": "contract CreditScore",
          "name": "",
          "type": "address"
        }
      ],
      "stateMutability": "view",
      "type": "function"
    },
    {
      "inputs": [],
      "name": "getCreditScore",
      "outputs": [
        {
          "internalType": "address",
          "name": "",
          "type": "address"
        }
      ],
      "stateMutability": "view",
      "type": "function"
    },
    {
      "inputs": [
        {
          "internalType": "uint256",
          "name": "loanId",
          "type": "uint256"
        }
      ],
      "name": "getLoan",
      "outputs": [
        {
          "internalType": "address",
          "name": "",
          "type": "address"
        }
      ],
      "stateMutability": "view",
      "type": "function"
    },
    {
      "inputs": [],
      "name": "listLoans",
      "outputs": [
        {
          "internalType": "address[]",
          "name": "",
          "type": "address[]"
        }
      ],
      "stateMutability": "view",
      "type": "function"
    },
    {
      "inputs": [],
      "name": "loanCount",
      "outputs": [
        {
          "internalType": "uint256",
          "name": "",
          "type": "uint256"
        }
      ],
      "stateMutability": "view",
      "type": "function"
    },
    {
      "inputs": [
        {
          "internalType": "uint256",
          "name": "",
          "type": "uint256"
        }
      ],
      "name": "loans",
      "outputs": [
        {
          "internalType": "contract Loan",
          "name": "",
          "type": "address"
        }
      ],
      "stateMutability": "view",
      "type": "function"
    },
    {
      "inputs": [
        {
          "internalType": "uint256",
          "name": "loanId",
          "type": "uint256"
        }
      ],
      "name": "markLoanDefaulted",
      "outputs": [],
      "stateMutability": "nonpayable",
      "type": "function"
    }
  ],
  "bytecode": "0x608060405234801561001057600080fd5b503060405161001e9061008a565b61002891906100d9565b604051809103906000f080158015610044573d6000803e3d6000fd5b50600160006101000a81548173ffffffffffffffffffffffffffffffffffffffff021916908373ffffffffffffffffffffffffffffffffffffffff1602179055506100f4565b610f48806200288183390190565b600073ffffffffffffffffffffffffffffffffffffffff82169050919050565b60006100c382610098565b9050919050565b6100d3816100b8565b82525050565b60006020820190506100ee60008301846100ca565b92915050565b61277d80620001046000396000f3fe60806040523480156200001157600080fd5b5060043610620000945760003560e01c8063904b513b1162000063578063904b513b1462000135578063ce63094d146200016b578063d92d7d77146200018d578063e1ec3c6814620001ad5762000094565b806339da31521462000099578063504006ca14620000bb5780635a2c450914620000f15780635da195381462000113575b600080fd5b620000a3620001e3565b604051620000b29190620008e6565b60405180910390f35b620000d96004803603810190620000d3919062000943565b62000209565b604051620000e891906200099a565b60405180910390f35b620000fb6200029d565b6040516200010a919062000a85565b60405180910390f35b6200011d620003ad565b6040516200012c91906200099a565b60405180910390f35b6200015360048036038101906200014d919062000aa9565b620003d7565b60405162000162919062000b16565b60405180910390f35b6200017562000711565b60405162000184919062000b16565b60405180910390f35b620001ab6004803603810190620001a5919062000943565b6200071d565b005b620001cb6004803603810190620001c5919062000943565b6200080d565b604051620001da919062000b58565b60405180910390f35b600160009054906101000a900473ffffffffffffffffffffffffffffffffffffffff1681565b60008080549050821062000254576040517f08c379a00000000000000000000000000000000000000000000000000000000081526004016200024b9062000bd6565b60405180910390fd5b600082815481106200026b576200026a62000bf8565b5b9060005260206000200160009054906101000a900473ffffffffffffffffffffffffffffffffffffffff169050919050565b60606000808054905067ffffffffffffffff811115620002c257620002c162000c27565b5b604051908082528060200260200182016040528015620002f15781602001602082028036833780820191505090505b50905060005b600080549050811015620003a557600081815481106200031c576200031b62000bf8565b5b9060005260206000200160009054906101000a900473ffffffffffffffffffffffffffffffffffffffff168282815181106200035d576200035c62000bf8565b5b602002602001019073ffffffffffffffffffffffffffffffffffffffff16908173ffffffffffffffffffffffffffffffffffffffff16815250508080600101915050620002f7565b508091505090565b6000600160009054906101000a900473ffffffffffffffffffffffffffffffffffffffff16905090565b60008084116200041e576040517f08c379a0000000000000000000000000000000000000000000000000000000008152600401620004159062000ca6565b60405180910390fd5b61271083111562000466576040517f08c379a00000000000000000000000000000000000000000000000000000000081526004016200045d9062000d18565b60405180910390fd5b600182101580156200047a575061016d8211155b620004bc576040517f08c379a0000000000000000000000000000000000000000000000000000000008152600401620004b39062000d8a565b60405180910390fd5b60003385858530600160009054906101000a900473ffffffffffffffffffffffffffffffffffffffff16604051620004f4906200084d565b620005059695949392919062000dac565b604051809103906000f08015801562000522573d6000803e3d6000fd5b50905060008054905091506000819080600181540180825580915050600190039060005260206000200160009091909190916101000a81548173ffffffffffffffffffffffffffffffffffffffff021916908373ffffffffffffffffffffffffffffffffffffffff160217905550600160009054906101000a900473ffffffffffffffffffffffffffffffffffffffff1673ffffffffffffffffffffffffffffffffffffffff166319ed29fa826040518263ffffffff1660e01b8152600401620005ed91906200099a565b600060405180830381600087803b1580156200060857600080fd5b505af11580156200061d573d6000803e3d6000fd5b50505050600160009054906101000a900473ffffffffffffffffffffffffffffffffffffffff1673ffffffffffffffffffffffffffffffffffffffff166364b1235533876040518363ffffffff1660e01b81526004016200068092919062000e19565b600060405180830381600087803b1580156200069b57600080fd5b505af1158015620006b0573d6000803e3d6000fd5b505050503373ffffffffffffffffffffffffffffffffffffffff16827fb2cca1719ad611d325136b9c9a4357f412d33694d93c60d4c1b6e922d524cf59878787604051620007019392919062000e46565b60405180910390a3509392505050565b60008080549050905090565b600080549050811062000767576040517f08c379a00000000000000000000000000000000000000000000000000000000081526004016200075e9062000bd6565b60405180910390fd5b600081815481106200077e576200077d62000bf8565b5b9060005260206000200160009054906101000a900473ffffffffffffffffffffffffffffffffffffffff1673ffffffffffffffffffffffffffffffffffffffff1663dd5412306040518163ffffffff1660e01b8152600401600060405180830381600087803b158015620007f157600080fd5b505af115801562000806573d6000803e3d6000fd5b5050505050565b600081815481106200081e57600080fd5b906000526020600020016000915054906101000a900473ffffffffffffffffffffffffffffffffffffffff1681565b6118c48062000e8483390190565b600073ffffffffffffffffffffffffffffffffffffffff82169050919050565b6000819050919050565b6000620008a6620008a06200089a846200085b565b6200087b565b6200085b565b9050919050565b6000620008ba8262000885565b9050919050565b6000620008ce82620008ad565b9050919050565b620008e081620008c1565b82525050565b6000602082019050620008fd6000830184620008d5565b92915050565b600080fd5b6000819050919050565b6200091d8162000908565b81146200092957600080fd5b50565b6000813590506200093d8162000912565b92915050565b6000602082840312156200095c576200095b62000903565b5b60006200096c848285016200092c565b91505092915050565b600062000982826200085b565b9050919050565b620009948162000975565b82525050565b6000602082019050620009b1600083018462000989565b92915050565b600081519050919050565b600082825260208201905092915050565b6000819050602082019050919050565b620009ee8162000975565b82525050565b600062000a028383620009e3565b60208301905092915050565b6000602082019050919050565b600062000a2882620009b7565b62000a348185620009c2565b935062000a4183620009d3565b8060005b8381101562000a7857815162000a5c8882620009f4565b975062000a698362000a0e565b92505060018101905062000a45565b5085935050505092915050565b6000602082019050818103600083015262000aa1818462000a1b565b905092915050565b60008060006060848603121562000ac55762000ac462000903565b5b600062000ad5868287016200092c565b935050602062000ae8868287016200092c565b925050604062000afb868287016200092c565b9150509250925092565b62000b108162000908565b82525050565b600060208201905062000b2d600083018462000b05565b92915050565b600062000b4082620008ad565b9050919050565b62000b528162000b33565b82525050565b600060208201905062000b6f600083018462000b47565b92915050565b600082825260208201905092915050565b7f496e76616c6964206c6f616e0000000000000000000000000000000000000000600082015250565b600062000bbe600c8362000b75565b915062000bcb8262000b86565b602082019050919050565b6000602082019050818103600083015262000bf18162000baf565b9050919050565b7f4e487b7100000000000000000000000000000000000000000000000000000000600052603260045260246000fd5b7f4e487b7100000000000000000000000000000000000000000000000000000000600052604160045260246000fd5b7f5a65726f207072696e636970616c000000000000000000000000000000000000600082015250565b600062000c8e600e8362000b75565b915062000c9b8262000c56565b602082019050919050565b6000602082019050818103600083015262000cc18162000c7f565b9050919050565b7f496e76616c696420726174650000000000000000000000000000000000000000600082015250565b600062000d00600c8362000b75565b915062000d0d8262000cc8565b602082019050919050565b6000602082019050818103600083015262000d338162000cf1565b9050919050565b7f496e76616c6964206475726174696f6e00000000000000000000000000000000600082015250565b600062000d7260108362000b75565b915062000d7f8262000d3a565b602082019050919050565b6000602082019050818103600083015262000da58162000d63565b9050919050565b600060c08201905062000dc3600083018962000989565b62000dd2602083018862000b05565b62000de1604083018762000b05565b62000df0606083018662000b05565b62000dff608083018562000989565b62000e0e60a083018462000989565b979650505050505050565b600060408201905062000e30600083018562000989565b62000e3f602083018462000b05565b9392505050565b600060608201905062000e5d600083018662000b05565b62000e6c602083018562000b05565b62000e7b604083018462000b05565b94935050505056fe60806040523480156200001157600080fd5b50604051620018c4380380620018c48339818101604052810190620000379190620001ed565b856000806101000a81548173ffffffffffffffffffffffffffffffffffffffff021916908373ffffffffffffffffffffffffffffffffffffffff16021790555084600281905550836003819055508260048190555081600760016101000a81548173ffffffffffffffffffffffffffffffffffffffff021916908373ffffffffffffffffffffffffffffffffffffffff16021790555080600860006101000a81548173ffffffffffffffffffffffffffffffffffffffff021916908373ffffffffffffffffffffffffffffffffffffffff1602179055506000600760006101000a81548160ff0219169083600481111562000137576200013662000289565b5b0217905550505050505050620002b8565b600080fd5b600073ffffffffffffffffffffffffffffffffffffffff82169050919050565b60006200017a826200014d565b9050919050565b6200018c816200016d565b81146200019857600080fd5b50565b600081519050620001ac8162000181565b92915050565b6000819050919050565b620001c781620001b2565b8114620001d357600080fd5b50565b600081519050620001e781620001bc565b92915050565b60008060008060008060c087890312156200020d576200020c62000148565b5b60006200021d89828a016200019b565b96505060206200023089828a01620001d6565b95505060406200024389828a01620001d6565b94505060606200025689828a01620001d6565b93505060806200026989828a016200019b565b92505060a06200027c89828a016200019b565b9150509295509295509295565b7f4e487b7100000000000000000000000000000000000000000000000000000000600052602160045260246000fd5b6115fc80620002c86000396000f3fe6080604052600436106100dd5760003560e01c8063b60d42881161007f578063c45a015511610059578063c45a01551461024e578063c84a208b14610279578063d746d0b2146102a4578063dd541230146102cf576100dd565b8063b60d4288146101ee578063ba5d3078146101f8578063bcead63e14610223576100dd565b8063402d8883116100bb578063402d8883146101635780637df1f1b91461016d5780639cd56d0314610198578063a9a748ff146101c3576100dd565b806319cc3aaa146100e2578063200d2ed21461010d57806339da315214610138575b600080fd5b3480156100ee57600080fd5b506100f76102e6565b6040516101049190610e43565b60405180910390f35b34801561011957600080fd5b506101226102ec565b60405161012f9190610ed5565b60405180910390f35b34801561014457600080fd5b5061014d6102ff565b60405161015a9190610f6f565b60405180910390f35b61016b610325565b005b34801561017957600080fd5b506101826107b6565b60405161018f9190610fab565b60405180910390f35b3480156101a457600080fd5b506101ad6107da565b6040516101ba9190610e43565b60405180910390f35b3480156101cf57600080fd5b506101d86107e0565b6040516101e59190610e43565b60405180910390f35b6101f66107e6565b005b34801561020457600080fd5b5061020d610a38565b60405161021a9190610e43565b60405180910390f35b34801561022f57600080fd5b50610238610a3e565b6040516102459190610fab565b60405180910390f35b34801561025a57600080fd5b50610263610a64565b6040516102709190610fab565b60405180910390f35b34801561028557600080fd5b5061028e610a8a565b60405161029b9190610e43565b60405180910390f35b3480156102b057600080fd5b506102b9610a90565b6040516102c69190610e43565b60405180910390f35b3480156102db57600080fd5b506102e4610ac6565b005b60065481565b600760009054906101000a900460ff1681565b600860009054906101000a900473ffffffffffffffffffffffffffffffffffffffff1681565b60008054906101000a900473ffffffffffffffffffffffffffffffffffffffff1673ffffffffffffffffffffffffffffffffffffffff163373ffffffffffffffffffffffffffffffffffffffff16146103b3576040517f08c379a00000000000000000000000000000000000000000000000000000000081526004016103aa90611023565b60405180910390fd5b600260048111156103c7576103c6610e5e565b5b600760009054906101000a900460ff1660048111156103e9576103e8610e5e565b5b14610429576040517f08c379a00000000000000000000000000000000000000000000000000000000081526004016104209061108f565b60405180910390fd5b600061271060035460025461043e91906110de565b610448919061114f565b905060008160025461045a9190611180565b90508034101561049f576040517f08c379a000000000000000000000000000000000000000000000000000000000815260040161049690611200565b60405180910390fd5b6003600760006101000a81548160ff021916908360048111156104c5576104c4610e5e565b5b021790555060006006544211159050600860009054906101000a900473ffffffffffffffffffffffffffffffffffffffff1673ffffffffffffffffffffffffffffffffffffffff1663c48f139260008054906101000a900473ffffffffffffffffffffffffffffffffffffffff16600254846040518463ffffffff1660e01b81526004016105559392919061123b565b600060405180830381600087803b15801561056f57600080fd5b505af1158015610583573d6000803e3d6000fd5b505050506000600160009054906101000a900473ffffffffffffffffffffffffffffffffffffffff1673ffffffffffffffffffffffffffffffffffffffff16836040516105cf906112a3565b60006040518083038185875af1925050503d806000811461060c576040519150601f19603f3d011682016040523d82523d6000602084013e610611565b606091505b5050905080610655576040517f08c379a000000000000000000000000000000000000000000000000000000000815260040161064c90611304565b60405180910390fd5b600083346106639190611324565b9050600081111561073d5760008060009054906101000a900473ffffffffffffffffffffffffffffffffffffffff1673ffffffffffffffffffffffffffffffffffffffff16826040516106b5906112a3565b60006040518083038185875af1925050503d80600081146106f2576040519150601f19603f3d011682016040523d82523d6000602084013e6106f7565b606091505b505090508061073b576040517f08c379a0000000000000000000000000000000000000000000000000000000008152600401610732906113a4565b60405180910390fd5b505b60008054906101000a900473ffffffffffffffffffffffffffffffffffffffff1673ffffffffffffffffffffffffffffffffffffffff167fc7ce0a35f17b490de2a317e7fecb2cae86b1abffb03800b2f492823521382698600254876040516107a79291906113c4565b60405180910390a25050505050565b60008054906101000a900473ffffffffffffffffffffffffffffffffffffffff1681565b60045481565b60055481565b600060048111156107fa576107f9610e5e565b5b600760009054906101000a900460ff16600481111561081c5761081b610e5e565b5b1461085c576040517f08c379a00000000000000000000000000000000000000000000000000000000081526004016108539061108f565b60405180910390fd5b6002543410156108a1576040517f08c379a000000000000000000000000000000000000000000000000000000000815260040161089890611439565b60405180910390fd5b60008054906101000a900473ffffffffffffffffffffffffffffffffffffffff1673ffffffffffffffffffffffffffffffffffffffff163373ffffffffffffffffffffffffffffffffffffffff160361092f576040517f08c379a0000000000000000000000000000000000000000000000000000000008152600401610926906114a5565b60405180910390fd5b33600160006101000a81548173ffffffffffffffffffffffffffffffffffffffff021916908373ffffffffffffffffffffffffffffffffffffffff160217905550426005819055506201518060045461098891906110de565b426109939190611180565b6006819055506002600760006101000a81548160ff021916908360048111156109bf576109be610e5e565b5b0217905550600160009054906101000a900473ffffffffffffffffffffffffffffffffffffffff1673ffffffffffffffffffffffffffffffffffffffff167f726d5f1a838fe31748f737fa3ae5539ccff95952adfc593a1299532b643ff7a8600254604051610a2e9190610e43565b60405180910390a2565b60025481565b600160009054906101000a900473ffffffffffffffffffffffffffffffffffffffff1681565b600760019054906101000a900473ffffffffffffffffffffffffffffffffffffffff1681565b60035481565b600080612710600354600254610aa691906110de565b610ab0919061114f565b905080600254610ac09190611180565b91505090565b600760019054906101000a900473ffffffffffffffffffffffffffffffffffffffff1673ffffffffffffffffffffffffffffffffffffffff163373ffffffffffffffffffffffffffffffffffffffff1614610b56576040517f08c379a0000000000000000000000000000000000000000000000000000000008152600401610b4d90611511565b60405180910390fd5b60026004811115610b6a57610b69610e5e565b5b600760009054906101000a900460ff166004811115610b8c57610b8b610e5e565b5b14610bcc576040517f08c379a0000000000000000000000000000000000000000000000000000000008152600401610bc39061108f565b60405180910390fd5b6006544211610c10576040517f08c379a0000000000000000000000000000000000000000000000000000000008152600401610c079061157d565b60405180910390fd5b6004600760006101000a81548160ff02191690836004811115610c3657610c35610e5e565b5b0217905550600860009054906101000a900473ffffffffffffffffffffffffffffffffffffffff1673ffffffffffffffffffffffffffffffffffffffff1663cd4544f260008054906101000a900473ffffffffffffffffffffffffffffffffffffffff166002546040518363ffffffff1660e01b8152600401610cba92919061159d565b600060405180830381600087803b158015610cd457600080fd5b505af1158015610ce8573d6000803e3d6000fd5b505050506000471115610dc5576000600160009054906101000a900473ffffffffffffffffffffffffffffffffffffffff1673ffffffffffffffffffffffffffffffffffffffff1647604051610d3d906112a3565b60006040518083038185875af1925050503d8060008114610d7a576040519150601f19603f3d011682016040523d82523d6000602084013e610d7f565b606091505b5050905080610dc3576040517f08c379a0000000000000000000000000000000000000000000000000000000008152600401610dba90611304565b60405180910390fd5b505b60008054906101000a900473ffffffffffffffffffffffffffffffffffffffff1673ffffffffffffffffffffffffffffffffffffffff167ff4e5cf42cbb1d0c6c91e16d925349feb6c5d970652f6ec77b1ff1262f7284cd560405160405180910390a2565b6000819050919050565b610e3d81610e2a565b82525050565b6000602082019050610e586000830184610e34565b92915050565b7f4e487b7100000000000000000000000000000000000000000000000000000000600052602160045260246000fd5b60058110610e9e57610e9d610e5e565b5b50565b6000819050610eaf82610e8d565b919050565b6000610ebf82610ea1565b9050919050565b610ecf81610eb4565b82525050565b6000602082019050610eea6000830184610ec6565b92915050565b600073ffffffffffffffffffffffffffffffffffffffff82169050919050565b6000819050919050565b6000610f35610f30610f2b84610ef0565b610f10565b610ef0565b9050919050565b6000610f4782610f1a565b9050919050565b6000610f5982610f3c565b9050919050565b610f6981610f4e565b82525050565b6000602082019050610f846000830184610f60565b92915050565b6000610f9582610ef0565b9050919050565b610fa581610f8a565b82525050565b6000602082019050610fc06000830184610f9c565b92915050565b600082825260208201905092915050565b7f4f6e6c7920626f72726f77657200000000000000000000000000000000000000600082015250565b600061100d600d83610fc6565b915061101882610fd7565b602082019050919050565b6000602082019050818103600083015261103c81611000565b9050919050565b7f496e76616c696420737461747573000000000000000000000000000000000000600082015250565b6000611079600e83610fc6565b915061108482611043565b602082019050919050565b600060208201905081810360008301526110a88161106c565b9050919050565b7f4e487b7100000000000000000000000000000000000000000000000000000000600052601160045260246000fd5b60006110e982610e2a565b91506110f483610e2a565b925082820261110281610e2a565b91508282048414831517611119576111186110af565b5b5092915050565b7f4e487b7100000000000000000000000000000000000000000000000000000000600052601260045260246000fd5b600061115a82610e2a565b915061116583610e2a565b92508261117557611174611120565b5b828204905092915050565b600061118b82610e2a565b915061119683610e2a565b92508282019050808211156111ae576111ad6110af565b5b92915050565b7f496e73756666696369656e742072657061796d656e7400000000000000000000600082015250565b60006111ea601683610fc6565b91506111f5826111b4565b602082019050919050565b60006020820190508181036000830152611219816111dd565b9050919050565b60008115159050919050565b61123581611220565b82525050565b60006060820190506112506000830186610f9c565b61125d6020830185610e34565b61126a604083018461122c565b949350505050565b600081905092915050565b50565b600061128d600083611272565b91506112988261127d565b600082019050919050565b60006112ae82611280565b9150819050919050565b7f5472616e73666572206661696c65640000000000000000000000000000000000600082015250565b60006112ee600f83610fc6565b91506112f9826112b8565b602082019050919050565b6000602082019050818103600083015261131d816112e1565b9050919050565b600061132f82610e2a565b915061133a83610e2a565b9250828203905081811115611352576113516110af565b5b92915050565b7f526566756e64206661696c656400000000000000000000000000000000000000600082015250565b600061138e600d83610fc6565b915061139982611358565b602082019050919050565b600060208201905081810360008301526113bd81611381565b9050919050565b60006040820190506113d96000830185610e34565b6113e66020830184610e34565b9392505050565b7f496e73756666696369656e742066756e64730000000000000000000000000000600082015250565b6000611423601283610fc6565b915061142e826113ed565b602082019050919050565b6000602082019050818103600083015261145281611416565b9050919050565b7f426f72726f7765722063616e6e6f742066756e64206f776e206c6f616e000000600082015250565b600061148f601d83610fc6565b915061149a82611459565b602082019050919050565b600060208201905081810360008301526114be81611482565b9050919050565b7f4f6e6c7920666163746f72790000000000000000000000000000000000000000600082015250565b60006114fb600c83610fc6565b9150611506826114c5565b602082019050919050565b6000602082019050818103600083015261152a816114ee565b9050919050565b7f4e6f7420796574206f7665726475650000000000000000000000000000000000600082015250565b6000611567600f83610fc6565b915061157282611531565b602082019050919050565b600060208201905081810360008301526115968161155a565b9050919050565b60006040820190506115b26000830185610f9c565b6115bf6020830184610e34565b939250505056fea264697066735822122053e4792fd45b5cc2ee3536acdd413f8dbd2e8634cc87c8c357932ad5b37e22b964736f6c63430008180033a26469706673582212201f37ff4be3dab9ba471e4684a8b34bb3a17990708051543a335d85b6db17bae164736f6c63430008180033608060405234801561001057600080fd5b50604051610f48380380610f48833981810160405281019061003291906100dc565b80600160006101000a81548173ffffffffffffffffffffffffffffffffffffffff021916908373ffffffffffffffffffffffffffffffffffffffff16021790555050610109565b600080fd5b600073ffffffffffffffffffffffffffffffffffffffff82169050919050565b60006100a98261007e565b9050919050565b6100b98161009e565b81146100c457600080fd5b50565b6000815190506100d6816100b0565b92915050565b6000602082840312156100f2576100f1610079565b5b6000610100848285016100c7565b91505092915050565b610e30806101186000396000f3fe608060405234801561001057600080fd5b50600436106100b45760003560e01c8063b37ed8cd11610071578063b37ed8cd14610192578063bf15e017146101b0578063c48f1392146101ce578063cd4544f2146101ea578063d47875d014610206578063db2db17714610236576100b4565b806319ed29fa146100b9578063469e9067146100d557806364b123551461010a5780637effe5681461012657806390b439481461014457806393e9b13e14610162575b600080fd5b6100d360048036038101906100ce91906109cb565b610254565b005b6100ef60048036038101906100ea91906109cb565b61033f565b60405161010196959493929190610a11565b60405180910390f35b610124600480360381019061011f9190610a9e565b61037b565b005b61012e610468565b60405161013b9190610ade565b60405180910390f35b61014c61046e565b6040516101599190610ade565b60405180910390f35b61017c600480360381019061017791906109cb565b610473565b6040516101899190610b14565b60405180910390f35b61019a610493565b6040516101a79190610b3e565b60405180910390f35b6101b86104b9565b6040516101c59190610ade565b60405180910390f35b6101e860048036038101906101e39190610b85565b6104be565b005b61020460048036038101906101ff9190610a9e565b61064d565b005b610220600480360381019061021b91906109cb565b6107b8565b60405161022d9190610ade565b60405180910390f35b61023e610854565b60405161024b9190610ade565b60405180910390f35b600160009054906101000a900473ffffffffffffffffffffffffffffffffffffffff1673ffffffffffffffffffffffffffffffffffffffff163373ffffffffffffffffffffffffffffffffffffffff16146102e4576040517f08c379a00000000000000000000000000000000000000000000000000000000081526004016102db90610c35565b60405180910390fd5b6001600260008373ffffffffffffffffffffffffffffffffffffffff1673ffffffffffffffffffffffffffffffffffffffff16815260200190815260200160002060006101000a81548160ff02191690831515021790555050565b60006020528060005260406000206000915090508060000154908060010154908060020154908060030154908060040154908060050154905086565b600160009054906101000a900473ffffffffffffffffffffffffffffffffffffffff1673ffffffffffffffffffffffffffffffffffffffff163373ffffffffffffffffffffffffffffffffffffffff161461040b576040517f08c379a000000000000000000000000000000000000000000000000000000000815260040161040290610c35565b60405180910390fd5b60016000808473ffffffffffffffffffffffffffffffffffffffff1673ffffffffffffffffffffffffffffffffffffffff168152602001908152602001600020600001600082825461045d9190610c84565b925050819055505050565b6101f481565b600281565b60026020528060005260406000206000915054906101000a900460ff1681565b600160009054906101000a900473ffffffffffffffffffffffffffffffffffffffff1681565b603281565b600160009054906101000a900473ffffffffffffffffffffffffffffffffffffffff1673ffffffffffffffffffffffffffffffffffffffff163373ffffffffffffffffffffffffffffffffffffffff1614806105635750600260003373ffffffffffffffffffffffffffffffffffffffff1673ffffffffffffffffffffffffffffffffffffffff16815260200190815260200160002060009054906101000a900460ff165b6105a2576040517f08c379a000000000000000000000000000000000000000000000000000000000815260040161059990610d04565b60405180910390fd5b60008060008573ffffffffffffffffffffffffffffffffffffffff1673ffffffffffffffffffffffffffffffffffffffff168152602001908152602001600020905060018160010160008282546105f99190610c84565b92505081905550811561062357600181600201600082825461061b9190610c84565b925050819055505b828160040160008282546106379190610c84565b9250508190555061064784610859565b50505050565b600160009054906101000a900473ffffffffffffffffffffffffffffffffffffffff1673ffffffffffffffffffffffffffffffffffffffff163373ffffffffffffffffffffffffffffffffffffffff1614806106f25750600260003373ffffffffffffffffffffffffffffffffffffffff1673ffffffffffffffffffffffffffffffffffffffff16815260200190815260200160002060009054906101000a900460ff165b610731576040517f08c379a000000000000000000000000000000000000000000000000000000000815260040161072890610d04565b60405180910390fd5b60008060008473ffffffffffffffffffffffffffffffffffffffff1673ffffffffffffffffffffffffffffffffffffffff168152602001908152602001600020905060018160030160008282546107889190610c84565b92505081905550818160040160008282546107a39190610c84565b925050819055506107b383610859565b505050565b6000806000808473ffffffffffffffffffffffffffffffffffffffff1673ffffffffffffffffffffffffffffffffffffffff1681526020019081526020016000206005015414610849576000808373ffffffffffffffffffffffffffffffffffffffff1673ffffffffffffffffffffffffffffffffffffffff1681526020019081526020016000206005015461084d565b6101f45b9050919050565b601481565b60008060008373ffffffffffffffffffffffffffffffffffffffff1673ffffffffffffffffffffffffffffffffffffffff16815260200190815260200160002090506000808260010154116108af5760646108d0565b8160010154606483600201546108c59190610d24565b6108cf9190610d95565b5b905060006101f49050601483600101546108ea9190610d24565b816108f59190610c84565b9050600a6002836109069190610d24565b6109109190610d95565b8161091b9190610c84565b9050600083600301541115610949576032836003015461093b9190610d24565b816109469190610dc6565b90505b6000811161095857600061095a565b805b836005018190555050505050565b600080fd5b600073ffffffffffffffffffffffffffffffffffffffff82169050919050565b60006109988261096d565b9050919050565b6109a88161098d565b81146109b357600080fd5b50565b6000813590506109c58161099f565b92915050565b6000602082840312156109e1576109e0610968565b5b60006109ef848285016109b6565b91505092915050565b6000819050919050565b610a0b816109f8565b82525050565b600060c082019050610a266000830189610a02565b610a336020830188610a02565b610a406040830187610a02565b610a4d6060830186610a02565b610a5a6080830185610a02565b610a6760a0830184610a02565b979650505050505050565b610a7b816109f8565b8114610a8657600080fd5b50565b600081359050610a9881610a72565b92915050565b60008060408385031215610ab557610ab4610968565b5b6000610ac3858286016109b6565b9250506020610ad485828601610a89565b9150509250929050565b6000602082019050610af36000830184610a02565b92915050565b60008115159050919050565b610b0e81610af9565b82525050565b6000602082019050610b296000830184610b05565b92915050565b610b388161098d565b82525050565b6000602082019050610b536000830184610b2f565b92915050565b610b6281610af9565b8114610b6d57600080fd5b50565b600081359050610b7f81610b59565b92915050565b600080600060608486031215610b9e57610b9d610968565b5b6000610bac868287016109b6565b9350506020610bbd86828701610a89565b9250506040610bce86828701610b70565b9150509250925092565b600082825260208201905092915050565b7f4f6e6c79204c6f616e466163746f727900000000000000000000000000000000600082015250565b6000610c1f601083610bd8565b9150610c2a82610be9565b602082019050919050565b60006020820190508181036000830152610c4e81610c12565b9050919050565b7f4e487b7100000000000000000000000000000000000000000000000000000000600052601160045260246000fd5b6000610c8f826109f8565b9150610c9a836109f8565b9250828201905080821115610cb257610cb1610c55565b5b92915050565b7f4f6e6c79204c6f616e466163746f7279206f72204c6f616e0000000000000000600082015250565b6000610cee601883610bd8565b9150610cf982610cb8565b602082019050919050565b60006020820190508181036000830152610d1d81610ce1565b9050919050565b6000610d2f826109f8565b9150610d3a836109f8565b9250828202610d48816109f8565b91508282048414831517610d5f57610d5e610c55565b5b5092915050565b7f4e487b7100000000000000000000000000000000000000000000000000000000600052601260045260246000fd5b6000610da0826109f8565b9150610dab836109f8565b925082610dbb57610dba610d66565b5b828204905092915050565b6000610dd1826109f8565b9150610ddc836109f8565b9250828203905081811115610df457610df3610c55565b5b9291505056fea2646970667358221220f599773bd90e76a5804957c5ab17c6df8d5eb98f6a37fc814863af7e6d1bb45064736f6c63430008180033",
  "linkReferences": {},
  "deployedLinkReferences": {}
}