{
  "_format": "hh-sol-artifact-1",
  "contractName": "LoanFactory",
  "sourceName": "contracts/LoanFactory.sol",
  "abi": [
    {
      "inputs": [],
      "stateMutability": "nonpayable",
      "type": "constructor"
    },
    {
      "anonymous": false,
      "inputs": [
        {
          "indexed": true,
          "internalType": "uint256",
          "name": "loanId",
          "type": "uint256"
        },
        {
          "indexed": true,
          "internalType": "address",
          "name": "borrower",
          "type": "address"
        },
        {
          "indexed": false,
          "internalType": "uint256",
          "name": "principal",
          "type": "uint256"
        },
        {
          "indexed": false,
          "internalType": "uint256",
          "name": "interestRateBps",
          "type": "uint256"
        },
        {
          "indexed": false,
          "internalType": "uint256",
          "name": "durationDays",
          "type": "uint256"
        }
      ],
      "name": "LoanCreated",
      "type": "event"
    },
    {
      "inputs": [
        {
          "internalType": "uint256",
          "name": "principal",
          "type": "uint256"
        },
        {
          "internalType": "uint256",
          "name": "durationDays",
          "type": "uint256"
        }
      ],
      "name": "borrowFromPool",
      "outputs": [
        {
          "internalType": "uint256",
          "name": "loanId",
          "type": "uint256"
        }
      ],
      "stateMutability": "nonpayable",
      "type": "function"
    },
    {
      "inputs": [
        {
          "internalType": "uint256",
          "name": "principal",
          "type": "uint256"
        },
        {
          "internalType": "uint256",
          "name": "durationDays",
          "type": "uint256"
        }
      ],
      "name": "createLoan",
      "outputs": [
        {
          "internalType": "uint256",
          "name": "loanId",
          "type": "uint256"
        }
      ],
      "stateMutability": "nonpayable",
      "type": "function"
    },
    {
      "inputs": [],
      "name": "creditScore",
      "outputs": [
        {
          "internalType": "contract CreditScore",
          "name": "",
          "type": "address"
        }
      ],
      "stateMutability": "view",
      "type": "function"
    },
    {
      "inputs": [],
      "name": "getCreditScore",
      "outputs": [
        {
          "internalType": "address",
          "name": "",
          "type": "address"
        }
      ],
      "stateMutability": "view",
      "type": "function"
    },
    {
      "inputs": [],
      "name": "getLendingPool",
      "outputs": [
        {
          "internalType": "address",
          "name": "",
          "type": "address"
        }
      ],
      "stateMutability": "view",
      "type": "function"
    },
    {
      "inputs": [
        {
          "internalType": "uint256",
          "name": "loanId",
          "type": "uint256"
        }
      ],
      "name": "getLoan",
      "outputs": [
        {
          "internalType": "address",
          "name": "",
          "type": "address"
        }
      ],
      "stateMutability": "view",
      "type": "function"
    },
    {
      "inputs": [],
      "name": "lendingPool",
      "outputs": [
        {
          "internalType": "contract LendingPool",
          "name": "",
          "type": "address"
        }
      ],
      "stateMutability": "view",
      "type": "function"
    },
    {
      "inputs": [],
      "name": "listLoans",
      "outputs": [
        {
          "internalType": "address[]",
          "name": "",
          "type": "address[]"
        }
      ],
      "stateMutability": "view",
      "type": "function"
    },
    {
      "inputs": [],
      "name": "loanCount",
      "outputs": [
        {
          "internalType": "uint256",
          "name": "",
          "type": "uint256"
        }
      ],
      "stateMutability": "view",
      "type": "function"
    },
    {
      "inputs": [
        {
          "internalType": "uint256",
          "name": "",
          "type": "uint256"
        }
      ],
      "name": "loans",
      "outputs": [
        {
          "internalType": "contract Loan",
          "name": "",
          "type": "address"
        }
      ],
      "stateMutability": "view",
      "type": "function"
    },
    {
      "inputs": [
        {
          "internalType": "uint256",
          "name": "loanId",
          "type": "uint256"
        }
      ],
      "name": "markLoanDefaulted",
      "outputs": [],
      "stateMutability": "nonpayable",
      "type": "function"
    }
  ],
  "bytecode": "0x60806040523480156200001157600080fd5b503060405162000021906200012e565b6200002d91906200018f565b604051809103906000f0801580156200004a573d6000803e3d6000fd5b50600160006101000a81548173ffffffffffffffffffffffffffffffffffffffff021916908373ffffffffffffffffffffffffffffffffffffffff16021790555030600160009054906101000a900473ffffffffffffffffffffffffffffffffffffffff16604051620000bd906200013c565b620000ca929190620001ac565b604051809103906000f080158015620000e7573d6000803e3d6000fd5b50600260006101000a81548173ffffffffffffffffffffffffffffffffffffffff021916908373ffffffffffffffffffffffffffffffffffffffff160217905550620001d9565b6110af806200325c83390190565b611320806200430b83390190565b600073ffffffffffffffffffffffffffffffffffffffff82169050919050565b600062000177826200014a565b9050919050565b62000189816200016a565b82525050565b6000602082019050620001a660008301846200017e565b92915050565b6000604082019050620001c360008301856200017e565b620001d260208301846200017e565b9392505050565b61307380620001e96000396000f3fe60806040523480156200001157600080fd5b5060043610620000b85760003560e01c80637b99d774116200007b5780637b99d774146200017b57806398cd90b514620001b1578063a59a997314620001e7578063ce63094d1462000209578063d92d7d77146200022b578063e1ec3c68146200024b57620000b8565b80630261bf8b14620000bd57806339da315214620000df578063504006ca14620001015780635a2c450914620001375780635da195381462000159575b600080fd5b620000c762000281565b604051620000d6919062000b4f565b60405180910390f35b620000e9620002ab565b604051620000f8919062000bd7565b60405180910390f35b6200011f600480360381019062000119919062000c34565b620002d1565b6040516200012e919062000b4f565b60405180910390f35b6200014162000365565b60405162000150919062000d34565b60405180910390f35b6200016362000475565b60405162000172919062000b4f565b60405180910390f35b62000199600480360381019062000193919062000d58565b6200049f565b604051620001a8919062000db0565b60405180910390f35b620001cf6004803603810190620001c9919062000d58565b62000603565b604051620001de919062000db0565b60405180910390f35b620001f16200099a565b60405162000200919062000e06565b60405180910390f35b62000213620009c0565b60405162000222919062000db0565b60405180910390f35b62000249600480360381019062000243919062000c34565b620009cc565b005b62000269600480360381019062000263919062000c34565b62000abc565b60405162000278919062000e48565b60405180910390f35b6000600260009054906101000a900473ffffffffffffffffffffffffffffffffffffffff16905090565b600160009054906101000a900473ffffffffffffffffffffffffffffffffffffffff1681565b6000808054905082106200031c576040517f08c379a0000000000000000000000000000000000000000000000000000000008152600401620003139062000ec6565b60405180910390fd5b6000828154811062000333576200033262000ee8565b5b9060005260206000200160009054906101000a900473ffffffffffffffffffffffffffffffffffffffff169050919050565b60606000808054905067ffffffffffffffff8111156200038a576200038962000f17565b5b604051908082528060200260200182016040528015620003b95781602001602082028036833780820191505090505b50905060005b6000805490508110156200046d5760008181548110620003e457620003e362000ee8565b5b9060005260206000200160009054906101000a900473ffffffffffffffffffffffffffffffffffffffff1682828151811062000425576200042462000ee8565b5b602002602001019073ffffffffffffffffffffffffffffffffffffffff16908173ffffffffffffffffffffffffffffffffffffffff16815250508080600101915050620003bf565b508091505090565b6000600160009054906101000a900473ffffffffffffffffffffffffffffffffffffffff16905090565b60003073ffffffffffffffffffffffffffffffffffffffff166398cd90b584846040518363ffffffff1660e01b8152600401620004de92919062000f46565b6020604051808303816000875af1158015620004fe573d6000803e3d6000fd5b505050506040513d601f19601f8201168201806040525081019062000524919062000f8a565b905060008082815481106200053e576200053d62000ee8565b5b9060005260206000200160009054906101000a900473ffffffffffffffffffffffffffffffffffffffff169050600260009054906101000a900473ffffffffffffffffffffffffffffffffffffffff1673ffffffffffffffffffffffffffffffffffffffff1663e48f6faf826040518263ffffffff1660e01b8152600401620005c8919062000fe1565b600060405180830381600087803b158015620005e357600080fd5b505af1158015620005f8573d6000803e3d6000fd5b505050505092915050565b60008083116200064a576040517f08c379a000000000000000000000000000000000000000000000000000000000815260040162000641906200104e565b60405180910390fd5b600182101580156200065e575061016d8211155b620006a0576040517f08c379a00000000000000000000000000000000000000000000000000000000081526004016200069790620010c0565b60405180910390fd5b6000600160009054906101000a900473ffffffffffffffffffffffffffffffffffffffff1673ffffffffffffffffffffffffffffffffffffffff1663c0d18843336040518263ffffffff1660e01b8152600401620006ff919062000b4f565b602060405180830381865afa1580156200071d573d6000803e3d6000fd5b505050506040513d601f19601f8201168201806040525081019062000743919062000f8a565b905060003385838630600160009054906101000a900473ffffffffffffffffffffffffffffffffffffffff166040516200077d9062000afc565b6200078e96959493929190620010e2565b604051809103906000f080158015620007ab573d6000803e3d6000fd5b50905060008054905092506000819080600181540180825580915050600190039060005260206000200160009091909190916101000a81548173ffffffffffffffffffffffffffffffffffffffff021916908373ffffffffffffffffffffffffffffffffffffffff160217905550600160009054906101000a900473ffffffffffffffffffffffffffffffffffffffff1673ffffffffffffffffffffffffffffffffffffffff166319ed29fa826040518263ffffffff1660e01b815260040162000876919062000b4f565b600060405180830381600087803b1580156200089157600080fd5b505af1158015620008a6573d6000803e3d6000fd5b50505050600160009054906101000a900473ffffffffffffffffffffffffffffffffffffffff1673ffffffffffffffffffffffffffffffffffffffff166364b1235533876040518363ffffffff1660e01b8152600401620009099291906200114f565b600060405180830381600087803b1580156200092457600080fd5b505af115801562000939573d6000803e3d6000fd5b505050503373ffffffffffffffffffffffffffffffffffffffff16837fb2cca1719ad611d325136b9c9a4357f412d33694d93c60d4c1b6e922d524cf598785886040516200098a939291906200117c565b60405180910390a3505092915050565b600260009054906101000a900473ffffffffffffffffffffffffffffffffffffffff1681565b60008080549050905090565b600080549050811062000a16576040517f08c379a000000000000000000000000000000000000000000000000000000000815260040162000a0d9062000ec6565b60405180910390fd5b6000818154811062000a2d5762000a2c62000ee8565b5b9060005260206000200160009054906101000a900473ffffffffffffffffffffffffffffffffffffffff1673ffffffffffffffffffffffffffffffffffffffff1663dd5412306040518163ffffffff1660e01b8152600401600060405180830381600087803b15801562000aa057600080fd5b505af115801562000ab5573d6000803e3d6000fd5b5050505050565b6000818154811062000acd57600080fd5b906000526020600020016000915054906101000a900473ffffffffffffffffffffffffffffffffffffffff1681565b611e8480620011ba83390190565b600073ffffffffffffffffffffffffffffffffffffffff82169050919050565b600062000b378262000b0a565b9050919050565b62000b498162000b2a565b82525050565b600060208201905062000b66600083018462000b3e565b92915050565b6000819050919050565b600062000b9762000b9162000b8b8462000b0a565b62000b6c565b62000b0a565b9050919050565b600062000bab8262000b76565b9050919050565b600062000bbf8262000b9e565b9050919050565b62000bd18162000bb2565b82525050565b600060208201905062000bee600083018462000bc6565b92915050565b600080fd5b6000819050919050565b62000c0e8162000bf9565b811462000c1a57600080fd5b50565b60008135905062000c2e8162000c03565b92915050565b60006020828403121562000c4d5762000c4c62000bf4565b5b600062000c5d8482850162000c1d565b91505092915050565b600081519050919050565b600082825260208201905092915050565b6000819050602082019050919050565b62000c9d8162000b2a565b82525050565b600062000cb1838362000c92565b60208301905092915050565b6000602082019050919050565b600062000cd78262000c66565b62000ce3818562000c71565b935062000cf08362000c82565b8060005b8381101562000d2757815162000d0b888262000ca3565b975062000d188362000cbd565b92505060018101905062000cf4565b5085935050505092915050565b6000602082019050818103600083015262000d50818462000cca565b905092915050565b6000806040838503121562000d725762000d7162000bf4565b5b600062000d828582860162000c1d565b925050602062000d958582860162000c1d565b9150509250929050565b62000daa8162000bf9565b82525050565b600060208201905062000dc7600083018462000d9f565b92915050565b600062000dda8262000b76565b9050919050565b600062000dee8262000dcd565b9050919050565b62000e008162000de1565b82525050565b600060208201905062000e1d600083018462000df5565b92915050565b600062000e308262000b9e565b9050919050565b62000e428162000e23565b82525050565b600060208201905062000e5f600083018462000e37565b92915050565b600082825260208201905092915050565b7f496e76616c6964206c6f616e0000000000000000000000000000000000000000600082015250565b600062000eae600c8362000e65565b915062000ebb8262000e76565b602082019050919050565b6000602082019050818103600083015262000ee18162000e9f565b9050919050565b7f4e487b7100000000000000000000000000000000000000000000000000000000600052603260045260246000fd5b7f4e487b7100000000000000000000000000000000000000000000000000000000600052604160045260246000fd5b600060408201905062000f5d600083018562000d9f565b62000f6c602083018462000d9f565b9392505050565b60008151905062000f848162000c03565b92915050565b60006020828403121562000fa35762000fa262000bf4565b5b600062000fb38482850162000f73565b91505092915050565b600062000fc98262000b0a565b9050919050565b62000fdb8162000fbc565b82525050565b600060208201905062000ff8600083018462000fd0565b92915050565b7f5a65726f207072696e636970616c000000000000000000000000000000000000600082015250565b600062001036600e8362000e65565b9150620010438262000ffe565b602082019050919050565b60006020820190508181036000830152620010698162001027565b9050919050565b7f496e76616c6964206475726174696f6e00000000000000000000000000000000600082015250565b6000620010a860108362000e65565b9150620010b58262001070565b602082019050919050565b60006020820190508181036000830152620010db8162001099565b9050919050565b600060c082019050620010f9600083018962000b3e565b62001108602083018862000d9f565b62001117604083018762000d9f565b62001126606083018662000d9f565b62001135608083018562000b3e565b6200114460a083018462000b3e565b979650505050505050565b600060408201905062001166600083018562000b3e565b62001175602083018462000d9f565b9392505050565b600060608201905062001193600083018662000d9f565b620011a2602083018562000d9f565b620011b1604083018462000d9f565b94935050505056fe60806040523480156200001157600080fd5b5060405162001e8438038062001e848339818101604052810190620000379190620001ed565b856000806101000a81548173ffffffffffffffffffffffffffffffffffffffff021916908373ffffffffffffffffffffffffffffffffffffffff16021790555084600181905550836002819055508260038190555081600960016101000a81548173ffffffffffffffffffffffffffffffffffffffff021916908373ffffffffffffffffffffffffffffffffffffffff16021790555080600a60006101000a81548173ffffffffffffffffffffffffffffffffffffffff021916908373ffffffffffffffffffffffffffffffffffffffff1602179055506000600960006101000a81548160ff0219169083600481111562000137576200013662000289565b5b0217905550505050505050620002b8565b600080fd5b600073ffffffffffffffffffffffffffffffffffffffff82169050919050565b60006200017a826200014d565b9050919050565b6200018c816200016d565b81146200019857600080fd5b50565b600081519050620001ac8162000181565b92915050565b6000819050919050565b620001c781620001b2565b8114620001d357600080fd5b50565b600081519050620001e781620001bc565b92915050565b60008060008060008060c087890312156200020d576200020c62000148565b5b60006200021d89828a016200019b565b96505060206200023089828a01620001d6565b95505060406200024389828a01620001d6565b94505060606200025689828a01620001d6565b93505060806200026989828a016200019b565b92505060a06200027c89828a016200019b565b9150509295509295509295565b7f4e487b7100000000000000000000000000000000000000000000000000000000600052602160045260246000fd5b611bbc80620002c86000396000f3fe6080604052600436106101095760003560e01c8063ad044f4911610095578063c1a287e211610064578063c1a287e21461031f578063c45a01551461034a578063c84a208b14610375578063d746d0b2146103a0578063dd541230146103cb57610109565b8063ad044f4914610294578063b60d4288146102bf578063ba5d3078146102c9578063c1709ba4146102f457610109565b806342e94c90116100dc57806342e94c90146101995780637df1f1b9146101d6578063929eea21146102015780639cd56d031461023e578063a9a748ff1461026957610109565b806319cc3aaa1461010e578063200d2ed21461013957806339da315214610164578063402d88831461018f575b600080fd5b34801561011a57600080fd5b506101236103e2565b604051610130919061131d565b60405180910390f35b34801561014557600080fd5b5061014e6103e8565b60405161015b91906113af565b60405180910390f35b34801561017057600080fd5b506101796103fb565b6040516101869190611449565b60405180910390f35b610197610421565b005b3480156101a557600080fd5b506101c060048036038101906101bb91906114a7565b610968565b6040516101cd919061131d565b60405180910390f35b3480156101e257600080fd5b506101eb610980565b6040516101f891906114e3565b60405180910390f35b34801561020d57600080fd5b506102286004803603810190610223919061152a565b6109a4565b60405161023591906114e3565b60405180910390f35b34801561024a57600080fd5b506102536109e3565b604051610260919061131d565b60405180910390f35b34801561027557600080fd5b5061027e6109e9565b60405161028b919061131d565b60405180910390f35b3480156102a057600080fd5b506102a96109ef565b6040516102b6919061131d565b60405180910390f35b6102c76109f5565b005b3480156102d557600080fd5b506102de610e5a565b6040516102eb919061131d565b60405180910390f35b34801561030057600080fd5b50610309610e60565b604051610316919061131d565b60405180910390f35b34801561032b57600080fd5b50610334610e6d565b604051610341919061131d565b60405180910390f35b34801561035657600080fd5b5061035f610e74565b60405161036c91906114e3565b60405180910390f35b34801561038157600080fd5b5061038a610e9a565b604051610397919061131d565b60405180910390f35b3480156103ac57600080fd5b506103b5610ea0565b6040516103c2919061131d565b60405180910390f35b3480156103d757600080fd5b506103e0610ed6565b005b60055481565b600960009054906101000a900460ff1681565b600a60009054906101000a900473ffffffffffffffffffffffffffffffffffffffff1681565b60008054906101000a900473ffffffffffffffffffffffffffffffffffffffff1673ffffffffffffffffffffffffffffffffffffffff163373ffffffffffffffffffffffffffffffffffffffff16146104af576040517f08c379a00000000000000000000000000000000000000000000000000000000081526004016104a6906115b4565b60405180910390fd5b600260048111156104c3576104c2611338565b5b600960009054906101000a900460ff1660048111156104e5576104e4611338565b5b14610525576040517f08c379a000000000000000000000000000000000000000000000000000000000815260040161051c90611620565b60405180910390fd5b600061271060025460015461053a919061166f565b61054491906116e0565b90506000816001546105569190611711565b90508034101561059b576040517f08c379a000000000000000000000000000000000000000000000000000000000815260040161059290611791565b60405180910390fd5b6003600960006101000a81548160ff021916908360048111156105c1576105c0611338565b5b021790555060006005544211159050600a60009054906101000a900473ffffffffffffffffffffffffffffffffffffffff1673ffffffffffffffffffffffffffffffffffffffff1663c48f139260008054906101000a900473ffffffffffffffffffffffffffffffffffffffff16600154846040518463ffffffff1660e01b8152600401610651939291906117cc565b600060405180830381600087803b15801561066b57600080fd5b505af115801561067f573d6000803e3d6000fd5b5050505060005b600780549050811015610807576000600782815481106106a9576106a8611803565b5b9060005260206000200160009054906101000a900473ffffffffffffffffffffffffffffffffffffffff1690506000600860008373ffffffffffffffffffffffffffffffffffffffff1673ffffffffffffffffffffffffffffffffffffffff16815260200190815260200160002054905060006127106002548361072d919061166f565b61073791906116e0565b9050600081836107479190611711565b905060008473ffffffffffffffffffffffffffffffffffffffff168260405161076f90611863565b60006040518083038185875af1925050503d80600081146107ac576040519150601f19603f3d011682016040523d82523d6000602084013e6107b1565b606091505b50509050806107f5576040517f08c379a00000000000000000000000000000000000000000000000000000000081526004016107ec906118c4565b60405180910390fd5b50505050508080600101915050610686565b506000823461081691906118e4565b905060008111156108f05760008060009054906101000a900473ffffffffffffffffffffffffffffffffffffffff1673ffffffffffffffffffffffffffffffffffffffff168260405161086890611863565b60006040518083038185875af1925050503d80600081146108a5576040519150601f19603f3d011682016040523d82523d6000602084013e6108aa565b606091505b50509050806108ee576040517f08c379a00000000000000000000000000000000000000000000000000000000081526004016108e590611964565b60405180910390fd5b505b60008054906101000a900473ffffffffffffffffffffffffffffffffffffffff1673ffffffffffffffffffffffffffffffffffffffff167fc7ce0a35f17b490de2a317e7fecb2cae86b1abffb03800b2f4928235213826986001548660405161095a929190611984565b60405180910390a250505050565b60086020528060005260406000206000915090505481565b60008054906101000a900473ffffffffffffffffffffffffffffffffffffffff1681565b600781815481106109b457600080fd5b906000526020600020016000915054906101000a900473ffffffffffffffffffffffffffffffffffffffff1681565b60035481565b60045481565b60065481565b60006004811115610a0957610a08611338565b5b600960009054906101000a900460ff166004811115610a2b57610a2a611338565b5b14610a6b576040517f08c379a0000000000000000000000000000000000000000000000000000000008152600401610a6290611620565b60405180910390fd5b60008054906101000a900473ffffffffffffffffffffffffffffffffffffffff1673ffffffffffffffffffffffffffffffffffffffff163373ffffffffffffffffffffffffffffffffffffffff1603610af9576040517f08c379a0000000000000000000000000000000000000000000000000000000008152600401610af0906119f9565b60405180910390fd5b60003411610b3c576040517f08c379a0000000000000000000000000000000000000000000000000000000008152600401610b3390611a65565b60405180910390fd5b6000600654600154610b4e91906118e4565b90506000813411610b5f5734610b61565b815b90506000600860003373ffffffffffffffffffffffffffffffffffffffff1673ffffffffffffffffffffffffffffffffffffffff1681526020019081526020016000205403610c0e576007339080600181540180825580915050600190039060005260206000200160009091909190916101000a81548173ffffffffffffffffffffffffffffffffffffffff021916908373ffffffffffffffffffffffffffffffffffffffff1602179055505b80600860003373ffffffffffffffffffffffffffffffffffffffff1673ffffffffffffffffffffffffffffffffffffffff1681526020019081526020016000206000828254610c5d9190611711565b925050819055508060066000828254610c769190611711565b9250508190555060015460065403610d2f576002600960006101000a81548160ff02191690836004811115610cae57610cad611338565b5b02179055504260048190555062015180600354610ccb919061166f565b42610cd69190611711565b6005819055503373ffffffffffffffffffffffffffffffffffffffff167f726d5f1a838fe31748f737fa3ae5539ccff95952adfc593a1299532b643ff7a882604051610d22919061131d565b60405180910390a2610d8f565b3373ffffffffffffffffffffffffffffffffffffffff167f76c20c612f84fec84b11ebe787ca5c8a5d9b7b1499bef933808600e894bb38a582600654600154610d7891906118e4565b604051610d86929190611984565b60405180910390a25b80341115610e565760008134610da591906118e4565b905060003373ffffffffffffffffffffffffffffffffffffffff1682604051610dcd90611863565b60006040518083038185875af1925050503d8060008114610e0a576040519150601f19603f3d011682016040523d82523d6000602084013e610e0f565b606091505b5050905080610e53576040517f08c379a0000000000000000000000000000000000000000000000000000000008152600401610e4a90611964565b60405180910390fd5b50505b5050565b60015481565b6000600780549050905090565b6203f48081565b600960019054906101000a900473ffffffffffffffffffffffffffffffffffffffff1681565b60025481565b600080612710600254600154610eb6919061166f565b610ec091906116e0565b905080600154610ed09190611711565b91505090565b60026004811115610eea57610ee9611338565b5b600960009054906101000a900460ff166004811115610f0c57610f0b611338565b5b14610f4c576040517f08c379a0000000000000000000000000000000000000000000000000000000008152600401610f4390611620565b60405180910390fd5b600960019054906101000a900473ffffffffffffffffffffffffffffffffffffffff1673ffffffffffffffffffffffffffffffffffffffff163373ffffffffffffffffffffffffffffffffffffffff1614610ff8576203f480600554610fb29190611711565b4211610ff3576040517f08c379a0000000000000000000000000000000000000000000000000000000008152600401610fea90611ad1565b60405180910390fd5b61103d565b600554421161103c576040517f08c379a000000000000000000000000000000000000000000000000000000000815260040161103390611b3d565b60405180910390fd5b5b6004600960006101000a81548160ff0219169083600481111561106357611062611338565b5b0217905550600a60009054906101000a900473ffffffffffffffffffffffffffffffffffffffff1673ffffffffffffffffffffffffffffffffffffffff1663cd4544f260008054906101000a900473ffffffffffffffffffffffffffffffffffffffff166001546040518363ffffffff1660e01b81526004016110e7929190611b5d565b600060405180830381600087803b15801561110157600080fd5b505af1158015611115573d6000803e3d6000fd5b505050506000479050600081111561129e5760005b60078054905081101561129c5760006007828154811061114d5761114c611803565b5b9060005260206000200160009054906101000a900473ffffffffffffffffffffffffffffffffffffffff169050600060015484600860008573ffffffffffffffffffffffffffffffffffffffff1673ffffffffffffffffffffffffffffffffffffffff168152602001908152602001600020546111ca919061166f565b6111d491906116e0565b9050600081111561128d5760008273ffffffffffffffffffffffffffffffffffffffff168260405161120590611863565b60006040518083038185875af1925050503d8060008114611242576040519150601f19603f3d011682016040523d82523d6000602084013e611247565b606091505b505090508061128b576040517f08c379a0000000000000000000000000000000000000000000000000000000008152600401611282906118c4565b60405180910390fd5b505b5050808060010191505061112a565b505b60008054906101000a900473ffffffffffffffffffffffffffffffffffffffff1673ffffffffffffffffffffffffffffffffffffffff167ff4e5cf42cbb1d0c6c91e16d925349feb6c5d970652f6ec77b1ff1262f7284cd560405160405180910390a250565b6000819050919050565b61131781611304565b82525050565b6000602082019050611332600083018461130e565b92915050565b7f4e487b7100000000000000000000000000000000000000000000000000000000600052602160045260246000fd5b6005811061137857611377611338565b5b50565b600081905061138982611367565b919050565b60006113998261137b565b9050919050565b6113a98161138e565b82525050565b60006020820190506113c460008301846113a0565b92915050565b600073ffffffffffffffffffffffffffffffffffffffff82169050919050565b6000819050919050565b600061140f61140a611405846113ca565b6113ea565b6113ca565b9050919050565b6000611421826113f4565b9050919050565b600061143382611416565b9050919050565b61144381611428565b82525050565b600060208201905061145e600083018461143a565b92915050565b600080fd5b6000611474826113ca565b9050919050565b61148481611469565b811461148f57600080fd5b50565b6000813590506114a18161147b565b92915050565b6000602082840312156114bd576114bc611464565b5b60006114cb84828501611492565b91505092915050565b6114dd81611469565b82525050565b60006020820190506114f860008301846114d4565b92915050565b61150781611304565b811461151257600080fd5b50565b600081359050611524816114fe565b92915050565b6000602082840312156115405761153f611464565b5b600061154e84828501611515565b91505092915050565b600082825260208201905092915050565b7f4f6e6c7920626f72726f77657200000000000000000000000000000000000000600082015250565b600061159e600d83611557565b91506115a982611568565b602082019050919050565b600060208201905081810360008301526115cd81611591565b9050919050565b7f496e76616c696420737461747573000000000000000000000000000000000000600082015250565b600061160a600e83611557565b9150611615826115d4565b602082019050919050565b60006020820190508181036000830152611639816115fd565b9050919050565b7f4e487b7100000000000000000000000000000000000000000000000000000000600052601160045260246000fd5b600061167a82611304565b915061168583611304565b925082820261169381611304565b915082820484148315176116aa576116a9611640565b5b5092915050565b7f4e487b7100000000000000000000000000000000000000000000000000000000600052601260045260246000fd5b60006116eb82611304565b91506116f683611304565b925082611706576117056116b1565b5b828204905092915050565b600061171c82611304565b915061172783611304565b925082820190508082111561173f5761173e611640565b5b92915050565b7f496e73756666696369656e742072657061796d656e7400000000000000000000600082015250565b600061177b601683611557565b915061178682611745565b602082019050919050565b600060208201905081810360008301526117aa8161176e565b9050919050565b60008115159050919050565b6117c6816117b1565b82525050565b60006060820190506117e160008301866114d4565b6117ee602083018561130e565b6117fb60408301846117bd565b949350505050565b7f4e487b7100000000000000000000000000000000000000000000000000000000600052603260045260246000fd5b600081905092915050565b50565b600061184d600083611832565b91506118588261183d565b600082019050919050565b600061186e82611840565b9150819050919050565b7f5472616e73666572206661696c656420746f206c656e64657200000000000000600082015250565b60006118ae601983611557565b91506118b982611878565b602082019050919050565b600060208201905081810360008301526118dd816118a1565b9050919050565b60006118ef82611304565b91506118fa83611304565b925082820390508181111561191257611911611640565b5b92915050565b7f526566756e64206661696c656400000000000000000000000000000000000000600082015250565b600061194e600d83611557565b915061195982611918565b602082019050919050565b6000602082019050818103600083015261197d81611941565b9050919050565b6000604082019050611999600083018561130e565b6119a6602083018461130e565b9392505050565b7f426f72726f7765722063616e6e6f742066756e64206f776e206c6f616e000000600082015250565b60006119e3601d83611557565b91506119ee826119ad565b602082019050919050565b60006020820190508181036000830152611a12816119d6565b9050919050565b7f4e6f2076616c75652073656e7400000000000000000000000000000000000000600082015250565b6000611a4f600d83611557565b9150611a5a82611a19565b602082019050919050565b60006020820190508181036000830152611a7e81611a42565b9050919050565b7f477261636520706572696f642061637469766500000000000000000000000000600082015250565b6000611abb601383611557565b9150611ac682611a85565b602082019050919050565b60006020820190508181036000830152611aea81611aae565b9050919050565b7f4e6f7420796574206f7665726475650000000000000000000000000000000000600082015250565b6000611b27600f83611557565b9150611b3282611af1565b602082019050919050565b60006020820190508181036000830152611b5681611b1a565b9050919050565b6000604082019050611b7260008301856114d4565b611b7f602083018461130e565b939250505056fea264697066735822122040f04c7854fcfbb5f462357e1d11c19f9a37b0d5065ce43ba9b154bc1177046f64736f6c63430008180033a26469706673582212206ac8e5d73870fda19c607d6d61322bb5ef19c83afce94215f1e79400afe88a2764736f6c6343000818003360806040523480156200001157600080fd5b50604051620010af380380620010af8339818101604052810190620000379190620000e9565b80600160006101000a81548173ffffffffffffffffffffffffffffffffffffffff021916908373ffffffffffffffffffffffffffffffffffffffff160217905550506200011b565b600080fd5b600073ffffffffffffffffffffffffffffffffffffffff82169050919050565b6000620000b18262000084565b9050919050565b620000c381620000a4565b8114620000cf57600080fd5b50565b600081519050620000e381620000b8565b92915050565b6000602082840312156200010257620001016200007f565b5b60006200011284828501620000d2565b91505092915050565b610f84806200012b6000396000f3fe608060405234801561001057600080fd5b50600436106100cf5760003560e01c8063b37ed8cd1161008c578063c48f139211610066578063c48f139214610219578063cd4544f214610235578063d47875d014610251578063db2db17714610281576100cf565b8063b37ed8cd146101ad578063bf15e017146101cb578063c0d18843146101e9576100cf565b806319ed29fa146100d4578063469e9067146100f057806364b12355146101255780637effe5681461014157806390b439481461015f57806393e9b13e1461017d575b600080fd5b6100ee60048036038101906100e99190610add565b61029f565b005b61010a60048036038101906101059190610add565b61038a565b60405161011c96959493929190610b23565b60405180910390f35b61013f600480360381019061013a9190610bb0565b6103c6565b005b6101496104b3565b6040516101569190610bf0565b60405180910390f35b6101676104b9565b6040516101749190610bf0565b60405180910390f35b61019760048036038101906101929190610add565b6104be565b6040516101a49190610c26565b60405180910390f35b6101b56104de565b6040516101c29190610c50565b60405180910390f35b6101d3610504565b6040516101e09190610bf0565b60405180910390f35b61020360048036038101906101fe9190610add565b610509565b6040516102109190610bf0565b60405180910390f35b610233600480360381019061022e9190610c97565b6105d0565b005b61024f600480360381019061024a9190610bb0565b61075f565b005b61026b60048036038101906102669190610add565b6108ca565b6040516102789190610bf0565b60405180910390f35b610289610966565b6040516102969190610bf0565b60405180910390f35b600160009054906101000a900473ffffffffffffffffffffffffffffffffffffffff1673ffffffffffffffffffffffffffffffffffffffff163373ffffffffffffffffffffffffffffffffffffffff161461032f576040517f08c379a000000000000000000000000000000000000000000000000000000000815260040161032690610d47565b60405180910390fd5b6001600260008373ffffffffffffffffffffffffffffffffffffffff1673ffffffffffffffffffffffffffffffffffffffff16815260200190815260200160002060006101000a81548160ff02191690831515021790555050565b60006020528060005260406000206000915090508060000154908060010154908060020154908060030154908060040154908060050154905086565b600160009054906101000a900473ffffffffffffffffffffffffffffffffffffffff1673ffffffffffffffffffffffffffffffffffffffff163373ffffffffffffffffffffffffffffffffffffffff1614610456576040517f08c379a000000000000000000000000000000000000000000000000000000000815260040161044d90610d47565b60405180910390fd5b60016000808473ffffffffffffffffffffffffffffffffffffffff1673ffffffffffffffffffffffffffffffffffffffff16815260200190815260200160002060000160008282546104a89190610d96565b925050819055505050565b6101f481565b600281565b60026020528060005260406000206000915054906101000a900460ff1681565b600160009054906101000a900473ffffffffffffffffffffffffffffffffffffffff1681565b603281565b6000803073ffffffffffffffffffffffffffffffffffffffff1663d47875d0846040518263ffffffff1660e01b81526004016105459190610c50565b602060405180830381865afa158015610562573d6000803e3d6000fd5b505050506040513d601f19601f820116820180604052508101906105869190610ddf565b9050610320811061059c576101909150506105cb565b61025881106105b0576103209150506105cb565b61019081106105c4576104b09150506105cb565b6107d09150505b919050565b600160009054906101000a900473ffffffffffffffffffffffffffffffffffffffff1673ffffffffffffffffffffffffffffffffffffffff163373ffffffffffffffffffffffffffffffffffffffff1614806106755750600260003373ffffffffffffffffffffffffffffffffffffffff1673ffffffffffffffffffffffffffffffffffffffff16815260200190815260200160002060009054906101000a900460ff165b6106b4576040517f08c379a00000000000000000000000000000000000000000000000000000000081526004016106ab90610e58565b60405180910390fd5b60008060008573ffffffffffffffffffffffffffffffffffffffff1673ffffffffffffffffffffffffffffffffffffffff1681526020019081526020016000209050600181600101600082825461070b9190610d96565b92505081905550811561073557600181600201600082825461072d9190610d96565b925050819055505b828160040160008282546107499190610d96565b925050819055506107598461096b565b50505050565b600160009054906101000a900473ffffffffffffffffffffffffffffffffffffffff1673ffffffffffffffffffffffffffffffffffffffff163373ffffffffffffffffffffffffffffffffffffffff1614806108045750600260003373ffffffffffffffffffffffffffffffffffffffff1673ffffffffffffffffffffffffffffffffffffffff16815260200190815260200160002060009054906101000a900460ff165b610843576040517f08c379a000000000000000000000000000000000000000000000000000000000815260040161083a90610e58565b60405180910390fd5b60008060008473ffffffffffffffffffffffffffffffffffffffff1673ffffffffffffffffffffffffffffffffffffffff1681526020019081526020016000209050600181600301600082825461089a9190610d96565b92505081905550818160040160008282546108b59190610d96565b925050819055506108c58361096b565b505050565b6000806000808473ffffffffffffffffffffffffffffffffffffffff1673ffffffffffffffffffffffffffffffffffffffff168152602001908152602001600020600501541461095b576000808373ffffffffffffffffffffffffffffffffffffffff1673ffffffffffffffffffffffffffffffffffffffff1681526020019081526020016000206005015461095f565b6101f45b9050919050565b601481565b60008060008373ffffffffffffffffffffffffffffffffffffffff1673ffffffffffffffffffffffffffffffffffffffff16815260200190815260200160002090506000808260010154116109c15760646109e2565b8160010154606483600201546109d79190610e78565b6109e19190610ee9565b5b905060006101f49050601483600101546109fc9190610e78565b81610a079190610d96565b9050600a600283610a189190610e78565b610a229190610ee9565b81610a2d9190610d96565b9050600083600301541115610a5b5760328360030154610a4d9190610e78565b81610a589190610f1a565b90505b60008111610a6a576000610a6c565b805b836005018190555050505050565b600080fd5b600073ffffffffffffffffffffffffffffffffffffffff82169050919050565b6000610aaa82610a7f565b9050919050565b610aba81610a9f565b8114610ac557600080fd5b50565b600081359050610ad781610ab1565b92915050565b600060208284031215610af357610af2610a7a565b5b6000610b0184828501610ac8565b91505092915050565b6000819050919050565b610b1d81610b0a565b82525050565b600060c082019050610b386000830189610b14565b610b456020830188610b14565b610b526040830187610b14565b610b5f6060830186610b14565b610b6c6080830185610b14565b610b7960a0830184610b14565b979650505050505050565b610b8d81610b0a565b8114610b9857600080fd5b50565b600081359050610baa81610b84565b92915050565b60008060408385031215610bc757610bc6610a7a565b5b6000610bd585828601610ac8565b9250506020610be685828601610b9b565b9150509250929050565b6000602082019050610c056000830184610b14565b92915050565b60008115159050919050565b610c2081610c0b565b82525050565b6000602082019050610c3b6000830184610c17565b92915050565b610c4a81610a9f565b82525050565b6000602082019050610c656000830184610c41565b92915050565b610c7481610c0b565b8114610c7f57600080fd5b50565b600081359050610c9181610c6b565b92915050565b600080600060608486031215610cb057610caf610a7a565b5b6000610cbe86828701610ac8565b9350506020610ccf86828701610b9b565b9250506040610ce086828701610c82565b9150509250925092565b600082825260208201905092915050565b7f4f6e6c79204c6f616e466163746f727900000000000000000000000000000000600082015250565b6000610d31601083610cea565b9150610d3c82610cfb565b602082019050919050565b60006020820190508181036000830152610d6081610d24565b9050919050565b7f4e487b7100000000000000000000000000000000000000000000000000000000600052601160045260246000fd5b6000610da182610b0a565b9150610dac83610b0a565b9250828201905080821115610dc457610dc3610d67565b5b92915050565b600081519050610dd981610b84565b92915050565b600060208284031215610df557610df4610a7a565b5b6000610e0384828501610dca565b91505092915050565b7f4f6e6c79204c6f616e466163746f7279206f72204c6f616e0000000000000000600082015250565b6000610e42601883610cea565b9150610e4d82610e0c565b602082019050919050565b60006020820190508181036000830152610e7181610e35565b9050919050565b6000610e8382610b0a565b9150610e8e83610b0a565b9250828202610e9c81610b0a565b91508282048414831517610eb357610eb2610d67565b5b5092915050565b7f4e487b7100000000000000000000000000000000000000000000000000000000600052601260045260246000fd5b6000610ef482610b0a565b9150610eff83610b0a565b925082610f0f57610f0e610eba565b5b828204905092915050565b6000610f2582610b0a565b9150610f3083610b0a565b9250828203905081811115610f4857610f47610d67565b5b9291505056fea26469706673582212202af75853b93b2e540191bc39669e33578107371111971632db5ae4af573221dc64736f6c6343000818003360806040523480156200001157600080fd5b50604051620013203803806200132083398181016040528101906200003791906200012b565b81600260006101000a81548173ffffffffffffffffffffffffffffffffffffffff021916908373ffffffffffffffffffffffffffffffffffffffff16021790555080600360006101000a81548173ffffffffffffffffffffffffffffffffffffffff021916908373ffffffffffffffffffffffffffffffffffffffff160217905550505062000172565b600080fd5b600073ffffffffffffffffffffffffffffffffffffffff82169050919050565b6000620000f382620000c6565b9050919050565b6200010581620000e6565b81146200011157600080fd5b50565b6000815190506200012581620000fa565b92915050565b60008060408385031215620001455762000144620000c1565b5b6000620001558582860162000114565b9250506020620001688582860162000114565b9150509250929050565b61119e80620001826000396000f3fe60806040526004361061008a5760003560e01c80639b96eece116100595780639b96eece14610177578063c45a0155146101b4578063ce7c2ac2146101df578063d0e30db01461021c578063e48f6faf14610226576100c8565b806306fdde03146100cd5780632e1a7d4d146100f857806339da3152146101215780633a98ef391461014c576100c8565b366100c8577f1e132c15b636de64139b91eeab50963c2e7ec57b5d40e21f2639d2c8549c9927346040516100be91906109b0565b60405180910390a1005b600080fd5b3480156100d957600080fd5b506100e261024f565b6040516100ef9190610a5b565b60405180910390f35b34801561010457600080fd5b5061011f600480360381019061011a9190610aae565b610288565b005b34801561012d57600080fd5b506101366104a1565b6040516101439190610b5a565b60405180910390f35b34801561015857600080fd5b506101616104c7565b60405161016e91906109b0565b60405180910390f35b34801561018357600080fd5b5061019e60048036038101906101999190610bb3565b6104cd565b6040516101ab91906109b0565b60405180910390f35b3480156101c057600080fd5b506101c9610541565b6040516101d69190610bef565b60405180910390f35b3480156101eb57600080fd5b5061020660048036038101906102019190610bb3565b610567565b60405161021391906109b0565b60405180910390f35b61022461057f565b005b34801561023257600080fd5b5061024d60048036038101906102489190610c48565b6106c3565b005b6040518060400160405280601981526020017f437265645472757374204c6971756964697479205661756c740000000000000081525081565b6000811180156102d7575080600160003373ffffffffffffffffffffffffffffffffffffffff1673ffffffffffffffffffffffffffffffffffffffff1681526020019081526020016000205410155b610316576040517f08c379a000000000000000000000000000000000000000000000000000000000815260040161030d90610cc1565b60405180910390fd5b6000805447836103269190610d10565b6103309190610d81565b905081600160003373ffffffffffffffffffffffffffffffffffffffff1673ffffffffffffffffffffffffffffffffffffffff16815260200190815260200160002060008282546103819190610db2565b92505081905550816000808282546103999190610db2565b9250508190555060003373ffffffffffffffffffffffffffffffffffffffff16826040516103c690610e17565b60006040518083038185875af1925050503d8060008114610403576040519150601f19603f3d011682016040523d82523d6000602084013e610408565b606091505b505090508061044c576040517f08c379a000000000000000000000000000000000000000000000000000000000815260040161044390610e78565b60405180910390fd5b3373ffffffffffffffffffffffffffffffffffffffff167f92ccf450a286a957af52509bc1c9939d1a6a481783e142e41e2499f0bb66ebc68385604051610494929190610e98565b60405180910390a2505050565b600360009054906101000a900473ffffffffffffffffffffffffffffffffffffffff1681565b60005481565b600080600054036104e1576000905061053c565b60005447600160008573ffffffffffffffffffffffffffffffffffffffff1673ffffffffffffffffffffffffffffffffffffffff1681526020019081526020016000205461052f9190610d10565b6105399190610d81565b90505b919050565b600260009054906101000a900473ffffffffffffffffffffffffffffffffffffffff1681565b60016020528060005260406000206000915090505481565b600034116105c2576040517f08c379a00000000000000000000000000000000000000000000000000000000081526004016105b990610f0d565b60405180910390fd5b600080600054036105d557349050610602565b600034476105e39190610db2565b905080600054346105f49190610d10565b6105fe9190610d81565b9150505b80600160003373ffffffffffffffffffffffffffffffffffffffff1673ffffffffffffffffffffffffffffffffffffffff16815260200190815260200160002060008282546106519190610f2d565b92505081905550806000808282546106699190610f2d565b925050819055503373ffffffffffffffffffffffffffffffffffffffff167f73a19dd210f1a7f902193214c0ee91dd35ee5b4d920cba8d519eca65a7b488ca34836040516106b8929190610e98565b60405180910390a250565b600260009054906101000a900473ffffffffffffffffffffffffffffffffffffffff1673ffffffffffffffffffffffffffffffffffffffff163373ffffffffffffffffffffffffffffffffffffffff1614610753576040517f08c379a000000000000000000000000000000000000000000000000000000000815260040161074a90610fad565b60405180910390fd5b60008190506000600481111561076c5761076b610fcd565b5b8173ffffffffffffffffffffffffffffffffffffffff1663200d2ed26040518163ffffffff1660e01b8152600401602060405180830381865afa1580156107b7573d6000803e3d6000fd5b505050506040513d601f19601f820116820180604052508101906107db9190611021565b60048111156107ed576107ec610fcd565b5b1461082d576040517f08c379a00000000000000000000000000000000000000000000000000000000081526004016108249061109a565b60405180910390fd5b60008173ffffffffffffffffffffffffffffffffffffffff1663ba5d30786040518163ffffffff1660e01b8152600401602060405180830381865afa15801561087a573d6000803e3d6000fd5b505050506040513d601f19601f8201168201806040525081019061089e91906110cf565b9050804710156108e3576040517f08c379a00000000000000000000000000000000000000000000000000000000081526004016108da90611148565b60405180910390fd5b8173ffffffffffffffffffffffffffffffffffffffff1663b60d4288826040518263ffffffff1660e01b81526004016000604051808303818588803b15801561092b57600080fd5b505af115801561093f573d6000803e3d6000fd5b50505050508273ffffffffffffffffffffffffffffffffffffffff167f726d5f1a838fe31748f737fa3ae5539ccff95952adfc593a1299532b643ff7a88260405161098a91906109b0565b60405180910390a2505050565b6000819050919050565b6109aa81610997565b82525050565b60006020820190506109c560008301846109a1565b92915050565b600081519050919050565b600082825260208201905092915050565b60005b83811015610a055780820151818401526020810190506109ea565b60008484015250505050565b6000601f19601f8301169050919050565b6000610a2d826109cb565b610a3781856109d6565b9350610a478185602086016109e7565b610a5081610a11565b840191505092915050565b60006020820190508181036000830152610a758184610a22565b905092915050565b600080fd5b610a8b81610997565b8114610a9657600080fd5b50565b600081359050610aa881610a82565b92915050565b600060208284031215610ac457610ac3610a7d565b5b6000610ad284828501610a99565b91505092915050565b600073ffffffffffffffffffffffffffffffffffffffff82169050919050565b6000819050919050565b6000610b20610b1b610b1684610adb565b610afb565b610adb565b9050919050565b6000610b3282610b05565b9050919050565b6000610b4482610b27565b9050919050565b610b5481610b39565b82525050565b6000602082019050610b6f6000830184610b4b565b92915050565b6000610b8082610adb565b9050919050565b610b9081610b75565b8114610b9b57600080fd5b50565b600081359050610bad81610b87565b92915050565b600060208284031215610bc957610bc8610a7d565b5b6000610bd784828501610b9e565b91505092915050565b610be981610b75565b82525050565b6000602082019050610c046000830184610be0565b92915050565b6000610c1582610adb565b9050919050565b610c2581610c0a565b8114610c3057600080fd5b50565b600081359050610c4281610c1c565b92915050565b600060208284031215610c5e57610c5d610a7d565b5b6000610c6c84828501610c33565b91505092915050565b7f496e76616c696420736861726573000000000000000000000000000000000000600082015250565b6000610cab600e836109d6565b9150610cb682610c75565b602082019050919050565b60006020820190508181036000830152610cda81610c9e565b9050919050565b7f4e487b7100000000000000000000000000000000000000000000000000000000600052601160045260246000fd5b6000610d1b82610997565b9150610d2683610997565b9250828202610d3481610997565b91508282048414831517610d4b57610d4a610ce1565b5b5092915050565b7f4e487b7100000000000000000000000000000000000000000000000000000000600052601260045260246000fd5b6000610d8c82610997565b9150610d9783610997565b925082610da757610da6610d52565b5b828204905092915050565b6000610dbd82610997565b9150610dc883610997565b9250828203905081811115610de057610ddf610ce1565b5b92915050565b600081905092915050565b50565b6000610e01600083610de6565b9150610e0c82610df1565b600082019050919050565b6000610e2282610df4565b9150819050919050565b7f5472616e73666572206661696c65640000000000000000000000000000000000600082015250565b6000610e62600f836109d6565b9150610e6d82610e2c565b602082019050919050565b60006020820190508181036000830152610e9181610e55565b9050919050565b6000604082019050610ead60008301856109a1565b610eba60208301846109a1565b9392505050565b7f4465706f736974206d757374206265203e203000000000000000000000000000600082015250565b6000610ef76013836109d6565b9150610f0282610ec1565b602082019050919050565b60006020820190508181036000830152610f2681610eea565b9050919050565b6000610f3882610997565b9150610f4383610997565b9250828201905080821115610f5b57610f5a610ce1565b5b92915050565b7f4f6e6c7920666163746f72792063616e2066756e64206c6f616e730000000000600082015250565b6000610f97601b836109d6565b9150610fa282610f61565b602082019050919050565b60006020820190508181036000830152610fc681610f8a565b9050919050565b7f4e487b7100000000000000000000000000000000000000000000000000000000600052602160045260246000fd5b6005811061100957600080fd5b50565b60008151905061101b81610ffc565b92915050565b60006020828403121561103757611036610a7d565b5b60006110458482850161100c565b91505092915050565b7f4c6f616e206e6f74207265717565737461626c65000000000000000000000000600082015250565b60006110846014836109d6565b915061108f8261104e565b602082019050919050565b600060208201905081810360008301526110b381611077565b9050919050565b6000815190506110c981610a82565b92915050565b6000602082840312156110e5576110e4610a7d565b5b60006110f3848285016110ba565b91505092915050565b7f496e73756666696369656e7420706f6f6c206c69717569646974790000000000600082015250565b6000611132601b836109d6565b915061113d826110fc565b602082019050919050565b6000602082019050818103600083015261116181611125565b905091905056fea264697066735822122028187992ca286cd7f46682cf8ccbb88e0833c5e72a122f4bacdaa559d0a0aeb764736f6c63430008180033",
  "linkReferences": {},
  "deployedLinkReferences": {}
}