{
  "_format": "hh-sol-artifact-1",
  "contractName": "LendingPool",
  "sourceName": "contracts/LendingPool.sol",
  "abi": [
    {
      "inputs": [
        {
          "internalType": "address",
          "name": "_factory",
          "type": "address"
        },
        {
          "internalType": "address",
          "name": "_creditScore",
          "type": "address"
        }
      ],
      "stateMutability": "nonpayable",
      "type": "constructor"
    },
    {
      "anonymous": false,
      "inputs": [
        {
          "indexed": true,
          "internalType": "address",
          "name": "user",
          "type": "address"
        },
        {
          "indexed": false,
          "internalType": "uint256",
          "name": "amount",
          "type": "uint256"
        },
        {
          "indexed": false,
          "internalType": "uint256",
          "name": "sharesMinted",
          "type": "uint256"
        }
      ],
      "name": "Deposited",
      "type": "event"
    },
    {
      "anonymous": false,
      "inputs": [
        {
          "indexed": false,
          "internalType": "uint256",
          "name": "amount",
          "type": "uint256"
        }
      ],
      "name": "InterestEarned",
      "type": "event"
    },
    {
      "anonymous": false,
      "inputs": [
        {
          "indexed": true,
          "internalType": "address",
          "name": "loan",
          "type": "address"
        },
        {
          "indexed": false,
          "internalType": "uint256",
          "name": "amount",
          "type": "uint256"
        }
      ],
      "name": "LoanFunded",
      "type": "event"
    },
    {
      "anonymous": false,
      "inputs": [
        {
          "indexed": true,
          "internalType": "address",
          "name": "user",
          "type": "address"
        },
        {
          "indexed": false,
          "internalType": "uint256",
          "name": "amount",
          "type": "uint256"
        },
        {
          "indexed": false,
          "internalType": "uint256",
          "name": "sharesBurned",
          "type": "uint256"
        }
      ],
      "name": "Withdrawn",
      "type": "event"
    },
    {
      "inputs": [],
      "name": "creditScore",
      "outputs": [
        {
          "internalType": "contract ICreditScore",
          "name": "",
          "type": "address"
        }
      ],
      "stateMutability": "view",
      "type": "function"
    },
    {
      "inputs": [],
      "name": "deposit",
      "outputs": [],
      "stateMutability": "payable",
      "type": "function"
    },
    {
      "inputs": [],
      "name": "factory",
      "outputs": [
        {
          "internalType": "address",
          "name": "",
          "type": "address"
        }
      ],
      "stateMutability": "view",
      "type": "function"
    },
    {
      "inputs": [
        {
          "internalType": "address payable",
          "name": "loanAddress",
          "type": "address"
        }
      ],
      "name": "fundLoan",
      "outputs": [],
      "stateMutability": "nonpayable",
      "type": "function"
    },
    {
      "inputs": [
        {
          "internalType": "address",
          "name": "user",
          "type": "address"
        }
      ],
      "name": "getBalanceOf",
      "outputs": [
        {
          "internalType": "uint256",
          "name": "",
          "type": "uint256"
        }
      ],
      "stateMutability": "view",
      "type": "function"
    },
    {
      "inputs": [],
      "name": "name",
      "outputs": [
        {
          "internalType": "string",
          "name": "",
          "type": "string"
        }
      ],
      "stateMutability": "view",
      "type": "function"
    },
    {
      "inputs": [
        {
          "internalType": "address",
          "name": "",
          "type": "address"
        }
      ],
      "name": "shares",
      "outputs": [
        {
          "internalType": "uint256",
          "name": "",
          "type": "uint256"
        }
      ],
      "stateMutability": "view",
      "type": "function"
    },
    {
      "inputs": [],
      "name": "totalShares",
      "outputs": [
        {
          "internalType": "uint256",
          "name": "",
          "type": "uint256"
        }
      ],
      "stateMutability": "view",
      "type": "function"
    },
    {
      "inputs": [
        {
          "internalType": "uint256",
          "name": "sharesToBurn",
          "type": "uint256"
        }
      ],
      "name": "withdraw",
      "outputs": [],
      "stateMutability": "nonpayable",
      "type": "function"
    },
    {
      "stateMutability": "payable",
      "type": "receive"
    }
  ],
  "bytecode": "0x60806040523480156200001157600080fd5b50604051620013203803806200132083398181016040528101906200003791906200012b565b81600260006101000a81548173ffffffffffffffffffffffffffffffffffffffff021916908373ffffffffffffffffffffffffffffffffffffffff16021790555080600360006101000a81548173ffffffffffffffffffffffffffffffffffffffff021916908373ffffffffffffffffffffffffffffffffffffffff160217905550505062000172565b600080fd5b600073ffffffffffffffffffffffffffffffffffffffff82169050919050565b6000620000f382620000c6565b9050919050565b6200010581620000e6565b81146200011157600080fd5b50565b6000815190506200012581620000fa565b92915050565b60008060408385031215620001455762000144620000c1565b5b6000620001558582860162000114565b9250506020620001688582860162000114565b9150509250929050565b61119e80620001826000396000f3fe60806040526004361061008a5760003560e01c80639b96eece116100595780639b96eece14610177578063c45a0155146101b4578063ce7c2ac2146101df578063d0e30db01461021c578063e48f6faf14610226576100c8565b806306fdde03146100cd5780632e1a7d4d146100f857806339da3152146101215780633a98ef391461014c576100c8565b366100c8577f1e132c15b636de64139b91eeab50963c2e7ec57b5d40e21f2639d2c8549c9927346040516100be91906109b0565b60405180910390a1005b600080fd5b3480156100d957600080fd5b506100e261024f565b6040516100ef9190610a5b565b60405180910390f35b34801561010457600080fd5b5061011f600480360381019061011a9190610aae565b610288565b005b34801561012d57600080fd5b506101366104a1565b6040516101439190610b5a565b60405180910390f35b34801561015857600080fd5b506101616104c7565b60405161016e91906109b0565b60405180910390f35b34801561018357600080fd5b5061019e60048036038101906101999190610bb3565b6104cd565b6040516101ab91906109b0565b60405180910390f35b3480156101c057600080fd5b506101c9610541565b6040516101d69190610bef565b60405180910390f35b3480156101eb57600080fd5b5061020660048036038101906102019190610bb3565b610567565b60405161021391906109b0565b60405180910390f35b61022461057f565b005b34801561023257600080fd5b5061024d60048036038101906102489190610c48565b6106c3565b005b6040518060400160405280601981526020017f437265645472757374204c6971756964697479205661756c740000000000000081525081565b6000811180156102d7575080600160003373ffffffffffffffffffffffffffffffffffffffff1673ffffffffffffffffffffffffffffffffffffffff1681526020019081526020016000205410155b610316576040517f08c379a000000000000000000000000000000000000000000000000000000000815260040161030d90610cc1565b60405180910390fd5b6000805447836103269190610d10565b6103309190610d81565b905081600160003373ffffffffffffffffffffffffffffffffffffffff1673ffffffffffffffffffffffffffffffffffffffff16815260200190815260200160002060008282546103819190610db2565b92505081905550816000808282546103999190610db2565b9250508190555060003373ffffffffffffffffffffffffffffffffffffffff16826040516103c690610e17565b60006040518083038185875af1925050503d8060008114610403576040519150601f19603f3d011682016040523d82523d6000602084013e610408565b606091505b505090508061044c576040517f08c379a000000000000000000000000000000000000000000000000000000000815260040161044390610e78565b60405180910390fd5b3373ffffffffffffffffffffffffffffffffffffffff167f92ccf450a286a957af52509bc1c9939d1a6a481783e142e41e2499f0bb66ebc68385604051610494929190610e98565b60405180910390a2505050565b600360009054906101000a900473ffffffffffffffffffffffffffffffffffffffff1681565b60005481565b600080600054036104e1576000905061053c565b60005447600160008573ffffffffffffffffffffffffffffffffffffffff1673ffffffffffffffffffffffffffffffffffffffff1681526020019081526020016000205461052f9190610d10565b6105399190610d81565b90505b919050565b600260009054906101000a900473ffffffffffffffffffffffffffffffffffffffff1681565b60016020528060005260406000206000915090505481565b600034116105c2576040517f08c379a00000000000000000000000000000000000000000000000000000000081526004016105b990610f0d565b60405180910390fd5b600080600054036105d557349050610602565b600034476105e39190610db2565b905080600054346105f49190610d10565b6105fe9190610d81565b9150505b80600160003373ffffffffffffffffffffffffffffffffffffffff1673ffffffffffffffffffffffffffffffffffffffff16815260200190815260200160002060008282546106519190610f2d565b92505081905550806000808282546106699190610f2d565b925050819055503373ffffffffffffffffffffffffffffffffffffffff167f73a19dd210f1a7f902193214c0ee91dd35ee5b4d920cba8d519eca65a7b488ca34836040516106b8929190610e98565b60405180910390a250565b600260009054906101000a900473ffffffffffffffffffffffffffffffffffffffff1673ffffffffffffffffffffffffffffffffffffffff163373ffffffffffffffffffffffffffffffffffffffff1614610753576040517f08c379a000000000000000000000000000000000000000000000000000000000815260040161074a90610fad565b60405180910390fd5b60008190506000600481111561076c5761076b610fcd565b5b8173ffffffffffffffffffffffffffffffffffffffff1663200d2ed26040518163ffffffff1660e01b8152600401602060405180830381865afa1580156107b7573d6000803e3d6000fd5b505050506040513d601f19601f820116820180604052508101906107db9190611021565b60048111156107ed576107ec610fcd565b5b1461082d576040517f08c379a00000000000000000000000000000000000000000000000000000000081526004016108249061109a565b60405180910390fd5b60008173ffffffffffffffffffffffffffffffffffffffff1663ba5d30786040518163ffffffff1660e01b8152600401602060405180830381865afa15801561087a573d6000803e3d6000fd5b505050506040513d601f19601f8201168201806040525081019061089e91906110cf565b9050804710156108e3576040517f08c379a00000000000000000000000000000000000000000000000000000000081526004016108da90611148565b60405180910390fd5b8173ffffffffffffffffffffffffffffffffffffffff1663b60d4288826040518263ffffffff1660e01b81526004016000604051808303818588803b15801561092b57600080fd5b505af115801561093f573d6000803e3d6000fd5b50505050508273ffffffffffffffffffffffffffffffffffffffff167f726d5f1a838fe31748f737fa3ae5539ccff95952adfc593a1299532b643ff7a88260405161098a91906109b0565b60405180910390a2505050565b6000819050919050565b6109aa81610997565b82525050565b60006020820190506109c560008301846109a1565b92915050565b600081519050919050565b600082825260208201905092915050565b60005b83811015610a055780820151818401526020810190506109ea565b60008484015250505050565b6000601f19601f8301169050919050565b6000610a2d826109cb565b610a3781856109d6565b9350610a478185602086016109e7565b610a5081610a11565b840191505092915050565b60006020820190508181036000830152610a758184610a22565b905092915050565b600080fd5b610a8b81610997565b8114610a9657600080fd5b50565b600081359050610aa881610a82565b92915050565b600060208284031215610ac457610ac3610a7d565b5b6000610ad284828501610a99565b91505092915050565b600073ffffffffffffffffffffffffffffffffffffffff82169050919050565b6000819050919050565b6000610b20610b1b610b1684610adb565b610afb565b610adb565b9050919050565b6000610b3282610b05565b9050919050565b6000610b4482610b27565b9050919050565b610b5481610b39565b82525050565b6000602082019050610b6f6000830184610b4b565b92915050565b6000610b8082610adb565b9050919050565b610b9081610b75565b8114610b9b57600080fd5b50565b600081359050610bad81610b87565b92915050565b600060208284031215610bc957610bc8610a7d565b5b6000610bd784828501610b9e565b91505092915050565b610be981610b75565b82525050565b6000602082019050610c046000830184610be0565b92915050565b6000610c1582610adb565b9050919050565b610c2581610c0a565b8114610c3057600080fd5b50565b600081359050610c4281610c1c565b92915050565b600060208284031215610c5e57610c5d610a7d565b5b6000610c6c84828501610c33565b91505092915050565b7f496e76616c696420736861726573000000000000000000000000000000000000600082015250565b6000610cab600e836109d6565b9150610cb682610c75565b602082019050919050565b60006020820190508181036000830152610cda81610c9e565b9050919050565b7f4e487b7100000000000000000000000000000000000000000000000000000000600052601160045260246000fd5b6000610d1b82610997565b9150610d2683610997565b9250828202610d3481610997565b91508282048414831517610d4b57610d4a610ce1565b5b5092915050565b7f4e487b7100000000000000000000000000000000000000000000000000000000600052601260045260246000fd5b6000610d8c82610997565b9150610d9783610997565b925082610da757610da6610d52565b5b828204905092915050565b6000610dbd82610997565b9150610dc883610997565b9250828203905081811115610de057610ddf610ce1565b5b92915050565b600081905092915050565b50565b6000610e01600083610de6565b9150610e0c82610df1565b600082019050919050565b6000610e2282610df4565b9150819050919050565b7f5472616e73666572206661696c65640000000000000000000000000000000000600082015250565b6000610e62600f836109d6565b9150610e6d82610e2c565b602082019050919050565b60006020820190508181036000830152610e9181610e55565b9050919050565b6000604082019050610ead60008301856109a1565b610eba60208301846109a1565b9392505050565b7f4465706f736974206d757374206265203e203000000000000000000000000000600082015250565b6000610ef76013836109d6565b9150610f0282610ec1565b602082019050919050565b60006020820190508181036000830152610f2681610eea565b9050919050565b6000610f3882610997565b9150610f4383610997565b9250828201905080821115610f5b57610f5a610ce1565b5b92915050565b7f4f6e6c7920666163746f72792063616e2066756e64206c6f616e730000000000600082015250565b6000610f97601b836109d6565b9150610fa282610f61565b602082019050919050565b60006020820190508181036000830152610fc681610f8a565b9050919050565b7f4e487b7100000000000000000000000000000000000000000000000000000000600052602160045260246000fd5b6005811061100957600080fd5b50565b60008151905061101b81610ffc565b92915050565b60006020828403121561103757611036610a7d565b5b60006110458482850161100c565b91505092915050565b7f4c6f616e206e6f74207265717565737461626c65000000000000000000000000600082015250565b60006110846014836109d6565b915061108f8261104e565b602082019050919050565b600060208201905081810360008301526110b381611077565b9050919050565b6000815190506110c981610a82565b92915050565b6000602082840312156110e5576110e4610a7d565b5b60006110f3848285016110ba565b91505092915050565b7f496e73756666696369656e7420706f6f6c206c69717569646974790000000000600082015250565b6000611132601b836109d6565b915061113d826110fc565b602082019050919050565b6000602082019050818103600083015261116181611125565b905091905056fea264697066735822122028187992ca286cd7f46682cf8ccbb88e0833c5e72a122f4bacdaa559d0a0aeb764736f6c63430008180033",
  "linkReferences": {},
  "deployedLinkReferences": {}
}